{
  "contractName": "Baskets",
  "abi": [
    {
      "inputs": [
        {
          "internalType": "contract Bread",
          "name": "_breadToken",
          "type": "address"
        }
      ],
      "stateMutability": "nonpayable",
      "type": "constructor"
    },
    {
      "anonymous": false,
      "inputs": [
        {
          "indexed": false,
          "internalType": "string",
          "name": "domain",
          "type": "string"
        },
        {
          "components": [
            {
              "internalType": "address",
              "name": "account",
              "type": "address"
            },
            {
              "internalType": "string",
              "name": "domain",
              "type": "string"
            },
            {
              "internalType": "uint256",
              "name": "amount",
              "type": "uint256"
            },
            {
              "internalType": "uint256",
              "name": "price",
              "type": "uint256"
            }
          ],
          "indexed": false,
          "internalType": "struct Baskets.Basket[]",
          "name": "baskets",
          "type": "tuple[]"
        },
        {
          "indexed": false,
          "internalType": "uint256",
          "name": "count",
          "type": "uint256"
        }
      ],
      "name": "BasketsFoundEvent",
      "type": "event"
    },
    {
      "anonymous": false,
      "inputs": [
        {
          "indexed": false,
          "internalType": "address",
          "name": "account",
          "type": "address"
        },
        {
          "indexed": false,
          "internalType": "string",
          "name": "domain",
          "type": "string"
        },
        {
          "indexed": false,
          "internalType": "uint256",
          "name": "amount",
          "type": "uint256"
        },
        {
          "indexed": false,
          "internalType": "uint256",
          "name": "price",
          "type": "uint256"
        }
      ],
      "name": "CreateBasketEvent",
      "type": "event"
    },
    {
      "anonymous": false,
      "inputs": [
        {
          "indexed": false,
          "internalType": "address",
          "name": "account",
          "type": "address"
        },
        {
          "indexed": false,
          "internalType": "string",
          "name": "domain",
          "type": "string"
        }
      ],
      "name": "DeleteBasketEvent",
      "type": "event"
    },
    {
      "anonymous": false,
      "inputs": [
        {
          "indexed": false,
          "internalType": "address",
          "name": "fromAccount",
          "type": "address"
        },
        {
          "indexed": false,
          "internalType": "address",
          "name": "toAccount",
          "type": "address"
        },
        {
          "indexed": false,
          "internalType": "uint256",
          "name": "price",
          "type": "uint256"
        },
        {
          "indexed": false,
          "internalType": "bool",
          "name": "paid",
          "type": "bool"
        },
        {
          "indexed": false,
          "internalType": "uint256",
          "name": "date",
          "type": "uint256"
        }
      ],
      "name": "PaymentEvent",
      "type": "event"
    },
    {
      "anonymous": false,
      "inputs": [
        {
          "indexed": false,
          "internalType": "address",
          "name": "account",
          "type": "address"
        },
        {
          "indexed": false,
          "internalType": "string",
          "name": "domain",
          "type": "string"
        },
        {
          "indexed": false,
          "internalType": "uint256",
          "name": "amount",
          "type": "uint256"
        },
        {
          "indexed": false,
          "internalType": "uint256",
          "name": "price",
          "type": "uint256"
        }
      ],
      "name": "RetrieveBasketEvent",
      "type": "event"
    },
    {
      "anonymous": false,
      "inputs": [
        {
          "indexed": false,
          "internalType": "address",
          "name": "account",
          "type": "address"
        },
        {
          "indexed": false,
          "internalType": "string",
          "name": "domain",
          "type": "string"
        },
        {
          "indexed": false,
          "internalType": "uint256",
          "name": "amount",
          "type": "uint256"
        },
        {
          "indexed": false,
          "internalType": "uint256",
          "name": "price",
          "type": "uint256"
        }
      ],
      "name": "UpdateBasketEvent",
      "type": "event"
    },
    {
      "inputs": [
        {
          "internalType": "string",
          "name": "",
          "type": "string"
        }
      ],
      "name": "baskets",
      "outputs": [
        {
          "internalType": "address",
          "name": "account",
          "type": "address"
        },
        {
          "internalType": "string",
          "name": "domain",
          "type": "string"
        },
        {
          "internalType": "uint256",
          "name": "amount",
          "type": "uint256"
        },
        {
          "internalType": "uint256",
          "name": "price",
          "type": "uint256"
        }
      ],
      "stateMutability": "view",
      "type": "function"
    },
    {
      "inputs": [
        {
          "internalType": "uint256",
          "name": "",
          "type": "uint256"
        }
      ],
      "name": "basketsIndex",
      "outputs": [
        {
          "internalType": "string",
          "name": "",
          "type": "string"
        }
      ],
      "stateMutability": "view",
      "type": "function"
    },
    {
      "inputs": [],
      "name": "breadToken",
      "outputs": [
        {
          "internalType": "contract Bread",
          "name": "",
          "type": "address"
        }
      ],
      "stateMutability": "view",
      "type": "function"
    },
    {
      "inputs": [],
      "name": "name",
      "outputs": [
        {
          "internalType": "string",
          "name": "",
          "type": "string"
        }
      ],
      "stateMutability": "view",
      "type": "function"
    },
    {
      "inputs": [
        {
          "internalType": "string",
          "name": "_domain",
          "type": "string"
        },
        {
          "internalType": "uint256",
          "name": "_amount",
          "type": "uint256"
        },
        {
          "internalType": "uint256",
          "name": "_price",
          "type": "uint256"
        }
      ],
      "name": "createBasket",
      "outputs": [
        {
          "components": [
            {
              "internalType": "address",
              "name": "account",
              "type": "address"
            },
            {
              "internalType": "string",
              "name": "domain",
              "type": "string"
            },
            {
              "internalType": "uint256",
              "name": "amount",
              "type": "uint256"
            },
            {
              "internalType": "uint256",
              "name": "price",
              "type": "uint256"
            }
          ],
          "internalType": "struct Baskets.Basket",
          "name": "basket",
          "type": "tuple"
        }
      ],
      "stateMutability": "nonpayable",
      "type": "function"
    },
    {
      "inputs": [
        {
          "internalType": "string",
          "name": "_domain",
          "type": "string"
        }
      ],
      "name": "getBasket",
      "outputs": [
        {
          "components": [
            {
              "internalType": "address",
              "name": "account",
              "type": "address"
            },
            {
              "internalType": "string",
              "name": "domain",
              "type": "string"
            },
            {
              "internalType": "uint256",
              "name": "amount",
              "type": "uint256"
            },
            {
              "internalType": "uint256",
              "name": "price",
              "type": "uint256"
            }
          ],
          "internalType": "struct Baskets.Basket",
          "name": "basket",
          "type": "tuple"
        }
      ],
      "stateMutability": "nonpayable",
      "type": "function"
    },
    {
      "inputs": [
        {
          "internalType": "string",
          "name": "_domain",
          "type": "string"
        },
        {
          "internalType": "uint256",
          "name": "_amount",
          "type": "uint256"
        },
        {
          "internalType": "uint256",
          "name": "_price",
          "type": "uint256"
        }
      ],
      "name": "updateBasket",
      "outputs": [
        {
          "components": [
            {
              "internalType": "address",
              "name": "account",
              "type": "address"
            },
            {
              "internalType": "string",
              "name": "domain",
              "type": "string"
            },
            {
              "internalType": "uint256",
              "name": "amount",
              "type": "uint256"
            },
            {
              "internalType": "uint256",
              "name": "price",
              "type": "uint256"
            }
          ],
          "internalType": "struct Baskets.Basket",
          "name": "basket",
          "type": "tuple"
        }
      ],
      "stateMutability": "nonpayable",
      "type": "function"
    },
    {
      "inputs": [
        {
          "internalType": "string",
          "name": "_domain",
          "type": "string"
        }
      ],
      "name": "deleteBasket",
      "outputs": [
        {
          "internalType": "bool",
          "name": "success",
          "type": "bool"
        }
      ],
      "stateMutability": "nonpayable",
      "type": "function"
    },
    {
      "inputs": [],
      "name": "countBaskets",
      "outputs": [
        {
          "internalType": "uint256",
          "name": "length",
          "type": "uint256"
        }
      ],
      "stateMutability": "view",
      "type": "function"
    },
    {
      "inputs": [],
      "name": "getAllBaskets",
      "outputs": [
        {
          "components": [
            {
              "internalType": "address",
              "name": "account",
              "type": "address"
            },
            {
              "internalType": "string",
              "name": "domain",
              "type": "string"
            },
            {
              "internalType": "uint256",
              "name": "amount",
              "type": "uint256"
            },
            {
              "internalType": "uint256",
              "name": "price",
              "type": "uint256"
            }
          ],
          "internalType": "struct Baskets.Basket[]",
          "name": "",
          "type": "tuple[]"
        }
      ],
      "stateMutability": "view",
      "type": "function"
    },
    {
      "inputs": [
        {
          "internalType": "string",
          "name": "_domain",
          "type": "string"
        }
      ],
      "name": "findBaskets",
      "outputs": [
        {
          "components": [
            {
              "internalType": "address",
              "name": "account",
              "type": "address"
            },
            {
              "internalType": "string",
              "name": "domain",
              "type": "string"
            },
            {
              "internalType": "uint256",
              "name": "amount",
              "type": "uint256"
            },
            {
              "internalType": "uint256",
              "name": "price",
              "type": "uint256"
            }
          ],
          "internalType": "struct Baskets.Basket[]",
          "name": "",
          "type": "tuple[]"
        }
      ],
      "stateMutability": "nonpayable",
      "type": "function"
    },
    {
      "inputs": [
        {
          "components": [
            {
              "internalType": "string",
              "name": "sessionId",
              "type": "string"
            },
            {
              "internalType": "string",
              "name": "domain",
              "type": "string"
            },
            {
              "internalType": "uint256",
              "name": "date",
              "type": "uint256"
            },
            {
              "internalType": "uint256",
              "name": "paymentsCount",
              "type": "uint256"
            }
          ],
          "internalType": "struct Crumbs.Crumb",
          "name": "_crumb",
          "type": "tuple"
        },
        {
          "components": [
            {
              "internalType": "address",
              "name": "fromAccount",
              "type": "address"
            },
            {
              "internalType": "address",
              "name": "toAccount",
              "type": "address"
            },
            {
              "internalType": "uint256",
              "name": "price",
              "type": "uint256"
            },
            {
              "internalType": "bool",
              "name": "paid",
              "type": "bool"
            },
            {
              "internalType": "uint256",
              "name": "date",
              "type": "uint256"
            }
          ],
          "internalType": "struct Crumbs.Payment",
          "name": "_payment",
          "type": "tuple"
        }
      ],
      "name": "pay",
      "outputs": [
        {
          "internalType": "bool",
          "name": "success",
          "type": "bool"
        }
      ],
      "stateMutability": "nonpayable",
      "type": "function"
    }
  ],
  "bytecode": "0x60806040526040518060400160405280601081526020017f4261736b65747320436f6e7472616374000000000000000000000000000000008152506000908051906020019062000051929190620000cd565b503480156200005f57600080fd5b506040516200360b3803806200360b8339818101604052810190620000859190620001fb565b80600160006101000a81548173ffffffffffffffffffffffffffffffffffffffff021916908373ffffffffffffffffffffffffffffffffffffffff1602179055505062000292565b828054620000db906200025c565b90600052602060002090601f016020900481019282620000ff57600085556200014b565b82601f106200011a57805160ff19168380011785556200014b565b828001600101855582156200014b579182015b828111156200014a5782518255916020019190600101906200012d565b5b5090506200015a91906200015e565b5090565b5b80821115620001795760008160009055506001016200015f565b5090565b600080fd5b600073ffffffffffffffffffffffffffffffffffffffff82169050919050565b6000620001af8262000182565b9050919050565b6000620001c382620001a2565b9050919050565b620001d581620001b6565b8114620001e157600080fd5b50565b600081519050620001f581620001ca565b92915050565b6000602082840312156200021457620002136200017d565b5b60006200022484828501620001e4565b91505092915050565b7f4e487b7100000000000000000000000000000000000000000000000000000000600052602260045260246000fd5b600060028204905060018216806200027557607f821691505b602082108114156200028c576200028b6200022d565b5b50919050565b61336980620002a26000396000f3fe608060405234801561001057600080fd5b50600436106100b45760003560e01c8063610730b311610071578063610730b3146101b5578063874af3b5146101d3578063928d5c8b14610203578063a5046eb214610233578063af469bc514610263578063b6ae037114610296576100b4565b806306fdde03146100b95780630dde7403146100d75780633651eb281461010757806347b177e0146101375780634ec3f49c146101555780635b31878114610185575b600080fd5b6100c16102b4565b6040516100ce9190612024565b60405180910390f35b6100f160048036038101906100ec919061218f565b610342565b6040516100fe91906122df565b60405180910390f35b610121600480360381019061011c91906124d7565b610555565b60405161012e9190612542565b60405180910390f35b61013f61086a565b60405161014c91906125bc565b60405180910390f35b61016f600480360381019061016a91906125d7565b610890565b60405161017c91906122df565b60405180910390f35b61019f600480360381019061019a91906125d7565b610bf9565b6040516101ac91906122df565b60405180910390f35b6101bd61107f565b6040516101ca9190612655565b60405180910390f35b6101ed60048036038101906101e8919061218f565b61108c565b6040516101fa9190612795565b60405180910390f35b61021d600480360381019061021891906127b7565b611474565b60405161022a9190612024565b60405180910390f35b61024d6004803603810190610248919061218f565b611520565b60405161025a9190612542565b60405180910390f35b61027d6004803603810190610278919061218f565b611843565b60405161028d94939291906127f3565b60405180910390f35b61029e611931565b6040516102ab9190612795565b60405180910390f35b600080546102c19061286e565b80601f01602080910402602001604051908101604052809291908181526020018280546102ed9061286e565b801561033a5780601f1061030f5761010080835404028352916020019161033a565b820191906000526020600020905b81548152906001019060200180831161031d57829003601f168201915b505050505081565b61034a611ddd565b60005b600380549050811015610514576002600382815481106103705761036f6128a0565b5b90600052602060002001604051610387919061296e565b90815260200160405180910390206040518060800160405290816000820160009054906101000a900473ffffffffffffffffffffffffffffffffffffffff1673ffffffffffffffffffffffffffffffffffffffff1673ffffffffffffffffffffffffffffffffffffffff1681526020016001820180546104069061286e565b80601f01602080910402602001604051908101604052809291908181526020018280546104329061286e565b801561047f5780601f106104545761010080835404028352916020019161047f565b820191906000526020600020905b81548152906001019060200180831161046257829003601f168201915b505050505081526020016002820154815260200160038201548152505091506104a9828433611b1b565b15610501577fbb97f580538d699a92c89b8672a9da813f704c38232682c49b74e38c0dfd01d082600001518360200151846040015185606001516040516104f394939291906127f3565b60405180910390a150610550565b808061050c906129b4565b91505061034d565b506040517f08c379a000000000000000000000000000000000000000000000000000000000815260040161054790612a6f565b60405180910390fd5b919050565b60008061056a83600001518560200151611b55565b905060028160405161057c9190612ac0565b9081526020016040518091039020600301548360400151146105d3576040517f08c379a00000000000000000000000000000000000000000000000000000000081526004016105ca90612b49565b60405180910390fd5b82604001516002826040516105e89190612ac0565b908152602001604051809103902060020154101561063b576040517f08c379a000000000000000000000000000000000000000000000000000000000815260040161063290612c01565b60405180910390fd5b8260400151600160009054906101000a900473ffffffffffffffffffffffffffffffffffffffff1673ffffffffffffffffffffffffffffffffffffffff166370a0823185600001516040518263ffffffff1660e01b815260040161069f9190612c21565b602060405180830381865afa1580156106bc573d6000803e3d6000fd5b505050506040513d601f19601f820116820180604052508101906106e09190612c51565b1015610721576040517f08c379a000000000000000000000000000000000000000000000000000000000815260040161071890612d16565b60405180910390fd5b600160009054906101000a900473ffffffffffffffffffffffffffffffffffffffff1673ffffffffffffffffffffffffffffffffffffffff166323b872dd8460000151856020015186604001516040518463ffffffff1660e01b815260040161078c93929190612d36565b6020604051808303816000875af11580156107ab573d6000803e3d6000fd5b505050506040513d601f19601f820116820180604052508101906107cf9190612d82565b915081156108145782604001516002826040516107ec9190612ac0565b9081526020016040518091039020600201600082825461080c9190612daf565b925050819055505b7f34c7c3ed2626bf544768a2ece52d21db778122dcca570e65005cc3e0bba9b8aa83600001518460200151856040015185876080015160405161085b959493929190612de3565b60405180910390a15092915050565b600160009054906101000a900473ffffffffffffffffffffffffffffffffffffffff1681565b610898611ddd565b600083116108db576040517f08c379a00000000000000000000000000000000000000000000000000000000081526004016108d290612ea8565b60405180910390fd5b6000821161091e576040517f08c379a000000000000000000000000000000000000000000000000000000000815260040161091590612f3a565b60405180910390fd5b81831015610961576040517f08c379a000000000000000000000000000000000000000000000000000000000815260040161095890612ff2565b60405180910390fd5b81600160009054906101000a900473ffffffffffffffffffffffffffffffffffffffff1673ffffffffffffffffffffffffffffffffffffffff166370a08231336040518263ffffffff1660e01b81526004016109bd9190612c21565b602060405180830381865afa1580156109da573d6000803e3d6000fd5b505050506040513d601f19601f820116820180604052508101906109fe9190612c51565b11610a3e576040517f08c379a0000000000000000000000000000000000000000000000000000000008152600401610a3590613084565b60405180910390fd5b60405180608001604052803373ffffffffffffffffffffffffffffffffffffffff168152602001858152602001848152602001838152509050610a8081611b81565b15610ac0576040517f08c379a0000000000000000000000000000000000000000000000000000000008152600401610ab790613116565b60405180910390fd5b6000610acc3386611b55565b9050600381908060018154018082558091505060019003906000526020600020016000909190919091509080519060200190610b09929190611e1b565b5081600282604051610b1b9190612ac0565b908152602001604051809103902060008201518160000160006101000a81548173ffffffffffffffffffffffffffffffffffffffff021916908373ffffffffffffffffffffffffffffffffffffffff1602179055506020820151816001019080519060200190610b8c929190611e1b565b5060408201518160020155606082015181600301559050507f0801691679cfb8134a43fa7861190b685105258fe3c1bb623dda184b0d4434b68260000151836020015184604001518560600151604051610be994939291906127f3565b60405180910390a1509392505050565b610c01611ddd565b60008311610c44576040517f08c379a0000000000000000000000000000000000000000000000000000000008152600401610c3b90612ea8565b60405180910390fd5b60008211610c87576040517f08c379a0000000000000000000000000000000000000000000000000000000008152600401610c7e90612f3a565b60405180910390fd5b81831015610cca576040517f08c379a0000000000000000000000000000000000000000000000000000000008152600401610cc190612ff2565b60405180910390fd5b81600160009054906101000a900473ffffffffffffffffffffffffffffffffffffffff1673ffffffffffffffffffffffffffffffffffffffff166370a08231336040518263ffffffff1660e01b8152600401610d269190612c21565b602060405180830381865afa158015610d43573d6000803e3d6000fd5b505050506040513d601f19601f82011682018060405250810190610d679190612c51565b11610da7576040517f08c379a0000000000000000000000000000000000000000000000000000000008152600401610d9e906131a8565b60405180910390fd5b60005b60038054905081101561103c57600260038281548110610dcd57610dcc6128a0565b5b90600052602060002001604051610de4919061296e565b90815260200160405180910390206040518060800160405290816000820160009054906101000a900473ffffffffffffffffffffffffffffffffffffffff1673ffffffffffffffffffffffffffffffffffffffff1673ffffffffffffffffffffffffffffffffffffffff168152602001600182018054610e639061286e565b80601f0160208091040260200160405190810160405280929190818152602001828054610e8f9061286e565b8015610edc5780601f10610eb157610100808354040283529160200191610edc565b820191906000526020600020905b815481529060010190602001808311610ebf57829003601f168201915b50505050508152602001600282015481526020016003820154815250509150610f06828633611b1b565b1561102957838260400181815250508282606001818152505081600260038381548110610f3657610f356128a0565b5b90600052602060002001604051610f4d919061296e565b908152602001604051809103902060008201518160000160006101000a81548173ffffffffffffffffffffffffffffffffffffffff021916908373ffffffffffffffffffffffffffffffffffffffff1602179055506020820151816001019080519060200190610fbe929190611e1b565b5060408201518160020155606082015181600301559050507f9498e2c1df20bd0a62d33b7a577b14a55c0ae406f24259cbec731ec06853dcd2826000015183602001518460400151856060015160405161101b94939291906127f3565b60405180910390a150611078565b8080611034906129b4565b915050610daa565b506040517f08c379a000000000000000000000000000000000000000000000000000000000815260040161106f90612a6f565b60405180910390fd5b9392505050565b6000600380549050905090565b60606000805b6003805490508110156112215760006002600383815481106110b7576110b66128a0565b5b906000526020600020016040516110ce919061296e565b90815260200160405180910390206040518060800160405290816000820160009054906101000a900473ffffffffffffffffffffffffffffffffffffffff1673ffffffffffffffffffffffffffffffffffffffff1673ffffffffffffffffffffffffffffffffffffffff16815260200160018201805461114d9061286e565b80601f01602080910402602001604051908101604052809291908181526020018280546111799061286e565b80156111c65780601f1061119b576101008083540402835291602001916111c6565b820191906000526020600020905b8154815290600101906020018083116111a957829003601f168201915b5050505050815260200160028201548152602001600382015481525050905060006111f5826020015187611d4b565b9050801561120c578380611208906129b4565b9450505b50508080611219906129b4565b915050611092565b5060008167ffffffffffffffff81111561123e5761123d612064565b5b60405190808252806020026020018201604052801561127757816020015b611264611ddd565b81526020019060019003908161125c5790505b5090506000805b60038054905081101561142c5760006002600383815481106112a3576112a26128a0565b5b906000526020600020016040516112ba919061296e565b90815260200160405180910390206040518060800160405290816000820160009054906101000a900473ffffffffffffffffffffffffffffffffffffffff1673ffffffffffffffffffffffffffffffffffffffff1673ffffffffffffffffffffffffffffffffffffffff1681526020016001820180546113399061286e565b80601f01602080910402602001604051908101604052809291908181526020018280546113659061286e565b80156113b25780601f10611387576101008083540402835291602001916113b2565b820191906000526020600020905b81548152906001019060200180831161139557829003601f168201915b5050505050815260200160028201548152602001600382015481525050905060006113e1826020015189611d4b565b9050801561141757818585815181106113fd576113fc6128a0565b5b60200260200101819052508380611413906129b4565b9450505b50508080611424906129b4565b91505061127e565b507fb34b4db557b520cc63fd8f413decfc1cd48bb82a83c9e11a7489f835cfa674f885838451604051611461939291906131c8565b60405180910390a1819350505050919050565b6003818154811061148457600080fd5b90600052602060002001600091509050805461149f9061286e565b80601f01602080910402602001604051908101604052809291908181526020018280546114cb9061286e565b80156115185780601f106114ed57610100808354040283529160200191611518565b820191906000526020600020905b8154815290600101906020018083116114fb57829003601f168201915b505050505081565b6000806003805490501161153357600080fd5b61153b611ddd565b60005b60038054905081101561180257600260038281548110611561576115606128a0565b5b90600052602060002001604051611578919061296e565b90815260200160405180910390206040518060800160405290816000820160009054906101000a900473ffffffffffffffffffffffffffffffffffffffff1673ffffffffffffffffffffffffffffffffffffffff1673ffffffffffffffffffffffffffffffffffffffff1681526020016001820180546115f79061286e565b80601f01602080910402602001604051908101604052809291908181526020018280546116239061286e565b80156116705780601f1061164557610100808354040283529160200191611670565b820191906000526020600020905b81548152906001019060200180831161165357829003601f168201915b5050505050815260200160028201548152602001600382015481525050915061169a828533611b1b565b156117ef5760006116ab3386611b55565b9050600360016003805490506116c19190612daf565b815481106116d2576116d16128a0565b5b90600052602060002001600383815481106116f0576116ef6128a0565b5b906000526020600020019080546117069061286e565b611711929190611ea1565b5060038054806117245761172361320d565b5b6001900381819060005260206000200160006117409190611f2e565b90556002816040516117529190612ac0565b9081526020016040518091039020600080820160006101000a81549073ffffffffffffffffffffffffffffffffffffffff02191690556001820160006117989190611f2e565b6002820160009055600382016000905550507ff0c2d0d673597e908a86064a9fdc7e747000197e5205bf1e8f9c064b86ef617833866040516117db92919061323c565b60405180910390a16001935050505061183e565b80806117fa906129b4565b91505061153e565b506040517f08c379a000000000000000000000000000000000000000000000000000000000815260040161183590612a6f565b60405180910390fd5b919050565b6002818051602081018201805184825260208301602085012081835280955050505050506000915090508060000160009054906101000a900473ffffffffffffffffffffffffffffffffffffffff16908060010180546118a29061286e565b80601f01602080910402602001604051908101604052809291908181526020018280546118ce9061286e565b801561191b5780601f106118f05761010080835404028352916020019161191b565b820191906000526020600020905b8154815290600101906020018083116118fe57829003601f168201915b5050505050908060020154908060030154905084565b6060600060038054905067ffffffffffffffff81111561195457611953612064565b5b60405190808252806020026020018201604052801561198d57816020015b61197a611ddd565b8152602001906001900390816119725790505b50905060005b600380549050811015611b13576002600382815481106119b6576119b56128a0565b5b906000526020600020016040516119cd919061296e565b90815260200160405180910390206040518060800160405290816000820160009054906101000a900473ffffffffffffffffffffffffffffffffffffffff1673ffffffffffffffffffffffffffffffffffffffff1673ffffffffffffffffffffffffffffffffffffffff168152602001600182018054611a4c9061286e565b80601f0160208091040260200160405190810160405280929190818152602001828054611a789061286e565b8015611ac55780601f10611a9a57610100808354040283529160200191611ac5565b820191906000526020600020905b815481529060010190602001808311611aa857829003601f168201915b5050505050815260200160028201548152602001600382015481525050828281518110611af557611af46128a0565b5b60200260200101819052508080611b0b906129b4565b915050611993565b508091505090565b600080611b2c856020015185611d4b565b90506000611b3e866000015185611da4565b9050818015611b4a5750805b925050509392505050565b60608282604051602001611b6a929190613300565b604051602081830303815290604052905092915050565b600080611b9683600001518460200151611b55565b905060006003805490501415611bb0576000915050611d46565b6000805b600380549050811015611c9457600060038281548110611bd757611bd66128a0565b5b906000526020600020018054611bec9061286e565b80601f0160208091040260200160405190810160405280929190818152602001828054611c189061286e565b8015611c655780601f10611c3a57610100808354040283529160200191611c65565b820191906000526020600020905b815481529060010190602001808311611c4857829003601f168201915b50505050509050611c768185611d4b565b15611c8057600192505b508080611c8c906129b4565b915050611bb4565b50600015158115151415611cad57600092505050611d46565b6000846000015173ffffffffffffffffffffffffffffffffffffffff16600284604051611cda9190612ac0565b908152602001604051809103902060000160009054906101000a900473ffffffffffffffffffffffffffffffffffffffff1673ffffffffffffffffffffffffffffffffffffffff16149050600015158115151415611d3e5760009350505050611d46565b600193505050505b919050565b600081604051602001611d5e9190612ac0565b6040516020818303038152906040528051906020012083604051602001611d859190612ac0565b6040516020818303038152906040528051906020012014905092915050565b60008173ffffffffffffffffffffffffffffffffffffffff168373ffffffffffffffffffffffffffffffffffffffff1614905092915050565b6040518060800160405280600073ffffffffffffffffffffffffffffffffffffffff1681526020016060815260200160008152602001600081525090565b828054611e279061286e565b90600052602060002090601f016020900481019282611e495760008555611e90565b82601f10611e6257805160ff1916838001178555611e90565b82800160010185558215611e90579182015b82811115611e8f578251825591602001919060010190611e74565b5b509050611e9d9190611f6e565b5090565b828054611ead9061286e565b90600052602060002090601f016020900481019282611ecf5760008555611f1d565b82601f10611ee05780548555611f1d565b82800160010185558215611f1d57600052602060002091601f016020900482015b82811115611f1c578254825591600101919060010190611f01565b5b509050611f2a9190611f6e565b5090565b508054611f3a9061286e565b6000825580601f10611f4c5750611f6b565b601f016020900490600052602060002090810190611f6a9190611f6e565b5b50565b5b80821115611f87576000816000905550600101611f6f565b5090565b600081519050919050565b600082825260208201905092915050565b60005b83811015611fc5578082015181840152602081019050611faa565b83811115611fd4576000848401525b50505050565b6000601f19601f8301169050919050565b6000611ff682611f8b565b6120008185611f96565b9350612010818560208601611fa7565b61201981611fda565b840191505092915050565b6000602082019050818103600083015261203e8184611feb565b905092915050565b6000604051905090565b600080fd5b600080fd5b600080fd5b600080fd5b7f4e487b7100000000000000000000000000000000000000000000000000000000600052604160045260246000fd5b61209c82611fda565b810181811067ffffffffffffffff821117156120bb576120ba612064565b5b80604052505050565b60006120ce612046565b90506120da8282612093565b919050565b600067ffffffffffffffff8211156120fa576120f9612064565b5b61210382611fda565b9050602081019050919050565b82818337600083830152505050565b600061213261212d846120df565b6120c4565b90508281526020810184848401111561214e5761214d61205f565b5b612159848285612110565b509392505050565b600082601f8301126121765761217561205a565b5b813561218684826020860161211f565b91505092915050565b6000602082840312156121a5576121a4612050565b5b600082013567ffffffffffffffff8111156121c3576121c2612055565b5b6121cf84828501612161565b91505092915050565b600073ffffffffffffffffffffffffffffffffffffffff82169050919050565b6000612203826121d8565b9050919050565b612213816121f8565b82525050565b600082825260208201905092915050565b600061223582611f8b565b61223f8185612219565b935061224f818560208601611fa7565b61225881611fda565b840191505092915050565b6000819050919050565b61227681612263565b82525050565b6000608083016000830151612294600086018261220a565b50602083015184820360208601526122ac828261222a565b91505060408301516122c1604086018261226d565b5060608301516122d4606086018261226d565b508091505092915050565b600060208201905081810360008301526122f9818461227c565b905092915050565b600080fd5b600080fd5b61231481612263565b811461231f57600080fd5b50565b6000813590506123318161230b565b92915050565b60006080828403121561234d5761234c612301565b5b61235760806120c4565b9050600082013567ffffffffffffffff81111561237757612376612306565b5b61238384828501612161565b600083015250602082013567ffffffffffffffff8111156123a7576123a6612306565b5b6123b384828501612161565b60208301525060406123c784828501612322565b60408301525060606123db84828501612322565b60608301525092915050565b6123f0816121f8565b81146123fb57600080fd5b50565b60008135905061240d816123e7565b92915050565b60008115159050919050565b61242881612413565b811461243357600080fd5b50565b6000813590506124458161241f565b92915050565b600060a0828403121561246157612460612301565b5b61246b60a06120c4565b9050600061247b848285016123fe565b600083015250602061248f848285016123fe565b60208301525060406124a384828501612322565b60408301525060606124b784828501612436565b60608301525060806124cb84828501612322565b60808301525092915050565b60008060c083850312156124ee576124ed612050565b5b600083013567ffffffffffffffff81111561250c5761250b612055565b5b61251885828601612337565b92505060206125298582860161244b565b9150509250929050565b61253c81612413565b82525050565b60006020820190506125576000830184612533565b92915050565b6000819050919050565b600061258261257d612578846121d8565b61255d565b6121d8565b9050919050565b600061259482612567565b9050919050565b60006125a682612589565b9050919050565b6125b68161259b565b82525050565b60006020820190506125d160008301846125ad565b92915050565b6000806000606084860312156125f0576125ef612050565b5b600084013567ffffffffffffffff81111561260e5761260d612055565b5b61261a86828701612161565b935050602061262b86828701612322565b925050604061263c86828701612322565b9150509250925092565b61264f81612263565b82525050565b600060208201905061266a6000830184612646565b92915050565b600081519050919050565b600082825260208201905092915050565b6000819050602082019050919050565b60006080830160008301516126b4600086018261220a565b50602083015184820360208601526126cc828261222a565b91505060408301516126e1604086018261226d565b5060608301516126f4606086018261226d565b508091505092915050565b600061270b838361269c565b905092915050565b6000602082019050919050565b600061272b82612670565b612735818561267b565b9350836020820285016127478561268c565b8060005b85811015612783578484038952815161276485826126ff565b945061276f83612713565b925060208a0199505060018101905061274b565b50829750879550505050505092915050565b600060208201905081810360008301526127af8184612720565b905092915050565b6000602082840312156127cd576127cc612050565b5b60006127db84828501612322565b91505092915050565b6127ed816121f8565b82525050565b600060808201905061280860008301876127e4565b818103602083015261281a8186611feb565b90506128296040830185612646565b6128366060830184612646565b95945050505050565b7f4e487b7100000000000000000000000000000000000000000000000000000000600052602260045260246000fd5b6000600282049050600182168061288657607f821691505b6020821081141561289a5761289961283f565b5b50919050565b7f4e487b7100000000000000000000000000000000000000000000000000000000600052603260045260246000fd5b600081905092915050565b60008190508160005260206000209050919050565b600081546128fc8161286e565b61290681866128cf565b94506001821660008114612921576001811461293257612965565b60ff19831686528186019350612965565b61293b856128da565b60005b8381101561295d5781548189015260018201915060208101905061293e565b838801955050505b50505092915050565b600061297a82846128ef565b915081905092915050565b7f4e487b7100000000000000000000000000000000000000000000000000000000600052601160045260246000fd5b60006129bf82612263565b91507fffffffffffffffffffffffffffffffffffffffffffffffffffffffffffffffff8214156129f2576129f1612985565b5b600182019050919050565b7f4261736b65747320436f6e74726163743a204261736b6574206e6f7420666f7560008201527f6e64000000000000000000000000000000000000000000000000000000000000602082015250565b6000612a59602283611f96565b9150612a64826129fd565b604082019050919050565b60006020820190508181036000830152612a8881612a4c565b9050919050565b6000612a9a82611f8b565b612aa481856128cf565b9350612ab4818560208601611fa7565b80840191505092915050565b6000612acc8284612a8f565b915081905092915050565b7f4261736b65747320436f6e74726163743a204372756d62207061796d656e742060008201527f616e64206261736b6574207072696365206d69736d6174636800000000000000602082015250565b6000612b33603983611f96565b9150612b3e82612ad7565b604082019050919050565b60006020820190508181036000830152612b6281612b26565b9050919050565b7f4261736b65747320436f6e74726163743a204e6f7420656e6f7567687420425260008201527f45414420696e206261736b657420746f20706572666f726d207468652070617960208201527f6d656e7400000000000000000000000000000000000000000000000000000000604082015250565b6000612beb604483611f96565b9150612bf682612b69565b606082019050919050565b60006020820190508181036000830152612c1a81612bde565b9050919050565b6000602082019050612c3660008301846127e4565b92915050565b600081519050612c4b8161230b565b92915050565b600060208284031215612c6757612c66612050565b5b6000612c7584828501612c3c565b91505092915050565b7f4261736b65747320436f6e74726163743a204e6f7420656e6f7567687420425260008201527f45414420696e206f726967696e206163636f756e7420746f20706572666f726d60208201527f20746865207061796d656e740000000000000000000000000000000000000000604082015250565b6000612d00604c83611f96565b9150612d0b82612c7e565b606082019050919050565b60006020820190508181036000830152612d2f81612cf3565b9050919050565b6000606082019050612d4b60008301866127e4565b612d5860208301856127e4565b612d656040830184612646565b949350505050565b600081519050612d7c8161241f565b92915050565b600060208284031215612d9857612d97612050565b5b6000612da684828501612d6d565b91505092915050565b6000612dba82612263565b9150612dc583612263565b925082821015612dd857612dd7612985565b5b828203905092915050565b600060a082019050612df860008301886127e4565b612e0560208301876127e4565b612e126040830186612646565b612e1f6060830185612533565b612e2c6080830184612646565b9695505050505050565b7f4261736b65747320436f6e74726163743a204261736b657420616d6f756e742060008201527f73686f756c642062652067726561746572207468616e20300000000000000000602082015250565b6000612e92603883611f96565b9150612e9d82612e36565b604082019050919050565b60006020820190508181036000830152612ec181612e85565b9050919050565b7f4261736b65747320436f6e74726163743a204261736b6574207072696365207360008201527f686f756c642062652067726561746572207468616e2030000000000000000000602082015250565b6000612f24603783611f96565b9150612f2f82612ec8565b604082019050919050565b60006020820190508181036000830152612f5381612f17565b9050919050565b7f4261736b65747320436f6e74726163743a204261736b657420616d6f756e742060008201527f73686f756c642062652067726561746572206f7220657175616c207468616e2060208201527f7072696365000000000000000000000000000000000000000000000000000000604082015250565b6000612fdc604583611f96565b9150612fe782612f5a565b606082019050919050565b6000602082019050818103600083015261300b81612fcf565b9050919050565b7f4261736b65747320436f6e74726163743a20496e73756666696369656e74204260008201527f5245414420746f206372656174652061206272656164206261736b6574000000602082015250565b600061306e603d83611f96565b915061307982613012565b604082019050919050565b6000602082019050818103600083015261309d81613061565b9050919050565b7f4261736b65747320436f6e74726163743a204261736b657420616c726561647960008201527f2065786973747300000000000000000000000000000000000000000000000000602082015250565b6000613100602783611f96565b915061310b826130a4565b604082019050919050565b6000602082019050818103600083015261312f816130f3565b9050919050565b7f4261736b65747320436f6e74726163743a20496e73756666696369656e74204260008201527f5245414420746f207570646174652061206272656164206261736b6574000000602082015250565b6000613192603d83611f96565b915061319d82613136565b604082019050919050565b600060208201905081810360008301526131c181613185565b9050919050565b600060608201905081810360008301526131e28186611feb565b905081810360208301526131f68185612720565b90506132056040830184612646565b949350505050565b7f4e487b7100000000000000000000000000000000000000000000000000000000600052603160045260246000fd5b600060408201905061325160008301856127e4565b81810360208301526132638184611feb565b90509392505050565b60008160601b9050919050565b60006132848261326c565b9050919050565b600061329682613279565b9050919050565b6132ae6132a9826121f8565b61328b565b82525050565b7f2d00000000000000000000000000000000000000000000000000000000000000600082015250565b60006132ea6001836128cf565b91506132f5826132b4565b600182019050919050565b600061330c828561329d565b60148201915061331b826132dd565b91506133278284612a8f565b9150819050939250505056fea264697066735822122073f2eadb4c24207a77975e528c1b76cd557a7cfba33111f0fc888def1d32ec4064736f6c634300080a0033",
  "immutableReferences": {},
  "source": "pragma solidity ^0.8.10;\n\nimport \"./Bread.sol\";\nimport \"./Crumbs.sol\";\n\ncontract Baskets {\n    string public name = \"Baskets Contract\";\n\n    Bread public breadToken;\n\n    struct Basket {\n        address account;\n        string domain;\n        uint256 amount;\n        uint256 price;\n    }\n\n    mapping(string => Basket) public baskets;\n    string[] public basketsIndex;\n\n    event CreateBasketEvent(\n        address account,\n        string domain,\n        uint256 amount,\n        uint256 price\n    );\n    event RetrieveBasketEvent(\n        address account,\n        string domain,\n        uint256 amount,\n        uint256 price\n    );\n    event UpdateBasketEvent(\n        address account,\n        string domain,\n        uint256 amount,\n        uint256 price\n    );\n    event DeleteBasketEvent(address account, string domain);\n    event BasketsFoundEvent(string domain, Basket[] baskets, uint256 count);\n    event PaymentEvent(\n        address fromAccount,\n        address toAccount,\n        uint256 price,\n        bool paid,\n        uint256 date\n    );\n\n    // TODO: Add PaymentEvent.date\n\n    constructor(Bread _breadToken) {\n        breadToken = _breadToken;\n    }\n\n    function createBasket(\n        string memory _domain,\n        uint256 _amount,\n        uint256 _price\n    ) public returns (Basket memory basket) {\n        require(\n            _amount > 0,\n            \"Baskets Contract: Basket amount should be greater than 0\"\n        );\n\n        require(\n            _price > 0,\n            \"Baskets Contract: Basket price should be greater than 0\"\n        );\n\n        require(\n            _amount >= _price,\n            \"Baskets Contract: Basket amount should be greater or equal than price\"\n        );\n\n        require(\n            breadToken.balanceOf(msg.sender) > _price,\n            \"Baskets Contract: Insufficient BREAD to create a bread basket\"\n        );\n\n        basket = Basket(msg.sender, _domain, _amount, _price);\n\n        require(!_exists(basket), \"Baskets Contract: Basket already exists\");\n\n        string memory basketKey = _getKey(msg.sender, _domain);\n        basketsIndex.push(basketKey);\n        baskets[basketKey] = basket;\n\n        emit CreateBasketEvent(\n            basket.account,\n            basket.domain,\n            basket.amount,\n            basket.price\n        );\n\n        return basket;\n    }\n\n    function getBasket(string memory _domain)\n        public\n        returns (Basket memory basket)\n    {\n        for (uint256 i = 0; i < basketsIndex.length; i++) {\n            basket = baskets[basketsIndex[i]];\n            if (_checkBasket(basket, _domain, msg.sender)) {\n                emit RetrieveBasketEvent(\n                    basket.account,\n                    basket.domain,\n                    basket.amount,\n                    basket.price\n                );\n                return basket;\n            }\n        }\n\n        revert(\"Baskets Contract: Basket not found\");\n    }\n\n    function updateBasket(\n        string memory _domain,\n        uint256 _amount,\n        uint256 _price\n    ) public returns (Basket memory basket) {\n        require(\n            _amount > 0,\n            \"Baskets Contract: Basket amount should be greater than 0\"\n        );\n\n        require(\n            _price > 0,\n            \"Baskets Contract: Basket price should be greater than 0\"\n        );\n\n        require(\n            _amount >= _price,\n            \"Baskets Contract: Basket amount should be greater or equal than price\"\n        );\n\n        require(\n            breadToken.balanceOf(msg.sender) > _price,\n            \"Baskets Contract: Insufficient BREAD to update a bread basket\"\n        );\n\n        for (uint256 i = 0; i < basketsIndex.length; i++) {\n            basket = baskets[basketsIndex[i]];\n            if (_checkBasket(basket, _domain, msg.sender)) {\n                basket.amount = _amount;\n                basket.price = _price;\n                baskets[basketsIndex[i]] = basket;\n\n                emit UpdateBasketEvent(\n                    basket.account,\n                    basket.domain,\n                    basket.amount,\n                    basket.price\n                );\n                return basket;\n            }\n        }\n\n        revert(\"Baskets Contract: Basket not found\");\n    }\n\n    function deleteBasket(string memory _domain) public returns (bool success) {\n        require(basketsIndex.length > 0);\n\n        Basket memory basket;\n\n        for (uint256 i = 0; i < basketsIndex.length; i++) {\n            basket = baskets[basketsIndex[i]];\n            if (_checkBasket(basket, _domain, msg.sender)) {\n                string memory basketKey = _getKey(msg.sender, _domain);\n\n                // Delete from array\n                basketsIndex[i] = basketsIndex[basketsIndex.length - 1];\n                basketsIndex.pop();\n\n                // Delete from mapping\n                delete baskets[basketKey];\n\n                emit DeleteBasketEvent(msg.sender, _domain);\n                return true;\n            }\n        }\n\n        revert(\"Baskets Contract: Basket not found\");\n    }\n\n    function countBaskets() public view returns (uint256 length) {\n        return basketsIndex.length;\n    }\n\n    function getAllBaskets() public view returns (Basket[] memory) {\n        Basket[] memory allBaskets = new Basket[](basketsIndex.length);\n\n        for (uint256 i = 0; i < basketsIndex.length; i++) {\n            allBaskets[i] = baskets[basketsIndex[i]];\n        }\n\n        return allBaskets;\n    }\n\n    function findBaskets(string memory _domain)\n        public\n        returns (Basket[] memory)\n    {\n        uint256 basketsFoundCount = 0;\n\n        for (uint256 i = 0; i < basketsIndex.length; i++) {\n            Basket memory basket = baskets[basketsIndex[i]];\n            bool sameDomain = _compareStrings(basket.domain, _domain);\n\n            if (sameDomain) {\n                basketsFoundCount++;\n            }\n        }\n\n        Basket[] memory domainBaskets = new Basket[](basketsFoundCount);\n        uint256 basketFoundIndex = 0;\n\n        for (uint256 i = 0; i < basketsIndex.length; i++) {\n            Basket memory basket = baskets[basketsIndex[i]];\n            bool sameDomain = _compareStrings(basket.domain, _domain);\n\n            if (sameDomain) {\n                domainBaskets[basketFoundIndex] = basket;\n                basketFoundIndex++;\n            }\n        }\n\n        emit BasketsFoundEvent(_domain, domainBaskets, domainBaskets.length);\n\n        return domainBaskets;\n    }\n\n    function pay(Crumbs.Crumb memory _crumb, Crumbs.Payment memory _payment)\n        public\n        returns (bool success)\n    {\n        string memory basketKey = _getKey(_payment.fromAccount, _crumb.domain);\n\n        require(\n            _payment.price == baskets[basketKey].price,\n            \"Baskets Contract: Crumb payment and basket price mismatch\"\n        );\n\n        require(\n            baskets[basketKey].amount >= _payment.price,\n            \"Baskets Contract: Not enought BREAD in basket to perform the payment\"\n        );\n\n        require(\n            breadToken.balanceOf(_payment.fromAccount) >= _payment.price,\n            \"Baskets Contract: Not enought BREAD in origin account to perform the payment\"\n        );\n\n        success = breadToken.transferFrom(\n            _payment.fromAccount,\n            _payment.toAccount,\n            _payment.price\n        );\n\n        if (success) {\n            baskets[basketKey].amount -= _payment.price;\n        }\n\n        emit PaymentEvent(\n            _payment.fromAccount,\n            _payment.toAccount,\n            _payment.price,\n            success,\n            _payment.date\n        );\n\n        return success;\n    }\n\n    function _getKey(address _account, string memory _domain)\n        internal\n        pure\n        returns (string memory)\n    {\n        return string(abi.encodePacked(_account, \"-\", _domain));\n    }\n\n    function _checkBasket(\n        Basket memory _basket,\n        string memory _domain,\n        address _account\n    ) internal pure returns (bool) {\n        bool sameDomain = _compareStrings(_basket.domain, _domain);\n        bool sameAccount = _compareAccounts(_basket.account, _account);\n\n        return (sameDomain && sameAccount);\n    }\n\n    function _exists(Basket memory _basket) internal view returns (bool) {\n        string memory basketKey = _getKey(_basket.account, _basket.domain);\n\n        if (basketsIndex.length == 0) return false;\n\n        bool existsInIndex = false;\n        for (uint256 i = 0; i < basketsIndex.length; i++) {\n            string memory basketIndex = basketsIndex[i];\n            if (_compareStrings(basketIndex, basketKey)) {\n                existsInIndex = true;\n            }\n        }\n        if (existsInIndex == false) return false;\n\n        bool existsInMapping = baskets[basketKey].account == _basket.account;\n        if (existsInMapping == false) return false;\n\n        return true;\n    }\n\n    function _compareStrings(string memory _a, string memory _b)\n        internal\n        pure\n        returns (bool)\n    {\n        return\n            keccak256(abi.encodePacked(_a)) == keccak256(abi.encodePacked(_b));\n    }\n\n    function _compareAccounts(address _a, address _b)\n        internal\n        pure\n        returns (bool)\n    {\n        return _a == _b;\n    }\n}\n",
  "sourcePath": "/Users/junquera/Projects/BreadCrumbsDapp/backend/contracts/Baskets.sol",
  "compiler": {
    "name": "solc",
    "version": "0.8.10+commit.fc410830.Emscripten.clang"
  },
  "schemaVersion": "3.4.3",
  "updatedAt": "2022-03-07T09:42:29.498Z",
  "devdoc": {
    "kind": "dev",
    "methods": {},
    "version": 1
  },
  "userdoc": {
    "kind": "user",
    "methods": {},
    "version": 1
  }
}