{
  "contractName": "Bread",
  "abi": [
    {
      "inputs": [],
      "stateMutability": "nonpayable",
      "type": "constructor"
    },
    {
      "anonymous": false,
      "inputs": [
        {
          "indexed": true,
          "internalType": "address",
          "name": "owner",
          "type": "address"
        },
        {
          "indexed": true,
          "internalType": "address",
          "name": "spender",
          "type": "address"
        },
        {
          "indexed": false,
          "internalType": "uint256",
          "name": "value",
          "type": "uint256"
        }
      ],
      "name": "Approval",
      "type": "event"
    },
    {
      "anonymous": false,
      "inputs": [
        {
          "indexed": true,
          "internalType": "address",
          "name": "previousOwner",
          "type": "address"
        },
        {
          "indexed": true,
          "internalType": "address",
          "name": "newOwner",
          "type": "address"
        }
      ],
      "name": "OwnershipTransferred",
      "type": "event"
    },
    {
      "anonymous": false,
      "inputs": [
        {
          "indexed": false,
          "internalType": "address",
          "name": "account",
          "type": "address"
        }
      ],
      "name": "Paused",
      "type": "event"
    },
    {
      "anonymous": false,
      "inputs": [
        {
          "indexed": true,
          "internalType": "address",
          "name": "from",
          "type": "address"
        },
        {
          "indexed": true,
          "internalType": "address",
          "name": "to",
          "type": "address"
        },
        {
          "indexed": false,
          "internalType": "uint256",
          "name": "value",
          "type": "uint256"
        }
      ],
      "name": "Transfer",
      "type": "event"
    },
    {
      "anonymous": false,
      "inputs": [
        {
          "indexed": false,
          "internalType": "address",
          "name": "account",
          "type": "address"
        }
      ],
      "name": "Unpaused",
      "type": "event"
    },
    {
      "inputs": [],
      "name": "DOMAIN_SEPARATOR",
      "outputs": [
        {
          "internalType": "bytes32",
          "name": "",
          "type": "bytes32"
        }
      ],
      "stateMutability": "view",
      "type": "function",
      "constant": true
    },
    {
      "inputs": [
        {
          "internalType": "address",
          "name": "owner",
          "type": "address"
        },
        {
          "internalType": "address",
          "name": "spender",
          "type": "address"
        }
      ],
      "name": "allowance",
      "outputs": [
        {
          "internalType": "uint256",
          "name": "",
          "type": "uint256"
        }
      ],
      "stateMutability": "view",
      "type": "function",
      "constant": true
    },
    {
      "inputs": [
        {
          "internalType": "address",
          "name": "spender",
          "type": "address"
        },
        {
          "internalType": "uint256",
          "name": "amount",
          "type": "uint256"
        }
      ],
      "name": "approve",
      "outputs": [
        {
          "internalType": "bool",
          "name": "",
          "type": "bool"
        }
      ],
      "stateMutability": "nonpayable",
      "type": "function"
    },
    {
      "inputs": [
        {
          "internalType": "address",
          "name": "account",
          "type": "address"
        }
      ],
      "name": "balanceOf",
      "outputs": [
        {
          "internalType": "uint256",
          "name": "",
          "type": "uint256"
        }
      ],
      "stateMutability": "view",
      "type": "function",
      "constant": true
    },
    {
      "inputs": [
        {
          "internalType": "uint256",
          "name": "amount",
          "type": "uint256"
        }
      ],
      "name": "burn",
      "outputs": [],
      "stateMutability": "nonpayable",
      "type": "function"
    },
    {
      "inputs": [
        {
          "internalType": "address",
          "name": "account",
          "type": "address"
        },
        {
          "internalType": "uint256",
          "name": "amount",
          "type": "uint256"
        }
      ],
      "name": "burnFrom",
      "outputs": [],
      "stateMutability": "nonpayable",
      "type": "function"
    },
    {
      "inputs": [],
      "name": "decimals",
      "outputs": [
        {
          "internalType": "uint8",
          "name": "",
          "type": "uint8"
        }
      ],
      "stateMutability": "view",
      "type": "function",
      "constant": true
    },
    {
      "inputs": [
        {
          "internalType": "address",
          "name": "spender",
          "type": "address"
        },
        {
          "internalType": "uint256",
          "name": "subtractedValue",
          "type": "uint256"
        }
      ],
      "name": "decreaseAllowance",
      "outputs": [
        {
          "internalType": "bool",
          "name": "",
          "type": "bool"
        }
      ],
      "stateMutability": "nonpayable",
      "type": "function"
    },
    {
      "inputs": [
        {
          "internalType": "address",
          "name": "spender",
          "type": "address"
        },
        {
          "internalType": "uint256",
          "name": "addedValue",
          "type": "uint256"
        }
      ],
      "name": "increaseAllowance",
      "outputs": [
        {
          "internalType": "bool",
          "name": "",
          "type": "bool"
        }
      ],
      "stateMutability": "nonpayable",
      "type": "function"
    },
    {
      "inputs": [],
      "name": "name",
      "outputs": [
        {
          "internalType": "string",
          "name": "",
          "type": "string"
        }
      ],
      "stateMutability": "view",
      "type": "function",
      "constant": true
    },
    {
      "inputs": [
        {
          "internalType": "address",
          "name": "owner",
          "type": "address"
        }
      ],
      "name": "nonces",
      "outputs": [
        {
          "internalType": "uint256",
          "name": "",
          "type": "uint256"
        }
      ],
      "stateMutability": "view",
      "type": "function",
      "constant": true
    },
    {
      "inputs": [],
      "name": "owner",
      "outputs": [
        {
          "internalType": "address",
          "name": "",
          "type": "address"
        }
      ],
      "stateMutability": "view",
      "type": "function",
      "constant": true
    },
    {
      "inputs": [],
      "name": "paused",
      "outputs": [
        {
          "internalType": "bool",
          "name": "",
          "type": "bool"
        }
      ],
      "stateMutability": "view",
      "type": "function",
      "constant": true
    },
    {
      "inputs": [
        {
          "internalType": "address",
          "name": "owner",
          "type": "address"
        },
        {
          "internalType": "address",
          "name": "spender",
          "type": "address"
        },
        {
          "internalType": "uint256",
          "name": "value",
          "type": "uint256"
        },
        {
          "internalType": "uint256",
          "name": "deadline",
          "type": "uint256"
        },
        {
          "internalType": "uint8",
          "name": "v",
          "type": "uint8"
        },
        {
          "internalType": "bytes32",
          "name": "r",
          "type": "bytes32"
        },
        {
          "internalType": "bytes32",
          "name": "s",
          "type": "bytes32"
        }
      ],
      "name": "permit",
      "outputs": [],
      "stateMutability": "nonpayable",
      "type": "function"
    },
    {
      "inputs": [],
      "name": "renounceOwnership",
      "outputs": [],
      "stateMutability": "nonpayable",
      "type": "function"
    },
    {
      "inputs": [],
      "name": "symbol",
      "outputs": [
        {
          "internalType": "string",
          "name": "",
          "type": "string"
        }
      ],
      "stateMutability": "view",
      "type": "function",
      "constant": true
    },
    {
      "inputs": [],
      "name": "totalSupply",
      "outputs": [
        {
          "internalType": "uint256",
          "name": "",
          "type": "uint256"
        }
      ],
      "stateMutability": "view",
      "type": "function",
      "constant": true
    },
    {
      "inputs": [
        {
          "internalType": "address",
          "name": "recipient",
          "type": "address"
        },
        {
          "internalType": "uint256",
          "name": "amount",
          "type": "uint256"
        }
      ],
      "name": "transfer",
      "outputs": [
        {
          "internalType": "bool",
          "name": "",
          "type": "bool"
        }
      ],
      "stateMutability": "nonpayable",
      "type": "function"
    },
    {
      "inputs": [
        {
          "internalType": "address",
          "name": "sender",
          "type": "address"
        },
        {
          "internalType": "address",
          "name": "recipient",
          "type": "address"
        },
        {
          "internalType": "uint256",
          "name": "amount",
          "type": "uint256"
        }
      ],
      "name": "transferFrom",
      "outputs": [
        {
          "internalType": "bool",
          "name": "",
          "type": "bool"
        }
      ],
      "stateMutability": "nonpayable",
      "type": "function"
    },
    {
      "inputs": [
        {
          "internalType": "address",
          "name": "newOwner",
          "type": "address"
        }
      ],
      "name": "transferOwnership",
      "outputs": [],
      "stateMutability": "nonpayable",
      "type": "function"
    },
    {
      "inputs": [],
      "name": "pause",
      "outputs": [],
      "stateMutability": "nonpayable",
      "type": "function"
    },
    {
      "inputs": [],
      "name": "unpause",
      "outputs": [],
      "stateMutability": "nonpayable",
      "type": "function"
    }
  ],
  "bytecode": "0x6101606040527f6e71edae12b1b97f4d1f60370fef10105fa2faae0126114a169c64845d6126c9610140908152503480156200003a57600080fd5b506040518060400160405280600581526020017f4272656164000000000000000000000000000000000000000000000000000000815250806040518060400160405280600181526020017f31000000000000000000000000000000000000000000000000000000000000008152506040518060400160405280600581526020017f42726561640000000000000000000000000000000000000000000000000000008152506040518060400160405280600581526020017f425245414400000000000000000000000000000000000000000000000000000081525081600390805190602001906200012c92919062000598565b5080600490805190602001906200014592919062000598565b5050506000600560006101000a81548160ff02191690831515021790555062000183620001776200027b60201b60201c565b6200028360201b60201c565b60008280519060200120905060008280519060200120905060007f8b73c3c69bb8fe3d512ecc4cf759cc79239f7b179b0ffacaa9a75d522b39400f90508260e081815250508161010081815250504660a08181525050620001ec8184846200034960201b60201c565b608081815250503073ffffffffffffffffffffffffffffffffffffffff1660c08173ffffffffffffffffffffffffffffffffffffffff168152505080610120818152505050505050505062000275336200024b6200038560201b60201c565b600a620002599190620007e2565b620f424062000269919062000833565b6200038e60201b60201c565b62000b36565b600033905090565b6000600560019054906101000a900473ffffffffffffffffffffffffffffffffffffffff16905081600560016101000a81548173ffffffffffffffffffffffffffffffffffffffff021916908373ffffffffffffffffffffffffffffffffffffffff1602179055508173ffffffffffffffffffffffffffffffffffffffff168173ffffffffffffffffffffffffffffffffffffffff167f8be0079c531659141344cd1fd0a4f28419497f9722a3daafe3b4186f6b6457e060405160405180910390a35050565b600083838346306040516020016200036695949392919062000905565b6040516020818303038152906040528051906020012090509392505050565b60006012905090565b600073ffffffffffffffffffffffffffffffffffffffff168273ffffffffffffffffffffffffffffffffffffffff16141562000401576040517f08c379a0000000000000000000000000000000000000000000000000000000008152600401620003f890620009c3565b60405180910390fd5b62000415600083836200050760201b60201c565b8060026000828254620004299190620009e5565b92505081905550806000808473ffffffffffffffffffffffffffffffffffffffff1673ffffffffffffffffffffffffffffffffffffffff1681526020019081526020016000206000828254620004809190620009e5565b925050819055508173ffffffffffffffffffffffffffffffffffffffff16600073ffffffffffffffffffffffffffffffffffffffff167fddf252ad1be2c89b69c2b068fc378daa952ba7f163c4a11628f55a4df523b3ef83604051620004e7919062000a42565b60405180910390a362000503600083836200057760201b60201c565b5050565b620005176200057c60201b60201c565b156200055a576040517f08c379a0000000000000000000000000000000000000000000000000000000008152600401620005519062000aaf565b60405180910390fd5b620005728383836200059360201b62000df51760201c565b505050565b505050565b6000600560009054906101000a900460ff16905090565b505050565b828054620005a69062000b00565b90600052602060002090601f016020900481019282620005ca576000855562000616565b82601f10620005e557805160ff191683800117855562000616565b8280016001018555821562000616579182015b8281111562000615578251825591602001919060010190620005f8565b5b50905062000625919062000629565b5090565b5b80821115620006445760008160009055506001016200062a565b5090565b7f4e487b7100000000000000000000000000000000000000000000000000000000600052601160045260246000fd5b60008160011c9050919050565b6000808291508390505b6001851115620006d657808604811115620006ae57620006ad62000648565b5b6001851615620006be5780820291505b8081029050620006ce8562000677565b94506200068e565b94509492505050565b600082620006f15760019050620007c4565b81620007015760009050620007c4565b81600181146200071a576002811462000725576200075b565b6001915050620007c4565b60ff8411156200073a576200073962000648565b5b8360020a91508482111562000754576200075362000648565b5b50620007c4565b5060208310610133831016604e8410600b8410161715620007955782820a9050838111156200078f576200078e62000648565b5b620007c4565b620007a4848484600162000684565b92509050818404811115620007be57620007bd62000648565b5b81810290505b9392505050565b6000819050919050565b600060ff82169050919050565b6000620007ef82620007cb565b9150620007fc83620007d5565b92506200082b7fffffffffffffffffffffffffffffffffffffffffffffffffffffffffffffffff8484620006df565b905092915050565b60006200084082620007cb565b91506200084d83620007cb565b9250817fffffffffffffffffffffffffffffffffffffffffffffffffffffffffffffffff048311821515161562000889576200088862000648565b5b828202905092915050565b6000819050919050565b620008a98162000894565b82525050565b620008ba81620007cb565b82525050565b600073ffffffffffffffffffffffffffffffffffffffff82169050919050565b6000620008ed82620008c0565b9050919050565b620008ff81620008e0565b82525050565b600060a0820190506200091c60008301886200089e565b6200092b60208301876200089e565b6200093a60408301866200089e565b620009496060830185620008af565b620009586080830184620008f4565b9695505050505050565b600082825260208201905092915050565b7f45524332303a206d696e7420746f20746865207a65726f206164647265737300600082015250565b6000620009ab601f8362000962565b9150620009b88262000973565b602082019050919050565b60006020820190508181036000830152620009de816200099c565b9050919050565b6000620009f282620007cb565b9150620009ff83620007cb565b9250827fffffffffffffffffffffffffffffffffffffffffffffffffffffffffffffffff0382111562000a375762000a3662000648565b5b828201905092915050565b600060208201905062000a596000830184620008af565b92915050565b7f5061757361626c653a2070617573656400000000000000000000000000000000600082015250565b600062000a9760108362000962565b915062000aa48262000a5f565b602082019050919050565b6000602082019050818103600083015262000aca8162000a88565b9050919050565b7f4e487b7100000000000000000000000000000000000000000000000000000000600052602260045260246000fd5b6000600282049050600182168062000b1957607f821691505b6020821081141562000b305762000b2f62000ad1565b5b50919050565b60805160a05160c05160e051610100516101205161014051612db262000b916000396000610b7b015260006112fc0152600061133e0152600061131d01526000611252015260006112a8015260006112d10152612db26000f3fe608060405234801561001057600080fd5b50600436106101425760003560e01c8063715018a6116100b857806395d89b411161007c57806395d89b4114610341578063a457c2d71461035f578063a9059cbb1461038f578063d505accf146103bf578063dd62ed3e146103db578063f2fde38b1461040b57610142565b8063715018a6146102c357806379cc6790146102cd5780637ecebe00146102e95780638456cb59146103195780638da5cb5b1461032357610142565b80633644e5151161010a5780633644e51514610201578063395093511461021f5780633f4ba83a1461024f57806342966c68146102595780635c975abb1461027557806370a082311461029357610142565b806306fdde0314610147578063095ea7b31461016557806318160ddd1461019557806323b872dd146101b3578063313ce567146101e3575b600080fd5b61014f610427565b60405161015c9190611c56565b60405180910390f35b61017f600480360381019061017a9190611d11565b6104b9565b60405161018c9190611d6c565b60405180910390f35b61019d6104d7565b6040516101aa9190611d96565b60405180910390f35b6101cd60048036038101906101c89190611db1565b6104e1565b6040516101da9190611d6c565b60405180910390f35b6101eb6105d9565b6040516101f89190611e20565b60405180910390f35b6102096105e2565b6040516102169190611e54565b60405180910390f35b61023960048036038101906102349190611d11565b6105f1565b6040516102469190611d6c565b60405180910390f35b61025761069d565b005b610273600480360381019061026e9190611e6f565b610723565b005b61027d610737565b60405161028a9190611d6c565b60405180910390f35b6102ad60048036038101906102a89190611e9c565b61074e565b6040516102ba9190611d96565b60405180910390f35b6102cb610796565b005b6102e760048036038101906102e29190611d11565b61081e565b005b61030360048036038101906102fe9190611e9c565b610899565b6040516103109190611d96565b60405180910390f35b6103216108e9565b005b61032b61096f565b6040516103389190611ed8565b60405180910390f35b610349610999565b6040516103569190611c56565b60405180910390f35b61037960048036038101906103749190611d11565b610a2b565b6040516103869190611d6c565b60405180910390f35b6103a960048036038101906103a49190611d11565b610b16565b6040516103b69190611d6c565b60405180910390f35b6103d960048036038101906103d49190611f4b565b610b34565b005b6103f560048036038101906103f09190611fed565b610c76565b6040516104029190611d96565b60405180910390f35b61042560048036038101906104209190611e9c565b610cfd565b005b6060600380546104369061205c565b80601f01602080910402602001604051908101604052809291908181526020018280546104629061205c565b80156104af5780601f10610484576101008083540402835291602001916104af565b820191906000526020600020905b81548152906001019060200180831161049257829003601f168201915b5050505050905090565b60006104cd6104c6610dfa565b8484610e02565b6001905092915050565b6000600254905090565b60006104ee848484610fcd565b6000600160008673ffffffffffffffffffffffffffffffffffffffff1673ffffffffffffffffffffffffffffffffffffffff1681526020019081526020016000206000610539610dfa565b73ffffffffffffffffffffffffffffffffffffffff1673ffffffffffffffffffffffffffffffffffffffff168152602001908152602001600020549050828110156105b9576040517f08c379a00000000000000000000000000000000000000000000000000000000081526004016105b090612100565b60405180910390fd5b6105cd856105c5610dfa565b858403610e02565b60019150509392505050565b60006012905090565b60006105ec61124e565b905090565b60006106936105fe610dfa565b84846001600061060c610dfa565b73ffffffffffffffffffffffffffffffffffffffff1673ffffffffffffffffffffffffffffffffffffffff16815260200190815260200160002060008873ffffffffffffffffffffffffffffffffffffffff1673ffffffffffffffffffffffffffffffffffffffff1681526020019081526020016000205461068e919061214f565b610e02565b6001905092915050565b6106a5610dfa565b73ffffffffffffffffffffffffffffffffffffffff166106c361096f565b73ffffffffffffffffffffffffffffffffffffffff1614610719576040517f08c379a0000000000000000000000000000000000000000000000000000000008152600401610710906121f1565b60405180910390fd5b610721611368565b565b61073461072e610dfa565b8261140a565b50565b6000600560009054906101000a900460ff16905090565b60008060008373ffffffffffffffffffffffffffffffffffffffff1673ffffffffffffffffffffffffffffffffffffffff168152602001908152602001600020549050919050565b61079e610dfa565b73ffffffffffffffffffffffffffffffffffffffff166107bc61096f565b73ffffffffffffffffffffffffffffffffffffffff1614610812576040517f08c379a0000000000000000000000000000000000000000000000000000000008152600401610809906121f1565b60405180910390fd5b61081c60006115e1565b565b60006108318361082c610dfa565b610c76565b905081811015610876576040517f08c379a000000000000000000000000000000000000000000000000000000000815260040161086d90612283565b60405180910390fd5b61088a83610882610dfa565b848403610e02565b610894838361140a565b505050565b60006108e2600660008473ffffffffffffffffffffffffffffffffffffffff1673ffffffffffffffffffffffffffffffffffffffff1681526020019081526020016000206116a7565b9050919050565b6108f1610dfa565b73ffffffffffffffffffffffffffffffffffffffff1661090f61096f565b73ffffffffffffffffffffffffffffffffffffffff1614610965576040517f08c379a000000000000000000000000000000000000000000000000000000000815260040161095c906121f1565b60405180910390fd5b61096d6116b5565b565b6000600560019054906101000a900473ffffffffffffffffffffffffffffffffffffffff16905090565b6060600480546109a89061205c565b80601f01602080910402602001604051908101604052809291908181526020018280546109d49061205c565b8015610a215780601f106109f657610100808354040283529160200191610a21565b820191906000526020600020905b815481529060010190602001808311610a0457829003601f168201915b5050505050905090565b60008060016000610a3a610dfa565b73ffffffffffffffffffffffffffffffffffffffff1673ffffffffffffffffffffffffffffffffffffffff16815260200190815260200160002060008573ffffffffffffffffffffffffffffffffffffffff1673ffffffffffffffffffffffffffffffffffffffff16815260200190815260200160002054905082811015610af7576040517f08c379a0000000000000000000000000000000000000000000000000000000008152600401610aee90612315565b60405180910390fd5b610b0b610b02610dfa565b85858403610e02565b600191505092915050565b6000610b2a610b23610dfa565b8484610fcd565b6001905092915050565b83421115610b77576040517f08c379a0000000000000000000000000000000000000000000000000000000008152600401610b6e90612381565b60405180910390fd5b60007f0000000000000000000000000000000000000000000000000000000000000000888888610ba68c611758565b89604051602001610bbc969594939291906123a1565b6040516020818303038152906040528051906020012090506000610bdf826117b6565b90506000610bef828787876117d0565b90508973ffffffffffffffffffffffffffffffffffffffff168173ffffffffffffffffffffffffffffffffffffffff1614610c5f576040517f08c379a0000000000000000000000000000000000000000000000000000000008152600401610c569061244e565b60405180910390fd5b610c6a8a8a8a610e02565b50505050505050505050565b6000600160008473ffffffffffffffffffffffffffffffffffffffff1673ffffffffffffffffffffffffffffffffffffffff16815260200190815260200160002060008373ffffffffffffffffffffffffffffffffffffffff1673ffffffffffffffffffffffffffffffffffffffff16815260200190815260200160002054905092915050565b610d05610dfa565b73ffffffffffffffffffffffffffffffffffffffff16610d2361096f565b73ffffffffffffffffffffffffffffffffffffffff1614610d79576040517f08c379a0000000000000000000000000000000000000000000000000000000008152600401610d70906121f1565b60405180910390fd5b600073ffffffffffffffffffffffffffffffffffffffff168173ffffffffffffffffffffffffffffffffffffffff161415610de9576040517f08c379a0000000000000000000000000000000000000000000000000000000008152600401610de0906124e0565b60405180910390fd5b610df2816115e1565b50565b505050565b600033905090565b600073ffffffffffffffffffffffffffffffffffffffff168373ffffffffffffffffffffffffffffffffffffffff161415610e72576040517f08c379a0000000000000000000000000000000000000000000000000000000008152600401610e6990612572565b60405180910390fd5b600073ffffffffffffffffffffffffffffffffffffffff168273ffffffffffffffffffffffffffffffffffffffff161415610ee2576040517f08c379a0000000000000000000000000000000000000000000000000000000008152600401610ed990612604565b60405180910390fd5b80600160008573ffffffffffffffffffffffffffffffffffffffff1673ffffffffffffffffffffffffffffffffffffffff16815260200190815260200160002060008473ffffffffffffffffffffffffffffffffffffffff1673ffffffffffffffffffffffffffffffffffffffff168152602001908152602001600020819055508173ffffffffffffffffffffffffffffffffffffffff168373ffffffffffffffffffffffffffffffffffffffff167f8c5be1e5ebec7d5bd14f71427d1e84f3dd0314c0f7b2291e5b200ac8c7c3b92583604051610fc09190611d96565b60405180910390a3505050565b600073ffffffffffffffffffffffffffffffffffffffff168373ffffffffffffffffffffffffffffffffffffffff16141561103d576040517f08c379a000000000000000000000000000000000000000000000000000000000815260040161103490612696565b60405180910390fd5b600073ffffffffffffffffffffffffffffffffffffffff168273ffffffffffffffffffffffffffffffffffffffff1614156110ad576040517f08c379a00000000000000000000000000000000000000000000000000000000081526004016110a490612728565b60405180910390fd5b6110b88383836117fb565b60008060008573ffffffffffffffffffffffffffffffffffffffff1673ffffffffffffffffffffffffffffffffffffffff1681526020019081526020016000205490508181101561113e576040517f08c379a0000000000000000000000000000000000000000000000000000000008152600401611135906127ba565b60405180910390fd5b8181036000808673ffffffffffffffffffffffffffffffffffffffff1673ffffffffffffffffffffffffffffffffffffffff16815260200190815260200160002081905550816000808573ffffffffffffffffffffffffffffffffffffffff1673ffffffffffffffffffffffffffffffffffffffff16815260200190815260200160002060008282546111d1919061214f565b925050819055508273ffffffffffffffffffffffffffffffffffffffff168473ffffffffffffffffffffffffffffffffffffffff167fddf252ad1be2c89b69c2b068fc378daa952ba7f163c4a11628f55a4df523b3ef846040516112359190611d96565b60405180910390a3611248848484611853565b50505050565b60007f000000000000000000000000000000000000000000000000000000000000000073ffffffffffffffffffffffffffffffffffffffff163073ffffffffffffffffffffffffffffffffffffffff161480156112ca57507f000000000000000000000000000000000000000000000000000000000000000046145b156112f7577f00000000000000000000000000000000000000000000000000000000000000009050611365565b6113627f00000000000000000000000000000000000000000000000000000000000000007f00000000000000000000000000000000000000000000000000000000000000007f0000000000000000000000000000000000000000000000000000000000000000611858565b90505b90565b611370610737565b6113af576040517f08c379a00000000000000000000000000000000000000000000000000000000081526004016113a690612826565b60405180910390fd5b6000600560006101000a81548160ff0219169083151502179055507f5db9ee0a495bf2e6ff9c91a7834c1ba4fdd244a5e8aa4e537bd38aeae4b073aa6113f3610dfa565b6040516114009190611ed8565b60405180910390a1565b600073ffffffffffffffffffffffffffffffffffffffff168273ffffffffffffffffffffffffffffffffffffffff16141561147a576040517f08c379a0000000000000000000000000000000000000000000000000000000008152600401611471906128b8565b60405180910390fd5b611486826000836117fb565b60008060008473ffffffffffffffffffffffffffffffffffffffff1673ffffffffffffffffffffffffffffffffffffffff1681526020019081526020016000205490508181101561150c576040517f08c379a00000000000000000000000000000000000000000000000000000000081526004016115039061294a565b60405180910390fd5b8181036000808573ffffffffffffffffffffffffffffffffffffffff1673ffffffffffffffffffffffffffffffffffffffff168152602001908152602001600020819055508160026000828254611563919061296a565b92505081905550600073ffffffffffffffffffffffffffffffffffffffff168373ffffffffffffffffffffffffffffffffffffffff167fddf252ad1be2c89b69c2b068fc378daa952ba7f163c4a11628f55a4df523b3ef846040516115c89190611d96565b60405180910390a36115dc83600084611853565b505050565b6000600560019054906101000a900473ffffffffffffffffffffffffffffffffffffffff16905081600560016101000a81548173ffffffffffffffffffffffffffffffffffffffff021916908373ffffffffffffffffffffffffffffffffffffffff1602179055508173ffffffffffffffffffffffffffffffffffffffff168173ffffffffffffffffffffffffffffffffffffffff167f8be0079c531659141344cd1fd0a4f28419497f9722a3daafe3b4186f6b6457e060405160405180910390a35050565b600081600001549050919050565b6116bd610737565b156116fd576040517f08c379a00000000000000000000000000000000000000000000000000000000081526004016116f4906129ea565b60405180910390fd5b6001600560006101000a81548160ff0219169083151502179055507f62e78cea01bee320cd4e420270b5ea74000d11b0c9f74754ebdbfc544b05a258611741610dfa565b60405161174e9190611ed8565b60405180910390a1565b600080600660008473ffffffffffffffffffffffffffffffffffffffff1673ffffffffffffffffffffffffffffffffffffffff16815260200190815260200160002090506117a5816116a7565b91506117b081611892565b50919050565b60006117c96117c361124e565b836118a8565b9050919050565b60008060006117e1878787876118db565b915091506117ee816119e8565b8192505050949350505050565b611803610737565b15611843576040517f08c379a000000000000000000000000000000000000000000000000000000000815260040161183a906129ea565b60405180910390fd5b61184e838383610df5565b505050565b505050565b60008383834630604051602001611873959493929190612a0a565b6040516020818303038152906040528051906020012090509392505050565b6001816000016000828254019250508190555050565b600082826040516020016118bd929190612ad5565b60405160208183030381529060405280519060200120905092915050565b6000807f7fffffffffffffffffffffffffffffff5d576e7357a4501ddfe92f46681b20a08360001c11156119165760006003915091506119df565b601b8560ff161415801561192e5750601c8560ff1614155b156119405760006004915091506119df565b6000600187878787604051600081526020016040526040516119659493929190612b0c565b6020604051602081039080840390855afa158015611987573d6000803e3d6000fd5b505050602060405103519050600073ffffffffffffffffffffffffffffffffffffffff168173ffffffffffffffffffffffffffffffffffffffff1614156119d6576000600192509250506119df565b80600092509250505b94509492505050565b600060048111156119fc576119fb612b51565b5b816004811115611a0f57611a0e612b51565b5b1415611a1a57611bba565b60016004811115611a2e57611a2d612b51565b5b816004811115611a4157611a40612b51565b5b1415611a82576040517f08c379a0000000000000000000000000000000000000000000000000000000008152600401611a7990612bcc565b60405180910390fd5b60026004811115611a9657611a95612b51565b5b816004811115611aa957611aa8612b51565b5b1415611aea576040517f08c379a0000000000000000000000000000000000000000000000000000000008152600401611ae190612c38565b60405180910390fd5b60036004811115611afe57611afd612b51565b5b816004811115611b1157611b10612b51565b5b1415611b52576040517f08c379a0000000000000000000000000000000000000000000000000000000008152600401611b4990612cca565b60405180910390fd5b600480811115611b6557611b64612b51565b5b816004811115611b7857611b77612b51565b5b1415611bb9576040517f08c379a0000000000000000000000000000000000000000000000000000000008152600401611bb090612d5c565b60405180910390fd5b5b50565b600081519050919050565b600082825260208201905092915050565b60005b83811015611bf7578082015181840152602081019050611bdc565b83811115611c06576000848401525b50505050565b6000601f19601f8301169050919050565b6000611c2882611bbd565b611c328185611bc8565b9350611c42818560208601611bd9565b611c4b81611c0c565b840191505092915050565b60006020820190508181036000830152611c708184611c1d565b905092915050565b600080fd5b600073ffffffffffffffffffffffffffffffffffffffff82169050919050565b6000611ca882611c7d565b9050919050565b611cb881611c9d565b8114611cc357600080fd5b50565b600081359050611cd581611caf565b92915050565b6000819050919050565b611cee81611cdb565b8114611cf957600080fd5b50565b600081359050611d0b81611ce5565b92915050565b60008060408385031215611d2857611d27611c78565b5b6000611d3685828601611cc6565b9250506020611d4785828601611cfc565b9150509250929050565b60008115159050919050565b611d6681611d51565b82525050565b6000602082019050611d816000830184611d5d565b92915050565b611d9081611cdb565b82525050565b6000602082019050611dab6000830184611d87565b92915050565b600080600060608486031215611dca57611dc9611c78565b5b6000611dd886828701611cc6565b9350506020611de986828701611cc6565b9250506040611dfa86828701611cfc565b9150509250925092565b600060ff82169050919050565b611e1a81611e04565b82525050565b6000602082019050611e356000830184611e11565b92915050565b6000819050919050565b611e4e81611e3b565b82525050565b6000602082019050611e696000830184611e45565b92915050565b600060208284031215611e8557611e84611c78565b5b6000611e9384828501611cfc565b91505092915050565b600060208284031215611eb257611eb1611c78565b5b6000611ec084828501611cc6565b91505092915050565b611ed281611c9d565b82525050565b6000602082019050611eed6000830184611ec9565b92915050565b611efc81611e04565b8114611f0757600080fd5b50565b600081359050611f1981611ef3565b92915050565b611f2881611e3b565b8114611f3357600080fd5b50565b600081359050611f4581611f1f565b92915050565b600080600080600080600060e0888a031215611f6a57611f69611c78565b5b6000611f788a828b01611cc6565b9750506020611f898a828b01611cc6565b9650506040611f9a8a828b01611cfc565b9550506060611fab8a828b01611cfc565b9450506080611fbc8a828b01611f0a565b93505060a0611fcd8a828b01611f36565b92505060c0611fde8a828b01611f36565b91505092959891949750929550565b6000806040838503121561200457612003611c78565b5b600061201285828601611cc6565b925050602061202385828601611cc6565b9150509250929050565b7f4e487b7100000000000000000000000000000000000000000000000000000000600052602260045260246000fd5b6000600282049050600182168061207457607f821691505b602082108114156120885761208761202d565b5b50919050565b7f45524332303a207472616e7366657220616d6f756e742065786365656473206160008201527f6c6c6f77616e6365000000000000000000000000000000000000000000000000602082015250565b60006120ea602883611bc8565b91506120f58261208e565b604082019050919050565b60006020820190508181036000830152612119816120dd565b9050919050565b7f4e487b7100000000000000000000000000000000000000000000000000000000600052601160045260246000fd5b600061215a82611cdb565b915061216583611cdb565b9250827fffffffffffffffffffffffffffffffffffffffffffffffffffffffffffffffff0382111561219a57612199612120565b5b828201905092915050565b7f4f776e61626c653a2063616c6c6572206973206e6f7420746865206f776e6572600082015250565b60006121db602083611bc8565b91506121e6826121a5565b602082019050919050565b6000602082019050818103600083015261220a816121ce565b9050919050565b7f45524332303a206275726e20616d6f756e74206578636565647320616c6c6f7760008201527f616e636500000000000000000000000000000000000000000000000000000000602082015250565b600061226d602483611bc8565b915061227882612211565b604082019050919050565b6000602082019050818103600083015261229c81612260565b9050919050565b7f45524332303a2064656372656173656420616c6c6f77616e63652062656c6f7760008201527f207a65726f000000000000000000000000000000000000000000000000000000602082015250565b60006122ff602583611bc8565b915061230a826122a3565b604082019050919050565b6000602082019050818103600083015261232e816122f2565b9050919050565b7f45524332305065726d69743a206578706972656420646561646c696e65000000600082015250565b600061236b601d83611bc8565b915061237682612335565b602082019050919050565b6000602082019050818103600083015261239a8161235e565b9050919050565b600060c0820190506123b66000830189611e45565b6123c36020830188611ec9565b6123d06040830187611ec9565b6123dd6060830186611d87565b6123ea6080830185611d87565b6123f760a0830184611d87565b979650505050505050565b7f45524332305065726d69743a20696e76616c6964207369676e61747572650000600082015250565b6000612438601e83611bc8565b915061244382612402565b602082019050919050565b600060208201905081810360008301526124678161242b565b9050919050565b7f4f776e61626c653a206e6577206f776e657220697320746865207a65726f206160008201527f6464726573730000000000000000000000000000000000000000000000000000602082015250565b60006124ca602683611bc8565b91506124d58261246e565b604082019050919050565b600060208201905081810360008301526124f9816124bd565b9050919050565b7f45524332303a20617070726f76652066726f6d20746865207a65726f2061646460008201527f7265737300000000000000000000000000000000000000000000000000000000602082015250565b600061255c602483611bc8565b915061256782612500565b604082019050919050565b6000602082019050818103600083015261258b8161254f565b9050919050565b7f45524332303a20617070726f766520746f20746865207a65726f20616464726560008201527f7373000000000000000000000000000000000000000000000000000000000000602082015250565b60006125ee602283611bc8565b91506125f982612592565b604082019050919050565b6000602082019050818103600083015261261d816125e1565b9050919050565b7f45524332303a207472616e736665722066726f6d20746865207a65726f20616460008201527f6472657373000000000000000000000000000000000000000000000000000000602082015250565b6000612680602583611bc8565b915061268b82612624565b604082019050919050565b600060208201905081810360008301526126af81612673565b9050919050565b7f45524332303a207472616e7366657220746f20746865207a65726f206164647260008201527f6573730000000000000000000000000000000000000000000000000000000000602082015250565b6000612712602383611bc8565b915061271d826126b6565b604082019050919050565b6000602082019050818103600083015261274181612705565b9050919050565b7f45524332303a207472616e7366657220616d6f756e742065786365656473206260008201527f616c616e63650000000000000000000000000000000000000000000000000000602082015250565b60006127a4602683611bc8565b91506127af82612748565b604082019050919050565b600060208201905081810360008301526127d381612797565b9050919050565b7f5061757361626c653a206e6f7420706175736564000000000000000000000000600082015250565b6000612810601483611bc8565b915061281b826127da565b602082019050919050565b6000602082019050818103600083015261283f81612803565b9050919050565b7f45524332303a206275726e2066726f6d20746865207a65726f2061646472657360008201527f7300000000000000000000000000000000000000000000000000000000000000602082015250565b60006128a2602183611bc8565b91506128ad82612846565b604082019050919050565b600060208201905081810360008301526128d181612895565b9050919050565b7f45524332303a206275726e20616d6f756e7420657863656564732062616c616e60008201527f6365000000000000000000000000000000000000000000000000000000000000602082015250565b6000612934602283611bc8565b915061293f826128d8565b604082019050919050565b6000602082019050818103600083015261296381612927565b9050919050565b600061297582611cdb565b915061298083611cdb565b92508282101561299357612992612120565b5b828203905092915050565b7f5061757361626c653a2070617573656400000000000000000000000000000000600082015250565b60006129d4601083611bc8565b91506129df8261299e565b602082019050919050565b60006020820190508181036000830152612a03816129c7565b9050919050565b600060a082019050612a1f6000830188611e45565b612a2c6020830187611e45565b612a396040830186611e45565b612a466060830185611d87565b612a536080830184611ec9565b9695505050505050565b600081905092915050565b7f1901000000000000000000000000000000000000000000000000000000000000600082015250565b6000612a9e600283612a5d565b9150612aa982612a68565b600282019050919050565b6000819050919050565b612acf612aca82611e3b565b612ab4565b82525050565b6000612ae082612a91565b9150612aec8285612abe565b602082019150612afc8284612abe565b6020820191508190509392505050565b6000608082019050612b216000830187611e45565b612b2e6020830186611e11565b612b3b6040830185611e45565b612b486060830184611e45565b95945050505050565b7f4e487b7100000000000000000000000000000000000000000000000000000000600052602160045260246000fd5b7f45434453413a20696e76616c6964207369676e61747572650000000000000000600082015250565b6000612bb6601883611bc8565b9150612bc182612b80565b602082019050919050565b60006020820190508181036000830152612be581612ba9565b9050919050565b7f45434453413a20696e76616c6964207369676e6174757265206c656e67746800600082015250565b6000612c22601f83611bc8565b9150612c2d82612bec565b602082019050919050565b60006020820190508181036000830152612c5181612c15565b9050919050565b7f45434453413a20696e76616c6964207369676e6174757265202773272076616c60008201527f7565000000000000000000000000000000000000000000000000000000000000602082015250565b6000612cb4602283611bc8565b9150612cbf82612c58565b604082019050919050565b60006020820190508181036000830152612ce381612ca7565b9050919050565b7f45434453413a20696e76616c6964207369676e6174757265202776272076616c60008201527f7565000000000000000000000000000000000000000000000000000000000000602082015250565b6000612d46602283611bc8565b9150612d5182612cea565b604082019050919050565b60006020820190508181036000830152612d7581612d39565b905091905056fea26469706673582212203b4a9d2d01fb1081f6c518eb395e99b18c84f2a6e8c8ce62fa26c5313134683464736f6c634300080a0033",
  "immutableReferences": {
    "935": [
      {
        "length": 32,
        "start": 2939
      }
    ],
    "1807": [
      {
        "length": 32,
        "start": 4817
      }
    ],
    "1809": [
      {
        "length": 32,
        "start": 4776
      }
    ],
    "1811": [
      {
        "length": 32,
        "start": 4690
      }
    ],
    "1813": [
      {
        "length": 32,
        "start": 4893
      }
    ],
    "1815": [
      {
        "length": 32,
        "start": 4926
      }
    ],
    "1817": [
      {
        "length": 32,
        "start": 4860
      }
    ]
  },
  "source": "pragma solidity ^0.8.10;\n\nimport \"@openzeppelin/contracts/token/ERC20/ERC20.sol\";\nimport \"@openzeppelin/contracts/token/ERC20/extensions/ERC20Burnable.sol\";\nimport \"@openzeppelin/contracts/security/Pausable.sol\";\nimport \"@openzeppelin/contracts/access/Ownable.sol\";\nimport \"@openzeppelin/contracts/token/ERC20/extensions/draft-ERC20Permit.sol\";\n\n/// @custom:security-contact pmjunquera@gmail.com\ncontract Bread is ERC20, ERC20Burnable, Pausable, Ownable, ERC20Permit {\n    constructor() ERC20(\"Bread\", \"BREAD\") ERC20Permit(\"Bread\") {\n        _mint(msg.sender, 1000000 * 10**decimals());\n    }\n\n    function pause() public onlyOwner {\n        _pause();\n    }\n\n    function unpause() public onlyOwner {\n        _unpause();\n    }\n\n    function _beforeTokenTransfer(\n        address from,\n        address to,\n        uint256 amount\n    ) internal override whenNotPaused {\n        super._beforeTokenTransfer(from, to, amount);\n    }\n}\n",
  "sourcePath": "/Users/junquera/Projects/BreadCrumbsDapp/backend/contracts/Bread.sol",
  "compiler": {
    "name": "solc",
    "version": "0.8.10+commit.fc410830.Emscripten.clang"
  },
  "schemaVersion": "3.4.3",
  "updatedAt": "2022-02-21T11:11:24.597Z",
  "networkType": "ethereum",
  "devdoc": {
    "custom:security-contact": "pmjunquera@gmail.com",
    "kind": "dev",
    "methods": {
      "DOMAIN_SEPARATOR()": {
        "details": "See {IERC20Permit-DOMAIN_SEPARATOR}."
      },
      "allowance(address,address)": {
        "details": "See {IERC20-allowance}."
      },
      "approve(address,uint256)": {
        "details": "See {IERC20-approve}. Requirements: - `spender` cannot be the zero address."
      },
      "balanceOf(address)": {
        "details": "See {IERC20-balanceOf}."
      },
      "burn(uint256)": {
        "details": "Destroys `amount` tokens from the caller. See {ERC20-_burn}."
      },
      "burnFrom(address,uint256)": {
        "details": "Destroys `amount` tokens from `account`, deducting from the caller's allowance. See {ERC20-_burn} and {ERC20-allowance}. Requirements: - the caller must have allowance for ``accounts``'s tokens of at least `amount`."
      },
      "decimals()": {
        "details": "Returns the number of decimals used to get its user representation. For example, if `decimals` equals `2`, a balance of `505` tokens should be displayed to a user as `5.05` (`505 / 10 ** 2`). Tokens usually opt for a value of 18, imitating the relationship between Ether and Wei. This is the value {ERC20} uses, unless this function is overridden; NOTE: This information is only used for _display_ purposes: it in no way affects any of the arithmetic of the contract, including {IERC20-balanceOf} and {IERC20-transfer}."
      },
      "decreaseAllowance(address,uint256)": {
        "details": "Atomically decreases the allowance granted to `spender` by the caller. This is an alternative to {approve} that can be used as a mitigation for problems described in {IERC20-approve}. Emits an {Approval} event indicating the updated allowance. Requirements: - `spender` cannot be the zero address. - `spender` must have allowance for the caller of at least `subtractedValue`."
      },
      "increaseAllowance(address,uint256)": {
        "details": "Atomically increases the allowance granted to `spender` by the caller. This is an alternative to {approve} that can be used as a mitigation for problems described in {IERC20-approve}. Emits an {Approval} event indicating the updated allowance. Requirements: - `spender` cannot be the zero address."
      },
      "name()": {
        "details": "Returns the name of the token."
      },
      "nonces(address)": {
        "details": "See {IERC20Permit-nonces}."
      },
      "owner()": {
        "details": "Returns the address of the current owner."
      },
      "paused()": {
        "details": "Returns true if the contract is paused, and false otherwise."
      },
      "permit(address,address,uint256,uint256,uint8,bytes32,bytes32)": {
        "details": "See {IERC20Permit-permit}."
      },
      "renounceOwnership()": {
        "details": "Leaves the contract without owner. It will not be possible to call `onlyOwner` functions anymore. Can only be called by the current owner. NOTE: Renouncing ownership will leave the contract without an owner, thereby removing any functionality that is only available to the owner."
      },
      "symbol()": {
        "details": "Returns the symbol of the token, usually a shorter version of the name."
      },
      "totalSupply()": {
        "details": "See {IERC20-totalSupply}."
      },
      "transfer(address,uint256)": {
        "details": "See {IERC20-transfer}. Requirements: - `recipient` cannot be the zero address. - the caller must have a balance of at least `amount`."
      },
      "transferFrom(address,address,uint256)": {
        "details": "See {IERC20-transferFrom}. Emits an {Approval} event indicating the updated allowance. This is not required by the EIP. See the note at the beginning of {ERC20}. Requirements: - `sender` and `recipient` cannot be the zero address. - `sender` must have a balance of at least `amount`. - the caller must have allowance for ``sender``'s tokens of at least `amount`."
      },
      "transferOwnership(address)": {
        "details": "Transfers ownership of the contract to a new account (`newOwner`). Can only be called by the current owner."
      }
    },
    "version": 1
  },
  "userdoc": {
    "kind": "user",
    "methods": {},
    "version": 1
  }
}