{
  "contractName": "Crumbs",
  "abi": [
    {
      "inputs": [
        {
          "internalType": "contract Bread",
          "name": "_breadToken",
          "type": "address"
        },
        {
          "internalType": "contract Baskets",
          "name": "_baskets",
          "type": "address"
        }
      ],
      "stateMutability": "nonpayable",
      "type": "constructor"
    },
    {
      "anonymous": false,
      "inputs": [
        {
          "indexed": false,
          "internalType": "string",
          "name": "sessionId",
          "type": "string"
        },
        {
          "indexed": false,
          "internalType": "string",
          "name": "domain",
          "type": "string"
        },
        {
          "indexed": false,
          "internalType": "uint256",
          "name": "date",
          "type": "uint256"
        },
        {
          "components": [
            {
              "internalType": "address",
              "name": "fromAccount",
              "type": "address"
            },
            {
              "internalType": "address",
              "name": "toAccount",
              "type": "address"
            },
            {
              "internalType": "uint256",
              "name": "price",
              "type": "uint256"
            },
            {
              "internalType": "bool",
              "name": "paid",
              "type": "bool"
            },
            {
              "internalType": "uint256",
              "name": "date",
              "type": "uint256"
            }
          ],
          "indexed": false,
          "internalType": "struct Crumbs.Payment[]",
          "name": "payments",
          "type": "tuple[]"
        },
        {
          "indexed": false,
          "internalType": "uint256",
          "name": "paymentsCount",
          "type": "uint256"
        }
      ],
      "name": "CreateCrumbEvent",
      "type": "event"
    },
    {
      "anonymous": false,
      "inputs": [
        {
          "components": [
            {
              "internalType": "string",
              "name": "sessionId",
              "type": "string"
            },
            {
              "internalType": "string",
              "name": "domain",
              "type": "string"
            },
            {
              "internalType": "uint256",
              "name": "date",
              "type": "uint256"
            },
            {
              "components": [
                {
                  "internalType": "address",
                  "name": "fromAccount",
                  "type": "address"
                },
                {
                  "internalType": "address",
                  "name": "toAccount",
                  "type": "address"
                },
                {
                  "internalType": "uint256",
                  "name": "price",
                  "type": "uint256"
                },
                {
                  "internalType": "bool",
                  "name": "paid",
                  "type": "bool"
                },
                {
                  "internalType": "uint256",
                  "name": "date",
                  "type": "uint256"
                }
              ],
              "internalType": "struct Crumbs.Payment[]",
              "name": "payments",
              "type": "tuple[]"
            },
            {
              "internalType": "uint256",
              "name": "paymentsCount",
              "type": "uint256"
            }
          ],
          "indexed": false,
          "internalType": "struct Crumbs.CrumbWithPayments",
          "name": "crumb",
          "type": "tuple"
        },
        {
          "indexed": false,
          "internalType": "uint256",
          "name": "hoursLeft",
          "type": "uint256"
        }
      ],
      "name": "CrumbTimeRejectionEvent",
      "type": "event"
    },
    {
      "anonymous": false,
      "inputs": [
        {
          "indexed": false,
          "internalType": "string",
          "name": "domain",
          "type": "string"
        },
        {
          "components": [
            {
              "internalType": "string",
              "name": "sessionId",
              "type": "string"
            },
            {
              "internalType": "string",
              "name": "domain",
              "type": "string"
            },
            {
              "internalType": "uint256",
              "name": "date",
              "type": "uint256"
            },
            {
              "components": [
                {
                  "internalType": "address",
                  "name": "fromAccount",
                  "type": "address"
                },
                {
                  "internalType": "address",
                  "name": "toAccount",
                  "type": "address"
                },
                {
                  "internalType": "uint256",
                  "name": "price",
                  "type": "uint256"
                },
                {
                  "internalType": "bool",
                  "name": "paid",
                  "type": "bool"
                },
                {
                  "internalType": "uint256",
                  "name": "date",
                  "type": "uint256"
                }
              ],
              "internalType": "struct Crumbs.Payment[]",
              "name": "payments",
              "type": "tuple[]"
            },
            {
              "internalType": "uint256",
              "name": "paymentsCount",
              "type": "uint256"
            }
          ],
          "indexed": false,
          "internalType": "struct Crumbs.CrumbWithPayments[]",
          "name": "crumbs",
          "type": "tuple[]"
        },
        {
          "indexed": false,
          "internalType": "uint256",
          "name": "count",
          "type": "uint256"
        }
      ],
      "name": "CrumbsFoundEvent",
      "type": "event"
    },
    {
      "inputs": [],
      "name": "basketsContract",
      "outputs": [
        {
          "internalType": "contract Baskets",
          "name": "",
          "type": "address"
        }
      ],
      "stateMutability": "view",
      "type": "function"
    },
    {
      "inputs": [],
      "name": "breadToken",
      "outputs": [
        {
          "internalType": "contract Bread",
          "name": "",
          "type": "address"
        }
      ],
      "stateMutability": "view",
      "type": "function"
    },
    {
      "inputs": [],
      "name": "name",
      "outputs": [
        {
          "internalType": "string",
          "name": "",
          "type": "string"
        }
      ],
      "stateMutability": "view",
      "type": "function"
    },
    {
      "inputs": [
        {
          "internalType": "string",
          "name": "_sessionId",
          "type": "string"
        },
        {
          "internalType": "string",
          "name": "_domain",
          "type": "string"
        },
        {
          "internalType": "address",
          "name": "_account",
          "type": "address"
        }
      ],
      "name": "createCrumb",
      "outputs": [
        {
          "components": [
            {
              "internalType": "string",
              "name": "sessionId",
              "type": "string"
            },
            {
              "internalType": "string",
              "name": "domain",
              "type": "string"
            },
            {
              "internalType": "uint256",
              "name": "date",
              "type": "uint256"
            },
            {
              "components": [
                {
                  "internalType": "address",
                  "name": "fromAccount",
                  "type": "address"
                },
                {
                  "internalType": "address",
                  "name": "toAccount",
                  "type": "address"
                },
                {
                  "internalType": "uint256",
                  "name": "price",
                  "type": "uint256"
                },
                {
                  "internalType": "bool",
                  "name": "paid",
                  "type": "bool"
                },
                {
                  "internalType": "uint256",
                  "name": "date",
                  "type": "uint256"
                }
              ],
              "internalType": "struct Crumbs.Payment[]",
              "name": "payments",
              "type": "tuple[]"
            },
            {
              "internalType": "uint256",
              "name": "paymentsCount",
              "type": "uint256"
            }
          ],
          "internalType": "struct Crumbs.CrumbWithPayments",
          "name": "crumbWP",
          "type": "tuple"
        }
      ],
      "stateMutability": "nonpayable",
      "type": "function"
    },
    {
      "inputs": [
        {
          "internalType": "string",
          "name": "_domain",
          "type": "string"
        }
      ],
      "name": "getCrumbs",
      "outputs": [
        {
          "components": [
            {
              "internalType": "string",
              "name": "sessionId",
              "type": "string"
            },
            {
              "internalType": "string",
              "name": "domain",
              "type": "string"
            },
            {
              "internalType": "uint256",
              "name": "date",
              "type": "uint256"
            },
            {
              "components": [
                {
                  "internalType": "address",
                  "name": "fromAccount",
                  "type": "address"
                },
                {
                  "internalType": "address",
                  "name": "toAccount",
                  "type": "address"
                },
                {
                  "internalType": "uint256",
                  "name": "price",
                  "type": "uint256"
                },
                {
                  "internalType": "bool",
                  "name": "paid",
                  "type": "bool"
                },
                {
                  "internalType": "uint256",
                  "name": "date",
                  "type": "uint256"
                }
              ],
              "internalType": "struct Crumbs.Payment[]",
              "name": "payments",
              "type": "tuple[]"
            },
            {
              "internalType": "uint256",
              "name": "paymentsCount",
              "type": "uint256"
            }
          ],
          "internalType": "struct Crumbs.CrumbWithPayments[]",
          "name": "",
          "type": "tuple[]"
        }
      ],
      "stateMutability": "nonpayable",
      "type": "function"
    },
    {
      "inputs": [
        {
          "components": [
            {
              "internalType": "string",
              "name": "sessionId",
              "type": "string"
            },
            {
              "internalType": "string",
              "name": "domain",
              "type": "string"
            },
            {
              "internalType": "uint256",
              "name": "date",
              "type": "uint256"
            },
            {
              "internalType": "uint256",
              "name": "paymentsCount",
              "type": "uint256"
            }
          ],
          "internalType": "struct Crumbs.Crumb",
          "name": "_crumb",
          "type": "tuple"
        },
        {
          "components": [
            {
              "internalType": "address",
              "name": "fromAccount",
              "type": "address"
            },
            {
              "internalType": "address",
              "name": "toAccount",
              "type": "address"
            },
            {
              "internalType": "uint256",
              "name": "price",
              "type": "uint256"
            },
            {
              "internalType": "bool",
              "name": "paid",
              "type": "bool"
            },
            {
              "internalType": "uint256",
              "name": "date",
              "type": "uint256"
            }
          ],
          "internalType": "struct Crumbs.Payment",
          "name": "_payment",
          "type": "tuple"
        }
      ],
      "name": "_pay",
      "outputs": [
        {
          "components": [
            {
              "internalType": "address",
              "name": "fromAccount",
              "type": "address"
            },
            {
              "internalType": "address",
              "name": "toAccount",
              "type": "address"
            },
            {
              "internalType": "uint256",
              "name": "price",
              "type": "uint256"
            },
            {
              "internalType": "bool",
              "name": "paid",
              "type": "bool"
            },
            {
              "internalType": "uint256",
              "name": "date",
              "type": "uint256"
            }
          ],
          "internalType": "struct Crumbs.Payment",
          "name": "",
          "type": "tuple"
        }
      ],
      "stateMutability": "nonpayable",
      "type": "function"
    }
  ],
  "bytecode": "0x60806040526040518060400160405280600f81526020017f4372756d627320436f6e7472616374000000000000000000000000000000000081525060009080519060200190620000519291906200010f565b503480156200005f57600080fd5b506040516200260438038062002604833981810160405281019062000085919062000282565b81600160006101000a81548173ffffffffffffffffffffffffffffffffffffffff021916908373ffffffffffffffffffffffffffffffffffffffff16021790555080600260006101000a81548173ffffffffffffffffffffffffffffffffffffffff021916908373ffffffffffffffffffffffffffffffffffffffff16021790555050506200032e565b8280546200011d90620002f8565b90600052602060002090601f0160209004810192826200014157600085556200018d565b82601f106200015c57805160ff19168380011785556200018d565b828001600101855582156200018d579182015b828111156200018c5782518255916020019190600101906200016f565b5b5090506200019c9190620001a0565b5090565b5b80821115620001bb576000816000905550600101620001a1565b5090565b600080fd5b600073ffffffffffffffffffffffffffffffffffffffff82169050919050565b6000620001f182620001c4565b9050919050565b60006200020582620001e4565b9050919050565b6200021781620001f8565b81146200022357600080fd5b50565b60008151905062000237816200020c565b92915050565b60006200024a82620001e4565b9050919050565b6200025c816200023d565b81146200026857600080fd5b50565b6000815190506200027c8162000251565b92915050565b600080604083850312156200029c576200029b620001bf565b5b6000620002ac8582860162000226565b9250506020620002bf858286016200026b565b9150509250929050565b7f4e487b7100000000000000000000000000000000000000000000000000000000600052602260045260246000fd5b600060028204905060018216806200031157607f821691505b60208210811415620003285762000327620002c9565b5b50919050565b6122c6806200033e6000396000f3fe608060405234801561001057600080fd5b50600436106100625760003560e01c806306fdde031461006757806347b177e014610085578063502c6caf146100a35780638dd9e420146100d3578063977713ed146100f1578063ae3258ad14610121575b600080fd5b61006f610151565b60405161007c919061128b565b60405180910390f35b61008d6101df565b60405161009a919061132c565b60405180910390f35b6100bd60048036038101906100b891906114ce565b610205565b6040516100ca9190611781565b60405180910390f35b6100db610743565b6040516100e891906117c4565b60405180910390f35b61010b6004803603810190610106919061197d565b610769565b6040516101189190611a41565b60405180910390f35b61013b60048036038101906101369190611a5c565b610849565b6040516101489190611beb565b60405180910390f35b6000805461015e90611c3c565b80601f016020809104026020016040519081016040528092919081815260200182805461018a90611c3c565b80156101d75780601f106101ac576101008083540402835291602001916101d7565b820191906000526020600020905b8154815290600101906020018083116101ba57829003601f168201915b505050505081565b600160009054906101000a900473ffffffffffffffffffffffffffffffffffffffff1681565b61020d61109b565b6000600260009054906101000a900473ffffffffffffffffffffffffffffffffffffffff1673ffffffffffffffffffffffffffffffffffffffff1663874af3b5856040518263ffffffff1660e01b815260040161026a919061128b565b6000604051808303816000875af1158015610289573d6000803e3d6000fd5b505050506040513d6000823e3d601f19601f820116820180604052508101906102b29190611e82565b905060006040518060800160405280878152602001868152602001428152602001600081525090506000806102e683610b94565b91509150600080821290506000811561039a576003896040516103099190611f07565b9081526020016040518091039020859080600181540180825580915050600190039060005260206000209060040201600090919091909150600082015181600001908051906020019061035d9291906110ca565b50602082015181600101908051906020019061037a9291906110ca565b5060408201518160020155606082015181600301555050600190506104b2565b6000806103a78787610ded565b91509150811561044a578660038c6040516103c29190611f07565b908152602001604051809103902086815481106103e2576103e1611f1e565b5b9060005260206000209060040201600082015181600001908051906020019061040c9291906110ca565b5060208201518160010190805190602001906104299291906110ca565b506040820151816002015560608201518160030155905050600192506104af565b600061045588610e49565b90507fb424056cc64952be1e9485ec9bcd26b007774d0f3eacd2a22d32c1ec1f812e5e8183604051610488929190611f5c565b60405180910390a1866040015188604001818152505080995050505050505050505061073c565b50505b80156106d75760005b86518110156106d55760008782815181106104d9576104d8611f1e565b5b6020026020010151905060006040518060a00160405280836000015173ffffffffffffffffffffffffffffffffffffffff1681526020018c73ffffffffffffffffffffffffffffffffffffffff1681526020018360600151815260200160001515815260200142815250905061054f8882610769565b905060048c6040516105619190611f07565b90815260200160405180910390208d60405161057d9190611f07565b908152602001604051809103902081908060018154018082558091505060019003906000526020600020906005020160009091909190915060008201518160000160006101000a81548173ffffffffffffffffffffffffffffffffffffffff021916908373ffffffffffffffffffffffffffffffffffffffff16021790555060208201518160010160006101000a81548173ffffffffffffffffffffffffffffffffffffffff021916908373ffffffffffffffffffffffffffffffffffffffff1602179055506040820151816002015560608201518160030160006101000a81548160ff02191690831515021790555060808201518160040155505060048c6040516106899190611f07565b90815260200160405180910390208d6040516106a59190611f07565b908152602001604051809103902080549050886060018181525050505080806106cd90611fbb565b9150506104bb565b505b6106e085610e49565b96507fd4de5d4fbca2c2ea10959578384465b918828948ee9a857ece856387ea530f588760000151886020015189604001518a606001518b6080015160405161072d959493929190612073565b60405180910390a15050505050505b9392505050565b600260009054906101000a900473ffffffffffffffffffffffffffffffffffffffff1681565b610771611150565b42826080018181525050600260009054906101000a900473ffffffffffffffffffffffffffffffffffffffff1673ffffffffffffffffffffffffffffffffffffffff16633651eb2884846040518363ffffffff1660e01b81526004016107d8929190612145565b6020604051808303816000875af192505050801561081457506040513d601f19601f82011682018060405250810190610811919061218a565b60015b61082e576000826060019015159081151581525050610840565b80836060019015159081151581525050505b81905092915050565b6060600060038360405161085d9190611f07565b9081526020016040518091039020805480602002602001604051908101604052809291908181526020016000905b828210156109f557838290600052602060002090600402016040518060800160405290816000820180546108be90611c3c565b80601f01602080910402602001604051908101604052809291908181526020018280546108ea90611c3c565b80156109375780601f1061090c57610100808354040283529160200191610937565b820191906000526020600020905b81548152906001019060200180831161091a57829003601f168201915b5050505050815260200160018201805461095090611c3c565b80601f016020809104026020016040519081016040528092919081815260200182805461097c90611c3c565b80156109c95780601f1061099e576101008083540402835291602001916109c9565b820191906000526020600020905b8154815290600101906020018083116109ac57829003601f168201915b50505050508152602001600282015481526020016003820154815250508152602001906001019061088b565b5050505090506000805b8251811015610a63576000838281518110610a1d57610a1c611f1e565b5b602002602001015190506000610a37826020015188611042565b90508015610a4e578380610a4a90611fbb565b9450505b50508080610a5b90611fbb565b9150506109ff565b5060008167ffffffffffffffff811115610a8057610a7f611365565b5b604051908082528060200260200182016040528015610ab957816020015b610aa661109b565b815260200190600190039081610a9e5790505b5090506000805b8451811015610b4b576000858281518110610ade57610add611f1e565b5b602002602001015190506000610af882602001518a611042565b90508015610b3657610b0982610e49565b858581518110610b1c57610b1b611f1e565b5b60200260200101819052508380610b3290611fbb565b9450505b50508080610b4390611fbb565b915050610ac0565b507f0458a56f1f5a615f925acd3613d64c103558c59703851d431604ed1f97f2222986838451604051610b80939291906121b7565b60405180910390a181945050505050919050565b610b9c6111ad565b60008060038460200151604051610bb39190611f07565b9081526020016040518091039020805480602002602001604051908101604052809291908181526020016000905b82821015610d4b5783829060005260206000209060040201604051806080016040529081600082018054610c1490611c3c565b80601f0160208091040260200160405190810160405280929190818152602001828054610c4090611c3c565b8015610c8d5780601f10610c6257610100808354040283529160200191610c8d565b820191906000526020600020905b815481529060010190602001808311610c7057829003601f168201915b50505050508152602001600182018054610ca690611c3c565b80601f0160208091040260200160405190810160405280929190818152602001828054610cd290611c3c565b8015610d1f5780601f10610cf457610100808354040283529160200191610d1f565b820191906000526020600020905b815481529060010190602001808311610d0257829003601f168201915b505050505081526020016002820154815260200160038201548152505081526020019060010190610be1565b50505050905060005b8151811015610dbf576000828281518110610d7257610d71611f1e565b5b602002602001015190506000610d9082600001518860000151611042565b90508015610daa5781955085839550955050505050610de8565b50508080610db790611fbb565b915050610d54565b50827fffffffffffffffffffffffffffffffffffffffffffffffffffffffffffffffff92509250505b915091565b6000806000603c8085604001518760400151610e0991906121fc565b610e13919061225f565b610e1d919061225f565b905060188111925082610e3c57806018610e3791906121fc565b610e3f565b60005b9150509250929050565b610e5161109b565b6040518060a0016040528083600001518152602001836020015181526020018360400151815260200160048460200151604051610e8e9190611f07565b90815260200160405180910390208460000151604051610eae9190611f07565b9081526020016040518091039020805480602002602001604051908101604052809291908181526020016000905b82821015610fe957838290600052602060002090600502016040518060a00160405290816000820160009054906101000a900473ffffffffffffffffffffffffffffffffffffffff1673ffffffffffffffffffffffffffffffffffffffff1673ffffffffffffffffffffffffffffffffffffffff1681526020016001820160009054906101000a900473ffffffffffffffffffffffffffffffffffffffff1673ffffffffffffffffffffffffffffffffffffffff1673ffffffffffffffffffffffffffffffffffffffff168152602001600282015481526020016003820160009054906101000a900460ff1615151515815260200160048201548152505081526020019060010190610edc565b505050508152602001600484602001516040516110069190611f07565b908152602001604051809103902084600001516040516110269190611f07565b9081526020016040518091039020805490508152509050919050565b6000816040516020016110559190611f07565b604051602081830303815290604052805190602001208360405160200161107c9190611f07565b6040516020818303038152906040528051906020012014905092915050565b6040518060a0016040528060608152602001606081526020016000815260200160608152602001600081525090565b8280546110d690611c3c565b90600052602060002090601f0160209004810192826110f8576000855561113f565b82601f1061111157805160ff191683800117855561113f565b8280016001018555821561113f579182015b8281111561113e578251825591602001919060010190611123565b5b50905061114c91906111d5565b5090565b6040518060a00160405280600073ffffffffffffffffffffffffffffffffffffffff168152602001600073ffffffffffffffffffffffffffffffffffffffff16815260200160008152602001600015158152602001600081525090565b6040518060800160405280606081526020016060815260200160008152602001600081525090565b5b808211156111ee5760008160009055506001016111d6565b5090565b600081519050919050565b600082825260208201905092915050565b60005b8381101561122c578082015181840152602081019050611211565b8381111561123b576000848401525b50505050565b6000601f19601f8301169050919050565b600061125d826111f2565b61126781856111fd565b935061127781856020860161120e565b61128081611241565b840191505092915050565b600060208201905081810360008301526112a58184611252565b905092915050565b600073ffffffffffffffffffffffffffffffffffffffff82169050919050565b6000819050919050565b60006112f26112ed6112e8846112ad565b6112cd565b6112ad565b9050919050565b6000611304826112d7565b9050919050565b6000611316826112f9565b9050919050565b6113268161130b565b82525050565b6000602082019050611341600083018461131d565b92915050565b6000604051905090565b600080fd5b600080fd5b600080fd5b600080fd5b7f4e487b7100000000000000000000000000000000000000000000000000000000600052604160045260246000fd5b61139d82611241565b810181811067ffffffffffffffff821117156113bc576113bb611365565b5b80604052505050565b60006113cf611347565b90506113db8282611394565b919050565b600067ffffffffffffffff8211156113fb576113fa611365565b5b61140482611241565b9050602081019050919050565b82818337600083830152505050565b600061143361142e846113e0565b6113c5565b90508281526020810184848401111561144f5761144e611360565b5b61145a848285611411565b509392505050565b600082601f8301126114775761147661135b565b5b8135611487848260208601611420565b91505092915050565b600061149b826112ad565b9050919050565b6114ab81611490565b81146114b657600080fd5b50565b6000813590506114c8816114a2565b92915050565b6000806000606084860312156114e7576114e6611351565b5b600084013567ffffffffffffffff81111561150557611504611356565b5b61151186828701611462565b935050602084013567ffffffffffffffff81111561153257611531611356565b5b61153e86828701611462565b925050604061154f868287016114b9565b9150509250925092565b600082825260208201905092915050565b6000611575826111f2565b61157f8185611559565b935061158f81856020860161120e565b61159881611241565b840191505092915050565b6000819050919050565b6115b6816115a3565b82525050565b600081519050919050565b600082825260208201905092915050565b6000819050602082019050919050565b6115f181611490565b82525050565b60008115159050919050565b61160c816115f7565b82525050565b60a08201600082015161162860008501826115e8565b50602082015161163b60208501826115e8565b50604082015161164e60408501826115ad565b5060608201516116616060850182611603565b50608082015161167460808501826115ad565b50505050565b60006116868383611612565b60a08301905092915050565b6000602082019050919050565b60006116aa826115bc565b6116b481856115c7565b93506116bf836115d8565b8060005b838110156116f05781516116d7888261167a565b97506116e283611692565b9250506001810190506116c3565b5085935050505092915050565b600060a083016000830151848203600086015261171a828261156a565b91505060208301518482036020860152611734828261156a565b915050604083015161174960408601826115ad565b5060608301518482036060860152611761828261169f565b915050608083015161177660808601826115ad565b508091505092915050565b6000602082019050818103600083015261179b81846116fd565b905092915050565b60006117ae826112f9565b9050919050565b6117be816117a3565b82525050565b60006020820190506117d960008301846117b5565b92915050565b600080fd5b600080fd5b6117f2816115a3565b81146117fd57600080fd5b50565b60008135905061180f816117e9565b92915050565b60006080828403121561182b5761182a6117df565b5b61183560806113c5565b9050600082013567ffffffffffffffff811115611855576118546117e4565b5b61186184828501611462565b600083015250602082013567ffffffffffffffff811115611885576118846117e4565b5b61189184828501611462565b60208301525060406118a584828501611800565b60408301525060606118b984828501611800565b60608301525092915050565b6118ce816115f7565b81146118d957600080fd5b50565b6000813590506118eb816118c5565b92915050565b600060a08284031215611907576119066117df565b5b61191160a06113c5565b90506000611921848285016114b9565b6000830152506020611935848285016114b9565b602083015250604061194984828501611800565b604083015250606061195d848285016118dc565b606083015250608061197184828501611800565b60808301525092915050565b60008060c0838503121561199457611993611351565b5b600083013567ffffffffffffffff8111156119b2576119b1611356565b5b6119be85828601611815565b92505060206119cf858286016118f1565b9150509250929050565b60a0820160008201516119ef60008501826115e8565b506020820151611a0260208501826115e8565b506040820151611a1560408501826115ad565b506060820151611a286060850182611603565b506080820151611a3b60808501826115ad565b50505050565b600060a082019050611a5660008301846119d9565b92915050565b600060208284031215611a7257611a71611351565b5b600082013567ffffffffffffffff811115611a9057611a8f611356565b5b611a9c84828501611462565b91505092915050565b600081519050919050565b600082825260208201905092915050565b6000819050602082019050919050565b600060a0830160008301518482036000860152611aee828261156a565b91505060208301518482036020860152611b08828261156a565b9150506040830151611b1d60408601826115ad565b5060608301518482036060860152611b35828261169f565b9150506080830151611b4a60808601826115ad565b508091505092915050565b6000611b618383611ad1565b905092915050565b6000602082019050919050565b6000611b8182611aa5565b611b8b8185611ab0565b935083602082028501611b9d85611ac1565b8060005b85811015611bd95784840389528151611bba8582611b55565b9450611bc583611b69565b925060208a01995050600181019050611ba1565b50829750879550505050505092915050565b60006020820190508181036000830152611c058184611b76565b905092915050565b7f4e487b7100000000000000000000000000000000000000000000000000000000600052602260045260246000fd5b60006002820490506001821680611c5457607f821691505b60208210811415611c6857611c67611c0d565b5b50919050565b600067ffffffffffffffff821115611c8957611c88611365565b5b602082029050602081019050919050565b600080fd5b600081519050611cae816114a2565b92915050565b6000611cc7611cc2846113e0565b6113c5565b905082815260208101848484011115611ce357611ce2611360565b5b611cee84828561120e565b509392505050565b600082601f830112611d0b57611d0a61135b565b5b8151611d1b848260208601611cb4565b91505092915050565b600081519050611d33816117e9565b92915050565b600060808284031215611d4f57611d4e6117df565b5b611d5960806113c5565b90506000611d6984828501611c9f565b600083015250602082015167ffffffffffffffff811115611d8d57611d8c6117e4565b5b611d9984828501611cf6565b6020830152506040611dad84828501611d24565b6040830152506060611dc184828501611d24565b60608301525092915050565b6000611de0611ddb84611c6e565b6113c5565b90508083825260208201905060208402830185811115611e0357611e02611c9a565b5b835b81811015611e4a57805167ffffffffffffffff811115611e2857611e2761135b565b5b808601611e358982611d39565b85526020850194505050602081019050611e05565b5050509392505050565b600082601f830112611e6957611e6861135b565b5b8151611e79848260208601611dcd565b91505092915050565b600060208284031215611e9857611e97611351565b5b600082015167ffffffffffffffff811115611eb657611eb5611356565b5b611ec284828501611e54565b91505092915050565b600081905092915050565b6000611ee1826111f2565b611eeb8185611ecb565b9350611efb81856020860161120e565b80840191505092915050565b6000611f138284611ed6565b915081905092915050565b7f4e487b7100000000000000000000000000000000000000000000000000000000600052603260045260246000fd5b611f56816115a3565b82525050565b60006040820190508181036000830152611f7681856116fd565b9050611f856020830184611f4d565b9392505050565b7f4e487b7100000000000000000000000000000000000000000000000000000000600052601160045260246000fd5b6000611fc6826115a3565b91507fffffffffffffffffffffffffffffffffffffffffffffffffffffffffffffffff821415611ff957611ff8611f8c565b5b600182019050919050565b600082825260208201905092915050565b6000612020826115bc565b61202a8185612004565b9350612035836115d8565b8060005b8381101561206657815161204d888261167a565b975061205883611692565b925050600181019050612039565b5085935050505092915050565b600060a082019050818103600083015261208d8188611252565b905081810360208301526120a18187611252565b90506120b06040830186611f4d565b81810360608301526120c28185612015565b90506120d16080830184611f4d565b9695505050505050565b600060808301600083015184820360008601526120f8828261156a565b91505060208301518482036020860152612112828261156a565b915050604083015161212760408601826115ad565b50606083015161213a60608601826115ad565b508091505092915050565b600060c082019050818103600083015261215f81856120db565b905061216e60208301846119d9565b9392505050565b600081519050612184816118c5565b92915050565b6000602082840312156121a05761219f611351565b5b60006121ae84828501612175565b91505092915050565b600060608201905081810360008301526121d18186611252565b905081810360208301526121e58185611b76565b90506121f46040830184611f4d565b949350505050565b6000612207826115a3565b9150612212836115a3565b92508282101561222557612224611f8c565b5b828203905092915050565b7f4e487b7100000000000000000000000000000000000000000000000000000000600052601260045260246000fd5b600061226a826115a3565b9150612275836115a3565b92508261228557612284612230565b5b82820490509291505056fea264697066735822122067810905fcad9c93382b87b86ea4be2600e28f8518007b318b443622feb9b88a64736f6c634300080a0033",
  "immutableReferences": {},
  "source": "pragma solidity ^0.8.10;\n\nimport \"./Bread.sol\";\nimport \"./Baskets.sol\";\n\ncontract Crumbs {\n    string public name = \"Crumbs Contract\";\n    Bread public breadToken;\n    Baskets public basketsContract;\n\n    struct Crumb {\n        string sessionId;\n        string domain;\n        uint256 date;\n        uint256 paymentsCount;\n        // TODO: Add current owner account of the crumb\n        // TODO: Count the number of times the crumb has been updated (paid)\n    }\n\n    struct Payment {\n        address fromAccount;\n        address toAccount;\n        uint256 price;\n        bool paid;\n        uint256 date;\n    }\n\n    struct CrumbWithPayments {\n        string sessionId;\n        string domain;\n        uint256 date;\n        Payment[] payments;\n        uint256 paymentsCount;\n    }\n\n    mapping(string => Crumb[]) crumbs;\n    mapping(string => mapping(string => Payment[])) payments;\n\n    event CreateCrumbEvent(\n        string sessionId,\n        string domain,\n        uint256 date,\n        Payment[] payments,\n        uint256 paymentsCount\n    );\n\n    event CrumbsFoundEvent(\n        string domain,\n        CrumbWithPayments[] crumbs,\n        uint256 count\n    );\n    event CrumbTimeRejectionEvent(CrumbWithPayments crumb, uint256 hoursLeft);\n\n    constructor(Bread _breadToken, Baskets _baskets) {\n        breadToken = _breadToken;\n        basketsContract = _baskets;\n    }\n\n    function createCrumb(\n        string memory _sessionId,\n        string memory _domain,\n        address _account\n    ) public returns (CrumbWithPayments memory crumbWP) {\n        Baskets.Basket[] memory baskets = basketsContract.findBaskets(_domain);\n\n        Crumb memory crumb = Crumb(_sessionId, _domain, block.timestamp, 0);\n\n        // Crumb creation or update\n        (Crumb memory oldCrumb, int256 crumbIndex) = _getOldCrumb(crumb);\n        bool shouldCreate = crumbIndex < 0;\n        bool shouldPay = false;\n\n        if (shouldCreate) {\n            crumbs[_domain].push(crumb); // Store in domain pool\n            shouldPay = true;\n        } else {\n            (bool shouldupdate, uint256 hoursLeft) = _checkCrumbShouldUpdate(\n                crumb,\n                oldCrumb\n            );\n\n            if (shouldupdate) {\n                crumbs[_domain][uint256(crumbIndex)] = crumb; // Update in domain pool\n                shouldPay = true;\n            } else {\n                // Not a valid crumb (time rejection)\n                CrumbWithPayments memory rejectedCrumbWP = _crumbToCrumbWP(\n                    crumb\n                );\n                emit CrumbTimeRejectionEvent(rejectedCrumbWP, hoursLeft);\n\n                crumb.date = oldCrumb.date; // Keep old date\n                return rejectedCrumbWP;\n            }\n        }\n\n        // Payments\n        if (shouldPay) {\n            for (uint256 i = 0; i < baskets.length; i++) {\n                Baskets.Basket memory basket = baskets[i];\n\n                Payment memory payment = Payment(\n                    basket.account,\n                    _account,\n                    basket.price,\n                    false,\n                    block.timestamp\n                );\n                payment = _pay(crumb, payment);\n                payments[_domain][_sessionId].push(payment);\n                crumb.paymentsCount = payments[_domain][_sessionId].length;\n            }\n        }\n\n        crumbWP = _crumbToCrumbWP(crumb);\n\n        emit CreateCrumbEvent(\n            crumbWP.sessionId,\n            crumbWP.domain,\n            crumbWP.date,\n            crumbWP.payments,\n            crumbWP.paymentsCount\n        );\n\n        return crumbWP;\n    }\n\n    function getCrumbs(string memory _domain)\n        public\n        returns (CrumbWithPayments[] memory)\n    {\n        Crumb[] memory domainCrumbs = crumbs[_domain];\n        uint256 crumbsFoundCount = 0;\n\n        for (uint256 i = 0; i < domainCrumbs.length; i++) {\n            Crumb memory crumb = domainCrumbs[i];\n            bool sameDomain = _compareStrings(crumb.domain, _domain);\n\n            if (sameDomain) {\n                crumbsFoundCount++;\n            }\n        }\n\n        CrumbWithPayments[] memory crumbsWPfound = new CrumbWithPayments[](\n            crumbsFoundCount\n        );\n        uint256 crumbsFoundIndex = 0;\n\n        for (uint256 i = 0; i < domainCrumbs.length; i++) {\n            Crumb memory crumb = domainCrumbs[i];\n            bool sameDomain = _compareStrings(crumb.domain, _domain);\n\n            if (sameDomain) {\n                crumbsWPfound[crumbsFoundIndex] = _crumbToCrumbWP(crumb);\n                crumbsFoundIndex++;\n            }\n        }\n\n        emit CrumbsFoundEvent(_domain, crumbsWPfound, crumbsWPfound.length);\n\n        return crumbsWPfound;\n    }\n\n    function _getOldCrumb(Crumb memory _crumb)\n        internal\n        view\n        returns (Crumb memory sessionCrumb, int256 index)\n    {\n        Crumb[] memory domainCrumbs = crumbs[_crumb.domain];\n\n        for (uint256 i = 0; i < domainCrumbs.length; i++) {\n            Crumb memory domainCrumb = domainCrumbs[i];\n            bool sameSessionId = _compareStrings(\n                domainCrumb.sessionId,\n                _crumb.sessionId\n            );\n\n            if (sameSessionId) {\n                sessionCrumb = domainCrumb;\n                return (sessionCrumb, int256(i));\n            }\n        }\n\n        return (sessionCrumb, -1);\n    }\n\n    function _checkCrumbShouldUpdate(\n        Crumb memory _crumb,\n        Crumb memory _oldCrumb\n    ) internal pure returns (bool success, uint256 hoursleft) {\n        uint256 diffHours = (_crumb.date - _oldCrumb.date) / 60 / 60;\n\n        success = diffHours > 24;\n        hoursleft = success ? 0 : 24 - diffHours;\n\n        return (success, hoursleft);\n    }\n\n    function _pay(Crumb memory _crumb, Payment memory _payment)\n        public\n        returns (Payment memory)\n    {\n        _payment.date = block.timestamp;\n\n        try basketsContract.pay(_crumb, _payment) returns (bool paid) {\n            _payment.paid = paid;\n        } catch {\n            _payment.paid = false;\n        }\n\n        return _payment;\n    }\n\n    function _crumbToCrumbWP(Crumb memory _crumb)\n        internal\n        view\n        returns (CrumbWithPayments memory crumbWithPayments)\n    {\n        crumbWithPayments = CrumbWithPayments(\n            _crumb.sessionId,\n            _crumb.domain,\n            _crumb.date,\n            payments[_crumb.domain][_crumb.sessionId],\n            payments[_crumb.domain][_crumb.sessionId].length\n        );\n\n        return crumbWithPayments;\n    }\n\n    function _compareStrings(string memory _a, string memory _b)\n        internal\n        pure\n        returns (bool)\n    {\n        return\n            keccak256(abi.encodePacked(_a)) == keccak256(abi.encodePacked(_b));\n    }\n\n    function _compareAccounts(address _a, address _b)\n        internal\n        pure\n        returns (bool)\n    {\n        return _a == _b;\n    }\n}\n",
  "sourcePath": "/Users/junquera/Projects/BreadCrumbsDapp/backend/contracts/Crumbs.sol",
  "compiler": {
    "name": "solc",
    "version": "0.8.10+commit.fc410830.Emscripten.clang"
  },
  "schemaVersion": "3.4.3",
  "updatedAt": "2022-03-07T09:42:29.589Z",
  "devdoc": {
    "kind": "dev",
    "methods": {},
    "version": 1
  },
  "userdoc": {
    "kind": "user",
    "methods": {},
    "version": 1
  }
}