{
  "contractName": "Signatures",
  "abi": [
    {
      "constant": true,
      "inputs": [],
      "name": "name",
      "outputs": [
        {
          "name": "",
          "type": "string"
        }
      ],
      "payable": false,
      "stateMutability": "view",
      "type": "function",
      "signature": "0x06fdde03"
    },
    {
      "constant": true,
      "inputs": [],
      "name": "signatureCount",
      "outputs": [
        {
          "name": "",
          "type": "uint256"
        }
      ],
      "payable": false,
      "stateMutability": "view",
      "type": "function",
      "signature": "0xe7f55ed6"
    },
    {
      "inputs": [],
      "payable": false,
      "stateMutability": "nonpayable",
      "type": "constructor",
      "signature": "constructor"
    },
    {
      "anonymous": false,
      "inputs": [
        {
          "indexed": false,
          "name": "id",
          "type": "uint256"
        },
        {
          "indexed": false,
          "name": "owner",
          "type": "address"
        },
        {
          "indexed": false,
          "name": "attackVote",
          "type": "uint256"
        },
        {
          "indexed": false,
          "name": "normalVote",
          "type": "uint256"
        },
        {
          "indexed": false,
          "name": "ipfsHash",
          "type": "string"
        }
      ],
      "name": "SignatureAdded",
      "type": "event",
      "signature": "0x50fa42988bfec07e801c6ad5abb142d83f8e074c06fba1e9c275d9a494e48a80"
    },
    {
      "constant": false,
      "inputs": [
        {
          "name": "_hash",
          "type": "string"
        }
      ],
      "name": "addNewSignature",
      "outputs": [],
      "payable": false,
      "stateMutability": "nonpayable",
      "type": "function",
      "signature": "0xf703ceb2"
    },
    {
      "constant": true,
      "inputs": [],
      "name": "getFiles",
      "outputs": [
        {
          "components": [
            {
              "name": "id",
              "type": "uint256"
            },
            {
              "name": "owner",
              "type": "address"
            },
            {
              "name": "attackVote",
              "type": "uint256"
            },
            {
              "name": "normalVote",
              "type": "uint256"
            },
            {
              "name": "ipfsHash",
              "type": "string"
            }
          ],
          "name": "",
          "type": "tuple[]"
        }
      ],
      "payable": false,
      "stateMutability": "view",
      "type": "function",
      "signature": "0x2da96d73"
    }
  ],
  "bytecode": "0x6080604052600060015534801561001557600080fd5b506040805190810160405280601181526020017f436f6e7472616374204465706c6f79656400000000000000000000000000000081525060009080519060200190610061929190610067565b5061010c565b828054600181600116156101000203166002900490600052602060002090601f016020900481019282601f106100a857805160ff19168380011785556100d6565b828001600101855582156100d6579182015b828111156100d55782518255916020019190600101906100ba565b5b5090506100e391906100e7565b5090565b61010991905b808211156101055760008160009055506001016100ed565b5090565b90565b6109ce8061011b6000396000f3fe608060405260043610610062576000357c0100000000000000000000000000000000000000000000000000000000900463ffffffff16806306fdde03146100675780632da96d7314610092578063e7f55ed6146100bd578063f703ceb2146100e8575b600080fd5b34801561007357600080fd5b5061007c610111565b6040516100899190610780565b60405180910390f35b34801561009e57600080fd5b506100a76101af565b6040516100b4919061075e565b60405180910390f35b3480156100c957600080fd5b506100d2610325565b6040516100df91906107a2565b60405180910390f35b3480156100f457600080fd5b5061010f600480360361010a9190810190610582565b61032b565b005b60008054600181600116156101000203166002900480601f0160208091040260200160405190810160405280929190818152602001828054600181600116156101000203166002900480156101a75780601f1061017c576101008083540402835291602001916101a7565b820191906000526020600020905b81548152906001019060200180831161018a57829003601f168201915b505050505081565b60606002805480602002602001604051908101604052809291908181526020016000905b8282101561031c578382906000526020600020906005020160a06040519081016040529081600082015481526020016001820160009054906101000a900473ffffffffffffffffffffffffffffffffffffffff1673ffffffffffffffffffffffffffffffffffffffff1673ffffffffffffffffffffffffffffffffffffffff1681526020016002820154815260200160038201548152602001600482018054600181600116156101000203166002900480601f0160208091040260200160405190810160405280929190818152602001828054600181600116156101000203166002900480156103045780601f106102d957610100808354040283529160200191610304565b820191906000526020600020905b8154815290600101906020018083116102e757829003601f168201915b505050505081525050815260200190600101906101d3565b50505050905090565b60015481565b6000815111151561033b57600080fd5b600160008154809291906001019190505550600260a06040519081016040528060015481526020013373ffffffffffffffffffffffffffffffffffffffff168152602001600181526020016000815260200183815250908060018154018082558091505090600182039060005260206000209060050201600090919290919091506000820151816000015560208201518160010160006101000a81548173ffffffffffffffffffffffffffffffffffffffff021916908373ffffffffffffffffffffffffffffffffffffffff1602179055506040820151816002015560608201518160030155608082015181600401908051906020019061043d929190610487565b505050507f50fa42988bfec07e801c6ad5abb142d83f8e074c06fba1e9c275d9a494e48a8060015433600160008560405161047c9594939291906107bd565b60405180910390a150565b828054600181600116156101000203166002900490600052602060002090601f016020900481019282601f106104c857805160ff19168380011785556104f6565b828001600101855582156104f6579182015b828111156104f55782518255916020019190600101906104da565b5b5090506105039190610507565b5090565b61052991905b8082111561052557600081600090555060010161050d565b5090565b90565b600082601f830112151561053f57600080fd5b813561055261054d82610844565b610817565b9150808252602083016020830185838301111561056e57600080fd5b610579838284610941565b50505092915050565b60006020828403121561059457600080fd5b600082013567ffffffffffffffff8111156105ae57600080fd5b6105ba8482850161052c565b91505092915050565b6105cc816108e7565b82525050565b6105db816108ab565b82525050565b60006105ec8261087d565b8084526020840193508360208202850161060585610870565b60005b8481101561063e5783830388526106208383516106d9565b925061062b8261089e565b9150602088019750600181019050610608565b508196508694505050505092915050565b610658816108f9565b82525050565b6106678161090b565b82525050565b600061067882610893565b80845261068c816020860160208601610950565b61069581610983565b602085010191505092915050565b60006106ae82610888565b8084526106c2816020860160208601610950565b6106cb81610983565b602085010191505092915050565b600060a0830160008301516106f1600086018261074f565b50602083015161070460208601826105d2565b506040830151610717604086018261074f565b50606083015161072a606086018261074f565b506080830151848203608086015261074282826106a3565b9150508091505092915050565b610758816108dd565b82525050565b6000602082019050818103600083015261077881846105e1565b905092915050565b6000602082019050818103600083015261079a81846106a3565b905092915050565b60006020820190506107b7600083018461074f565b92915050565b600060a0820190506107d2600083018861074f565b6107df60208301876105c3565b6107ec604083018661065e565b6107f9606083018561064f565b818103608083015261080b818461066d565b90509695505050505050565b6000604051905081810181811067ffffffffffffffff8211171561083a57600080fd5b8060405250919050565b600067ffffffffffffffff82111561085b57600080fd5b601f19601f8301169050602081019050919050565b6000602082019050919050565b600081519050919050565b600081519050919050565b600081519050919050565b6000602082019050919050565b60006108b6826108bd565b9050919050565b600073ffffffffffffffffffffffffffffffffffffffff82169050919050565b6000819050919050565b60006108f28261091d565b9050919050565b6000610904826108dd565b9050919050565b6000610916826108dd565b9050919050565b60006109288261092f565b9050919050565b600061093a826108bd565b9050919050565b82818337600083830152505050565b60005b8381101561096e578082015181840152602081019050610953565b8381111561097d576000848401525b50505050565b6000601f19601f830116905091905056fea265627a7a723058206c22b09eeff847bf1b66ac3d06460004a2fb76410b1a606334e500f1005692206c6578706572696d656e74616cf50037",
  "source": "pragma solidity ^0.5.0;\r\npragma experimental ABIEncoderV2;\r\n\r\ncontract Signatures {\r\n    string public name;\r\n    uint public signatureCount = 0;\r\n    Signature[] signatures;\r\n\r\n    struct Signature {\r\n        uint id;\r\n        address owner;\r\n        uint attackVote;\r\n        uint normalVote;\r\n        string ipfsHash;\r\n    }\r\n\r\n    event SignatureAdded(\r\n        uint id,\r\n        address owner,\r\n        uint attackVote,\r\n        uint normalVote, \r\n        string ipfsHash\r\n    );\r\n\r\n    constructor() public {\r\n        name = \"Contract Deployed\";\r\n    }\r\n\r\n    function addNewSignature(string memory _hash) public {\r\n        // Require a valid hash\r\n        require(bytes(_hash).length > 0);\r\n        // Increment signature count\r\n        signatureCount ++;\r\n        // Create the product\r\n        signatures.push(Signature(signatureCount, msg.sender, 1, 0, _hash));\r\n        // Trigger an event\r\n        emit SignatureAdded(signatureCount, msg.sender, 1, 0, _hash);\r\n    }\r\n\r\n    function getFiles() public view returns (Signature[] memory) {\r\n        return signatures;\r\n    }\r\n\r\n    \r\n\r\n}\r\n",
  "sourcePath": "C:/Users/suuser/Desktop/Sabanci/Graduate Workspace/Second Semester/SEC532/Project/Code/blockchain_project/src/contracts/Signatures.sol",
  "compiler": {
    "name": "solc",
    "version": "0.5.0+commit.1d4f565a.Emscripten.clang"
  },
  "schemaVersion": "3.0.2",
  "updatedAt": "2022-06-09T15:47:38.107Z",
  "devdoc": {
    "methods": {}
  },
  "userdoc": {
    "methods": {}
  }
}