{
  "contractName": "Signatures",
  "abi": [
    {
      "constant": true,
      "inputs": [],
      "name": "name",
      "outputs": [
        {
          "name": "",
          "type": "string"
        }
      ],
      "payable": false,
      "stateMutability": "view",
      "type": "function",
      "signature": "0x06fdde03"
    },
    {
      "constant": true,
      "inputs": [
        {
          "name": "",
          "type": "uint256"
        }
      ],
      "name": "signatures",
      "outputs": [
        {
          "name": "id",
          "type": "uint256"
        },
        {
          "name": "owner",
          "type": "address"
        },
        {
          "name": "attackVote",
          "type": "uint256"
        },
        {
          "name": "normalVote",
          "type": "uint256"
        },
        {
          "name": "ipfsHash",
          "type": "string"
        }
      ],
      "payable": false,
      "stateMutability": "view",
      "type": "function",
      "signature": "0x8be10194"
    },
    {
      "constant": true,
      "inputs": [],
      "name": "signatureCount",
      "outputs": [
        {
          "name": "",
          "type": "uint256"
        }
      ],
      "payable": false,
      "stateMutability": "view",
      "type": "function",
      "signature": "0xe7f55ed6"
    },
    {
      "inputs": [],
      "payable": false,
      "stateMutability": "nonpayable",
      "type": "constructor",
      "signature": "constructor"
    },
    {
      "anonymous": false,
      "inputs": [
        {
          "indexed": false,
          "name": "id",
          "type": "uint256"
        },
        {
          "indexed": false,
          "name": "owner",
          "type": "address"
        },
        {
          "indexed": false,
          "name": "attackVote",
          "type": "uint256"
        },
        {
          "indexed": false,
          "name": "normalVote",
          "type": "uint256"
        },
        {
          "indexed": false,
          "name": "ipfsHash",
          "type": "string"
        }
      ],
      "name": "SignatureAdded",
      "type": "event",
      "signature": "0x50fa42988bfec07e801c6ad5abb142d83f8e074c06fba1e9c275d9a494e48a80"
    },
    {
      "constant": false,
      "inputs": [
        {
          "name": "_hash",
          "type": "string"
        }
      ],
      "name": "addNewSignature",
      "outputs": [],
      "payable": false,
      "stateMutability": "nonpayable",
      "type": "function",
      "signature": "0xf703ceb2"
    }
  ],
  "bytecode": "0x6080604052600060015534801561001557600080fd5b506040805190810160405280601181526020017f436f6e7472616374204465706c6f79656400000000000000000000000000000081525060009080519060200190610061929190610067565b5061010c565b828054600181600116156101000203166002900490600052602060002090601f016020900481019282601f106100a857805160ff19168380011785556100d6565b828001600101855582156100d6579182015b828111156100d55782518255916020019190600101906100ba565b5b5090506100e391906100e7565b5090565b61010991905b808211156101055760008160009055506001016100ed565b5090565b90565b6107368061011b6000396000f3fe608060405260043610610062576000357c0100000000000000000000000000000000000000000000000000000000900463ffffffff16806306fdde03146100675780638be10194146100f7578063e7f55ed6146101f3578063f703ceb21461021e575b600080fd5b34801561007357600080fd5b5061007c6102e6565b6040518080602001828103825283818151815260200191508051906020019080838360005b838110156100bc5780820151818401526020810190506100a1565b50505050905090810190601f1680156100e95780820380516001836020036101000a031916815260200191505b509250505060405180910390f35b34801561010357600080fd5b506101306004803603602081101561011a57600080fd5b8101908080359060200190929190505050610384565b604051808681526020018573ffffffffffffffffffffffffffffffffffffffff1673ffffffffffffffffffffffffffffffffffffffff16815260200184815260200183815260200180602001828103825283818151815260200191508051906020019080838360005b838110156101b4578082015181840152602081019050610199565b50505050905090810190601f1680156101e15780820380516001836020036101000a031916815260200191505b50965050505050505060405180910390f35b3480156101ff57600080fd5b50610208610472565b6040518082815260200191505060405180910390f35b34801561022a57600080fd5b506102e46004803603602081101561024157600080fd5b810190808035906020019064010000000081111561025e57600080fd5b82018360208201111561027057600080fd5b8035906020019184600183028401116401000000008311171561029257600080fd5b91908080601f016020809104026020016040519081016040528093929190818152602001838380828437600081840152601f19601f820116905080830192505050505050509192919290505050610478565b005b60008054600181600116156101000203166002900480601f01602080910402602001604051908101604052809291908181526020018280546001816001161561010002031660029004801561037c5780601f106103515761010080835404028352916020019161037c565b820191906000526020600020905b81548152906001019060200180831161035f57829003601f168201915b505050505081565b60026020528060005260406000206000915090508060000154908060010160009054906101000a900473ffffffffffffffffffffffffffffffffffffffff1690806002015490806003015490806004018054600181600116156101000203166002900480601f0160208091040260200160405190810160405280929190818152602001828054600181600116156101000203166002900480156104685780601f1061043d57610100808354040283529160200191610468565b820191906000526020600020905b81548152906001019060200180831161044b57829003601f168201915b5050505050905085565b60015481565b6000815111151561048857600080fd5b60016000815480929190600101919050555060a06040519081016040528060015481526020013373ffffffffffffffffffffffffffffffffffffffff1681526020016001815260200160008152602001828152506002600060015481526020019081526020016000206000820151816000015560208201518160010160006101000a81548173ffffffffffffffffffffffffffffffffffffffff021916908373ffffffffffffffffffffffffffffffffffffffff16021790555060408201518160020155606082015181600301556080820151816004019080519060200190610572929190610665565b509050507f50fa42988bfec07e801c6ad5abb142d83f8e074c06fba1e9c275d9a494e48a80600154336001600085604051808681526020018573ffffffffffffffffffffffffffffffffffffffff1673ffffffffffffffffffffffffffffffffffffffff16815260200184815260200183815260200180602001828103825283818151815260200191508051906020019080838360005b83811015610624578082015181840152602081019050610609565b50505050905090810190601f1680156106515780820380516001836020036101000a031916815260200191505b50965050505050505060405180910390a150565b828054600181600116156101000203166002900490600052602060002090601f016020900481019282601f106106a657805160ff19168380011785556106d4565b828001600101855582156106d4579182015b828111156106d35782518255916020019190600101906106b8565b5b5090506106e191906106e5565b5090565b61070791905b808211156107035760008160009055506001016106eb565b5090565b9056fea165627a7a72305820178089ab9166a08fdbef3615b9794981c829d239a00a3873740133891105b56b0029",
  "source": "pragma solidity ^0.5.0;\r\n\r\ncontract Signatures {\r\n    string public name;\r\n    uint public signatureCount = 0;\r\n    mapping(uint => Signature) public signatures;\r\n\r\n    struct Signature {\r\n        uint id;\r\n        address owner;\r\n        uint attackVote;\r\n        uint normalVote;\r\n        string ipfsHash;\r\n    }\r\n\r\n    event SignatureAdded(\r\n        uint id,\r\n        address owner,\r\n        uint attackVote,\r\n        uint normalVote, \r\n        string ipfsHash\r\n    );\r\n\r\n    constructor() public {\r\n        name = \"Contract Deployed\";\r\n    }\r\n\r\n    function addNewSignature(string memory _hash) public {\r\n        // Require a valid hash\r\n        require(bytes(_hash).length > 0);\r\n        // Increment signature count\r\n        signatureCount ++;\r\n        // Create the product\r\n        signatures[signatureCount] = Signature(signatureCount, msg.sender, 1, 0, _hash);\r\n        // Trigger an event\r\n        emit SignatureAdded(signatureCount, msg.sender, 1, 0, _hash);\r\n    }\r\n\r\n}\r\n",
  "sourcePath": "C:/Users/suuser/Desktop/Sabanci/Graduate Workspace/Second Semester/SEC532/Project/Code/blockchain_project/src/contracts/Signatures.sol",
  "compiler": {
    "name": "solc",
    "version": "0.5.0+commit.1d4f565a.Emscripten.clang"
  },
  "schemaVersion": "3.0.2",
  "updatedAt": "2022-06-08T18:14:02.259Z",
  "devdoc": {
    "methods": {}
  },
  "userdoc": {
    "methods": {}
  }
}