{
  "contractName": "Signatures",
  "abi": [
    {
      "constant": true,
      "inputs": [],
      "name": "name",
      "outputs": [
        {
          "name": "",
          "type": "string"
        }
      ],
      "payable": false,
      "stateMutability": "view",
      "type": "function",
      "signature": "0x06fdde03"
    },
    {
      "constant": true,
      "inputs": [],
      "name": "signatureCount",
      "outputs": [
        {
          "name": "",
          "type": "uint256"
        }
      ],
      "payable": false,
      "stateMutability": "view",
      "type": "function",
      "signature": "0xe7f55ed6"
    },
    {
      "inputs": [],
      "payable": false,
      "stateMutability": "nonpayable",
      "type": "constructor",
      "signature": "constructor"
    },
    {
      "anonymous": false,
      "inputs": [
        {
          "indexed": false,
          "name": "id",
          "type": "uint256"
        },
        {
          "indexed": false,
          "name": "owner",
          "type": "address"
        },
        {
          "indexed": false,
          "name": "attackVote",
          "type": "uint256"
        },
        {
          "indexed": false,
          "name": "normalVote",
          "type": "uint256"
        },
        {
          "indexed": false,
          "name": "ipfsHash",
          "type": "string"
        }
      ],
      "name": "SignatureAdded",
      "type": "event",
      "signature": "0x50fa42988bfec07e801c6ad5abb142d83f8e074c06fba1e9c275d9a494e48a80"
    },
    {
      "anonymous": false,
      "inputs": [
        {
          "indexed": false,
          "name": "id",
          "type": "uint256"
        },
        {
          "indexed": false,
          "name": "owner",
          "type": "address"
        },
        {
          "indexed": false,
          "name": "attackVote",
          "type": "uint256"
        },
        {
          "indexed": false,
          "name": "normalVote",
          "type": "uint256"
        },
        {
          "indexed": false,
          "name": "ipfsHash",
          "type": "string"
        }
      ],
      "name": "SignatureVoted",
      "type": "event",
      "signature": "0x51a5eb9bafdeb501f8bdf12f859d49288742e31d0e9484e9a3d07add4ca0e47c"
    },
    {
      "constant": false,
      "inputs": [
        {
          "name": "_hash",
          "type": "string"
        }
      ],
      "name": "addNewSignature",
      "outputs": [],
      "payable": false,
      "stateMutability": "nonpayable",
      "type": "function",
      "signature": "0xf703ceb2"
    },
    {
      "constant": true,
      "inputs": [],
      "name": "getFiles",
      "outputs": [
        {
          "components": [
            {
              "name": "id",
              "type": "uint256"
            },
            {
              "name": "owner",
              "type": "address"
            },
            {
              "name": "attackVote",
              "type": "uint256"
            },
            {
              "name": "normalVote",
              "type": "uint256"
            },
            {
              "name": "ipfsHash",
              "type": "string"
            }
          ],
          "name": "",
          "type": "tuple[]"
        }
      ],
      "payable": false,
      "stateMutability": "view",
      "type": "function",
      "signature": "0x2da96d73"
    },
    {
      "constant": false,
      "inputs": [
        {
          "name": "_id",
          "type": "uint256"
        },
        {
          "name": "_vote",
          "type": "uint256"
        }
      ],
      "name": "voteSignature",
      "outputs": [],
      "payable": false,
      "stateMutability": "nonpayable",
      "type": "function",
      "signature": "0xc98d4d81"
    }
  ],
  "bytecode": "0x6080604052600060015534801561001557600080fd5b506040805190810160405280601181526020017f436f6e7472616374204465706c6f79656400000000000000000000000000000081525060009080519060200190610061929190610067565b5061010c565b828054600181600116156101000203166002900490600052602060002090601f016020900481019282601f106100a857805160ff19168380011785556100d6565b828001600101855582156100d6579182015b828111156100d55782518255916020019190600101906100ba565b5b5090506100e391906100e7565b5090565b61010991905b808211156101055760008160009055506001016100ed565b5090565b90565b611078806200011c6000396000f3fe60806040526004361061006d576000357c0100000000000000000000000000000000000000000000000000000000900463ffffffff16806306fdde03146100725780632da96d731461009d578063c98d4d81146100c8578063e7f55ed6146100f1578063f703ceb21461011c575b600080fd5b34801561007e57600080fd5b50610087610145565b6040516100949190610da6565b60405180910390f35b3480156100a957600080fd5b506100b26101e3565b6040516100bf9190610d84565b60405180910390f35b3480156100d457600080fd5b506100ef60048036036100ea9190810190610b50565b610359565b005b3480156100fd57600080fd5b506101066107aa565b6040516101139190610de8565b60405180910390f35b34801561012857600080fd5b50610143600480360361013e9190810190610b0f565b6107b0565b005b60008054600181600116156101000203166002900480601f0160208091040260200160405190810160405280929190818152602001828054600181600116156101000203166002900480156101db5780601f106101b0576101008083540402835291602001916101db565b820191906000526020600020905b8154815290600101906020018083116101be57829003601f168201915b505050505081565b60606002805480602002602001604051908101604052809291908181526020016000905b82821015610350578382906000526020600020906005020160a06040519081016040529081600082015481526020016001820160009054906101000a900473ffffffffffffffffffffffffffffffffffffffff1673ffffffffffffffffffffffffffffffffffffffff1673ffffffffffffffffffffffffffffffffffffffff1681526020016002820154815260200160038201548152602001600482018054600181600116156101000203166002900480601f0160208091040260200160405190810160405280929190818152602001828054600181600116156101000203166002900480156103385780601f1061030d57610100808354040283529160200191610338565b820191906000526020600020905b81548152906001019060200180831161031b57829003601f168201915b50505050508152505081526020019060010190610207565b50505050905090565b6103616109ba565b60028381548110151561037057fe5b906000526020600020906005020160a06040519081016040529081600082015481526020016001820160009054906101000a900473ffffffffffffffffffffffffffffffffffffffff1673ffffffffffffffffffffffffffffffffffffffff1673ffffffffffffffffffffffffffffffffffffffff1681526020016002820154815260200160038201548152602001600482018054600181600116156101000203166002900480601f0160208091040260200160405190810160405280929190818152602001828054600181600116156101000203166002900480156104975780601f1061046c57610100808354040283529160200191610497565b820191906000526020600020905b81548152906001019060200180831161047a57829003601f168201915b5050505050815250509050600080905060008090505b60038054905081101561056b573373ffffffffffffffffffffffffffffffffffffffff166003828154811015156104e057fe5b906000526020600020906002020160000160009054906101000a900473ffffffffffffffffffffffffffffffffffffffff1673ffffffffffffffffffffffffffffffffffffffff1614801561055457508460038281548110151561054057fe5b906000526020600020906002020160010154145b1561055e57600191505b80806001019150506104ad565b50600015158115151415156105b5576040517f08c379a00000000000000000000000000000000000000000000000000000000081526004016105ac90610dc8565b60405180910390fd5b60008260400151905060008360600151905060018514156105dd5781806001019250506105f0565b60008514156105ef5780806001019150505b5b81846040018181525050808460600181815250508360028781548110151561061457fe5b90600052602060002090600502016000820151816000015560208201518160010160006101000a81548173ffffffffffffffffffffffffffffffffffffffff021916908373ffffffffffffffffffffffffffffffffffffffff160217905550604082015181600201556060820151816003015560808201518160040190805190602001906106a3929190610a00565b50905050600360408051908101604052803373ffffffffffffffffffffffffffffffffffffffff168152602001888152509080600181540180825580915050906001820390600052602060002090600202016000909192909190915060008201518160000160006101000a81548173ffffffffffffffffffffffffffffffffffffffff021916908373ffffffffffffffffffffffffffffffffffffffff160217905550602082015181600101555050507f51a5eb9bafdeb501f8bdf12f859d49288742e31d0e9484e9a3d07add4ca0e47c86856020015186604001518760600151886080015160405161079a959493929190610e5d565b60405180910390a1505050505050565b60015481565b600081511115156107c057600080fd5b600260a06040519081016040528060015481526020013373ffffffffffffffffffffffffffffffffffffffff168152602001600181526020016000815260200183815250908060018154018082558091505090600182039060005260206000209060050201600090919290919091506000820151816000015560208201518160010160006101000a81548173ffffffffffffffffffffffffffffffffffffffff021916908373ffffffffffffffffffffffffffffffffffffffff160217905550604082015181600201556060820151816003015560808201518160040190805190602001906108b0929190610a00565b50505050600360408051908101604052803373ffffffffffffffffffffffffffffffffffffffff1681526020016001548152509080600181540180825580915050906001820390600052602060002090600202016000909192909190915060008201518160000160006101000a81548173ffffffffffffffffffffffffffffffffffffffff021916908373ffffffffffffffffffffffffffffffffffffffff160217905550602082015181600101555050506001600081548092919060010191905055507f50fa42988bfec07e801c6ad5abb142d83f8e074c06fba1e9c275d9a494e48a806001543360016000856040516109af959493929190610e03565b60405180910390a150565b60a06040519081016040528060008152602001600073ffffffffffffffffffffffffffffffffffffffff1681526020016000815260200160008152602001606081525090565b828054600181600116156101000203166002900490600052602060002090601f016020900481019282601f10610a4157805160ff1916838001178555610a6f565b82800160010185558215610a6f579182015b82811115610a6e578251825591602001919060010190610a53565b5b509050610a7c9190610a80565b5090565b610aa291905b80821115610a9e576000816000905550600101610a86565b5090565b90565b600082601f8301121515610ab857600080fd5b8135610acb610ac682610ee4565b610eb7565b91508082526020830160208301858383011115610ae757600080fd5b610af2838284610feb565b50505092915050565b6000610b078235610f87565b905092915050565b600060208284031215610b2157600080fd5b600082013567ffffffffffffffff811115610b3b57600080fd5b610b4784828501610aa5565b91505092915050565b60008060408385031215610b6357600080fd5b6000610b7185828601610afb565b9250506020610b8285828601610afb565b9150509250929050565b610b9581610f91565b82525050565b610ba481610f4b565b82525050565b6000610bb582610f1d565b80845260208401935083602082028501610bce85610f10565b60005b84811015610c07578383038852610be9838351610cff565b9250610bf482610f3e565b9150602088019750600181019050610bd1565b508196508694505050505092915050565b610c2181610fa3565b82525050565b610c3081610fb5565b82525050565b6000610c4182610f33565b808452610c55816020860160208601610ffa565b610c5e8161102d565b602085010191505092915050565b6000610c7782610f28565b808452610c8b816020860160208601610ffa565b610c948161102d565b602085010191505092915050565b6000602982527f596f75206861766520766f74656420666f722074686973207369676e6174757260208301527f65206265666f72652100000000000000000000000000000000000000000000006040830152606082019050919050565b600060a083016000830151610d176000860182610d75565b506020830151610d2a6020860182610b9b565b506040830151610d3d6040860182610d75565b506060830151610d506060860182610d75565b5060808301518482036080860152610d688282610c6c565b9150508091505092915050565b610d7e81610f7d565b82525050565b60006020820190508181036000830152610d9e8184610baa565b905092915050565b60006020820190508181036000830152610dc08184610c6c565b905092915050565b60006020820190508181036000830152610de181610ca2565b9050919050565b6000602082019050610dfd6000830184610d75565b92915050565b600060a082019050610e186000830188610d75565b610e256020830187610b8c565b610e326040830186610c27565b610e3f6060830185610c18565b8181036080830152610e518184610c36565b90509695505050505050565b600060a082019050610e726000830188610d75565b610e7f6020830187610b9b565b610e8c6040830186610d75565b610e996060830185610d75565b8181036080830152610eab8184610c6c565b90509695505050505050565b6000604051905081810181811067ffffffffffffffff82111715610eda57600080fd5b8060405250919050565b600067ffffffffffffffff821115610efb57600080fd5b601f19601f8301169050602081019050919050565b6000602082019050919050565b600081519050919050565b600081519050919050565b600081519050919050565b6000602082019050919050565b6000610f5682610f5d565b9050919050565b600073ffffffffffffffffffffffffffffffffffffffff82169050919050565b6000819050919050565b6000819050919050565b6000610f9c82610fc7565b9050919050565b6000610fae82610f7d565b9050919050565b6000610fc082610f7d565b9050919050565b6000610fd282610fd9565b9050919050565b6000610fe482610f5d565b9050919050565b82818337600083830152505050565b60005b83811015611018578082015181840152602081019050610ffd565b83811115611027576000848401525b50505050565b6000601f19601f830116905091905056fea265627a7a723058206685815cd2ec7b5df6a33b659e443c01d6fa3b9bffb0bc699a40f04946ac599f6c6578706572696d656e74616cf50037",
  "source": "pragma solidity ^0.5.0;\r\npragma experimental ABIEncoderV2;\r\n\r\n\r\n\r\ncontract Signatures {\r\n    string public name;\r\n    uint public signatureCount = 0;\r\n    Signature[] signatures;\r\n    Voter[] voters;\r\n    \r\n\r\n    struct Signature {\r\n        uint id;\r\n        address owner;\r\n        uint attackVote;\r\n        uint normalVote;\r\n        string ipfsHash;\r\n    }\r\n\r\n     struct Voter {\r\n        address owner;\r\n        uint id;\r\n       \r\n    }\r\n\r\n    event SignatureAdded(\r\n        uint id,\r\n        address owner,\r\n        uint attackVote,\r\n        uint normalVote, \r\n        string ipfsHash\r\n    );\r\n\r\n    event SignatureVoted(\r\n        uint id,\r\n        address owner,\r\n        uint attackVote,\r\n        uint normalVote, \r\n        string ipfsHash\r\n    );\r\n    constructor() public {\r\n        name = \"Contract Deployed\";\r\n    }\r\n\r\n    function addNewSignature(string memory _hash) public {\r\n        // Require a valid hash\r\n        require(bytes(_hash).length > 0);\r\n        // Create the signature\r\n        signatures.push(Signature(signatureCount, msg.sender, 1, 0, _hash));\r\n\r\n        voters.push(Voter(msg.sender,signatureCount));\r\n\r\n        // Increment signature count\r\n        signatureCount ++;\r\n        // Trigger an event\r\n        emit SignatureAdded(signatureCount, msg.sender, 1, 0, _hash);\r\n    }\r\n\r\n    function getFiles() public view returns (Signature[] memory) {\r\n        return signatures;\r\n    }\r\n\r\n    function voteSignature(uint _id, uint _vote) public {\r\n        // Fetch the product\r\n        Signature memory _signature = signatures[_id];\r\n        // Fetch the owner\r\n        //address _owner = _signature.owner;\r\n        // Make sure the product has a valid id\r\n        //require(_signature.id > 0 && _signature.id <= signatureCount);\r\n        // Require that the owner is not the voter\r\n        // require(_owner != msg.sender);\r\n\r\n        // Make sure user has not voted before\r\n        bool hasVoted = false;\r\n        \r\n        \r\n        \r\n        for (uint i = 0; i < voters.length; i++) {\r\n            if (voters[i].owner == msg.sender && voters[i].id == _id) {\r\n                hasVoted = true;\r\n            }\r\n        }\r\n        \r\n        require(hasVoted == false, \"You have voted for this signature before!\");\r\n\r\n        // Add vote\r\n        uint attacks = _signature.attackVote;\r\n        uint normals = _signature.normalVote;\r\n        if(_vote == 1) {\r\n            attacks++;\r\n        }\r\n        else if(_vote == 0) {\r\n            normals++;\r\n        }\r\n        _signature.attackVote = attacks;\r\n        _signature.normalVote = normals;\r\n\r\n        \r\n      \r\n        // Update the product\r\n        signatures[_id] = _signature;\r\n\r\n        voters.push(Voter(msg.sender, _id));\r\n        // Trigger an event\r\n        emit SignatureVoted(_id, _signature.owner, _signature.attackVote, _signature.normalVote, _signature.ipfsHash);\r\n    }\r\n    \r\n\r\n}\r\n",
  "sourcePath": "C:/Users/suuser/Desktop/Sabanci/Graduate Workspace/Second Semester/SEC532/Project/Code/blockchain_project/src/contracts/Signatures.sol",
  "compiler": {
    "name": "solc",
    "version": "0.5.0+commit.1d4f565a.Emscripten.clang"
  },
  "schemaVersion": "3.0.2",
  "updatedAt": "2022-06-20T21:37:00.380Z",
  "devdoc": {
    "methods": {}
  },
  "userdoc": {
    "methods": {}
  }
}