{
  "contractName": "Signatures",
  "abi": [
    {
      "inputs": [],
      "payable": false,
      "stateMutability": "nonpayable",
      "type": "constructor"
    },
    {
      "anonymous": false,
      "inputs": [
        {
          "indexed": false,
          "internalType": "uint256",
          "name": "id",
          "type": "uint256"
        },
        {
          "indexed": false,
          "internalType": "address",
          "name": "owner",
          "type": "address"
        },
        {
          "indexed": false,
          "internalType": "uint256",
          "name": "attackVote",
          "type": "uint256"
        },
        {
          "indexed": false,
          "internalType": "uint256",
          "name": "normalVote",
          "type": "uint256"
        },
        {
          "indexed": false,
          "internalType": "string",
          "name": "ipfsHash",
          "type": "string"
        }
      ],
      "name": "SignatureAdded",
      "type": "event"
    },
    {
      "constant": true,
      "inputs": [],
      "name": "name",
      "outputs": [
        {
          "internalType": "string",
          "name": "",
          "type": "string"
        }
      ],
      "payable": false,
      "stateMutability": "view",
      "type": "function"
    },
    {
      "constant": true,
      "inputs": [],
      "name": "signatureCount",
      "outputs": [
        {
          "internalType": "uint256",
          "name": "",
          "type": "uint256"
        }
      ],
      "payable": false,
      "stateMutability": "view",
      "type": "function"
    },
    {
      "constant": false,
      "inputs": [
        {
          "internalType": "string",
          "name": "_hash",
          "type": "string"
        }
      ],
      "name": "addNewSignature",
      "outputs": [],
      "payable": false,
      "stateMutability": "nonpayable",
      "type": "function"
    },
    {
      "constant": true,
      "inputs": [],
      "name": "getFiles",
      "outputs": [
        {
          "components": [
            {
              "internalType": "uint256",
              "name": "id",
              "type": "uint256"
            },
            {
              "internalType": "address",
              "name": "owner",
              "type": "address"
            },
            {
              "internalType": "uint256",
              "name": "attackVote",
              "type": "uint256"
            },
            {
              "internalType": "uint256",
              "name": "normalVote",
              "type": "uint256"
            },
            {
              "internalType": "string",
              "name": "ipfsHash",
              "type": "string"
            }
          ],
          "internalType": "struct Signatures.Signature[]",
          "name": "",
          "type": "tuple[]"
        }
      ],
      "payable": false,
      "stateMutability": "view",
      "type": "function"
    }
  ],
  "bytecode": "0x6080604052600060015534801561001557600080fd5b506040518060400160405280601181526020017f436f6e7472616374204465706c6f79656400000000000000000000000000000081525060009080519060200190610061929190610067565b5061010c565b828054600181600116156101000203166002900490600052602060002090601f016020900481019282601f106100a857805160ff19168380011785556100d6565b828001600101855582156100d6579182015b828111156100d55782518255916020019190600101906100ba565b5b5090506100e391906100e7565b5090565b61010991905b808211156101055760008160009055506001016100ed565b5090565b90565b610a268061011b6000396000f3fe608060405234801561001057600080fd5b506004361061004c5760003560e01c806306fdde03146100515780632da96d731461006f578063e7f55ed61461008d578063f703ceb2146100ab575b600080fd5b6100596100c7565b6040516100669190610799565b60405180910390f35b610077610165565b6040516100849190610777565b60405180910390f35b6100956102da565b6040516100a291906107bb565b60405180910390f35b6100c560048036036100c09190810190610532565b6102e0565b005b60008054600181600116156101000203166002900480601f01602080910402602001604051908101604052809291908181526020018280546001816001161561010002031660029004801561015d5780601f106101325761010080835404028352916020019161015d565b820191906000526020600020905b81548152906001019060200180831161014057829003601f168201915b505050505081565b60606002805480602002602001604051908101604052809291908181526020016000905b828210156102d157838290600052602060002090600502016040518060a0016040529081600082015481526020016001820160009054906101000a900473ffffffffffffffffffffffffffffffffffffffff1673ffffffffffffffffffffffffffffffffffffffff1673ffffffffffffffffffffffffffffffffffffffff1681526020016002820154815260200160038201548152602001600482018054600181600116156101000203166002900480601f0160208091040260200160405190810160405280929190818152602001828054600181600116156101000203166002900480156102b95780601f1061028e576101008083540402835291602001916102b9565b820191906000526020600020905b81548152906001019060200180831161029c57829003601f168201915b50505050508152505081526020019060010190610189565b50505050905090565b60015481565b60008151116102ee57600080fd5b60016000815480929190600101919050555060026040518060a0016040528060015481526020013373ffffffffffffffffffffffffffffffffffffffff168152602001600181526020016000815260200183815250908060018154018082558091505090600182039060005260206000209060050201600090919290919091506000820151816000015560208201518160010160006101000a81548173ffffffffffffffffffffffffffffffffffffffff021916908373ffffffffffffffffffffffffffffffffffffffff160217905550604082015181600201556060820151816003015560808201518160040190805190602001906103ef929190610439565b505050507f50fa42988bfec07e801c6ad5abb142d83f8e074c06fba1e9c275d9a494e48a8060015433600160008560405161042e9594939291906107d6565b60405180910390a150565b828054600181600116156101000203166002900490600052602060002090601f016020900481019282601f1061047a57805160ff19168380011785556104a8565b828001600101855582156104a8579182015b828111156104a757825182559160200191906001019061048c565b5b5090506104b591906104b9565b5090565b6104db91905b808211156104d75760008160009055506001016104bf565b5090565b90565b600082601f8301126104ef57600080fd5b81356105026104fd8261085d565b610830565b9150808252602083016020830185838301111561051e57600080fd5b610529838284610990565b50505092915050565b60006020828403121561054457600080fd5b600082013567ffffffffffffffff81111561055e57600080fd5b61056a848285016104de565b91505092915050565b600061057f83836106e3565b905092915050565b61059081610936565b82525050565b61059f816108fa565b82525050565b60006105b082610899565b6105ba81856108c7565b9350836020820285016105cc85610889565b8060005b8581101561060857848403895281516105e98582610573565b94506105f4836108ba565b925060208a019950506001810190506105d0565b50829750879550505050505092915050565b61062381610948565b82525050565b6106328161095a565b82525050565b6000610643826108af565b61064d81856108e9565b935061065d81856020860161099f565b610666816109d2565b840191505092915050565b600061067c826108a4565b61068681856108d8565b935061069681856020860161099f565b61069f816109d2565b840191505092915050565b60006106b5826108a4565b6106bf81856108e9565b93506106cf81856020860161099f565b6106d8816109d2565b840191505092915050565b600060a0830160008301516106fb6000860182610759565b50602083015161070e6020860182610596565b5060408301516107216040860182610759565b5060608301516107346060860182610759565b506080830151848203608086015261074c8282610671565b9150508091505092915050565b6107628161092c565b82525050565b6107718161092c565b82525050565b6000602082019050818103600083015261079181846105a5565b905092915050565b600060208201905081810360008301526107b381846106aa565b905092915050565b60006020820190506107d06000830184610768565b92915050565b600060a0820190506107eb6000830188610768565b6107f86020830187610587565b6108056040830186610629565b610812606083018561061a565b81810360808301526108248184610638565b90509695505050505050565b6000604051905081810181811067ffffffffffffffff8211171561085357600080fd5b8060405250919050565b600067ffffffffffffffff82111561087457600080fd5b601f19601f8301169050602081019050919050565b6000819050602082019050919050565b600081519050919050565b600081519050919050565b600081519050919050565b6000602082019050919050565b600082825260208201905092915050565b600082825260208201905092915050565b600082825260208201905092915050565b60006109058261090c565b9050919050565b600073ffffffffffffffffffffffffffffffffffffffff82169050919050565b6000819050919050565b60006109418261096c565b9050919050565b60006109538261092c565b9050919050565b60006109658261092c565b9050919050565b60006109778261097e565b9050919050565b60006109898261090c565b9050919050565b82818337600083830152505050565b60005b838110156109bd5780820151818401526020810190506109a2565b838111156109cc576000848401525b50505050565b6000601f19601f830116905091905056fea365627a7a723158208bdeb6d15bd0bd4a1633ba0ecbc4e07647624fa802c030bfb4ad93001cd75e0b6c6578706572696d656e74616cf564736f6c63430005100040",
  "source": "pragma solidity ^0.5.0;\npragma experimental ABIEncoderV2;\n\ncontract Signatures {\n    string public name;\n    uint public signatureCount = 0;\n    Signature[] signatures;\n\n    struct Signature {\n        uint id;\n        address owner;\n        uint attackVote;\n        uint normalVote;\n        string ipfsHash;\n    }\n\n    event SignatureAdded(\n        uint id,\n        address owner,\n        uint attackVote,\n        uint normalVote, \n        string ipfsHash\n    );\n\n    constructor() public {\n        name = \"Contract Deployed\";\n    }\n\n    function addNewSignature(string memory _hash) public {\n        // Require a valid hash\n        require(bytes(_hash).length > 0);\n        // Increment signature count\n        signatureCount ++;\n        // Create the product\n        signatures.push(Signature(signatureCount, msg.sender, 1, 0, _hash));\n        // Trigger an event\n        emit SignatureAdded(signatureCount, msg.sender, 1, 0, _hash);\n    }\n\n    function getFiles() public view returns (Signature[] memory) {\n        return signatures;\n    }\n\n    \n\n}\n",
  "sourcePath": "/Users/cerenyildirim/Desktop/Blockchain/blockchain_project/src/contracts/Signatures.sol",
  "compiler": {
    "name": "solc",
    "version": "0.5.16+commit.9c3226ce.Emscripten.clang"
  },
  "schemaVersion": "3.4.7",
  "updatedAt": "2022-06-09T16:28:26.836Z",
  "networkType": "ethereum",
  "devdoc": {
    "methods": {}
  },
  "userdoc": {
    "methods": {}
  }
}