{
  "contractName": "Signatures",
  "abi": [
    {
      "inputs": [],
      "payable": false,
      "stateMutability": "nonpayable",
      "type": "constructor"
    },
    {
      "anonymous": false,
      "inputs": [
        {
          "indexed": false,
          "internalType": "uint256",
          "name": "id",
          "type": "uint256"
        },
        {
          "indexed": false,
          "internalType": "address",
          "name": "owner",
          "type": "address"
        },
        {
          "indexed": false,
          "internalType": "uint256",
          "name": "attackVote",
          "type": "uint256"
        },
        {
          "indexed": false,
          "internalType": "uint256",
          "name": "normalVote",
          "type": "uint256"
        },
        {
          "indexed": false,
          "internalType": "string",
          "name": "ipfsHash",
          "type": "string"
        }
      ],
      "name": "SignatureAdded",
      "type": "event"
    },
    {
      "anonymous": false,
      "inputs": [
        {
          "indexed": false,
          "internalType": "uint256",
          "name": "id",
          "type": "uint256"
        },
        {
          "indexed": false,
          "internalType": "address",
          "name": "owner",
          "type": "address"
        },
        {
          "indexed": false,
          "internalType": "uint256",
          "name": "attackVote",
          "type": "uint256"
        },
        {
          "indexed": false,
          "internalType": "uint256",
          "name": "normalVote",
          "type": "uint256"
        },
        {
          "indexed": false,
          "internalType": "string",
          "name": "ipfsHash",
          "type": "string"
        }
      ],
      "name": "SignatureVoted",
      "type": "event"
    },
    {
      "constant": true,
      "inputs": [],
      "name": "name",
      "outputs": [
        {
          "internalType": "string",
          "name": "",
          "type": "string"
        }
      ],
      "payable": false,
      "stateMutability": "view",
      "type": "function"
    },
    {
      "constant": true,
      "inputs": [],
      "name": "signatureCount",
      "outputs": [
        {
          "internalType": "uint256",
          "name": "",
          "type": "uint256"
        }
      ],
      "payable": false,
      "stateMutability": "view",
      "type": "function"
    },
    {
      "constant": false,
      "inputs": [
        {
          "internalType": "string",
          "name": "_hash",
          "type": "string"
        }
      ],
      "name": "addNewSignature",
      "outputs": [],
      "payable": false,
      "stateMutability": "nonpayable",
      "type": "function"
    },
    {
      "constant": true,
      "inputs": [],
      "name": "getFiles",
      "outputs": [
        {
          "components": [
            {
              "internalType": "uint256",
              "name": "id",
              "type": "uint256"
            },
            {
              "internalType": "address",
              "name": "owner",
              "type": "address"
            },
            {
              "internalType": "uint256",
              "name": "attackVote",
              "type": "uint256"
            },
            {
              "internalType": "uint256",
              "name": "normalVote",
              "type": "uint256"
            },
            {
              "internalType": "string",
              "name": "ipfsHash",
              "type": "string"
            }
          ],
          "internalType": "struct Signatures.Signature[]",
          "name": "",
          "type": "tuple[]"
        }
      ],
      "payable": false,
      "stateMutability": "view",
      "type": "function"
    },
    {
      "constant": false,
      "inputs": [
        {
          "internalType": "uint256",
          "name": "_id",
          "type": "uint256"
        },
        {
          "internalType": "uint256",
          "name": "_vote",
          "type": "uint256"
        }
      ],
      "name": "voteSignature",
      "outputs": [],
      "payable": false,
      "stateMutability": "nonpayable",
      "type": "function"
    }
  ],
  "bytecode": "0x6080604052600060015534801561001557600080fd5b506040518060400160405280601181526020017f436f6e7472616374204465706c6f79656400000000000000000000000000000081525060009080519060200190610061929190610067565b5061010c565b828054600181600116156101000203166002900490600052602060002090601f016020900481019282601f106100a857805160ff19168380011785556100d6565b828001600101855582156100d6579182015b828111156100d55782518255916020019190600101906100ba565b5b5090506100e391906100e7565b5090565b61010991905b808211156101055760008160009055506001016100ed565b5090565b90565b6110dd806200011c6000396000f3fe608060405234801561001057600080fd5b50600436106100575760003560e01c806306fdde031461005c5780632da96d731461007a578063c98d4d8114610098578063e7f55ed6146100b4578063f703ceb2146100d2575b600080fd5b6100646100ee565b6040516100719190610dbf565b60405180910390f35b61008261018c565b60405161008f9190610d9d565b60405180910390f35b6100b260048036036100ad9190810190610ae8565b610301565b005b6100bc610747565b6040516100c99190610e01565b60405180910390f35b6100ec60048036036100e79190810190610aa7565b61074d565b005b60008054600181600116156101000203166002900480601f0160208091040260200160405190810160405280929190818152602001828054600181600116156101000203166002900480156101845780601f1061015957610100808354040283529160200191610184565b820191906000526020600020905b81548152906001019060200180831161016757829003601f168201915b505050505081565b60606002805480602002602001604051908101604052809291908181526020016000905b828210156102f857838290600052602060002090600502016040518060a0016040529081600082015481526020016001820160009054906101000a900473ffffffffffffffffffffffffffffffffffffffff1673ffffffffffffffffffffffffffffffffffffffff1673ffffffffffffffffffffffffffffffffffffffff1681526020016002820154815260200160038201548152602001600482018054600181600116156101000203166002900480601f0160208091040260200160405190810160405280929190818152602001828054600181600116156101000203166002900480156102e05780601f106102b5576101008083540402835291602001916102e0565b820191906000526020600020905b8154815290600101906020018083116102c357829003601f168201915b505050505081525050815260200190600101906101b0565b50505050905090565b610309610954565b6002838154811061031657fe5b90600052602060002090600502016040518060a0016040529081600082015481526020016001820160009054906101000a900473ffffffffffffffffffffffffffffffffffffffff1673ffffffffffffffffffffffffffffffffffffffff1673ffffffffffffffffffffffffffffffffffffffff1681526020016002820154815260200160038201548152602001600482018054600181600116156101000203166002900480601f01602080910402602001604051908101604052809291908181526020018280546001816001161561010002031660029004801561043c5780601f106104115761010080835404028352916020019161043c565b820191906000526020600020905b81548152906001019060200180831161041f57829003601f168201915b5050505050815250509050600080905060008090505b60038054905081101561050c573373ffffffffffffffffffffffffffffffffffffffff166003828154811061048357fe5b906000526020600020906002020160000160009054906101000a900473ffffffffffffffffffffffffffffffffffffffff1673ffffffffffffffffffffffffffffffffffffffff161480156104f5575084600382815481106104e157fe5b906000526020600020906002020160010154145b156104ff57600191505b8080600101915050610452565b506000151581151514610554576040517f08c379a000000000000000000000000000000000000000000000000000000000815260040161054b90610de1565b60405180910390fd5b600082604001519050600083606001519050600185141561057c57818060010192505061058f565b600085141561058e5780806001019150505b5b818460400181815250508084606001818152505083600287815481106105b157fe5b90600052602060002090600502016000820151816000015560208201518160010160006101000a81548173ffffffffffffffffffffffffffffffffffffffff021916908373ffffffffffffffffffffffffffffffffffffffff16021790555060408201518160020155606082015181600301556080820151816004019080519060200190610640929190610999565b50905050600360405180604001604052803373ffffffffffffffffffffffffffffffffffffffff168152602001888152509080600181540180825580915050906001820390600052602060002090600202016000909192909190915060008201518160000160006101000a81548173ffffffffffffffffffffffffffffffffffffffff021916908373ffffffffffffffffffffffffffffffffffffffff160217905550602082015181600101555050507f51a5eb9bafdeb501f8bdf12f859d49288742e31d0e9484e9a3d07add4ca0e47c868560200151866040015187606001518860800151604051610737959493929190610e76565b60405180910390a1505050505050565b60015481565b600081511161075b57600080fd5b60026040518060a0016040528060015481526020013373ffffffffffffffffffffffffffffffffffffffff168152602001600181526020016000815260200183815250908060018154018082558091505090600182039060005260206000209060050201600090919290919091506000820151816000015560208201518160010160006101000a81548173ffffffffffffffffffffffffffffffffffffffff021916908373ffffffffffffffffffffffffffffffffffffffff1602179055506040820151816002015560608201518160030155608082015181600401908051906020019061084a929190610999565b50505050600360405180604001604052803373ffffffffffffffffffffffffffffffffffffffff1681526020016001548152509080600181540180825580915050906001820390600052602060002090600202016000909192909190915060008201518160000160006101000a81548173ffffffffffffffffffffffffffffffffffffffff021916908373ffffffffffffffffffffffffffffffffffffffff160217905550602082015181600101555050506001600081548092919060010191905055507f50fa42988bfec07e801c6ad5abb142d83f8e074c06fba1e9c275d9a494e48a80600154336001600085604051610949959493929190610e1c565b60405180910390a150565b6040518060a0016040528060008152602001600073ffffffffffffffffffffffffffffffffffffffff1681526020016000815260200160008152602001606081525090565b828054600181600116156101000203166002900490600052602060002090601f016020900481019282601f106109da57805160ff1916838001178555610a08565b82800160010185558215610a08579182015b82811115610a075782518255916020019190600101906109ec565b5b509050610a159190610a19565b5090565b610a3b91905b80821115610a37576000816000905550600101610a1f565b5090565b90565b600082601f830112610a4f57600080fd5b8135610a62610a5d82610efd565b610ed0565b91508082526020830160208301858383011115610a7e57600080fd5b610a89838284611030565b50505092915050565b600081359050610aa181611083565b92915050565b600060208284031215610ab957600080fd5b600082013567ffffffffffffffff811115610ad357600080fd5b610adf84828501610a3e565b91505092915050565b60008060408385031215610afb57600080fd5b6000610b0985828601610a92565b9250506020610b1a85828601610a92565b9150509250929050565b6000610b308383610d09565b905092915050565b610b4181610fd6565b82525050565b610b5081610f9a565b82525050565b610b5f81610f9a565b82525050565b6000610b7082610f39565b610b7a8185610f67565b935083602082028501610b8c85610f29565b8060005b85811015610bc85784840389528151610ba98582610b24565b9450610bb483610f5a565b925060208a01995050600181019050610b90565b50829750879550505050505092915050565b610be381610fe8565b82525050565b610bf281610ffa565b82525050565b6000610c0382610f4f565b610c0d8185610f89565b9350610c1d81856020860161103f565b610c2681611072565b840191505092915050565b6000610c3c82610f44565b610c468185610f78565b9350610c5681856020860161103f565b610c5f81611072565b840191505092915050565b6000610c7582610f44565b610c7f8185610f89565b9350610c8f81856020860161103f565b610c9881611072565b840191505092915050565b6000610cb0602983610f89565b91507f596f75206861766520766f74656420666f722074686973207369676e6174757260008301527f65206265666f72652100000000000000000000000000000000000000000000006020830152604082019050919050565b600060a083016000830151610d216000860182610d7f565b506020830151610d346020860182610b47565b506040830151610d476040860182610d7f565b506060830151610d5a6060860182610d7f565b5060808301518482036080860152610d728282610c31565b9150508091505092915050565b610d8881610fcc565b82525050565b610d9781610fcc565b82525050565b60006020820190508181036000830152610db78184610b65565b905092915050565b60006020820190508181036000830152610dd98184610c6a565b905092915050565b60006020820190508181036000830152610dfa81610ca3565b9050919050565b6000602082019050610e166000830184610d8e565b92915050565b600060a082019050610e316000830188610d8e565b610e3e6020830187610b38565b610e4b6040830186610be9565b610e586060830185610bda565b8181036080830152610e6a8184610bf8565b90509695505050505050565b600060a082019050610e8b6000830188610d8e565b610e986020830187610b56565b610ea56040830186610d8e565b610eb26060830185610d8e565b8181036080830152610ec48184610c6a565b90509695505050505050565b6000604051905081810181811067ffffffffffffffff82111715610ef357600080fd5b8060405250919050565b600067ffffffffffffffff821115610f1457600080fd5b601f19601f8301169050602081019050919050565b6000819050602082019050919050565b600081519050919050565b600081519050919050565b600081519050919050565b6000602082019050919050565b600082825260208201905092915050565b600082825260208201905092915050565b600082825260208201905092915050565b6000610fa582610fac565b9050919050565b600073ffffffffffffffffffffffffffffffffffffffff82169050919050565b6000819050919050565b6000610fe18261100c565b9050919050565b6000610ff382610fcc565b9050919050565b600061100582610fcc565b9050919050565b60006110178261101e565b9050919050565b600061102982610fac565b9050919050565b82818337600083830152505050565b60005b8381101561105d578082015181840152602081019050611042565b8381111561106c576000848401525b50505050565b6000601f19601f8301169050919050565b61108c81610fcc565b811461109757600080fd5b5056fea365627a7a72315820b71cc59acf44bdbfd9d0c6bb64b94cacc140a3e2303355ac9a8e7e59af392b016c6578706572696d656e74616cf564736f6c63430005100040",
  "source": "pragma solidity ^0.5.0;\r\npragma experimental ABIEncoderV2;\r\n\r\n\r\n\r\ncontract Signatures {\r\n    string public name;\r\n    uint public signatureCount = 0;\r\n    Signature[] signatures;\r\n    Voter[] voters;\r\n    \r\n\r\n    struct Signature {\r\n        uint id;\r\n        address owner;\r\n        uint attackVote;\r\n        uint normalVote;\r\n        string ipfsHash;\r\n    }\r\n\r\n     struct Voter {\r\n        address owner;\r\n        uint id;\r\n       \r\n    }\r\n\r\n    event SignatureAdded(\r\n        uint id,\r\n        address owner,\r\n        uint attackVote,\r\n        uint normalVote, \r\n        string ipfsHash\r\n    );\r\n\r\n    event SignatureVoted(\r\n        uint id,\r\n        address owner,\r\n        uint attackVote,\r\n        uint normalVote, \r\n        string ipfsHash\r\n    );\r\n    constructor() public {\r\n        name = \"Contract Deployed\";\r\n    }\r\n\r\n    function addNewSignature(string memory _hash) public {\r\n        // Require a valid hash\r\n        require(bytes(_hash).length > 0);\r\n        // Create the signature\r\n        signatures.push(Signature(signatureCount, msg.sender, 1, 0, _hash));\r\n\r\n        voters.push(Voter(msg.sender,signatureCount));\r\n\r\n        // Increment signature count\r\n        signatureCount ++;\r\n        // Trigger an event\r\n        emit SignatureAdded(signatureCount, msg.sender, 1, 0, _hash);\r\n    }\r\n\r\n    function getFiles() public view returns (Signature[] memory) {\r\n        return signatures;\r\n    }\r\n\r\n    function voteSignature(uint _id, uint _vote) public {\r\n        // Fetch the product\r\n        Signature memory _signature = signatures[_id];\r\n        // Fetch the owner\r\n        //address _owner = _signature.owner;\r\n        // Make sure the product has a valid id\r\n        //require(_signature.id > 0 && _signature.id <= signatureCount);\r\n        // Require that the owner is not the voter\r\n        // require(_owner != msg.sender);\r\n\r\n        // Make sure user has not voted before\r\n        bool hasVoted = false;\r\n        \r\n        \r\n        \r\n        for (uint i = 0; i < voters.length; i++) {\r\n            if (voters[i].owner == msg.sender && voters[i].id == _id) {\r\n                hasVoted = true;\r\n            }\r\n        }\r\n        \r\n        require(hasVoted == false, \"You have voted for this signature before!\");\r\n\r\n        // Add vote\r\n        uint attacks = _signature.attackVote;\r\n        uint normals = _signature.normalVote;\r\n        if(_vote == 1) {\r\n            attacks++;\r\n        }\r\n        else if(_vote == 0) {\r\n            normals++;\r\n        }\r\n        _signature.attackVote = attacks;\r\n        _signature.normalVote = normals;\r\n\r\n        \r\n      \r\n        // Update the product\r\n        signatures[_id] = _signature;\r\n\r\n        voters.push(Voter(msg.sender, _id));\r\n        // Trigger an event\r\n        emit SignatureVoted(_id, _signature.owner, _signature.attackVote, _signature.normalVote, _signature.ipfsHash);\r\n    }\r\n    \r\n\r\n}\r\n",
  "sourcePath": "C:\\Users\\suuser\\blockchain_project\\blockchain_project\\src\\contracts\\Signatures.sol",
  "compiler": {
    "name": "solc",
    "version": "0.5.16+commit.9c3226ce.Emscripten.clang"
  },
  "schemaVersion": "3.4.7",
  "updatedAt": "2022-06-15T16:54:34.564Z",
  "networkType": "ethereum",
  "devdoc": {
    "methods": {}
  },
  "userdoc": {
    "methods": {}
  }
}