{
  "contractName": "SmartEstate",
  "abi": [
    {
      "inputs": [],
      "stateMutability": "nonpayable",
      "type": "constructor"
    },
    {
      "anonymous": false,
      "inputs": [
        {
          "indexed": true,
          "internalType": "address",
          "name": "owner",
          "type": "address"
        },
        {
          "indexed": true,
          "internalType": "address",
          "name": "approved",
          "type": "address"
        },
        {
          "indexed": true,
          "internalType": "uint256",
          "name": "tokenId",
          "type": "uint256"
        }
      ],
      "name": "Approval",
      "type": "event"
    },
    {
      "anonymous": false,
      "inputs": [
        {
          "indexed": true,
          "internalType": "address",
          "name": "owner",
          "type": "address"
        },
        {
          "indexed": true,
          "internalType": "address",
          "name": "operator",
          "type": "address"
        },
        {
          "indexed": false,
          "internalType": "bool",
          "name": "approved",
          "type": "bool"
        }
      ],
      "name": "ApprovalForAll",
      "type": "event"
    },
    {
      "anonymous": false,
      "inputs": [
        {
          "indexed": true,
          "internalType": "address",
          "name": "from",
          "type": "address"
        },
        {
          "indexed": true,
          "internalType": "address",
          "name": "to",
          "type": "address"
        },
        {
          "indexed": true,
          "internalType": "uint256",
          "name": "tokenId",
          "type": "uint256"
        }
      ],
      "name": "Transfer",
      "type": "event"
    },
    {
      "inputs": [
        {
          "internalType": "uint256",
          "name": "",
          "type": "uint256"
        },
        {
          "internalType": "uint256",
          "name": "",
          "type": "uint256"
        }
      ],
      "name": "AllBuyers",
      "outputs": [
        {
          "internalType": "uint256",
          "name": "bId",
          "type": "uint256"
        },
        {
          "internalType": "address",
          "name": "buyerAddress",
          "type": "address"
        },
        {
          "internalType": "uint256",
          "name": "buyerOffer",
          "type": "uint256"
        },
        {
          "internalType": "enum SmartEstate.offerApproval",
          "name": "request",
          "type": "uint8"
        }
      ],
      "stateMutability": "view",
      "type": "function",
      "constant": true
    },
    {
      "inputs": [
        {
          "internalType": "address",
          "name": "",
          "type": "address"
        }
      ],
      "name": "BuyerList",
      "outputs": [
        {
          "internalType": "uint256",
          "name": "bId",
          "type": "uint256"
        },
        {
          "internalType": "address",
          "name": "buyerAddress",
          "type": "address"
        },
        {
          "internalType": "uint256",
          "name": "buyerOffer",
          "type": "uint256"
        },
        {
          "internalType": "enum SmartEstate.offerApproval",
          "name": "request",
          "type": "uint8"
        }
      ],
      "stateMutability": "view",
      "type": "function",
      "constant": true
    },
    {
      "inputs": [
        {
          "internalType": "uint256",
          "name": "",
          "type": "uint256"
        }
      ],
      "name": "Offers",
      "outputs": [
        {
          "internalType": "bool",
          "name": "",
          "type": "bool"
        }
      ],
      "stateMutability": "view",
      "type": "function",
      "constant": true
    },
    {
      "inputs": [
        {
          "internalType": "address",
          "name": "",
          "type": "address"
        }
      ],
      "name": "OnlyOwner",
      "outputs": [
        {
          "internalType": "address",
          "name": "sellerAddress",
          "type": "address"
        },
        {
          "internalType": "uint256",
          "name": "propertyId",
          "type": "uint256"
        },
        {
          "internalType": "string",
          "name": "propertyAddress",
          "type": "string"
        },
        {
          "internalType": "string",
          "name": "city",
          "type": "string"
        },
        {
          "internalType": "uint256",
          "name": "room",
          "type": "uint256"
        },
        {
          "internalType": "string",
          "name": "area",
          "type": "string"
        },
        {
          "internalType": "string",
          "name": "propertyType",
          "type": "string"
        },
        {
          "internalType": "uint256",
          "name": "price",
          "type": "uint256"
        },
        {
          "internalType": "bool",
          "name": "saleStatus",
          "type": "bool"
        }
      ],
      "stateMutability": "view",
      "type": "function",
      "constant": true
    },
    {
      "inputs": [
        {
          "internalType": "uint256",
          "name": "",
          "type": "uint256"
        }
      ],
      "name": "PropertyList",
      "outputs": [
        {
          "internalType": "address",
          "name": "",
          "type": "address"
        }
      ],
      "stateMutability": "view",
      "type": "function",
      "constant": true
    },
    {
      "inputs": [
        {
          "internalType": "address",
          "name": "to",
          "type": "address"
        },
        {
          "internalType": "uint256",
          "name": "tokenId",
          "type": "uint256"
        }
      ],
      "name": "approve",
      "outputs": [],
      "stateMutability": "nonpayable",
      "type": "function"
    },
    {
      "inputs": [
        {
          "internalType": "address",
          "name": "owner",
          "type": "address"
        }
      ],
      "name": "balanceOf",
      "outputs": [
        {
          "internalType": "uint256",
          "name": "",
          "type": "uint256"
        }
      ],
      "stateMutability": "view",
      "type": "function",
      "constant": true
    },
    {
      "inputs": [],
      "name": "baseURI",
      "outputs": [
        {
          "internalType": "string",
          "name": "",
          "type": "string"
        }
      ],
      "stateMutability": "view",
      "type": "function",
      "constant": true
    },
    {
      "inputs": [
        {
          "internalType": "uint256",
          "name": "tokenId",
          "type": "uint256"
        }
      ],
      "name": "getApproved",
      "outputs": [
        {
          "internalType": "address",
          "name": "",
          "type": "address"
        }
      ],
      "stateMutability": "view",
      "type": "function",
      "constant": true
    },
    {
      "inputs": [
        {
          "internalType": "address",
          "name": "owner",
          "type": "address"
        },
        {
          "internalType": "address",
          "name": "operator",
          "type": "address"
        }
      ],
      "name": "isApprovedForAll",
      "outputs": [
        {
          "internalType": "bool",
          "name": "",
          "type": "bool"
        }
      ],
      "stateMutability": "view",
      "type": "function",
      "constant": true
    },
    {
      "inputs": [
        {
          "internalType": "uint256",
          "name": "",
          "type": "uint256"
        }
      ],
      "name": "lands",
      "outputs": [
        {
          "internalType": "address",
          "name": "sellerAddress",
          "type": "address"
        },
        {
          "internalType": "uint256",
          "name": "propertyId",
          "type": "uint256"
        },
        {
          "internalType": "string",
          "name": "propertyAddress",
          "type": "string"
        },
        {
          "internalType": "string",
          "name": "city",
          "type": "string"
        },
        {
          "internalType": "uint256",
          "name": "room",
          "type": "uint256"
        },
        {
          "internalType": "string",
          "name": "area",
          "type": "string"
        },
        {
          "internalType": "string",
          "name": "propertyType",
          "type": "string"
        },
        {
          "internalType": "uint256",
          "name": "price",
          "type": "uint256"
        },
        {
          "internalType": "bool",
          "name": "saleStatus",
          "type": "bool"
        }
      ],
      "stateMutability": "view",
      "type": "function",
      "constant": true
    },
    {
      "inputs": [],
      "name": "name",
      "outputs": [
        {
          "internalType": "string",
          "name": "",
          "type": "string"
        }
      ],
      "stateMutability": "view",
      "type": "function",
      "constant": true
    },
    {
      "inputs": [
        {
          "internalType": "uint256",
          "name": "tokenId",
          "type": "uint256"
        }
      ],
      "name": "ownerOf",
      "outputs": [
        {
          "internalType": "address",
          "name": "",
          "type": "address"
        }
      ],
      "stateMutability": "view",
      "type": "function",
      "constant": true
    },
    {
      "inputs": [
        {
          "internalType": "uint256",
          "name": "",
          "type": "uint256"
        }
      ],
      "name": "property",
      "outputs": [
        {
          "internalType": "address",
          "name": "sellerAddress",
          "type": "address"
        },
        {
          "internalType": "uint256",
          "name": "propertyId",
          "type": "uint256"
        },
        {
          "internalType": "string",
          "name": "propertyAddress",
          "type": "string"
        },
        {
          "internalType": "string",
          "name": "city",
          "type": "string"
        },
        {
          "internalType": "uint256",
          "name": "room",
          "type": "uint256"
        },
        {
          "internalType": "string",
          "name": "area",
          "type": "string"
        },
        {
          "internalType": "string",
          "name": "propertyType",
          "type": "string"
        },
        {
          "internalType": "uint256",
          "name": "price",
          "type": "uint256"
        },
        {
          "internalType": "bool",
          "name": "saleStatus",
          "type": "bool"
        }
      ],
      "stateMutability": "view",
      "type": "function",
      "constant": true
    },
    {
      "inputs": [
        {
          "internalType": "address",
          "name": "from",
          "type": "address"
        },
        {
          "internalType": "address",
          "name": "to",
          "type": "address"
        },
        {
          "internalType": "uint256",
          "name": "tokenId",
          "type": "uint256"
        }
      ],
      "name": "safeTransferFrom",
      "outputs": [],
      "stateMutability": "nonpayable",
      "type": "function"
    },
    {
      "inputs": [
        {
          "internalType": "address",
          "name": "from",
          "type": "address"
        },
        {
          "internalType": "address",
          "name": "to",
          "type": "address"
        },
        {
          "internalType": "uint256",
          "name": "tokenId",
          "type": "uint256"
        },
        {
          "internalType": "bytes",
          "name": "_data",
          "type": "bytes"
        }
      ],
      "name": "safeTransferFrom",
      "outputs": [],
      "stateMutability": "nonpayable",
      "type": "function"
    },
    {
      "inputs": [
        {
          "internalType": "address",
          "name": "operator",
          "type": "address"
        },
        {
          "internalType": "bool",
          "name": "approved",
          "type": "bool"
        }
      ],
      "name": "setApprovalForAll",
      "outputs": [],
      "stateMutability": "nonpayable",
      "type": "function"
    },
    {
      "inputs": [
        {
          "internalType": "bytes4",
          "name": "interfaceId",
          "type": "bytes4"
        }
      ],
      "name": "supportsInterface",
      "outputs": [
        {
          "internalType": "bool",
          "name": "",
          "type": "bool"
        }
      ],
      "stateMutability": "view",
      "type": "function",
      "constant": true
    },
    {
      "inputs": [],
      "name": "symbol",
      "outputs": [
        {
          "internalType": "string",
          "name": "",
          "type": "string"
        }
      ],
      "stateMutability": "view",
      "type": "function",
      "constant": true
    },
    {
      "inputs": [
        {
          "internalType": "uint256",
          "name": "index",
          "type": "uint256"
        }
      ],
      "name": "tokenByIndex",
      "outputs": [
        {
          "internalType": "uint256",
          "name": "",
          "type": "uint256"
        }
      ],
      "stateMutability": "view",
      "type": "function",
      "constant": true
    },
    {
      "inputs": [],
      "name": "tokenId",
      "outputs": [
        {
          "internalType": "uint256",
          "name": "",
          "type": "uint256"
        }
      ],
      "stateMutability": "view",
      "type": "function",
      "constant": true
    },
    {
      "inputs": [
        {
          "internalType": "address",
          "name": "owner",
          "type": "address"
        },
        {
          "internalType": "uint256",
          "name": "index",
          "type": "uint256"
        }
      ],
      "name": "tokenOfOwnerByIndex",
      "outputs": [
        {
          "internalType": "uint256",
          "name": "",
          "type": "uint256"
        }
      ],
      "stateMutability": "view",
      "type": "function",
      "constant": true
    },
    {
      "inputs": [
        {
          "internalType": "uint256",
          "name": "tokenId",
          "type": "uint256"
        }
      ],
      "name": "tokenURI",
      "outputs": [
        {
          "internalType": "string",
          "name": "",
          "type": "string"
        }
      ],
      "stateMutability": "view",
      "type": "function",
      "constant": true
    },
    {
      "inputs": [],
      "name": "totalSupply",
      "outputs": [
        {
          "internalType": "uint256",
          "name": "",
          "type": "uint256"
        }
      ],
      "stateMutability": "view",
      "type": "function",
      "constant": true
    },
    {
      "inputs": [
        {
          "internalType": "address",
          "name": "from",
          "type": "address"
        },
        {
          "internalType": "address",
          "name": "to",
          "type": "address"
        },
        {
          "internalType": "uint256",
          "name": "tokenId",
          "type": "uint256"
        }
      ],
      "name": "transferFrom",
      "outputs": [],
      "stateMutability": "nonpayable",
      "type": "function"
    },
    {
      "inputs": [
        {
          "internalType": "string",
          "name": "_propertyAddress",
          "type": "string"
        },
        {
          "internalType": "string",
          "name": "_city",
          "type": "string"
        },
        {
          "internalType": "uint256",
          "name": "_room",
          "type": "uint256"
        },
        {
          "internalType": "string",
          "name": "_area",
          "type": "string"
        },
        {
          "internalType": "uint256",
          "name": "_priceInEther",
          "type": "uint256"
        },
        {
          "internalType": "string",
          "name": "_propertyType",
          "type": "string"
        },
        {
          "internalType": "bool",
          "name": "_saleStatus",
          "type": "bool"
        },
        {
          "internalType": "string",
          "name": "_tokenUri",
          "type": "string"
        }
      ],
      "name": "RegisterProperty",
      "outputs": [
        {
          "internalType": "bool",
          "name": "",
          "type": "bool"
        }
      ],
      "stateMutability": "nonpayable",
      "type": "function"
    },
    {
      "inputs": [
        {
          "internalType": "uint256",
          "name": "PropertyId_TokenId",
          "type": "uint256"
        }
      ],
      "name": "EnablePropertySale",
      "outputs": [
        {
          "internalType": "bool",
          "name": "",
          "type": "bool"
        }
      ],
      "stateMutability": "nonpayable",
      "type": "function"
    },
    {
      "inputs": [
        {
          "internalType": "uint256",
          "name": "PropertyId_TokenId",
          "type": "uint256"
        }
      ],
      "name": "PropertyPricing",
      "outputs": [
        {
          "internalType": "uint256",
          "name": "",
          "type": "uint256"
        }
      ],
      "stateMutability": "nonpayable",
      "type": "function"
    },
    {
      "inputs": [
        {
          "internalType": "uint256",
          "name": "PropertyId_TokenId",
          "type": "uint256"
        },
        {
          "internalType": "uint256",
          "name": "offerInEthers",
          "type": "uint256"
        }
      ],
      "name": "BuyingRequest",
      "outputs": [
        {
          "internalType": "bool",
          "name": "",
          "type": "bool"
        }
      ],
      "stateMutability": "nonpayable",
      "type": "function"
    },
    {
      "inputs": [
        {
          "internalType": "uint256",
          "name": "PropertyId_TokenId",
          "type": "uint256"
        }
      ],
      "name": "OfferStatus",
      "outputs": [
        {
          "components": [
            {
              "internalType": "uint256",
              "name": "bId",
              "type": "uint256"
            },
            {
              "internalType": "address",
              "name": "buyerAddress",
              "type": "address"
            },
            {
              "internalType": "uint256",
              "name": "buyerOffer",
              "type": "uint256"
            },
            {
              "internalType": "enum SmartEstate.offerApproval",
              "name": "request",
              "type": "uint8"
            }
          ],
          "internalType": "struct SmartEstate.BuyerInfo[]",
          "name": "",
          "type": "tuple[]"
        }
      ],
      "stateMutability": "nonpayable",
      "type": "function"
    },
    {
      "inputs": [
        {
          "internalType": "uint256",
          "name": "PropertyId_TokenId",
          "type": "uint256"
        },
        {
          "internalType": "address",
          "name": "_buyerAddress",
          "type": "address"
        }
      ],
      "name": "OfferReject",
      "outputs": [
        {
          "internalType": "bool",
          "name": "",
          "type": "bool"
        }
      ],
      "stateMutability": "nonpayable",
      "type": "function"
    },
    {
      "inputs": [
        {
          "internalType": "uint256",
          "name": "PropertyId_TokenId",
          "type": "uint256"
        },
        {
          "internalType": "address",
          "name": "_buyerAddress",
          "type": "address"
        }
      ],
      "name": "OfferAccept",
      "outputs": [
        {
          "internalType": "bool",
          "name": "",
          "type": "bool"
        }
      ],
      "stateMutability": "nonpayable",
      "type": "function"
    },
    {
      "inputs": [
        {
          "internalType": "uint256",
          "name": "PropertyId_TokenId",
          "type": "uint256"
        }
      ],
      "name": "BuyProperty",
      "outputs": [
        {
          "internalType": "bool",
          "name": "",
          "type": "bool"
        }
      ],
      "stateMutability": "payable",
      "type": "function",
      "payable": true
    }
  ],
  "bytecode": "0x60806040523480156200001157600080fd5b506040518060400160405280601781526020017f536d617274204573746174652050726f706572746965730000000000000000008152506040518060400160405280600381526020017f4553500000000000000000000000000000000000000000000000000000000000815250620000966301ffc9a760e01b6200011860201b60201c565b8160069080519060200190620000ae929190620001f0565b508060079080519060200190620000c7929190620001f0565b50620000e06380ac58cd60e01b6200011860201b60201c565b620000f8635b5e139f60e01b6200011860201b60201c565b6200011063780e9d6360e01b6200011860201b60201c565b505062000314565b63ffffffff60e01b817bffffffffffffffffffffffffffffffffffffffffffffffffffffffff1916141562000184576040517f08c379a00000000000000000000000000000000000000000000000000000000081526004016200017b90620002e1565b60405180910390fd5b6001600080837bffffffffffffffffffffffffffffffffffffffffffffffffffffffff19167bffffffffffffffffffffffffffffffffffffffffffffffffffffffff1916815260200190815260200160002060006101000a81548160ff02191690831515021790555050565b828054600181600116156101000203166002900490600052602060002090601f016020900481019282601f106200023357805160ff191683800117855562000264565b8280016001018555821562000264579182015b828111156200026357825182559160200191906001019062000246565b5b50905062000273919062000277565b5090565b6200029c91905b80821115620002985760008160009055506001016200027e565b5090565b90565b6000620002ae601c8362000303565b91507f4552433136353a20696e76616c696420696e74657266616365206964000000006000830152602082019050919050565b60006020820190508181036000830152620002fc816200029f565b9050919050565b600082825260208201905092915050565b615be780620003246000396000f3fe6080604052600436106101ee5760003560e01c80634a1452ab1161010d57806385d57858116100a0578063c87b56dd1161006f578063c87b56dd146107ea578063d7c871d414610827578063e261f1e514610864578063e985e9c5146108a9578063eeb2fd4b146108e6576101ee565b806385d578581461072d57806395d89b411461076d578063a22cb46514610798578063b88d4fde146107c1576101ee565b80636c0360eb116100dc5780636c0360eb1461064b57806370a0823114610676578063822dcd4b146106b357806383deedbb146106f0576101ee565b80634a1452ab146105575780634f6ccce7146105945780635a05a506146105d15780636352211e1461060e576101ee565b806323b872dd1161018557806330e1ad321161015457806330e1ad321461046f57806332783c4c146104b457806342842e0e146104f157806345482f421461051a576101ee565b806323b872dd1461039c57806325a59600146103c55780632f71513f146103f55780632f745c5914610432576101ee565b80630a86c02a116101c15780630a86c02a146102c157806317d70f7c1461030657806318160ddd14610331578063225cf72e1461035c576101ee565b806301ffc9a7146101f357806306fdde0314610230578063081812fc1461025b578063095ea7b314610298575b600080fd5b3480156101ff57600080fd5b5061021a600480360361021591908101906145b2565b610923565b6040516102279190615506565b60405180910390f35b34801561023c57600080fd5b5061024561098a565b6040516102529190615521565b60405180910390f35b34801561026757600080fd5b50610282600480360361027d919081019061472e565b610a2c565b60405161028f91906153d4565b60405180910390f35b3480156102a457600080fd5b506102bf60048036036102ba9190810190614576565b610ab1565b005b3480156102cd57600080fd5b506102e860048036036102e3919081019061440b565b610bc9565b6040516102fd9998979695949392919061543b565b60405180910390f35b34801561031257600080fd5b5061031b610ea4565b6040516103289190615863565b60405180910390f35b34801561033d57600080fd5b50610346610eaa565b6040516103539190615863565b60405180910390f35b34801561036857600080fd5b50610383600480360361037e9190810190614793565b610ebb565b604051610393949392919061587e565b60405180910390f35b3480156103a857600080fd5b506103c360048036036103be9190810190614470565b610f32565b005b6103df60048036036103da919081019061472e565b610f92565b6040516103ec9190615506565b60405180910390f35b34801561040157600080fd5b5061041c60048036036104179190810190614757565b611341565b6040516104299190615506565b60405180910390f35b34801561043e57600080fd5b5061045960048036036104549190810190614576565b611599565b6040516104669190615863565b60405180910390f35b34801561047b57600080fd5b506104966004803603610491919081019061472e565b6115f4565b6040516104ab9998979695949392919061543b565b60405180910390f35b3480156104c057600080fd5b506104db60048036036104d6919081019061472e565b6118dc565b6040516104e89190615863565b60405180910390f35b3480156104fd57600080fd5b5061051860048036036105139190810190614470565b611a73565b005b34801561052657600080fd5b50610541600480360361053c9190810190614793565b611a93565b60405161054e9190615506565b60405180910390f35b34801561056357600080fd5b5061057e6004803603610579919081019061472e565b611df9565b60405161058b91906153d4565b60405180910390f35b3480156105a057600080fd5b506105bb60048036036105b6919081019061472e565b611e2c565b6040516105c89190615863565b60405180910390f35b3480156105dd57600080fd5b506105f860048036036105f3919081019061472e565b611e4f565b60405161060591906154e4565b60405180910390f35b34801561061a57600080fd5b506106356004803603610630919081019061472e565b612076565b60405161064291906153d4565b60405180910390f35b34801561065757600080fd5b506106606120ad565b60405161066d9190615521565b60405180910390f35b34801561068257600080fd5b5061069d6004803603610698919081019061440b565b61214f565b6040516106aa9190615863565b60405180910390f35b3480156106bf57600080fd5b506106da60048036036106d5919081019061472e565b61220e565b6040516106e79190615506565b60405180910390f35b3480156106fc57600080fd5b5061071760048036036107129190810190614604565b6123bf565b6040516107249190615506565b60405180910390f35b34801561073957600080fd5b50610754600480360361074f919081019061440b565b61271a565b604051610764949392919061587e565b60405180910390f35b34801561077957600080fd5b50610782612777565b60405161078f9190615521565b60405180910390f35b3480156107a457600080fd5b506107bf60048036036107ba919081019061453a565b612819565b005b3480156107cd57600080fd5b506107e860048036036107e391908101906144bf565b61299a565b005b3480156107f657600080fd5b50610811600480360361080c919081019061472e565b6129fc565b60405161081e9190615521565b60405180910390f35b34801561083357600080fd5b5061084e6004803603610849919081019061472e565b612b87565b60405161085b9190615506565b60405180910390f35b34801561087057600080fd5b5061088b6004803603610886919081019061472e565b612ba7565b6040516108a09998979695949392919061543b565b60405180910390f35b3480156108b557600080fd5b506108d060048036036108cb9190810190614434565b612e82565b6040516108dd9190615506565b60405180910390f35b3480156108f257600080fd5b5061090d60048036036109089190810190614757565b612f16565b60405161091a9190615506565b60405180910390f35b6000806000837bffffffffffffffffffffffffffffffffffffffffffffffffffffffff19167bffffffffffffffffffffffffffffffffffffffffffffffffffffffff1916815260200190815260200160002060009054906101000a900460ff169050919050565b606060068054600181600116156101000203166002900480601f016020809104026020016040519081016040528092919081815260200182805460018160011615610100020316600290048015610a225780601f106109f757610100808354040283529160200191610a22565b820191906000526020600020905b815481529060010190602001808311610a0557829003601f168201915b5050505050905090565b6000610a378261316e565b610a76576040517f08c379a0000000000000000000000000000000000000000000000000000000008152600401610a6d90615743565b60405180910390fd5b6004600083815260200190815260200160002060009054906101000a900473ffffffffffffffffffffffffffffffffffffffff169050919050565b6000610abc82612076565b90508073ffffffffffffffffffffffffffffffffffffffff168373ffffffffffffffffffffffffffffffffffffffff161415610b2d576040517f08c379a0000000000000000000000000000000000000000000000000000000008152600401610b24906157e3565b60405180910390fd5b8073ffffffffffffffffffffffffffffffffffffffff16610b4c61318b565b73ffffffffffffffffffffffffffffffffffffffff161480610b7b5750610b7a81610b7561318b565b612e82565b5b610bba576040517f08c379a0000000000000000000000000000000000000000000000000000000008152600401610bb190615683565b60405180910390fd5b610bc48383613193565b505050565b600e6020528060005260406000206000915090508060000160009054906101000a900473ffffffffffffffffffffffffffffffffffffffff1690806001015490806002018054600181600116156101000203166002900480601f016020809104026020016040519081016040528092919081815260200182805460018160011615610100020316600290048015610ca15780601f10610c7657610100808354040283529160200191610ca1565b820191906000526020600020905b815481529060010190602001808311610c8457829003601f168201915b505050505090806003018054600181600116156101000203166002900480601f016020809104026020016040519081016040528092919081815260200182805460018160011615610100020316600290048015610d3f5780601f10610d1457610100808354040283529160200191610d3f565b820191906000526020600020905b815481529060010190602001808311610d2257829003601f168201915b505050505090806004015490806005018054600181600116156101000203166002900480601f016020809104026020016040519081016040528092919081815260200182805460018160011615610100020316600290048015610de35780601f10610db857610100808354040283529160200191610de3565b820191906000526020600020905b815481529060010190602001808311610dc657829003601f168201915b505050505090806006018054600181600116156101000203166002900480601f016020809104026020016040519081016040528092919081815260200182805460018160011615610100020316600290048015610e815780601f10610e5657610100808354040283529160200191610e81565b820191906000526020600020905b815481529060010190602001808311610e6457829003601f168201915b5050505050908060070154908060080160009054906101000a900460ff16905089565b600b5481565b6000610eb6600261324c565b905090565b60116020528160005260406000208181548110610ed457fe5b9060005260206000209060040201600091509150508060000154908060010160009054906101000a900473ffffffffffffffffffffffffffffffffffffffff16908060020154908060030160009054906101000a900460ff16905084565b610f43610f3d61318b565b82613261565b610f82576040517f08c379a0000000000000000000000000000000000000000000000000000000008152600401610f7990615823565b60405180910390fd5b610f8d83838361333f565b505050565b6000610f9d8261316e565b610fdc576040517f08c379a0000000000000000000000000000000000000000000000000000000008152600401610fd3906155a3565b60405180910390fd5b3373ffffffffffffffffffffffffffffffffffffffff16601060003373ffffffffffffffffffffffffffffffffffffffff1673ffffffffffffffffffffffffffffffffffffffff16815260200190815260200160002060010160009054906101000a900473ffffffffffffffffffffffffffffffffffffffff1673ffffffffffffffffffffffffffffffffffffffff16146110ac576040517f08c379a00000000000000000000000000000000000000000000000000000000081526004016110a390615703565b60405180910390fd5b600160028111156110b957fe5b601060003373ffffffffffffffffffffffffffffffffffffffff1673ffffffffffffffffffffffffffffffffffffffff16815260200190815260200160002060030160009054906101000a900460ff16600281111561111457fe5b14611154576040517f08c379a000000000000000000000000000000000000000000000000000000000815260040161114b90615643565b60405180910390fd5b60003411611197576040517f08c379a000000000000000000000000000000000000000000000000000000000815260040161118e906157a3565b60405180910390fd5b60006111f6670de0b6b3a7640000601060003373ffffffffffffffffffffffffffffffffffffffff1673ffffffffffffffffffffffffffffffffffffffff1681526020019081526020016000206002015461355690919063ffffffff16565b905034811461123a576040517f08c379a000000000000000000000000000000000000000000000000000000000815260040161123190615623565b60405180910390fd5b6000600e6000600f600087815260200190815260200160002060009054906101000a900473ffffffffffffffffffffffffffffffffffffffff1673ffffffffffffffffffffffffffffffffffffffff1673ffffffffffffffffffffffffffffffffffffffff16815260200190815260200160002060000160009054906101000a900473ffffffffffffffffffffffffffffffffffffffff1690506112df81338661333f565b833373ffffffffffffffffffffffffffffffffffffffff168273ffffffffffffffffffffffffffffffffffffffff167fddf252ad1be2c89b69c2b068fc378daa952ba7f163c4a11628f55a4df523b3ef60405160405180910390a45050919050565b60003373ffffffffffffffffffffffffffffffffffffffff16600e60003373ffffffffffffffffffffffffffffffffffffffff1673ffffffffffffffffffffffffffffffffffffffff16815260200190815260200160002060000160009054906101000a900473ffffffffffffffffffffffffffffffffffffffff1673ffffffffffffffffffffffffffffffffffffffff1614611413576040517f08c379a000000000000000000000000000000000000000000000000000000000815260040161140a906155c3565b60405180910390fd5b61141c8361316e565b61145b576040517f08c379a0000000000000000000000000000000000000000000000000000000008152600401611452906155a3565b60405180910390fd5b8173ffffffffffffffffffffffffffffffffffffffff16601060008473ffffffffffffffffffffffffffffffffffffffff1673ffffffffffffffffffffffffffffffffffffffff16815260200190815260200160002060010160009054906101000a900473ffffffffffffffffffffffffffffffffffffffff1673ffffffffffffffffffffffffffffffffffffffff161461152b576040517f08c379a000000000000000000000000000000000000000000000000000000000815260040161152290615703565b60405180910390fd5b6001601060008473ffffffffffffffffffffffffffffffffffffffff1673ffffffffffffffffffffffffffffffffffffffff16815260200190815260200160002060030160006101000a81548160ff0219169083600281111561158a57fe5b02179055506001905092915050565b60006115ec82600160008673ffffffffffffffffffffffffffffffffffffffff1673ffffffffffffffffffffffffffffffffffffffff1681526020019081526020016000206135c690919063ffffffff16565b905092915050565b600c818154811061160157fe5b90600052602060002090600902016000915090508060000160009054906101000a900473ffffffffffffffffffffffffffffffffffffffff1690806001015490806002018054600181600116156101000203166002900480601f0160208091040260200160405190810160405280929190818152602001828054600181600116156101000203166002900480156116d95780601f106116ae576101008083540402835291602001916116d9565b820191906000526020600020905b8154815290600101906020018083116116bc57829003601f168201915b505050505090806003018054600181600116156101000203166002900480601f0160208091040260200160405190810160405280929190818152602001828054600181600116156101000203166002900480156117775780601f1061174c57610100808354040283529160200191611777565b820191906000526020600020905b81548152906001019060200180831161175a57829003601f168201915b505050505090806004015490806005018054600181600116156101000203166002900480601f01602080910402602001604051908101604052809291908181526020018280546001816001161561010002031660029004801561181b5780601f106117f05761010080835404028352916020019161181b565b820191906000526020600020905b8154815290600101906020018083116117fe57829003601f168201915b505050505090806006018054600181600116156101000203166002900480601f0160208091040260200160405190810160405280929190818152602001828054600181600116156101000203166002900480156118b95780601f1061188e576101008083540402835291602001916118b9565b820191906000526020600020905b81548152906001019060200180831161189c57829003601f168201915b5050505050908060070154908060080160009054906101000a900460ff16905089565b60003373ffffffffffffffffffffffffffffffffffffffff16600e60003373ffffffffffffffffffffffffffffffffffffffff1673ffffffffffffffffffffffffffffffffffffffff16815260200190815260200160002060000160009054906101000a900473ffffffffffffffffffffffffffffffffffffffff1673ffffffffffffffffffffffffffffffffffffffff16146119ae576040517f08c379a00000000000000000000000000000000000000000000000000000000081526004016119a5906155c3565b60405180910390fd5b6119b78261316e565b6119f6576040517f08c379a00000000000000000000000000000000000000000000000000000000081526004016119ed906155a3565b60405180910390fd5b600e6000600f600085815260200190815260200160002060009054906101000a900473ffffffffffffffffffffffffffffffffffffffff1673ffffffffffffffffffffffffffffffffffffffff1673ffffffffffffffffffffffffffffffffffffffff168152602001908152602001600020600701549050919050565b611a8e8383836040518060200160405280600081525061299a565b505050565b6000611a9e8361316e565b611add576040517f08c379a0000000000000000000000000000000000000000000000000000000008152600401611ad4906155a3565b60405180910390fd5b600e6000600f600086815260200190815260200160002060009054906101000a900473ffffffffffffffffffffffffffffffffffffffff1673ffffffffffffffffffffffffffffffffffffffff1673ffffffffffffffffffffffffffffffffffffffff16815260200190815260200160002060080160009054906101000a900460ff16611b9f576040517f08c379a0000000000000000000000000000000000000000000000000000000008152600401611b9690615803565b60405180910390fd5b600a60008154809291906001019190505550611bb9614128565b6040518060800160405280600a5481526020013373ffffffffffffffffffffffffffffffffffffffff16815260200184815260200160006002811115611bfb57fe5b8152509050601160008581526020019081526020016000208190806001815401808255809150506001900390600052602060002090600402016000909190919091506000820151816000015560208201518160010160006101000a81548173ffffffffffffffffffffffffffffffffffffffff021916908373ffffffffffffffffffffffffffffffffffffffff1602179055506040820151816002015560608201518160030160006101000a81548160ff02191690836002811115611cbc57fe5b0217905550505080601060003373ffffffffffffffffffffffffffffffffffffffff1673ffffffffffffffffffffffffffffffffffffffff1681526020019081526020016000206000820151816000015560208201518160010160006101000a81548173ffffffffffffffffffffffffffffffffffffffff021916908373ffffffffffffffffffffffffffffffffffffffff1602179055506040820151816002015560608201518160030160006101000a81548160ff02191690836002811115611d8257fe5b02179055509050506000601060003373ffffffffffffffffffffffffffffffffffffffff1673ffffffffffffffffffffffffffffffffffffffff16815260200190815260200160002060030160006101000a81548160ff02191690836002811115611de957fe5b0217905550600191505092915050565b600f6020528060005260406000206000915054906101000a900473ffffffffffffffffffffffffffffffffffffffff1681565b600080611e438360026135e090919063ffffffff16565b50905080915050919050565b60603373ffffffffffffffffffffffffffffffffffffffff16600e60003373ffffffffffffffffffffffffffffffffffffffff1673ffffffffffffffffffffffffffffffffffffffff16815260200190815260200160002060000160009054906101000a900473ffffffffffffffffffffffffffffffffffffffff1673ffffffffffffffffffffffffffffffffffffffff1614611f21576040517f08c379a0000000000000000000000000000000000000000000000000000000008152600401611f18906155c3565b60405180910390fd5b611f2a8261316e565b611f69576040517f08c379a0000000000000000000000000000000000000000000000000000000008152600401611f60906155a3565b60405180910390fd5b606060116000848152602001908152602001600020805480602002602001604051908101604052809291908181526020016000905b828210156120675783829060005260206000209060040201604051806080016040529081600082015481526020016001820160009054906101000a900473ffffffffffffffffffffffffffffffffffffffff1673ffffffffffffffffffffffffffffffffffffffff1673ffffffffffffffffffffffffffffffffffffffff168152602001600282015481526020016003820160009054906101000a900460ff16600281111561204957fe5b600281111561205457fe5b8152505081526020019060010190611f9e565b50505050905080915050919050565b60006120a682604051806060016040528060298152602001615b8960299139600261360f9092919063ffffffff16565b9050919050565b606060098054600181600116156101000203166002900480601f0160208091040260200160405190810160405280929190818152602001828054600181600116156101000203166002900480156121455780601f1061211a57610100808354040283529160200191612145565b820191906000526020600020905b81548152906001019060200180831161212857829003601f168201915b5050505050905090565b60008073ffffffffffffffffffffffffffffffffffffffff168273ffffffffffffffffffffffffffffffffffffffff1614156121c0576040517f08c379a00000000000000000000000000000000000000000000000000000000081526004016121b7906156a3565b60405180910390fd5b612207600160008473ffffffffffffffffffffffffffffffffffffffff1673ffffffffffffffffffffffffffffffffffffffff16815260200190815260200160002061362e565b9050919050565b60003373ffffffffffffffffffffffffffffffffffffffff16600e60003373ffffffffffffffffffffffffffffffffffffffff1673ffffffffffffffffffffffffffffffffffffffff16815260200190815260200160002060000160009054906101000a900473ffffffffffffffffffffffffffffffffffffffff1673ffffffffffffffffffffffffffffffffffffffff16146122e0576040517f08c379a00000000000000000000000000000000000000000000000000000000081526004016122d7906155c3565b60405180910390fd5b6122e98261316e565b612328576040517f08c379a000000000000000000000000000000000000000000000000000000000815260040161231f906155a3565b60405180910390fd5b6001600e6000600f600086815260200190815260200160002060009054906101000a900473ffffffffffffffffffffffffffffffffffffffff1673ffffffffffffffffffffffffffffffffffffffff1673ffffffffffffffffffffffffffffffffffffffff16815260200190815260200160002060080160006101000a81548160ff02191690831515021790555060019050919050565b6000600b600081548092919060010191905055506000600b5490506123e43382613643565b6123ee81846137d1565b6123f6614171565b6040518061012001604052803373ffffffffffffffffffffffffffffffffffffffff1681526020018381526020018c81526020018b81526020018a815260200189815260200187815260200188815260200160001515815250905080600e60003373ffffffffffffffffffffffffffffffffffffffff1673ffffffffffffffffffffffffffffffffffffffff16815260200190815260200160002060008201518160000160006101000a81548173ffffffffffffffffffffffffffffffffffffffff021916908373ffffffffffffffffffffffffffffffffffffffff1602179055506020820151816001015560408201518160020190805190602001906124fe9291906141d5565b50606082015181600301908051906020019061251b9291906141d5565b506080820151816004015560a08201518160050190805190602001906125429291906141d5565b5060c082015181600601908051906020019061255f9291906141d5565b5060e082015181600701556101008201518160080160006101000a81548160ff02191690831515021790555090505033600f600084815260200190815260200160002060006101000a81548173ffffffffffffffffffffffffffffffffffffffff021916908373ffffffffffffffffffffffffffffffffffffffff160217905550600c81908060018154018082558091505060019003906000526020600020906009020160009091909190915060008201518160000160006101000a81548173ffffffffffffffffffffffffffffffffffffffff021916908373ffffffffffffffffffffffffffffffffffffffff1602179055506020820151816001015560408201518160020190805190602001906126799291906141d5565b5060608201518160030190805190602001906126969291906141d5565b506080820151816004015560a08201518160050190805190602001906126bd9291906141d5565b5060c08201518160060190805190602001906126da9291906141d5565b5060e082015181600701556101008201518160080160006101000a81548160ff021916908315150217905550505060019250505098975050505050505050565b60106020528060005260406000206000915090508060000154908060010160009054906101000a900473ffffffffffffffffffffffffffffffffffffffff16908060020154908060030160009054906101000a900460ff16905084565b606060078054600181600116156101000203166002900480601f01602080910402602001604051908101604052809291908181526020018280546001816001161561010002031660029004801561280f5780601f106127e45761010080835404028352916020019161280f565b820191906000526020600020905b8154815290600101906020018083116127f257829003601f168201915b5050505050905090565b61282161318b565b73ffffffffffffffffffffffffffffffffffffffff168273ffffffffffffffffffffffffffffffffffffffff16141561288f576040517f08c379a000000000000000000000000000000000000000000000000000000000815260040161288690615603565b60405180910390fd5b806005600061289c61318b565b73ffffffffffffffffffffffffffffffffffffffff1673ffffffffffffffffffffffffffffffffffffffff16815260200190815260200160002060008473ffffffffffffffffffffffffffffffffffffffff1673ffffffffffffffffffffffffffffffffffffffff16815260200190815260200160002060006101000a81548160ff0219169083151502179055508173ffffffffffffffffffffffffffffffffffffffff1661294961318b565b73ffffffffffffffffffffffffffffffffffffffff167f17307eab39ab6107e8899845ad3d59bd9653f200f220920489ca2b5937696c318360405161298e9190615506565b60405180910390a35050565b6129ab6129a561318b565b83613261565b6129ea576040517f08c379a00000000000000000000000000000000000000000000000000000000081526004016129e190615823565b60405180910390fd5b6129f684848484613845565b50505050565b6060612a078261316e565b612a46576040517f08c379a0000000000000000000000000000000000000000000000000000000008152600401612a3d906157c3565b60405180910390fd5b6060600860008481526020019081526020016000208054600181600116156101000203166002900480601f016020809104026020016040519081016040528092919081815260200182805460018160011615610100020316600290048015612aef5780601f10612ac457610100808354040283529160200191612aef565b820191906000526020600020905b815481529060010190602001808311612ad257829003601f168201915b50505050509050600060098054600181600116156101000203166002900490501415612b1e5780915050612b82565b600081511115612b5357600981604051602001612b3c9291906153b0565b604051602081830303815290604052915050612b82565b6009612b5e846138a1565b604051602001612b6f9291906153b0565b6040516020818303038152906040529150505b919050565b60126020528060005260406000206000915054906101000a900460ff1681565b600d6020528060005260406000206000915090508060000160009054906101000a900473ffffffffffffffffffffffffffffffffffffffff1690806001015490806002018054600181600116156101000203166002900480601f016020809104026020016040519081016040528092919081815260200182805460018160011615610100020316600290048015612c7f5780601f10612c5457610100808354040283529160200191612c7f565b820191906000526020600020905b815481529060010190602001808311612c6257829003601f168201915b505050505090806003018054600181600116156101000203166002900480601f016020809104026020016040519081016040528092919081815260200182805460018160011615610100020316600290048015612d1d5780601f10612cf257610100808354040283529160200191612d1d565b820191906000526020600020905b815481529060010190602001808311612d0057829003601f168201915b505050505090806004015490806005018054600181600116156101000203166002900480601f016020809104026020016040519081016040528092919081815260200182805460018160011615610100020316600290048015612dc15780601f10612d9657610100808354040283529160200191612dc1565b820191906000526020600020905b815481529060010190602001808311612da457829003601f168201915b505050505090806006018054600181600116156101000203166002900480601f016020809104026020016040519081016040528092919081815260200182805460018160011615610100020316600290048015612e5f5780601f10612e3457610100808354040283529160200191612e5f565b820191906000526020600020905b815481529060010190602001808311612e4257829003601f168201915b5050505050908060070154908060080160009054906101000a900460ff16905089565b6000600560008473ffffffffffffffffffffffffffffffffffffffff1673ffffffffffffffffffffffffffffffffffffffff16815260200190815260200160002060008373ffffffffffffffffffffffffffffffffffffffff1673ffffffffffffffffffffffffffffffffffffffff16815260200190815260200160002060009054906101000a900460ff16905092915050565b60003373ffffffffffffffffffffffffffffffffffffffff16600e60003373ffffffffffffffffffffffffffffffffffffffff1673ffffffffffffffffffffffffffffffffffffffff16815260200190815260200160002060000160009054906101000a900473ffffffffffffffffffffffffffffffffffffffff1673ffffffffffffffffffffffffffffffffffffffff1614612fe8576040517f08c379a0000000000000000000000000000000000000000000000000000000008152600401612fdf906155c3565b60405180910390fd5b612ff18361316e565b613030576040517f08c379a0000000000000000000000000000000000000000000000000000000008152600401613027906155a3565b60405180910390fd5b8173ffffffffffffffffffffffffffffffffffffffff16601060008473ffffffffffffffffffffffffffffffffffffffff1673ffffffffffffffffffffffffffffffffffffffff16815260200190815260200160002060010160009054906101000a900473ffffffffffffffffffffffffffffffffffffffff1673ffffffffffffffffffffffffffffffffffffffff1614613100576040517f08c379a00000000000000000000000000000000000000000000000000000000081526004016130f790615703565b60405180910390fd5b6002601060008473ffffffffffffffffffffffffffffffffffffffff1673ffffffffffffffffffffffffffffffffffffffff16815260200190815260200160002060030160006101000a81548160ff0219169083600281111561315f57fe5b02179055506001905092915050565b60006131848260026139d190919063ffffffff16565b9050919050565b600033905090565b816004600083815260200190815260200160002060006101000a81548173ffffffffffffffffffffffffffffffffffffffff021916908373ffffffffffffffffffffffffffffffffffffffff160217905550808273ffffffffffffffffffffffffffffffffffffffff1661320683612076565b73ffffffffffffffffffffffffffffffffffffffff167f8c5be1e5ebec7d5bd14f71427d1e84f3dd0314c0f7b2291e5b200ac8c7c3b92560405160405180910390a45050565b600061325a826000016139eb565b9050919050565b600061326c8261316e565b6132ab576040517f08c379a00000000000000000000000000000000000000000000000000000000081526004016132a290615663565b60405180910390fd5b60006132b683612076565b90508073ffffffffffffffffffffffffffffffffffffffff168473ffffffffffffffffffffffffffffffffffffffff16148061332557508373ffffffffffffffffffffffffffffffffffffffff1661330d84610a2c565b73ffffffffffffffffffffffffffffffffffffffff16145b8061333657506133358185612e82565b5b91505092915050565b8273ffffffffffffffffffffffffffffffffffffffff1661335f82612076565b73ffffffffffffffffffffffffffffffffffffffff16146133b5576040517f08c379a00000000000000000000000000000000000000000000000000000000081526004016133ac90615783565b60405180910390fd5b600073ffffffffffffffffffffffffffffffffffffffff168273ffffffffffffffffffffffffffffffffffffffff161415613425576040517f08c379a000000000000000000000000000000000000000000000000000000000815260040161341c906155e3565b60405180910390fd5b6134308383836139fc565b61343b600082613193565b61348c81600160008673ffffffffffffffffffffffffffffffffffffffff1673ffffffffffffffffffffffffffffffffffffffff168152602001908152602001600020613a0190919063ffffffff16565b506134de81600160008573ffffffffffffffffffffffffffffffffffffffff1673ffffffffffffffffffffffffffffffffffffffff168152602001908152602001600020613a1b90919063ffffffff16565b506134f581836002613a359092919063ffffffff16565b50808273ffffffffffffffffffffffffffffffffffffffff168473ffffffffffffffffffffffffffffffffffffffff167fddf252ad1be2c89b69c2b068fc378daa952ba7f163c4a11628f55a4df523b3ef60405160405180910390a4505050565b60008083141561356957600090506135c0565b600082840290508284828161357a57fe5b04146135bb576040517f08c379a00000000000000000000000000000000000000000000000000000000081526004016135b290615723565b60405180910390fd5b809150505b92915050565b60006135d58360000183613a6a565b60001c905092915050565b6000806000806135f38660000186613ad7565b915091508160001c8160001c8090509350935050509250929050565b6000613622846000018460001b84613b5a565b60001c90509392505050565b600061363c82600001613beb565b9050919050565b600073ffffffffffffffffffffffffffffffffffffffff168273ffffffffffffffffffffffffffffffffffffffff1614156136b3576040517f08c379a00000000000000000000000000000000000000000000000000000000081526004016136aa906156e3565b60405180910390fd5b6136bc8161316e565b156136fc576040517f08c379a00000000000000000000000000000000000000000000000000000000081526004016136f390615583565b60405180910390fd5b613708600083836139fc565b61375981600160008573ffffffffffffffffffffffffffffffffffffffff1673ffffffffffffffffffffffffffffffffffffffff168152602001908152602001600020613a1b90919063ffffffff16565b5061377081836002613a359092919063ffffffff16565b50808273ffffffffffffffffffffffffffffffffffffffff16600073ffffffffffffffffffffffffffffffffffffffff167fddf252ad1be2c89b69c2b068fc378daa952ba7f163c4a11628f55a4df523b3ef60405160405180910390a45050565b6137da8261316e565b613819576040517f08c379a000000000000000000000000000000000000000000000000000000000815260040161381090615763565b60405180910390fd5b80600860008481526020019081526020016000209080519060200190613840929190614255565b505050565b61385084848461333f565b61385c84848484613bfc565b61389b576040517f08c379a000000000000000000000000000000000000000000000000000000000815260040161389290615563565b60405180910390fd5b50505050565b606060008214156138e9576040518060400160405280600181526020017f300000000000000000000000000000000000000000000000000000000000000081525090506139cc565b600082905060005b60008214613913578080600101915050600a828161390b57fe5b0491506138f1565b6060816040519080825280601f01601f1916602001820160405280156139485781602001600182028038833980820191505090505b50905060006001830390508593505b600084146139c457600a848161396957fe5b0660300160f81b8282806001900393508151811061398357fe5b60200101907effffffffffffffffffffffffffffffffffffffffffffffffffffffffffffff1916908160001a905350600a84816139bc57fe5b049350613957565b819450505050505b919050565b60006139e3836000018360001b613d60565b905092915050565b600081600001805490509050919050565b505050565b6000613a13836000018360001b613d83565b905092915050565b6000613a2d836000018360001b613e6b565b905092915050565b6000613a61846000018460001b8473ffffffffffffffffffffffffffffffffffffffff1660001b613edb565b90509392505050565b600081836000018054905011613ab5576040517f08c379a0000000000000000000000000000000000000000000000000000000008152600401613aac90615543565b60405180910390fd5b826000018281548110613ac457fe5b9060005260206000200154905092915050565b60008082846000018054905011613b23576040517f08c379a0000000000000000000000000000000000000000000000000000000008152600401613b1a906156c3565b60405180910390fd5b6000846000018481548110613b3457fe5b906000526020600020906002020190508060000154816001015492509250509250929050565b60008084600101600085815260200190815260200160002054905060008114158390613bbc576040517f08c379a0000000000000000000000000000000000000000000000000000000008152600401613bb39190615521565b60405180910390fd5b50846000016001820381548110613bcf57fe5b9060005260206000209060020201600101549150509392505050565b600081600001805490509050919050565b6000613c1d8473ffffffffffffffffffffffffffffffffffffffff16613fb7565b613c2a5760019050613d58565b6060613cf163150b7a0260e01b613c3f61318b565b888787604051602401613c5594939291906153ef565b604051602081830303815290604052907bffffffffffffffffffffffffffffffffffffffffffffffffffffffff19166020820180517bffffffffffffffffffffffffffffffffffffffffffffffffffffffff8381831617835250505050604051806060016040528060328152602001615b57603291398773ffffffffffffffffffffffffffffffffffffffff16613fca9092919063ffffffff16565b9050600081806020019051613d0991908101906145db565b905063150b7a0260e01b7bffffffffffffffffffffffffffffffffffffffffffffffffffffffff1916817bffffffffffffffffffffffffffffffffffffffffffffffffffffffff191614925050505b949350505050565b600080836001016000848152602001908152602001600020541415905092915050565b60008083600101600084815260200190815260200160002054905060008114613e5f5760006001820390506000600186600001805490500390506000866000018281548110613dce57fe5b9060005260206000200154905080876000018481548110613deb57fe5b9060005260206000200181905550600183018760010160008381526020019081526020016000208190555086600001805480613e2357fe5b60019003818190600052602060002001600090559055866001016000878152602001908152602001600020600090556001945050505050613e65565b60009150505b92915050565b6000613e778383613fe2565b613ed0578260000182908060018154018082558091505060019003906000526020600020016000909190919091505582600001805490508360010160008481526020019081526020016000208190555060019050613ed5565b600090505b92915050565b6000808460010160008581526020019081526020016000205490506000811415613f8257846000016040518060400160405280868152602001858152509080600181540180825580915050600190039060005260206000209060020201600090919091909150600082015181600001556020820151816001015550508460000180549050856001016000868152602001908152602001600020819055506001915050613fb0565b82856000016001830381548110613f9557fe5b90600052602060002090600202016001018190555060009150505b9392505050565b600080823b905060008111915050919050565b6060613fd98484600085614005565b90509392505050565b600080836001016000848152602001908152602001600020541415905092915050565b606061401085613fb7565b61404f576040517f08c379a000000000000000000000000000000000000000000000000000000000815260040161404690615843565b60405180910390fd5b600060608673ffffffffffffffffffffffffffffffffffffffff1685876040516140799190615399565b60006040518083038185875af1925050503d80600081146140b6576040519150601f19603f3d011682016040523d82523d6000602084013e6140bb565b606091505b509150915081156140d0578092505050614120565b6000815111156140e35780518082602001fd5b836040517f08c379a00000000000000000000000000000000000000000000000000000000081526004016141179190615521565b60405180910390fd5b949350505050565b604051806080016040528060008152602001600073ffffffffffffffffffffffffffffffffffffffff168152602001600081526020016000600281111561416b57fe5b81525090565b604051806101200160405280600073ffffffffffffffffffffffffffffffffffffffff168152602001600081526020016060815260200160608152602001600081526020016060815260200160608152602001600081526020016000151581525090565b828054600181600116156101000203166002900490600052602060002090601f016020900481019282601f1061421657805160ff1916838001178555614244565b82800160010185558215614244579182015b82811115614243578251825591602001919060010190614228565b5b50905061425191906142d5565b5090565b828054600181600116156101000203166002900490600052602060002090601f016020900481019282601f1061429657805160ff19168380011785556142c4565b828001600101855582156142c4579182015b828111156142c35782518255916020019190600101906142a8565b5b5090506142d191906142d5565b5090565b6142f791905b808211156142f35760008160009055506001016142db565b5090565b90565b60008135905061430981615afa565b92915050565b60008135905061431e81615b11565b92915050565b60008135905061433381615b28565b92915050565b60008151905061434881615b28565b92915050565b600082601f83011261435f57600080fd5b813561437261436d826158f0565b6158c3565b9150808252602083016020830185838301111561438e57600080fd5b614399838284615a9a565b50505092915050565b600082601f8301126143b357600080fd5b81356143c66143c18261591c565b6158c3565b915080825260208301602083018583830111156143e257600080fd5b6143ed838284615a9a565b50505092915050565b60008135905061440581615b3f565b92915050565b60006020828403121561441d57600080fd5b600061442b848285016142fa565b91505092915050565b6000806040838503121561444757600080fd5b6000614455858286016142fa565b9250506020614466858286016142fa565b9150509250929050565b60008060006060848603121561448557600080fd5b6000614493868287016142fa565b93505060206144a4868287016142fa565b92505060406144b5868287016143f6565b9150509250925092565b600080600080608085870312156144d557600080fd5b60006144e3878288016142fa565b94505060206144f4878288016142fa565b9350506040614505878288016143f6565b925050606085013567ffffffffffffffff81111561452257600080fd5b61452e8782880161434e565b91505092959194509250565b6000806040838503121561454d57600080fd5b600061455b858286016142fa565b925050602061456c8582860161430f565b9150509250929050565b6000806040838503121561458957600080fd5b6000614597858286016142fa565b92505060206145a8858286016143f6565b9150509250929050565b6000602082840312156145c457600080fd5b60006145d284828501614324565b91505092915050565b6000602082840312156145ed57600080fd5b60006145fb84828501614339565b91505092915050565b600080600080600080600080610100898b03121561462157600080fd5b600089013567ffffffffffffffff81111561463b57600080fd5b6146478b828c016143a2565b985050602089013567ffffffffffffffff81111561466457600080fd5b6146708b828c016143a2565b97505060406146818b828c016143f6565b965050606089013567ffffffffffffffff81111561469e57600080fd5b6146aa8b828c016143a2565b95505060806146bb8b828c016143f6565b94505060a089013567ffffffffffffffff8111156146d857600080fd5b6146e48b828c016143a2565b93505060c06146f58b828c0161430f565b92505060e089013567ffffffffffffffff81111561471257600080fd5b61471e8b828c016143a2565b9150509295985092959890939650565b60006020828403121561474057600080fd5b600061474e848285016143f6565b91505092915050565b6000806040838503121561476a57600080fd5b6000614778858286016143f6565b9250506020614789858286016142fa565b9150509250929050565b600080604083850312156147a657600080fd5b60006147b4858286016143f6565b92505060206147c5858286016143f6565b9150509250929050565b60006147db8383615326565b60808301905092915050565b6147f081615a01565b82525050565b6147ff816159ef565b82525050565b61480e816159ef565b82525050565b600061481f8261596d565b61482981856159a6565b935061483483615948565b8060005b8381101561486557815161484c88826147cf565b975061485783615999565b925050600181019050614838565b5085935050505092915050565b61487b81615a13565b82525050565b600061488c82615978565b61489681856159b7565b93506148a6818560208601615aa9565b6148af81615adc565b840191505092915050565b60006148c582615978565b6148cf81856159c8565b93506148df818560208601615aa9565b80840191505092915050565b6148f481615a88565b82525050565b61490381615a88565b82525050565b60006149148261598e565b61491e81856159d3565b935061492e818560208601615aa9565b61493781615adc565b840191505092915050565b600061494d8261598e565b61495781856159e4565b9350614967818560208601615aa9565b80840191505092915050565b600061497e82615983565b61498881856159d3565b9350614998818560208601615aa9565b6149a181615adc565b840191505092915050565b6000815460018116600081146149c957600181146149ee57614a32565b607f60028304166149da81876159e4565b955060ff1983168652808601935050614a32565b600282046149fc81876159e4565b9550614a0785615958565b60005b82811015614a2957815481890152600182019150602081019050614a0a565b82880195505050505b505092915050565b6000614a476022836159d3565b91507f456e756d657261626c655365743a20696e646578206f7574206f6620626f756e60008301527f64730000000000000000000000000000000000000000000000000000000000006020830152604082019050919050565b6000614aad6032836159d3565b91507f4552433732313a207472616e7366657220746f206e6f6e20455243373231526560008301527f63656976657220696d706c656d656e74657200000000000000000000000000006020830152604082019050919050565b6000614b13601c836159d3565b91507f4552433732313a20746f6b656e20616c7265616479206d696e746564000000006000830152602082019050919050565b6000614b536026836159d3565b91507f4572726f723a20494e56414c49442050726f7065727479206964206f7220746f60008301527f6b656e20696400000000000000000000000000000000000000000000000000006020830152604082019050919050565b6000614bb96023836159d3565b91507f4572726f723a204f6e6c792050726f7065727479204f776e65722072756e207460008301527f68697300000000000000000000000000000000000000000000000000000000006020830152604082019050919050565b6000614c1f6024836159d3565b91507f4552433732313a207472616e7366657220746f20746865207a65726f2061646460008301527f72657373000000000000000000000000000000000000000000000000000000006020830152604082019050919050565b6000614c856019836159d3565b91507f4552433732313a20617070726f766520746f2063616c6c6572000000000000006000830152602082019050919050565b6000614cc56038836159d3565b91507f4572726f723a20536f7272792c2050726963696e67206f662070726f7065727460008301527f79206e6f74206d6174636865642077697468206f6666657200000000000000006020830152604082019050919050565b6000614d2b603e836159d3565b91507f4572726f723a20546869732050726f7065727479206e6f7420666f722073616c60008301527f6520284f666665722072657175657374206e6f7420617070726f7665642900006020830152604082019050919050565b6000614d91602c836159d3565b91507f4552433732313a206f70657261746f7220717565727920666f72206e6f6e657860008301527f697374656e7420746f6b656e00000000000000000000000000000000000000006020830152604082019050919050565b6000614df76038836159d3565b91507f4552433732313a20617070726f76652063616c6c6572206973206e6f74206f7760008301527f6e6572206e6f7220617070726f76656420666f7220616c6c00000000000000006020830152604082019050919050565b6000614e5d602a836159d3565b91507f4552433732313a2062616c616e636520717565727920666f7220746865207a6560008301527f726f2061646472657373000000000000000000000000000000000000000000006020830152604082019050919050565b6000614ec36022836159d3565b91507f456e756d657261626c654d61703a20696e646578206f7574206f6620626f756e60008301527f64730000000000000000000000000000000000000000000000000000000000006020830152604082019050919050565b6000614f296020836159d3565b91507f4552433732313a206d696e7420746f20746865207a65726f20616464726573736000830152602082019050919050565b6000614f69601d836159d3565b91507f4572726f723a20494e56414c49442062757965722061646472657373200000006000830152602082019050919050565b6000614fa96021836159d3565b91507f536166654d6174683a206d756c7469706c69636174696f6e206f766572666c6f60008301527f77000000000000000000000000000000000000000000000000000000000000006020830152604082019050919050565b600061500f602c836159d3565b91507f4552433732313a20617070726f76656420717565727920666f72206e6f6e657860008301527f697374656e7420746f6b656e00000000000000000000000000000000000000006020830152604082019050919050565b6000615075602c836159d3565b91507f4552433732314d657461646174613a2055524920736574206f66206e6f6e657860008301527f697374656e7420746f6b656e00000000000000000000000000000000000000006020830152604082019050919050565b60006150db6029836159d3565b91507f4552433732313a207472616e73666572206f6620746f6b656e2074686174206960008301527f73206e6f74206f776e00000000000000000000000000000000000000000000006020830152604082019050919050565b6000615141601d836159d3565b91507f4572726f723a204574686572287329206e6f742070726f7669646564200000006000830152602082019050919050565b6000615181602f836159d3565b91507f4552433732314d657461646174613a2055524920717565727920666f72206e6f60008301527f6e6578697374656e7420746f6b656e00000000000000000000000000000000006020830152604082019050919050565b60006151e76021836159d3565b91507f4552433732313a20617070726f76616c20746f2063757272656e74206f776e6560008301527f72000000000000000000000000000000000000000000000000000000000000006020830152604082019050919050565b600061524d601f836159d3565b91507f4572726f723a546869732050726f7065727479206e6f74206f6e2053616c65006000830152602082019050919050565b600061528d6031836159d3565b91507f4552433732313a207472616e736665722063616c6c6572206973206e6f74206f60008301527f776e6572206e6f7220617070726f7665640000000000000000000000000000006020830152604082019050919050565b60006152f3601d836159d3565b91507f416464726573733a2063616c6c20746f206e6f6e2d636f6e74726163740000006000830152602082019050919050565b60808201600082015161533c600085018261537b565b50602082015161534f60208501826147f6565b506040820151615362604085018261537b565b50606082015161537560608501826148eb565b50505050565b61538481615a7e565b82525050565b61539381615a7e565b82525050565b60006153a582846148ba565b915081905092915050565b60006153bc82856149ac565b91506153c88284614942565b91508190509392505050565b60006020820190506153e96000830184614805565b92915050565b600060808201905061540460008301876147e7565b6154116020830186614805565b61541e604083018561538a565b81810360608301526154308184614881565b905095945050505050565b600061012082019050615451600083018c614805565b61545e602083018b61538a565b8181036040830152615470818a614973565b905081810360608301526154848189614973565b9050615493608083018861538a565b81810360a08301526154a58187614973565b905081810360c08301526154b98186614973565b90506154c860e083018561538a565b6154d6610100830184614872565b9a9950505050505050505050565b600060208201905081810360008301526154fe8184614814565b905092915050565b600060208201905061551b6000830184614872565b92915050565b6000602082019050818103600083015261553b8184614909565b905092915050565b6000602082019050818103600083015261555c81614a3a565b9050919050565b6000602082019050818103600083015261557c81614aa0565b9050919050565b6000602082019050818103600083015261559c81614b06565b9050919050565b600060208201905081810360008301526155bc81614b46565b9050919050565b600060208201905081810360008301526155dc81614bac565b9050919050565b600060208201905081810360008301526155fc81614c12565b9050919050565b6000602082019050818103600083015261561c81614c78565b9050919050565b6000602082019050818103600083015261563c81614cb8565b9050919050565b6000602082019050818103600083015261565c81614d1e565b9050919050565b6000602082019050818103600083015261567c81614d84565b9050919050565b6000602082019050818103600083015261569c81614dea565b9050919050565b600060208201905081810360008301526156bc81614e50565b9050919050565b600060208201905081810360008301526156dc81614eb6565b9050919050565b600060208201905081810360008301526156fc81614f1c565b9050919050565b6000602082019050818103600083015261571c81614f5c565b9050919050565b6000602082019050818103600083015261573c81614f9c565b9050919050565b6000602082019050818103600083015261575c81615002565b9050919050565b6000602082019050818103600083015261577c81615068565b9050919050565b6000602082019050818103600083015261579c816150ce565b9050919050565b600060208201905081810360008301526157bc81615134565b9050919050565b600060208201905081810360008301526157dc81615174565b9050919050565b600060208201905081810360008301526157fc816151da565b9050919050565b6000602082019050818103600083015261581c81615240565b9050919050565b6000602082019050818103600083015261583c81615280565b9050919050565b6000602082019050818103600083015261585c816152e6565b9050919050565b6000602082019050615878600083018461538a565b92915050565b6000608082019050615893600083018761538a565b6158a06020830186614805565b6158ad604083018561538a565b6158ba60608301846148fa565b95945050505050565b6000604051905081810181811067ffffffffffffffff821117156158e657600080fd5b8060405250919050565b600067ffffffffffffffff82111561590757600080fd5b601f19601f8301169050602081019050919050565b600067ffffffffffffffff82111561593357600080fd5b601f19601f8301169050602081019050919050565b6000819050602082019050919050565b60008190508160005260206000209050919050565b600081519050919050565b600081519050919050565b600081519050919050565b600081519050919050565b6000602082019050919050565b600082825260208201905092915050565b600082825260208201905092915050565b600081905092915050565b600082825260208201905092915050565b600081905092915050565b60006159fa82615a5e565b9050919050565b6000615a0c82615a5e565b9050919050565b60008115159050919050565b60007fffffffff0000000000000000000000000000000000000000000000000000000082169050919050565b6000819050615a5982615aed565b919050565b600073ffffffffffffffffffffffffffffffffffffffff82169050919050565b6000819050919050565b6000615a9382615a4b565b9050919050565b82818337600083830152505050565b60005b83811015615ac7578082015181840152602081019050615aac565b83811115615ad6576000848401525b50505050565b6000601f19601f8301169050919050565b60038110615af757fe5b50565b615b03816159ef565b8114615b0e57600080fd5b50565b615b1a81615a13565b8114615b2557600080fd5b50565b615b3181615a1f565b8114615b3c57600080fd5b50565b615b4881615a7e565b8114615b5357600080fd5b5056fe4552433732313a207472616e7366657220746f206e6f6e20455243373231526563656976657220696d706c656d656e7465724552433732313a206f776e657220717565727920666f72206e6f6e6578697374656e7420746f6b656ea2646970667358221220c32ab8459676e7b9b16e454ab8c23c0771847cf935ccdb43128479611c4ab71564736f6c63430006020033",
  "source": "pragma solidity ^0.6.0;\r\npragma experimental ABIEncoderV2;\r\n//smart-estate\\node_modules\\@openzeppelin\\contracts\\token\\ERC721\\ERC721.sol\r\n\r\nimport \"@openzeppelin/contracts/token/ERC721/ERC721.sol\";\r\n\r\ncontract SmartEstate is ERC721 {\r\n    uint256 private buyerId;\r\n    uint256 public tokenId;\r\n    \r\n    PropertyDetails[] public property;\r\n    enum offerApproval {pending, approved, rejected}\r\n\r\n    struct PropertyDetails {\r\n        address sellerAddress;\r\n        uint256 propertyId;\r\n        string propertyAddress;\r\n        string city;\r\n        uint256 room;\r\n        string area;\r\n        string propertyType;\r\n        uint256 price;\r\n        bool saleStatus;\r\n    }\r\n\r\n    struct BuyerInfo {\r\n        uint256 bId;\r\n        address buyerAddress;\r\n        uint256 buyerOffer;\r\n        offerApproval request;\r\n    }\r\n\r\n    modifier propertyOwner() {\r\n        require(\r\n            OnlyOwner[msg.sender].sellerAddress == msg.sender,\r\n            \"Error: Only Property Owner run this\"\r\n        );\r\n        _;\r\n    }\r\n    mapping (uint256 => PropertyDetails) public lands;\r\n    mapping(address => PropertyDetails) public OnlyOwner;\r\n    mapping(uint256 => address) public PropertyList;\r\n    mapping(address => BuyerInfo) public BuyerList;\r\n    mapping(uint256 => BuyerInfo[]) public AllBuyers;\r\n    mapping(uint256 => bool) public Offers;\r\n    \r\n\r\n    constructor() public ERC721(\"Smart Estate Properties\", \"ESP\") {}\r\n\r\n    function RegisterProperty(\r\n        string memory _propertyAddress,\r\n        string memory _city,\r\n        uint256 _room,\r\n        string memory _area,\r\n        uint256 _priceInEther,\r\n        string memory _propertyType,\r\n        bool _saleStatus,\r\n        string memory _tokenUri\r\n    ) public returns (bool) {\r\n        tokenId++;\r\n        uint256 thisId = tokenId;\r\n        _mint(msg.sender, thisId);\r\n        _setTokenURI(thisId, _tokenUri);\r\n\r\n        PropertyDetails memory tempDetails;\r\n\r\n        tempDetails = PropertyDetails({\r\n            sellerAddress: msg.sender,\r\n            propertyId: thisId,\r\n            propertyAddress: _propertyAddress,\r\n            city: _city,\r\n            room: _room,\r\n            area: _area,\r\n            propertyType: _propertyType,\r\n            price: _priceInEther,\r\n            saleStatus: false\r\n        });\r\n        OnlyOwner[msg.sender] = tempDetails;\r\n        PropertyList[thisId] = msg.sender;\r\n        property.push(tempDetails);\r\n        return true;\r\n    }\r\n\r\n\r\n    function EnablePropertySale(uint256 PropertyId_TokenId)\r\n        public\r\n        propertyOwner\r\n        returns (bool)\r\n    {\r\n        require(\r\n            _exists(PropertyId_TokenId),\r\n            \"Error: INVALID Property id or token id\"\r\n        );\r\n        OnlyOwner[PropertyList[PropertyId_TokenId]].saleStatus = true;\r\n        return true;\r\n    }\r\n\r\n    function PropertyPricing(uint256 PropertyId_TokenId)\r\n        public\r\n        propertyOwner\r\n        returns (uint256)\r\n    {\r\n        require(\r\n            _exists(PropertyId_TokenId),\r\n            \"Error: INVALID Property id or token id\"\r\n        );\r\n        return OnlyOwner[PropertyList[PropertyId_TokenId]].price;\r\n    }\r\n\r\n    function BuyingRequest(uint256 PropertyId_TokenId, uint256 offerInEthers)\r\n        public\r\n        returns (bool)\r\n    {\r\n        require(\r\n            _exists(PropertyId_TokenId),\r\n            \"Error: INVALID Property id or token id\"\r\n        );\r\n        require(\r\n            OnlyOwner[PropertyList[PropertyId_TokenId]].saleStatus,\r\n            \"Error:This Property not on Sale\"\r\n        );\r\n\r\n        buyerId++;\r\n\r\n        BuyerInfo memory tempDetails;\r\n        tempDetails = BuyerInfo({\r\n            bId: buyerId,\r\n            buyerAddress: msg.sender,\r\n            buyerOffer: offerInEthers,\r\n            request: offerApproval.pending\r\n        });\r\n        AllBuyers[PropertyId_TokenId].push(tempDetails);\r\n        BuyerList[msg.sender] = tempDetails;\r\n        BuyerList[msg.sender].request = offerApproval.pending;\r\n\r\n        return true;\r\n    }\r\n\r\n    function OfferStatus(uint256 PropertyId_TokenId)\r\n        public\r\n        propertyOwner\r\n        returns (BuyerInfo[] memory)\r\n    {\r\n        require(\r\n            _exists(PropertyId_TokenId),\r\n            \"Error: INVALID Property id or token id\"\r\n        );\r\n        BuyerInfo[] memory tempDetails;\r\n        tempDetails = AllBuyers[PropertyId_TokenId];\r\n        return tempDetails;\r\n    }\r\n\r\n    function OfferReject(uint256 PropertyId_TokenId, address _buyerAddress)\r\n        public\r\n        propertyOwner\r\n        returns (bool)\r\n    {\r\n        require(\r\n            _exists(PropertyId_TokenId),\r\n            \"Error: INVALID Property id or token id\"\r\n        );\r\n        require(\r\n            BuyerList[_buyerAddress].buyerAddress == _buyerAddress,\r\n            \"Error: INVALID buyer address \"\r\n        );\r\n        BuyerList[_buyerAddress].request = offerApproval.rejected;\r\n        return true;\r\n    }\r\n\r\n    function OfferAccept(uint256 PropertyId_TokenId, address _buyerAddress)\r\n        public\r\n        propertyOwner\r\n        returns (bool)\r\n    {\r\n        require(\r\n            _exists(PropertyId_TokenId),\r\n            \"Error: INVALID Property id or token id\"\r\n        );\r\n        require(\r\n            BuyerList[_buyerAddress].buyerAddress == _buyerAddress,\r\n            \"Error: INVALID buyer address \"\r\n        );\r\n        BuyerList[_buyerAddress].request = offerApproval.approved;\r\n        return true;\r\n    }\r\n\r\n    function BuyProperty(uint256 PropertyId_TokenId)\r\n        public\r\n        payable\r\n        returns (bool)\r\n    {\r\n        require(\r\n            _exists(PropertyId_TokenId),\r\n            \"Error: INVALID Property id or token id\"\r\n        );\r\n        require(\r\n            BuyerList[msg.sender].buyerAddress == msg.sender,\r\n            \"Error: INVALID buyer address \"\r\n        );\r\n        require(\r\n            BuyerList[msg.sender].request == offerApproval.approved,\r\n            \"Error: This Property not for sale (Offer request not approved)\"\r\n        );\r\n        require(msg.value > 0, \"Error: Ether(s) not provided \");\r\n        uint256 PropertyPrice = BuyerList[msg.sender].buyerOffer.mul(\r\n            1 * 10**18\r\n        );\r\n        require(\r\n            PropertyPrice == msg.value,\r\n            \"Error: Sorry, Pricing of property not matched with offer\"\r\n        );\r\n        address BuyerAddress = OnlyOwner[PropertyList[PropertyId_TokenId]]\r\n            .sellerAddress;\r\n        _transfer(BuyerAddress, msg.sender, PropertyId_TokenId);\r\n        emit Transfer(BuyerAddress, msg.sender, PropertyId_TokenId);\r\n    }\r\n}\r\n",
  "sourcePath": "G:/SmartEstate/src/contracts/SmartEstate.sol",
  "compiler": {
    "name": "solc",
    "version": "0.6.2+commit.bacdbe57.Emscripten.clang"
  },
  "schemaVersion": "3.2.5",
  "updatedAt": "2020-11-07T20:19:36.764Z",
  "networkType": "ethereum",
  "devdoc": {
    "methods": {
      "approve(address,uint256)": {
        "details": "See {IERC721-approve}."
      },
      "balanceOf(address)": {
        "details": "See {IERC721-balanceOf}."
      },
      "baseURI()": {
        "details": "Returns the base URI set via {_setBaseURI}. This will be automatically added as a prefix in {tokenURI} to each token's URI, or to the token ID if no specific URI is set for that token ID."
      },
      "getApproved(uint256)": {
        "details": "See {IERC721-getApproved}."
      },
      "isApprovedForAll(address,address)": {
        "details": "See {IERC721-isApprovedForAll}."
      },
      "name()": {
        "details": "See {IERC721Metadata-name}."
      },
      "ownerOf(uint256)": {
        "details": "See {IERC721-ownerOf}."
      },
      "safeTransferFrom(address,address,uint256)": {
        "details": "See {IERC721-safeTransferFrom}."
      },
      "safeTransferFrom(address,address,uint256,bytes)": {
        "details": "See {IERC721-safeTransferFrom}."
      },
      "setApprovalForAll(address,bool)": {
        "details": "See {IERC721-setApprovalForAll}."
      },
      "supportsInterface(bytes4)": {
        "details": "See {IERC165-supportsInterface}.     * Time complexity O(1), guaranteed to always use less than 30 000 gas."
      },
      "symbol()": {
        "details": "See {IERC721Metadata-symbol}."
      },
      "tokenByIndex(uint256)": {
        "details": "See {IERC721Enumerable-tokenByIndex}."
      },
      "tokenOfOwnerByIndex(address,uint256)": {
        "details": "See {IERC721Enumerable-tokenOfOwnerByIndex}."
      },
      "tokenURI(uint256)": {
        "details": "See {IERC721Metadata-tokenURI}."
      },
      "totalSupply()": {
        "details": "See {IERC721Enumerable-totalSupply}."
      },
      "transferFrom(address,address,uint256)": {
        "details": "See {IERC721-transferFrom}."
      }
    }
  },
  "userdoc": {
    "methods": {}
  }
}