{
  "contractName": "SmartEstate",
  "abi": [
    {
      "inputs": [],
      "stateMutability": "nonpayable",
      "type": "constructor"
    },
    {
      "anonymous": false,
      "inputs": [
        {
          "indexed": true,
          "internalType": "address",
          "name": "owner",
          "type": "address"
        },
        {
          "indexed": true,
          "internalType": "address",
          "name": "approved",
          "type": "address"
        },
        {
          "indexed": true,
          "internalType": "uint256",
          "name": "tokenId",
          "type": "uint256"
        }
      ],
      "name": "Approval",
      "type": "event"
    },
    {
      "anonymous": false,
      "inputs": [
        {
          "indexed": true,
          "internalType": "address",
          "name": "owner",
          "type": "address"
        },
        {
          "indexed": true,
          "internalType": "address",
          "name": "operator",
          "type": "address"
        },
        {
          "indexed": false,
          "internalType": "bool",
          "name": "approved",
          "type": "bool"
        }
      ],
      "name": "ApprovalForAll",
      "type": "event"
    },
    {
      "anonymous": false,
      "inputs": [
        {
          "indexed": false,
          "internalType": "address",
          "name": "",
          "type": "address"
        },
        {
          "indexed": false,
          "internalType": "address",
          "name": "",
          "type": "address"
        },
        {
          "indexed": false,
          "internalType": "address",
          "name": "",
          "type": "address"
        }
      ],
      "name": "Transfer",
      "type": "event"
    },
    {
      "anonymous": false,
      "inputs": [
        {
          "indexed": true,
          "internalType": "address",
          "name": "from",
          "type": "address"
        },
        {
          "indexed": true,
          "internalType": "address",
          "name": "to",
          "type": "address"
        },
        {
          "indexed": true,
          "internalType": "uint256",
          "name": "tokenId",
          "type": "uint256"
        }
      ],
      "name": "Transfer",
      "type": "event"
    },
    {
      "anonymous": false,
      "inputs": [
        {
          "indexed": false,
          "internalType": "uint256",
          "name": "buyerId",
          "type": "uint256"
        },
        {
          "indexed": false,
          "internalType": "address",
          "name": "buyerAddress",
          "type": "address"
        },
        {
          "indexed": false,
          "internalType": "uint256",
          "name": "buyerOffer",
          "type": "uint256"
        },
        {
          "indexed": false,
          "internalType": "enum SmartEstate.offerApproval",
          "name": "request",
          "type": "uint8"
        }
      ],
      "name": "buyer_Info",
      "type": "event"
    },
    {
      "anonymous": false,
      "inputs": [
        {
          "indexed": false,
          "internalType": "uint256",
          "name": "",
          "type": "uint256"
        }
      ],
      "name": "property_Pricing",
      "type": "event"
    },
    {
      "anonymous": false,
      "inputs": [
        {
          "indexed": false,
          "internalType": "address",
          "name": "useraddress",
          "type": "address"
        },
        {
          "indexed": false,
          "internalType": "uint256",
          "name": "propertyId",
          "type": "uint256"
        },
        {
          "indexed": false,
          "internalType": "string",
          "name": "propertyAddress",
          "type": "string"
        },
        {
          "indexed": false,
          "internalType": "string",
          "name": "city",
          "type": "string"
        },
        {
          "indexed": false,
          "internalType": "uint256",
          "name": "room",
          "type": "uint256"
        },
        {
          "indexed": false,
          "internalType": "string",
          "name": "area",
          "type": "string"
        },
        {
          "indexed": false,
          "internalType": "string",
          "name": "propertyType",
          "type": "string"
        },
        {
          "indexed": false,
          "internalType": "uint256",
          "name": "price",
          "type": "uint256"
        },
        {
          "indexed": false,
          "internalType": "string",
          "name": "image",
          "type": "string"
        },
        {
          "indexed": false,
          "internalType": "bool",
          "name": "saleStatus",
          "type": "bool"
        }
      ],
      "name": "property_detail",
      "type": "event"
    },
    {
      "anonymous": false,
      "inputs": [
        {
          "indexed": false,
          "internalType": "bool",
          "name": "",
          "type": "bool"
        }
      ],
      "name": "saleStatus",
      "type": "event"
    },
    {
      "inputs": [
        {
          "internalType": "uint256",
          "name": "",
          "type": "uint256"
        },
        {
          "internalType": "uint256",
          "name": "",
          "type": "uint256"
        }
      ],
      "name": "AllBuyers",
      "outputs": [
        {
          "internalType": "uint256",
          "name": "bId",
          "type": "uint256"
        },
        {
          "internalType": "address",
          "name": "buyerAddress",
          "type": "address"
        },
        {
          "internalType": "uint256",
          "name": "buyerOffer",
          "type": "uint256"
        },
        {
          "internalType": "enum SmartEstate.offerApproval",
          "name": "request",
          "type": "uint8"
        }
      ],
      "stateMutability": "view",
      "type": "function",
      "constant": true
    },
    {
      "inputs": [
        {
          "internalType": "address",
          "name": "",
          "type": "address"
        }
      ],
      "name": "BuyerList",
      "outputs": [
        {
          "internalType": "uint256",
          "name": "bId",
          "type": "uint256"
        },
        {
          "internalType": "address",
          "name": "buyerAddress",
          "type": "address"
        },
        {
          "internalType": "uint256",
          "name": "buyerOffer",
          "type": "uint256"
        },
        {
          "internalType": "enum SmartEstate.offerApproval",
          "name": "request",
          "type": "uint8"
        }
      ],
      "stateMutability": "view",
      "type": "function",
      "constant": true
    },
    {
      "inputs": [
        {
          "internalType": "uint256",
          "name": "",
          "type": "uint256"
        }
      ],
      "name": "Offers",
      "outputs": [
        {
          "internalType": "bool",
          "name": "",
          "type": "bool"
        }
      ],
      "stateMutability": "view",
      "type": "function",
      "constant": true
    },
    {
      "inputs": [
        {
          "internalType": "address",
          "name": "",
          "type": "address"
        }
      ],
      "name": "OnlyOwner",
      "outputs": [
        {
          "internalType": "address",
          "name": "sellerAddress",
          "type": "address"
        },
        {
          "internalType": "uint256",
          "name": "propertyId",
          "type": "uint256"
        },
        {
          "internalType": "string",
          "name": "propertyAddress",
          "type": "string"
        },
        {
          "internalType": "string",
          "name": "city",
          "type": "string"
        },
        {
          "internalType": "uint256",
          "name": "room",
          "type": "uint256"
        },
        {
          "internalType": "string",
          "name": "area",
          "type": "string"
        },
        {
          "internalType": "string",
          "name": "propertyType",
          "type": "string"
        },
        {
          "internalType": "uint256",
          "name": "price",
          "type": "uint256"
        },
        {
          "internalType": "string",
          "name": "image",
          "type": "string"
        },
        {
          "internalType": "bool",
          "name": "saleStatus",
          "type": "bool"
        }
      ],
      "stateMutability": "view",
      "type": "function",
      "constant": true
    },
    {
      "inputs": [
        {
          "internalType": "uint256",
          "name": "",
          "type": "uint256"
        }
      ],
      "name": "PropertyList",
      "outputs": [
        {
          "internalType": "address",
          "name": "",
          "type": "address"
        }
      ],
      "stateMutability": "view",
      "type": "function",
      "constant": true
    },
    {
      "inputs": [
        {
          "internalType": "address",
          "name": "to",
          "type": "address"
        },
        {
          "internalType": "uint256",
          "name": "tokenId",
          "type": "uint256"
        }
      ],
      "name": "approve",
      "outputs": [],
      "stateMutability": "nonpayable",
      "type": "function"
    },
    {
      "inputs": [
        {
          "internalType": "address",
          "name": "owner",
          "type": "address"
        }
      ],
      "name": "balanceOf",
      "outputs": [
        {
          "internalType": "uint256",
          "name": "",
          "type": "uint256"
        }
      ],
      "stateMutability": "view",
      "type": "function",
      "constant": true
    },
    {
      "inputs": [],
      "name": "baseURI",
      "outputs": [
        {
          "internalType": "string",
          "name": "",
          "type": "string"
        }
      ],
      "stateMutability": "view",
      "type": "function",
      "constant": true
    },
    {
      "inputs": [
        {
          "internalType": "uint256",
          "name": "tokenId",
          "type": "uint256"
        }
      ],
      "name": "getApproved",
      "outputs": [
        {
          "internalType": "address",
          "name": "",
          "type": "address"
        }
      ],
      "stateMutability": "view",
      "type": "function",
      "constant": true
    },
    {
      "inputs": [
        {
          "internalType": "address",
          "name": "owner",
          "type": "address"
        },
        {
          "internalType": "address",
          "name": "operator",
          "type": "address"
        }
      ],
      "name": "isApprovedForAll",
      "outputs": [
        {
          "internalType": "bool",
          "name": "",
          "type": "bool"
        }
      ],
      "stateMutability": "view",
      "type": "function",
      "constant": true
    },
    {
      "inputs": [],
      "name": "name",
      "outputs": [
        {
          "internalType": "string",
          "name": "",
          "type": "string"
        }
      ],
      "stateMutability": "view",
      "type": "function",
      "constant": true
    },
    {
      "inputs": [
        {
          "internalType": "uint256",
          "name": "tokenId",
          "type": "uint256"
        }
      ],
      "name": "ownerOf",
      "outputs": [
        {
          "internalType": "address",
          "name": "",
          "type": "address"
        }
      ],
      "stateMutability": "view",
      "type": "function",
      "constant": true
    },
    {
      "inputs": [
        {
          "internalType": "address",
          "name": "from",
          "type": "address"
        },
        {
          "internalType": "address",
          "name": "to",
          "type": "address"
        },
        {
          "internalType": "uint256",
          "name": "tokenId",
          "type": "uint256"
        }
      ],
      "name": "safeTransferFrom",
      "outputs": [],
      "stateMutability": "nonpayable",
      "type": "function"
    },
    {
      "inputs": [
        {
          "internalType": "address",
          "name": "from",
          "type": "address"
        },
        {
          "internalType": "address",
          "name": "to",
          "type": "address"
        },
        {
          "internalType": "uint256",
          "name": "tokenId",
          "type": "uint256"
        },
        {
          "internalType": "bytes",
          "name": "_data",
          "type": "bytes"
        }
      ],
      "name": "safeTransferFrom",
      "outputs": [],
      "stateMutability": "nonpayable",
      "type": "function"
    },
    {
      "inputs": [
        {
          "internalType": "address",
          "name": "operator",
          "type": "address"
        },
        {
          "internalType": "bool",
          "name": "approved",
          "type": "bool"
        }
      ],
      "name": "setApprovalForAll",
      "outputs": [],
      "stateMutability": "nonpayable",
      "type": "function"
    },
    {
      "inputs": [
        {
          "internalType": "bytes4",
          "name": "interfaceId",
          "type": "bytes4"
        }
      ],
      "name": "supportsInterface",
      "outputs": [
        {
          "internalType": "bool",
          "name": "",
          "type": "bool"
        }
      ],
      "stateMutability": "view",
      "type": "function",
      "constant": true
    },
    {
      "inputs": [],
      "name": "symbol",
      "outputs": [
        {
          "internalType": "string",
          "name": "",
          "type": "string"
        }
      ],
      "stateMutability": "view",
      "type": "function",
      "constant": true
    },
    {
      "inputs": [
        {
          "internalType": "uint256",
          "name": "index",
          "type": "uint256"
        }
      ],
      "name": "tokenByIndex",
      "outputs": [
        {
          "internalType": "uint256",
          "name": "",
          "type": "uint256"
        }
      ],
      "stateMutability": "view",
      "type": "function",
      "constant": true
    },
    {
      "inputs": [
        {
          "internalType": "address",
          "name": "owner",
          "type": "address"
        },
        {
          "internalType": "uint256",
          "name": "index",
          "type": "uint256"
        }
      ],
      "name": "tokenOfOwnerByIndex",
      "outputs": [
        {
          "internalType": "uint256",
          "name": "",
          "type": "uint256"
        }
      ],
      "stateMutability": "view",
      "type": "function",
      "constant": true
    },
    {
      "inputs": [
        {
          "internalType": "uint256",
          "name": "tokenId",
          "type": "uint256"
        }
      ],
      "name": "tokenURI",
      "outputs": [
        {
          "internalType": "string",
          "name": "",
          "type": "string"
        }
      ],
      "stateMutability": "view",
      "type": "function",
      "constant": true
    },
    {
      "inputs": [],
      "name": "totalSupply",
      "outputs": [
        {
          "internalType": "uint256",
          "name": "",
          "type": "uint256"
        }
      ],
      "stateMutability": "view",
      "type": "function",
      "constant": true
    },
    {
      "inputs": [
        {
          "internalType": "address",
          "name": "from",
          "type": "address"
        },
        {
          "internalType": "address",
          "name": "to",
          "type": "address"
        },
        {
          "internalType": "uint256",
          "name": "tokenId",
          "type": "uint256"
        }
      ],
      "name": "transferFrom",
      "outputs": [],
      "stateMutability": "nonpayable",
      "type": "function"
    },
    {
      "inputs": [
        {
          "internalType": "string",
          "name": "_propertyAddress",
          "type": "string"
        },
        {
          "internalType": "string",
          "name": "_city",
          "type": "string"
        },
        {
          "internalType": "uint256",
          "name": "_room",
          "type": "uint256"
        },
        {
          "internalType": "string",
          "name": "_area",
          "type": "string"
        },
        {
          "internalType": "uint256",
          "name": "_priceInEther",
          "type": "uint256"
        },
        {
          "internalType": "string",
          "name": "_propertyType",
          "type": "string"
        },
        {
          "internalType": "string",
          "name": "_image",
          "type": "string"
        },
        {
          "internalType": "bool",
          "name": "_saleStatus",
          "type": "bool"
        },
        {
          "internalType": "string",
          "name": "_tokenUri",
          "type": "string"
        }
      ],
      "name": "RegisterProperty",
      "outputs": [
        {
          "internalType": "bool",
          "name": "",
          "type": "bool"
        }
      ],
      "stateMutability": "nonpayable",
      "type": "function"
    },
    {
      "inputs": [
        {
          "internalType": "uint256",
          "name": "PropertyId_TokenId",
          "type": "uint256"
        }
      ],
      "name": "EnablePropertySale",
      "outputs": [
        {
          "internalType": "bool",
          "name": "",
          "type": "bool"
        }
      ],
      "stateMutability": "nonpayable",
      "type": "function"
    },
    {
      "inputs": [
        {
          "internalType": "uint256",
          "name": "PropertyId_TokenId",
          "type": "uint256"
        }
      ],
      "name": "PropertyPricing",
      "outputs": [
        {
          "internalType": "uint256",
          "name": "",
          "type": "uint256"
        }
      ],
      "stateMutability": "view",
      "type": "function",
      "constant": true
    },
    {
      "inputs": [
        {
          "internalType": "uint256",
          "name": "PropertyId_TokenId",
          "type": "uint256"
        },
        {
          "internalType": "uint256",
          "name": "offerInEthers",
          "type": "uint256"
        }
      ],
      "name": "BuyingRequest",
      "outputs": [
        {
          "internalType": "bool",
          "name": "",
          "type": "bool"
        }
      ],
      "stateMutability": "nonpayable",
      "type": "function"
    },
    {
      "inputs": [
        {
          "internalType": "uint256",
          "name": "PropertyId_TokenId",
          "type": "uint256"
        }
      ],
      "name": "OfferStatus",
      "outputs": [
        {
          "components": [
            {
              "internalType": "uint256",
              "name": "bId",
              "type": "uint256"
            },
            {
              "internalType": "address",
              "name": "buyerAddress",
              "type": "address"
            },
            {
              "internalType": "uint256",
              "name": "buyerOffer",
              "type": "uint256"
            },
            {
              "internalType": "enum SmartEstate.offerApproval",
              "name": "request",
              "type": "uint8"
            }
          ],
          "internalType": "struct SmartEstate.BuyerInfo[]",
          "name": "",
          "type": "tuple[]"
        }
      ],
      "stateMutability": "nonpayable",
      "type": "function"
    },
    {
      "inputs": [
        {
          "internalType": "uint256",
          "name": "PropertyId_TokenId",
          "type": "uint256"
        },
        {
          "internalType": "address",
          "name": "_buyerAddress",
          "type": "address"
        }
      ],
      "name": "OfferReject",
      "outputs": [
        {
          "internalType": "bool",
          "name": "",
          "type": "bool"
        }
      ],
      "stateMutability": "nonpayable",
      "type": "function"
    },
    {
      "inputs": [
        {
          "internalType": "uint256",
          "name": "PropertyId_TokenId",
          "type": "uint256"
        },
        {
          "internalType": "address",
          "name": "_buyerAddress",
          "type": "address"
        }
      ],
      "name": "OfferAccept",
      "outputs": [
        {
          "internalType": "bool",
          "name": "",
          "type": "bool"
        }
      ],
      "stateMutability": "nonpayable",
      "type": "function"
    },
    {
      "inputs": [
        {
          "internalType": "uint256",
          "name": "PropertyId_TokenId",
          "type": "uint256"
        }
      ],
      "name": "BuyProperty",
      "outputs": [
        {
          "internalType": "bool",
          "name": "",
          "type": "bool"
        }
      ],
      "stateMutability": "payable",
      "type": "function",
      "payable": true
    }
  ],
  "bytecode": "0x60806040523480156200001157600080fd5b506040518060400160405280601781526020017f536d617274204573746174652050726f706572746965730000000000000000008152506040518060400160405280600381526020017f4553500000000000000000000000000000000000000000000000000000000000815250620000966301ffc9a760e01b6200011860201b60201c565b8160069080519060200190620000ae929190620001f0565b508060079080519060200190620000c7929190620001f0565b50620000e06380ac58cd60e01b6200011860201b60201c565b620000f8635b5e139f60e01b6200011860201b60201c565b6200011063780e9d6360e01b6200011860201b60201c565b505062000314565b63ffffffff60e01b817bffffffffffffffffffffffffffffffffffffffffffffffffffffffff1916141562000184576040517f08c379a00000000000000000000000000000000000000000000000000000000081526004016200017b90620002e1565b60405180910390fd5b6001600080837bffffffffffffffffffffffffffffffffffffffffffffffffffffffff19167bffffffffffffffffffffffffffffffffffffffffffffffffffffffff1916815260200190815260200160002060006101000a81548160ff02191690831515021790555050565b828054600181600116156101000203166002900490600052602060002090601f016020900481019282601f106200023357805160ff191683800117855562000264565b8280016001018555821562000264579182015b828111156200026357825182559160200191906001019062000246565b5b50905062000273919062000277565b5090565b6200029c91905b80821115620002985760008160009055506001016200027e565b5090565b90565b6000620002ae601c8362000303565b91507f4552433136353a20696e76616c696420696e74657266616365206964000000006000830152602082019050919050565b60006020820190508181036000830152620002fc816200029f565b9050919050565b600082825260208201905092915050565b61573b80620003246000396000f3fe6080604052600436106101cd5760003560e01c80634a1452ab116100f757806385d5785811610095578063c87b56dd11610064578063c87b56dd1461075a578063d7c871d414610797578063e985e9c5146107d4578063eeb2fd4b14610811576101cd565b806385d578581461069d57806395d89b41146106dd578063a22cb46514610708578063b88d4fde14610731576101cd565b80636352211e116100d15780636352211e146105bb5780636c0360eb146105f857806370a0823114610623578063822dcd4b14610660576101cd565b80634a1452ab146105045780634f6ccce7146105415780635a05a5061461057e576101cd565b806323b872dd1161016f57806332783c4c1161013e57806332783c4c146104245780634266fa171461046157806342842e0e1461049e57806345482f42146104c7576101cd565b806323b872dd1461035157806325a596001461037a5780632f71513f146103aa5780632f745c59146103e7576101cd565b8063095ea7b3116101ab578063095ea7b3146102775780630a86c02a146102a057806318160ddd146102e6578063225cf72e14610311576101cd565b806301ffc9a7146101d257806306fdde031461020f578063081812fc1461023a575b600080fd5b3480156101de57600080fd5b506101f960048036036101f49190810190613f7b565b61084e565b6040516102069190614fdf565b60405180910390f35b34801561021b57600080fd5b506102246108b5565b6040516102319190614ffa565b60405180910390f35b34801561024657600080fd5b50610261600480360361025c9190810190614123565b610957565b60405161026e9190614dd8565b60405180910390f35b34801561028357600080fd5b5061029e60048036036102999190810190613f3f565b6109dc565b005b3480156102ac57600080fd5b506102c760048036036102c29190810190613dd4565b610af4565b6040516102dd9a99989796959493929190614efe565b60405180910390f35b3480156102f257600080fd5b506102fb610e6d565b604051610308919061533c565b60405180910390f35b34801561031d57600080fd5b5061033860048036036103339190810190614188565b610e7e565b604051610348949392919061539c565b60405180910390f35b34801561035d57600080fd5b5061037860048036036103739190810190613e39565b610ef5565b005b610394600480360361038f9190810190614123565b610f55565b6040516103a19190614fdf565b60405180910390f35b3480156103b657600080fd5b506103d160048036036103cc919081019061414c565b611308565b6040516103de9190614fdf565b60405180910390f35b3480156103f357600080fd5b5061040e60048036036104099190810190613f3f565b611560565b60405161041b919061533c565b60405180910390f35b34801561043057600080fd5b5061044b60048036036104469190810190614123565b6115bb565b604051610458919061533c565b60405180910390f35b34801561046d57600080fd5b5061048860048036036104839190810190613fcd565b611752565b6040516104959190614fdf565b60405180910390f35b3480156104aa57600080fd5b506104c560048036036104c09190810190613e39565b6119f3565b005b3480156104d357600080fd5b506104ee60048036036104e99190810190614188565b611a13565b6040516104fb9190614fdf565b60405180910390f35b34801561051057600080fd5b5061052b60048036036105269190810190614123565b611db9565b6040516105389190614dd8565b60405180910390f35b34801561054d57600080fd5b5061056860048036036105639190810190614123565b611dec565b604051610575919061533c565b60405180910390f35b34801561058a57600080fd5b506105a560048036036105a09190810190614123565b611e0f565b6040516105b29190614fbd565b60405180910390f35b3480156105c757600080fd5b506105e260048036036105dd9190810190614123565b612036565b6040516105ef9190614dd8565b60405180910390f35b34801561060457600080fd5b5061060d61206d565b60405161061a9190614ffa565b60405180910390f35b34801561062f57600080fd5b5061064a60048036036106459190810190613dd4565b61210f565b604051610657919061533c565b60405180910390f35b34801561066c57600080fd5b5061068760048036036106829190810190614123565b6121ce565b6040516106949190614fdf565b60405180910390f35b3480156106a957600080fd5b506106c460048036036106bf9190810190613dd4565b6123b7565b6040516106d4949392919061539c565b60405180910390f35b3480156106e957600080fd5b506106f2612414565b6040516106ff9190614ffa565b60405180910390f35b34801561071457600080fd5b5061072f600480360361072a9190810190613f03565b6124b6565b005b34801561073d57600080fd5b5061075860048036036107539190810190613e88565b612637565b005b34801561076657600080fd5b50610781600480360361077c9190810190614123565b612699565b60405161078e9190614ffa565b60405180910390f35b3480156107a357600080fd5b506107be60048036036107b99190810190614123565b612824565b6040516107cb9190614fdf565b60405180910390f35b3480156107e057600080fd5b506107fb60048036036107f69190810190613dfd565b612844565b6040516108089190614fdf565b60405180910390f35b34801561081d57600080fd5b506108386004803603610833919081019061414c565b6128d8565b6040516108459190614fdf565b60405180910390f35b6000806000837bffffffffffffffffffffffffffffffffffffffffffffffffffffffff19167bffffffffffffffffffffffffffffffffffffffffffffffffffffffff1916815260200190815260200160002060009054906101000a900460ff169050919050565b606060068054600181600116156101000203166002900480601f01602080910402602001604051908101604052809291908181526020018280546001816001161561010002031660029004801561094d5780601f106109225761010080835404028352916020019161094d565b820191906000526020600020905b81548152906001019060200180831161093057829003601f168201915b5050505050905090565b600061096282612b30565b6109a1576040517f08c379a00000000000000000000000000000000000000000000000000000000081526004016109989061521c565b60405180910390fd5b6004600083815260200190815260200160002060009054906101000a900473ffffffffffffffffffffffffffffffffffffffff169050919050565b60006109e782612036565b90508073ffffffffffffffffffffffffffffffffffffffff168373ffffffffffffffffffffffffffffffffffffffff161415610a58576040517f08c379a0000000000000000000000000000000000000000000000000000000008152600401610a4f906152bc565b60405180910390fd5b8073ffffffffffffffffffffffffffffffffffffffff16610a77612b4d565b73ffffffffffffffffffffffffffffffffffffffff161480610aa65750610aa581610aa0612b4d565b612844565b5b610ae5576040517f08c379a0000000000000000000000000000000000000000000000000000000008152600401610adc9061515c565b60405180910390fd5b610aef8383612b55565b505050565b600c6020528060005260406000206000915090508060000160009054906101000a900473ffffffffffffffffffffffffffffffffffffffff1690806001015490806002018054600181600116156101000203166002900480601f016020809104026020016040519081016040528092919081815260200182805460018160011615610100020316600290048015610bcc5780601f10610ba157610100808354040283529160200191610bcc565b820191906000526020600020905b815481529060010190602001808311610baf57829003601f168201915b505050505090806003018054600181600116156101000203166002900480601f016020809104026020016040519081016040528092919081815260200182805460018160011615610100020316600290048015610c6a5780601f10610c3f57610100808354040283529160200191610c6a565b820191906000526020600020905b815481529060010190602001808311610c4d57829003601f168201915b505050505090806004015490806005018054600181600116156101000203166002900480601f016020809104026020016040519081016040528092919081815260200182805460018160011615610100020316600290048015610d0e5780601f10610ce357610100808354040283529160200191610d0e565b820191906000526020600020905b815481529060010190602001808311610cf157829003601f168201915b505050505090806006018054600181600116156101000203166002900480601f016020809104026020016040519081016040528092919081815260200182805460018160011615610100020316600290048015610dac5780601f10610d8157610100808354040283529160200191610dac565b820191906000526020600020905b815481529060010190602001808311610d8f57829003601f168201915b505050505090806007015490806008018054600181600116156101000203166002900480601f016020809104026020016040519081016040528092919081815260200182805460018160011615610100020316600290048015610e505780601f10610e2557610100808354040283529160200191610e50565b820191906000526020600020905b815481529060010190602001808311610e3357829003601f168201915b5050505050908060090160009054906101000a900460ff1690508a565b6000610e796002612c0e565b905090565b600f6020528160005260406000208181548110610e9757fe5b9060005260206000209060040201600091509150508060000154908060010160009054906101000a900473ffffffffffffffffffffffffffffffffffffffff16908060020154908060030160009054906101000a900460ff16905084565b610f06610f00612b4d565b82612c23565b610f45576040517f08c379a0000000000000000000000000000000000000000000000000000000008152600401610f3c906152fc565b60405180910390fd5b610f50838383612d01565b505050565b6000610f6082612b30565b610f9f576040517f08c379a0000000000000000000000000000000000000000000000000000000008152600401610f969061507c565b60405180910390fd5b3373ffffffffffffffffffffffffffffffffffffffff16600e60003373ffffffffffffffffffffffffffffffffffffffff1673ffffffffffffffffffffffffffffffffffffffff16815260200190815260200160002060010160009054906101000a900473ffffffffffffffffffffffffffffffffffffffff1673ffffffffffffffffffffffffffffffffffffffff161461106f576040517f08c379a0000000000000000000000000000000000000000000000000000000008152600401611066906151dc565b60405180910390fd5b6001600281111561107c57fe5b600e60003373ffffffffffffffffffffffffffffffffffffffff1673ffffffffffffffffffffffffffffffffffffffff16815260200190815260200160002060030160009054906101000a900460ff1660028111156110d757fe5b14611117576040517f08c379a000000000000000000000000000000000000000000000000000000000815260040161110e9061511c565b60405180910390fd5b6000341161115a576040517f08c379a00000000000000000000000000000000000000000000000000000000081526004016111519061527c565b60405180910390fd5b60006111b9670de0b6b3a7640000600e60003373ffffffffffffffffffffffffffffffffffffffff1673ffffffffffffffffffffffffffffffffffffffff16815260200190815260200160002060020154612f1890919063ffffffff16565b90503481146111fd576040517f08c379a00000000000000000000000000000000000000000000000000000000081526004016111f4906150fc565b60405180910390fd5b6000600c6000600d600087815260200190815260200160002060009054906101000a900473ffffffffffffffffffffffffffffffffffffffff1673ffffffffffffffffffffffffffffffffffffffff1673ffffffffffffffffffffffffffffffffffffffff16815260200190815260200160002060000160009054906101000a900473ffffffffffffffffffffffffffffffffffffffff1690506112a2813386612d01565b833373ffffffffffffffffffffffffffffffffffffffff168273ffffffffffffffffffffffffffffffffffffffff167fddf252ad1be2c89b69c2b068fc378daa952ba7f163c4a11628f55a4df523b3ef60405160405180910390a4600192505050919050565b60003373ffffffffffffffffffffffffffffffffffffffff16600c60003373ffffffffffffffffffffffffffffffffffffffff1673ffffffffffffffffffffffffffffffffffffffff16815260200190815260200160002060000160009054906101000a900473ffffffffffffffffffffffffffffffffffffffff1673ffffffffffffffffffffffffffffffffffffffff16146113da576040517f08c379a00000000000000000000000000000000000000000000000000000000081526004016113d19061509c565b60405180910390fd5b6113e383612b30565b611422576040517f08c379a00000000000000000000000000000000000000000000000000000000081526004016114199061507c565b60405180910390fd5b8173ffffffffffffffffffffffffffffffffffffffff16600e60008473ffffffffffffffffffffffffffffffffffffffff1673ffffffffffffffffffffffffffffffffffffffff16815260200190815260200160002060010160009054906101000a900473ffffffffffffffffffffffffffffffffffffffff1673ffffffffffffffffffffffffffffffffffffffff16146114f2576040517f08c379a00000000000000000000000000000000000000000000000000000000081526004016114e9906151dc565b60405180910390fd5b6001600e60008473ffffffffffffffffffffffffffffffffffffffff1673ffffffffffffffffffffffffffffffffffffffff16815260200190815260200160002060030160006101000a81548160ff0219169083600281111561155157fe5b02179055506001905092915050565b60006115b382600160008673ffffffffffffffffffffffffffffffffffffffff1673ffffffffffffffffffffffffffffffffffffffff168152602001908152602001600020612f8890919063ffffffff16565b905092915050565b60003373ffffffffffffffffffffffffffffffffffffffff16600c60003373ffffffffffffffffffffffffffffffffffffffff1673ffffffffffffffffffffffffffffffffffffffff16815260200190815260200160002060000160009054906101000a900473ffffffffffffffffffffffffffffffffffffffff1673ffffffffffffffffffffffffffffffffffffffff161461168d576040517f08c379a00000000000000000000000000000000000000000000000000000000081526004016116849061509c565b60405180910390fd5b61169682612b30565b6116d5576040517f08c379a00000000000000000000000000000000000000000000000000000000081526004016116cc9061507c565b60405180910390fd5b600c6000600d600085815260200190815260200160002060009054906101000a900473ffffffffffffffffffffffffffffffffffffffff1673ffffffffffffffffffffffffffffffffffffffff1673ffffffffffffffffffffffffffffffffffffffff168152602001908152602001600020600701549050919050565b6000600b600081548092919060010191905055506000600b5490506117773382612fa2565b6117818184613130565b611789613aea565b6040518061014001604052803373ffffffffffffffffffffffffffffffffffffffff1681526020018381526020018d81526020018c81526020018b81526020018a8152602001888152602001898152602001878152602001861515815250905080600c60003373ffffffffffffffffffffffffffffffffffffffff1673ffffffffffffffffffffffffffffffffffffffff16815260200190815260200160002060008201518160000160006101000a81548173ffffffffffffffffffffffffffffffffffffffff021916908373ffffffffffffffffffffffffffffffffffffffff160217905550602082015181600101556040820151816002019080519060200190611896929190613b55565b5060608201518160030190805190602001906118b3929190613b55565b506080820151816004015560a08201518160050190805190602001906118da929190613b55565b5060c08201518160060190805190602001906118f7929190613b55565b5060e0820151816007015561010082015181600801908051906020019061191f929190613b55565b506101208201518160090160006101000a81548160ff02191690831515021790555090505033600d600084815260200190815260200160002060006101000a81548173ffffffffffffffffffffffffffffffffffffffff021916908373ffffffffffffffffffffffffffffffffffffffff1602179055507f5baccd78aa26fd4d554e82a7b7cd78e216126f45cd329b96affd63b68bc55a5b33838e8e8e8e8d8f8e60006040516119d89a99989796959493929190614e3f565b60405180910390a16001925050509998505050505050505050565b611a0e83838360405180602001604052806000815250612637565b505050565b6000611a1e83612b30565b611a5d576040517f08c379a0000000000000000000000000000000000000000000000000000000008152600401611a549061507c565b60405180910390fd5b600c6000600d600086815260200190815260200160002060009054906101000a900473ffffffffffffffffffffffffffffffffffffffff1673ffffffffffffffffffffffffffffffffffffffff1673ffffffffffffffffffffffffffffffffffffffff16815260200190815260200160002060090160009054906101000a900460ff16611b1f576040517f08c379a0000000000000000000000000000000000000000000000000000000008152600401611b16906152dc565b60405180910390fd5b600a60008154809291906001019190505550611b39613bd5565b6040518060800160405280600a5481526020013373ffffffffffffffffffffffffffffffffffffffff16815260200184815260200160006002811115611b7b57fe5b8152509050600f60008581526020019081526020016000208190806001815401808255809150506001900390600052602060002090600402016000909190919091506000820151816000015560208201518160010160006101000a81548173ffffffffffffffffffffffffffffffffffffffff021916908373ffffffffffffffffffffffffffffffffffffffff1602179055506040820151816002015560608201518160030160006101000a81548160ff02191690836002811115611c3c57fe5b0217905550505080600e60003373ffffffffffffffffffffffffffffffffffffffff1673ffffffffffffffffffffffffffffffffffffffff1681526020019081526020016000206000820151816000015560208201518160010160006101000a81548173ffffffffffffffffffffffffffffffffffffffff021916908373ffffffffffffffffffffffffffffffffffffffff1602179055506040820151816002015560608201518160030160006101000a81548160ff02191690836002811115611d0257fe5b02179055509050506000600e60003373ffffffffffffffffffffffffffffffffffffffff1673ffffffffffffffffffffffffffffffffffffffff16815260200190815260200160002060030160006101000a81548160ff02191690836002811115611d6957fe5b02179055507fc18d4d8b9d814a47a3e769b2608ce4bf2f83431ef443995c5de211abd8527395600a5433856000604051611da69493929190615357565b60405180910390a1600191505092915050565b600d6020528060005260406000206000915054906101000a900473ffffffffffffffffffffffffffffffffffffffff1681565b600080611e038360026131a490919063ffffffff16565b50905080915050919050565b60603373ffffffffffffffffffffffffffffffffffffffff16600c60003373ffffffffffffffffffffffffffffffffffffffff1673ffffffffffffffffffffffffffffffffffffffff16815260200190815260200160002060000160009054906101000a900473ffffffffffffffffffffffffffffffffffffffff1673ffffffffffffffffffffffffffffffffffffffff1614611ee1576040517f08c379a0000000000000000000000000000000000000000000000000000000008152600401611ed89061509c565b60405180910390fd5b611eea82612b30565b611f29576040517f08c379a0000000000000000000000000000000000000000000000000000000008152600401611f209061507c565b60405180910390fd5b6060600f6000848152602001908152602001600020805480602002602001604051908101604052809291908181526020016000905b828210156120275783829060005260206000209060040201604051806080016040529081600082015481526020016001820160009054906101000a900473ffffffffffffffffffffffffffffffffffffffff1673ffffffffffffffffffffffffffffffffffffffff1673ffffffffffffffffffffffffffffffffffffffff168152602001600282015481526020016003820160009054906101000a900460ff16600281111561200957fe5b600281111561201457fe5b8152505081526020019060010190611f5e565b50505050905080915050919050565b6000612066826040518060600160405280602981526020016156dd6029913960026131d39092919063ffffffff16565b9050919050565b606060098054600181600116156101000203166002900480601f0160208091040260200160405190810160405280929190818152602001828054600181600116156101000203166002900480156121055780601f106120da57610100808354040283529160200191612105565b820191906000526020600020905b8154815290600101906020018083116120e857829003601f168201915b5050505050905090565b60008073ffffffffffffffffffffffffffffffffffffffff168273ffffffffffffffffffffffffffffffffffffffff161415612180576040517f08c379a00000000000000000000000000000000000000000000000000000000081526004016121779061517c565b60405180910390fd5b6121c7600160008473ffffffffffffffffffffffffffffffffffffffff1673ffffffffffffffffffffffffffffffffffffffff1681526020019081526020016000206131f2565b9050919050565b60003373ffffffffffffffffffffffffffffffffffffffff16600c60003373ffffffffffffffffffffffffffffffffffffffff1673ffffffffffffffffffffffffffffffffffffffff16815260200190815260200160002060000160009054906101000a900473ffffffffffffffffffffffffffffffffffffffff1673ffffffffffffffffffffffffffffffffffffffff16146122a0576040517f08c379a00000000000000000000000000000000000000000000000000000000081526004016122979061509c565b60405180910390fd5b6122a982612b30565b6122e8576040517f08c379a00000000000000000000000000000000000000000000000000000000081526004016122df9061507c565b60405180910390fd5b6001600c6000600d600086815260200190815260200160002060009054906101000a900473ffffffffffffffffffffffffffffffffffffffff1673ffffffffffffffffffffffffffffffffffffffff1673ffffffffffffffffffffffffffffffffffffffff16815260200190815260200160002060090160006101000a81548160ff0219169083151502179055507f8032abbce3e20f1f71d7656e10fa55d5ace8775b4f3137443a3ead7afa41f99d60016040516123a69190614fdf565b60405180910390a160019050919050565b600e6020528060005260406000206000915090508060000154908060010160009054906101000a900473ffffffffffffffffffffffffffffffffffffffff16908060020154908060030160009054906101000a900460ff16905084565b606060078054600181600116156101000203166002900480601f0160208091040260200160405190810160405280929190818152602001828054600181600116156101000203166002900480156124ac5780601f10612481576101008083540402835291602001916124ac565b820191906000526020600020905b81548152906001019060200180831161248f57829003601f168201915b5050505050905090565b6124be612b4d565b73ffffffffffffffffffffffffffffffffffffffff168273ffffffffffffffffffffffffffffffffffffffff16141561252c576040517f08c379a0000000000000000000000000000000000000000000000000000000008152600401612523906150dc565b60405180910390fd5b8060056000612539612b4d565b73ffffffffffffffffffffffffffffffffffffffff1673ffffffffffffffffffffffffffffffffffffffff16815260200190815260200160002060008473ffffffffffffffffffffffffffffffffffffffff1673ffffffffffffffffffffffffffffffffffffffff16815260200190815260200160002060006101000a81548160ff0219169083151502179055508173ffffffffffffffffffffffffffffffffffffffff166125e6612b4d565b73ffffffffffffffffffffffffffffffffffffffff167f17307eab39ab6107e8899845ad3d59bd9653f200f220920489ca2b5937696c318360405161262b9190614fdf565b60405180910390a35050565b612648612642612b4d565b83612c23565b612687576040517f08c379a000000000000000000000000000000000000000000000000000000000815260040161267e906152fc565b60405180910390fd5b61269384848484613207565b50505050565b60606126a482612b30565b6126e3576040517f08c379a00000000000000000000000000000000000000000000000000000000081526004016126da9061529c565b60405180910390fd5b6060600860008481526020019081526020016000208054600181600116156101000203166002900480601f01602080910402602001604051908101604052809291908181526020018280546001816001161561010002031660029004801561278c5780601f106127615761010080835404028352916020019161278c565b820191906000526020600020905b81548152906001019060200180831161276f57829003601f168201915b505050505090506000600980546001816001161561010002031660029004905014156127bb578091505061281f565b6000815111156127f0576009816040516020016127d9929190614db4565b60405160208183030381529060405291505061281f565b60096127fb84613263565b60405160200161280c929190614db4565b6040516020818303038152906040529150505b919050565b60106020528060005260406000206000915054906101000a900460ff1681565b6000600560008473ffffffffffffffffffffffffffffffffffffffff1673ffffffffffffffffffffffffffffffffffffffff16815260200190815260200160002060008373ffffffffffffffffffffffffffffffffffffffff1673ffffffffffffffffffffffffffffffffffffffff16815260200190815260200160002060009054906101000a900460ff16905092915050565b60003373ffffffffffffffffffffffffffffffffffffffff16600c60003373ffffffffffffffffffffffffffffffffffffffff1673ffffffffffffffffffffffffffffffffffffffff16815260200190815260200160002060000160009054906101000a900473ffffffffffffffffffffffffffffffffffffffff1673ffffffffffffffffffffffffffffffffffffffff16146129aa576040517f08c379a00000000000000000000000000000000000000000000000000000000081526004016129a19061509c565b60405180910390fd5b6129b383612b30565b6129f2576040517f08c379a00000000000000000000000000000000000000000000000000000000081526004016129e99061507c565b60405180910390fd5b8173ffffffffffffffffffffffffffffffffffffffff16600e60008473ffffffffffffffffffffffffffffffffffffffff1673ffffffffffffffffffffffffffffffffffffffff16815260200190815260200160002060010160009054906101000a900473ffffffffffffffffffffffffffffffffffffffff1673ffffffffffffffffffffffffffffffffffffffff1614612ac2576040517f08c379a0000000000000000000000000000000000000000000000000000000008152600401612ab9906151dc565b60405180910390fd5b6002600e60008473ffffffffffffffffffffffffffffffffffffffff1673ffffffffffffffffffffffffffffffffffffffff16815260200190815260200160002060030160006101000a81548160ff02191690836002811115612b2157fe5b02179055506001905092915050565b6000612b4682600261339390919063ffffffff16565b9050919050565b600033905090565b816004600083815260200190815260200160002060006101000a81548173ffffffffffffffffffffffffffffffffffffffff021916908373ffffffffffffffffffffffffffffffffffffffff160217905550808273ffffffffffffffffffffffffffffffffffffffff16612bc883612036565b73ffffffffffffffffffffffffffffffffffffffff167f8c5be1e5ebec7d5bd14f71427d1e84f3dd0314c0f7b2291e5b200ac8c7c3b92560405160405180910390a45050565b6000612c1c826000016133ad565b9050919050565b6000612c2e82612b30565b612c6d576040517f08c379a0000000000000000000000000000000000000000000000000000000008152600401612c649061513c565b60405180910390fd5b6000612c7883612036565b90508073ffffffffffffffffffffffffffffffffffffffff168473ffffffffffffffffffffffffffffffffffffffff161480612ce757508373ffffffffffffffffffffffffffffffffffffffff16612ccf84610957565b73ffffffffffffffffffffffffffffffffffffffff16145b80612cf85750612cf78185612844565b5b91505092915050565b8273ffffffffffffffffffffffffffffffffffffffff16612d2182612036565b73ffffffffffffffffffffffffffffffffffffffff1614612d77576040517f08c379a0000000000000000000000000000000000000000000000000000000008152600401612d6e9061525c565b60405180910390fd5b600073ffffffffffffffffffffffffffffffffffffffff168273ffffffffffffffffffffffffffffffffffffffff161415612de7576040517f08c379a0000000000000000000000000000000000000000000000000000000008152600401612dde906150bc565b60405180910390fd5b612df28383836133be565b612dfd600082612b55565b612e4e81600160008673ffffffffffffffffffffffffffffffffffffffff1673ffffffffffffffffffffffffffffffffffffffff1681526020019081526020016000206133c390919063ffffffff16565b50612ea081600160008573ffffffffffffffffffffffffffffffffffffffff1673ffffffffffffffffffffffffffffffffffffffff1681526020019081526020016000206133dd90919063ffffffff16565b50612eb7818360026133f79092919063ffffffff16565b50808273ffffffffffffffffffffffffffffffffffffffff168473ffffffffffffffffffffffffffffffffffffffff167fddf252ad1be2c89b69c2b068fc378daa952ba7f163c4a11628f55a4df523b3ef60405160405180910390a4505050565b600080831415612f2b5760009050612f82565b6000828402905082848281612f3c57fe5b0414612f7d576040517f08c379a0000000000000000000000000000000000000000000000000000000008152600401612f74906151fc565b60405180910390fd5b809150505b92915050565b6000612f97836000018361342c565b60001c905092915050565b600073ffffffffffffffffffffffffffffffffffffffff168273ffffffffffffffffffffffffffffffffffffffff161415613012576040517f08c379a0000000000000000000000000000000000000000000000000000000008152600401613009906151bc565b60405180910390fd5b61301b81612b30565b1561305b576040517f08c379a00000000000000000000000000000000000000000000000000000000081526004016130529061505c565b60405180910390fd5b613067600083836133be565b6130b881600160008573ffffffffffffffffffffffffffffffffffffffff1673ffffffffffffffffffffffffffffffffffffffff1681526020019081526020016000206133dd90919063ffffffff16565b506130cf818360026133f79092919063ffffffff16565b50808273ffffffffffffffffffffffffffffffffffffffff16600073ffffffffffffffffffffffffffffffffffffffff167fddf252ad1be2c89b69c2b068fc378daa952ba7f163c4a11628f55a4df523b3ef60405160405180910390a45050565b61313982612b30565b613178576040517f08c379a000000000000000000000000000000000000000000000000000000000815260040161316f9061523c565b60405180910390fd5b8060086000848152602001908152602001600020908051906020019061319f929190613c1e565b505050565b6000806000806131b78660000186613499565b915091508160001c8160001c8090509350935050509250929050565b60006131e6846000018460001b8461351c565b60001c90509392505050565b6000613200826000016135ad565b9050919050565b613212848484612d01565b61321e848484846135be565b61325d576040517f08c379a00000000000000000000000000000000000000000000000000000000081526004016132549061503c565b60405180910390fd5b50505050565b606060008214156132ab576040518060400160405280600181526020017f3000000000000000000000000000000000000000000000000000000000000000815250905061338e565b600082905060005b600082146132d5578080600101915050600a82816132cd57fe5b0491506132b3565b6060816040519080825280601f01601f19166020018201604052801561330a5781602001600182028038833980820191505090505b50905060006001830390508593505b6000841461338657600a848161332b57fe5b0660300160f81b8282806001900393508151811061334557fe5b60200101907effffffffffffffffffffffffffffffffffffffffffffffffffffffffffffff1916908160001a905350600a848161337e57fe5b049350613319565b819450505050505b919050565b60006133a5836000018360001b613722565b905092915050565b600081600001805490509050919050565b505050565b60006133d5836000018360001b613745565b905092915050565b60006133ef836000018360001b61382d565b905092915050565b6000613423846000018460001b8473ffffffffffffffffffffffffffffffffffffffff1660001b61389d565b90509392505050565b600081836000018054905011613477576040517f08c379a000000000000000000000000000000000000000000000000000000000815260040161346e9061501c565b60405180910390fd5b82600001828154811061348657fe5b9060005260206000200154905092915050565b600080828460000180549050116134e5576040517f08c379a00000000000000000000000000000000000000000000000000000000081526004016134dc9061519c565b60405180910390fd5b60008460000184815481106134f657fe5b906000526020600020906002020190508060000154816001015492509250509250929050565b6000808460010160008581526020019081526020016000205490506000811415839061357e576040517f08c379a00000000000000000000000000000000000000000000000000000000081526004016135759190614ffa565b60405180910390fd5b5084600001600182038154811061359157fe5b9060005260206000209060020201600101549150509392505050565b600081600001805490509050919050565b60006135df8473ffffffffffffffffffffffffffffffffffffffff16613979565b6135ec576001905061371a565b60606136b363150b7a0260e01b613601612b4d565b8887876040516024016136179493929190614df3565b604051602081830303815290604052907bffffffffffffffffffffffffffffffffffffffffffffffffffffffff19166020820180517bffffffffffffffffffffffffffffffffffffffffffffffffffffffff83818316178352505050506040518060600160405280603281526020016156ab603291398773ffffffffffffffffffffffffffffffffffffffff1661398c9092919063ffffffff16565b90506000818060200190516136cb9190810190613fa4565b905063150b7a0260e01b7bffffffffffffffffffffffffffffffffffffffffffffffffffffffff1916817bffffffffffffffffffffffffffffffffffffffffffffffffffffffff191614925050505b949350505050565b600080836001016000848152602001908152602001600020541415905092915050565b60008083600101600084815260200190815260200160002054905060008114613821576000600182039050600060018660000180549050039050600086600001828154811061379057fe5b90600052602060002001549050808760000184815481106137ad57fe5b90600052602060002001819055506001830187600101600083815260200190815260200160002081905550866000018054806137e557fe5b60019003818190600052602060002001600090559055866001016000878152602001908152602001600020600090556001945050505050613827565b60009150505b92915050565b600061383983836139a4565b613892578260000182908060018154018082558091505060019003906000526020600020016000909190919091505582600001805490508360010160008481526020019081526020016000208190555060019050613897565b600090505b92915050565b600080846001016000858152602001908152602001600020549050600081141561394457846000016040518060400160405280868152602001858152509080600181540180825580915050600190039060005260206000209060020201600090919091909150600082015181600001556020820151816001015550508460000180549050856001016000868152602001908152602001600020819055506001915050613972565b8285600001600183038154811061395757fe5b90600052602060002090600202016001018190555060009150505b9392505050565b600080823b905060008111915050919050565b606061399b84846000856139c7565b90509392505050565b600080836001016000848152602001908152602001600020541415905092915050565b60606139d285613979565b613a11576040517f08c379a0000000000000000000000000000000000000000000000000000000008152600401613a089061531c565b60405180910390fd5b600060608673ffffffffffffffffffffffffffffffffffffffff168587604051613a3b9190614d9d565b60006040518083038185875af1925050503d8060008114613a78576040519150601f19603f3d011682016040523d82523d6000602084013e613a7d565b606091505b50915091508115613a92578092505050613ae2565b600081511115613aa55780518082602001fd5b836040517f08c379a0000000000000000000000000000000000000000000000000000000008152600401613ad99190614ffa565b60405180910390fd5b949350505050565b604051806101400160405280600073ffffffffffffffffffffffffffffffffffffffff16815260200160008152602001606081526020016060815260200160008152602001606081526020016060815260200160008152602001606081526020016000151581525090565b828054600181600116156101000203166002900490600052602060002090601f016020900481019282601f10613b9657805160ff1916838001178555613bc4565b82800160010185558215613bc4579182015b82811115613bc3578251825591602001919060010190613ba8565b5b509050613bd19190613c9e565b5090565b604051806080016040528060008152602001600073ffffffffffffffffffffffffffffffffffffffff1681526020016000815260200160006002811115613c1857fe5b81525090565b828054600181600116156101000203166002900490600052602060002090601f016020900481019282601f10613c5f57805160ff1916838001178555613c8d565b82800160010185558215613c8d579182015b82811115613c8c578251825591602001919060010190613c71565b5b509050613c9a9190613c9e565b5090565b613cc091905b80821115613cbc576000816000905550600101613ca4565b5090565b90565b600081359050613cd28161564e565b92915050565b600081359050613ce781615665565b92915050565b600081359050613cfc8161567c565b92915050565b600081519050613d118161567c565b92915050565b600082601f830112613d2857600080fd5b8135613d3b613d368261540e565b6153e1565b91508082526020830160208301858383011115613d5757600080fd5b613d628382846155ee565b50505092915050565b600082601f830112613d7c57600080fd5b8135613d8f613d8a8261543a565b6153e1565b91508082526020830160208301858383011115613dab57600080fd5b613db68382846155ee565b50505092915050565b600081359050613dce81615693565b92915050565b600060208284031215613de657600080fd5b6000613df484828501613cc3565b91505092915050565b60008060408385031215613e1057600080fd5b6000613e1e85828601613cc3565b9250506020613e2f85828601613cc3565b9150509250929050565b600080600060608486031215613e4e57600080fd5b6000613e5c86828701613cc3565b9350506020613e6d86828701613cc3565b9250506040613e7e86828701613dbf565b9150509250925092565b60008060008060808587031215613e9e57600080fd5b6000613eac87828801613cc3565b9450506020613ebd87828801613cc3565b9350506040613ece87828801613dbf565b925050606085013567ffffffffffffffff811115613eeb57600080fd5b613ef787828801613d17565b91505092959194509250565b60008060408385031215613f1657600080fd5b6000613f2485828601613cc3565b9250506020613f3585828601613cd8565b9150509250929050565b60008060408385031215613f5257600080fd5b6000613f6085828601613cc3565b9250506020613f7185828601613dbf565b9150509250929050565b600060208284031215613f8d57600080fd5b6000613f9b84828501613ced565b91505092915050565b600060208284031215613fb657600080fd5b6000613fc484828501613d02565b91505092915050565b60008060008060008060008060006101208a8c031215613fec57600080fd5b60008a013567ffffffffffffffff81111561400657600080fd5b6140128c828d01613d6b565b99505060208a013567ffffffffffffffff81111561402f57600080fd5b61403b8c828d01613d6b565b985050604061404c8c828d01613dbf565b97505060608a013567ffffffffffffffff81111561406957600080fd5b6140758c828d01613d6b565b96505060806140868c828d01613dbf565b95505060a08a013567ffffffffffffffff8111156140a357600080fd5b6140af8c828d01613d6b565b94505060c08a013567ffffffffffffffff8111156140cc57600080fd5b6140d88c828d01613d6b565b93505060e06140e98c828d01613cd8565b9250506101008a013567ffffffffffffffff81111561410757600080fd5b6141138c828d01613d6b565b9150509295985092959850929598565b60006020828403121561413557600080fd5b600061414384828501613dbf565b91505092915050565b6000806040838503121561415f57600080fd5b600061416d85828601613dbf565b925050602061417e85828601613cc3565b9150509250929050565b6000806040838503121561419b57600080fd5b60006141a985828601613dbf565b92505060206141ba85828601613dbf565b9150509250929050565b60006141d08383614d2a565b60808301905092915050565b6141e5816155a6565b82525050565b6141f48161551f565b82525050565b6142038161550d565b82525050565b6142128161550d565b82525050565b60006142238261548b565b61422d81856154c4565b935061423883615466565b8060005b8381101561426957815161425088826141c4565b975061425b836154b7565b92505060018101905061423c565b5085935050505092915050565b61427f81615531565b82525050565b600061429082615496565b61429a81856154d5565b93506142aa8185602086016155fd565b6142b381615630565b840191505092915050565b60006142c982615496565b6142d381856154e6565b93506142e38185602086016155fd565b80840191505092915050565b6142f8816155b8565b82525050565b614307816155b8565b82525050565b6000614318826154ac565b61432281856154f1565b93506143328185602086016155fd565b61433b81615630565b840191505092915050565b6000614351826154ac565b61435b8185615502565b935061436b8185602086016155fd565b80840191505092915050565b6000614382826154a1565b61438c81856154f1565b935061439c8185602086016155fd565b6143a581615630565b840191505092915050565b6000815460018116600081146143cd57600181146143f257614436565b607f60028304166143de8187615502565b955060ff1983168652808601935050614436565b600282046144008187615502565b955061440b85615476565b60005b8281101561442d5781548189015260018201915060208101905061440e565b82880195505050505b505092915050565b600061444b6022836154f1565b91507f456e756d657261626c655365743a20696e646578206f7574206f6620626f756e60008301527f64730000000000000000000000000000000000000000000000000000000000006020830152604082019050919050565b60006144b16032836154f1565b91507f4552433732313a207472616e7366657220746f206e6f6e20455243373231526560008301527f63656976657220696d706c656d656e74657200000000000000000000000000006020830152604082019050919050565b6000614517601c836154f1565b91507f4552433732313a20746f6b656e20616c7265616479206d696e746564000000006000830152602082019050919050565b60006145576026836154f1565b91507f4572726f723a20494e56414c49442050726f7065727479206964206f7220746f60008301527f6b656e20696400000000000000000000000000000000000000000000000000006020830152604082019050919050565b60006145bd6023836154f1565b91507f4572726f723a204f6e6c792050726f7065727479204f776e65722072756e207460008301527f68697300000000000000000000000000000000000000000000000000000000006020830152604082019050919050565b60006146236024836154f1565b91507f4552433732313a207472616e7366657220746f20746865207a65726f2061646460008301527f72657373000000000000000000000000000000000000000000000000000000006020830152604082019050919050565b60006146896019836154f1565b91507f4552433732313a20617070726f766520746f2063616c6c6572000000000000006000830152602082019050919050565b60006146c96038836154f1565b91507f4572726f723a20536f7272792c2050726963696e67206f662070726f7065727460008301527f79206e6f74206d6174636865642077697468206f6666657200000000000000006020830152604082019050919050565b600061472f603e836154f1565b91507f4572726f723a20546869732050726f7065727479206e6f7420666f722073616c60008301527f6520284f666665722072657175657374206e6f7420617070726f7665642900006020830152604082019050919050565b6000614795602c836154f1565b91507f4552433732313a206f70657261746f7220717565727920666f72206e6f6e657860008301527f697374656e7420746f6b656e00000000000000000000000000000000000000006020830152604082019050919050565b60006147fb6038836154f1565b91507f4552433732313a20617070726f76652063616c6c6572206973206e6f74206f7760008301527f6e6572206e6f7220617070726f76656420666f7220616c6c00000000000000006020830152604082019050919050565b6000614861602a836154f1565b91507f4552433732313a2062616c616e636520717565727920666f7220746865207a6560008301527f726f2061646472657373000000000000000000000000000000000000000000006020830152604082019050919050565b60006148c76022836154f1565b91507f456e756d657261626c654d61703a20696e646578206f7574206f6620626f756e60008301527f64730000000000000000000000000000000000000000000000000000000000006020830152604082019050919050565b600061492d6020836154f1565b91507f4552433732313a206d696e7420746f20746865207a65726f20616464726573736000830152602082019050919050565b600061496d601d836154f1565b91507f4572726f723a20494e56414c49442062757965722061646472657373200000006000830152602082019050919050565b60006149ad6021836154f1565b91507f536166654d6174683a206d756c7469706c69636174696f6e206f766572666c6f60008301527f77000000000000000000000000000000000000000000000000000000000000006020830152604082019050919050565b6000614a13602c836154f1565b91507f4552433732313a20617070726f76656420717565727920666f72206e6f6e657860008301527f697374656e7420746f6b656e00000000000000000000000000000000000000006020830152604082019050919050565b6000614a79602c836154f1565b91507f4552433732314d657461646174613a2055524920736574206f66206e6f6e657860008301527f697374656e7420746f6b656e00000000000000000000000000000000000000006020830152604082019050919050565b6000614adf6029836154f1565b91507f4552433732313a207472616e73666572206f6620746f6b656e2074686174206960008301527f73206e6f74206f776e00000000000000000000000000000000000000000000006020830152604082019050919050565b6000614b45601d836154f1565b91507f4572726f723a204574686572287329206e6f742070726f7669646564200000006000830152602082019050919050565b6000614b85602f836154f1565b91507f4552433732314d657461646174613a2055524920717565727920666f72206e6f60008301527f6e6578697374656e7420746f6b656e00000000000000000000000000000000006020830152604082019050919050565b6000614beb6021836154f1565b91507f4552433732313a20617070726f76616c20746f2063757272656e74206f776e6560008301527f72000000000000000000000000000000000000000000000000000000000000006020830152604082019050919050565b6000614c51601f836154f1565b91507f4572726f723a546869732050726f7065727479206e6f74206f6e2053616c65006000830152602082019050919050565b6000614c916031836154f1565b91507f4552433732313a207472616e736665722063616c6c6572206973206e6f74206f60008301527f776e6572206e6f7220617070726f7665640000000000000000000000000000006020830152604082019050919050565b6000614cf7601d836154f1565b91507f416464726573733a2063616c6c20746f206e6f6e2d636f6e74726163740000006000830152602082019050919050565b608082016000820151614d406000850182614d7f565b506020820151614d5360208501826141fa565b506040820151614d666040850182614d7f565b506060820151614d7960608501826142ef565b50505050565b614d888161559c565b82525050565b614d978161559c565b82525050565b6000614da982846142be565b915081905092915050565b6000614dc082856143b0565b9150614dcc8284614346565b91508190509392505050565b6000602082019050614ded6000830184614209565b92915050565b6000608082019050614e0860008301876141eb565b614e156020830186614209565b614e226040830185614d8e565b8181036060830152614e348184614285565b905095945050505050565b600061014082019050614e55600083018d6141dc565b614e62602083018c614d8e565b8181036040830152614e74818b61430d565b90508181036060830152614e88818a61430d565b9050614e976080830189614d8e565b81810360a0830152614ea9818861430d565b905081810360c0830152614ebd818761430d565b9050614ecc60e0830186614d8e565b818103610100830152614edf818561430d565b9050614eef610120830184614276565b9b9a5050505050505050505050565b600061014082019050614f14600083018d614209565b614f21602083018c614d8e565b8181036040830152614f33818b614377565b90508181036060830152614f47818a614377565b9050614f566080830189614d8e565b81810360a0830152614f688188614377565b905081810360c0830152614f7c8187614377565b9050614f8b60e0830186614d8e565b818103610100830152614f9e8185614377565b9050614fae610120830184614276565b9b9a5050505050505050505050565b60006020820190508181036000830152614fd78184614218565b905092915050565b6000602082019050614ff46000830184614276565b92915050565b60006020820190508181036000830152615014818461430d565b905092915050565b600060208201905081810360008301526150358161443e565b9050919050565b60006020820190508181036000830152615055816144a4565b9050919050565b600060208201905081810360008301526150758161450a565b9050919050565b600060208201905081810360008301526150958161454a565b9050919050565b600060208201905081810360008301526150b5816145b0565b9050919050565b600060208201905081810360008301526150d581614616565b9050919050565b600060208201905081810360008301526150f58161467c565b9050919050565b60006020820190508181036000830152615115816146bc565b9050919050565b6000602082019050818103600083015261513581614722565b9050919050565b6000602082019050818103600083015261515581614788565b9050919050565b60006020820190508181036000830152615175816147ee565b9050919050565b6000602082019050818103600083015261519581614854565b9050919050565b600060208201905081810360008301526151b5816148ba565b9050919050565b600060208201905081810360008301526151d581614920565b9050919050565b600060208201905081810360008301526151f581614960565b9050919050565b60006020820190508181036000830152615215816149a0565b9050919050565b6000602082019050818103600083015261523581614a06565b9050919050565b6000602082019050818103600083015261525581614a6c565b9050919050565b6000602082019050818103600083015261527581614ad2565b9050919050565b6000602082019050818103600083015261529581614b38565b9050919050565b600060208201905081810360008301526152b581614b78565b9050919050565b600060208201905081810360008301526152d581614bde565b9050919050565b600060208201905081810360008301526152f581614c44565b9050919050565b6000602082019050818103600083015261531581614c84565b9050919050565b6000602082019050818103600083015261533581614cea565b9050919050565b60006020820190506153516000830184614d8e565b92915050565b600060808201905061536c6000830187614d8e565b61537960208301866141dc565b6153866040830185614d8e565b61539360608301846142fe565b95945050505050565b60006080820190506153b16000830187614d8e565b6153be6020830186614209565b6153cb6040830185614d8e565b6153d860608301846142fe565b95945050505050565b6000604051905081810181811067ffffffffffffffff8211171561540457600080fd5b8060405250919050565b600067ffffffffffffffff82111561542557600080fd5b601f19601f8301169050602081019050919050565b600067ffffffffffffffff82111561545157600080fd5b601f19601f8301169050602081019050919050565b6000819050602082019050919050565b60008190508160005260206000209050919050565b600081519050919050565b600081519050919050565b600081519050919050565b600081519050919050565b6000602082019050919050565b600082825260208201905092915050565b600082825260208201905092915050565b600081905092915050565b600082825260208201905092915050565b600081905092915050565b60006155188261557c565b9050919050565b600061552a8261557c565b9050919050565b60008115159050919050565b60007fffffffff0000000000000000000000000000000000000000000000000000000082169050919050565b600081905061557782615641565b919050565b600073ffffffffffffffffffffffffffffffffffffffff82169050919050565b6000819050919050565b60006155b1826155ca565b9050919050565b60006155c382615569565b9050919050565b60006155d5826155dc565b9050919050565b60006155e78261557c565b9050919050565b82818337600083830152505050565b60005b8381101561561b578082015181840152602081019050615600565b8381111561562a576000848401525b50505050565b6000601f19601f8301169050919050565b6003811061564b57fe5b50565b6156578161550d565b811461566257600080fd5b50565b61566e81615531565b811461567957600080fd5b50565b6156858161553d565b811461569057600080fd5b50565b61569c8161559c565b81146156a757600080fd5b5056fe4552433732313a207472616e7366657220746f206e6f6e20455243373231526563656976657220696d706c656d656e7465724552433732313a206f776e657220717565727920666f72206e6f6e6578697374656e7420746f6b656ea2646970667358221220eb9283ede9a1ddbc1b0e10de68f44aeef377da9e0f81c333bb9367bba1f7b44664736f6c63430006020033",
  "source": "pragma solidity ^0.6.0;\r\npragma experimental ABIEncoderV2;\r\n\r\nimport \"@openzeppelin/contracts/token/ERC721/ERC721.sol\";\r\n\r\ncontract SmartEstate is ERC721 {\r\n   uint256 private buyerId;\r\n    uint256 private tokenId;\r\n    event Transfer(address,address,address);\r\n    event property_Pricing(uint256);\r\n    enum offerApproval {pending, approved, rejected}\r\n    event saleStatus(bool);\r\n\r\n    struct PropertyDetails {\r\n        address sellerAddress;\r\n        uint256 propertyId;\r\n        string propertyAddress;\r\n        string city;\r\n        uint256 room;\r\n        string area;\r\n        string propertyType;\r\n        uint256 price;\r\n        string image;\r\n        bool saleStatus;\r\n    }\r\n    \r\n    event property_detail(address useraddress,\r\n        uint256 propertyId ,\r\n        string propertyAddress,\r\n        string city,\r\n        uint256 room,\r\n        string area,\r\n        string propertyType,\r\n        uint256 price,\r\n        string image,\r\n        bool saleStatus);\r\n\r\n    struct BuyerInfo {\r\n        uint256 bId;\r\n        address buyerAddress;\r\n        uint256 buyerOffer;\r\n        offerApproval request;\r\n    }\r\n    event buyer_Info(uint256 buyerId,address buyerAddress,uint256 buyerOffer,offerApproval request);\r\n    \r\n    modifier propertyOwner() {\r\n        require(\r\n            OnlyOwner[msg.sender].sellerAddress == msg.sender,\r\n            \"Error: Only Property Owner run this\"\r\n        );\r\n        _;\r\n    }\r\n\r\n    mapping(address => PropertyDetails) public OnlyOwner;\r\n    mapping(uint256 => address) public PropertyList;\r\n    mapping(address => BuyerInfo) public BuyerList;\r\n    mapping(uint256 => BuyerInfo[]) public AllBuyers;\r\n    mapping(uint256 => bool) public Offers;\r\n\r\n    constructor() public ERC721(\"Smart Estate Properties\", \"ESP\") {}\r\n\r\n    function RegisterProperty(\r\n        string memory _propertyAddress,\r\n        string memory _city,\r\n        uint256 _room,\r\n        string memory _area,\r\n        uint256 _priceInEther,\r\n        string memory _propertyType,\r\n        string memory _image,\r\n        bool _saleStatus,\r\n        string memory _tokenUri\r\n    ) public returns (bool) {\r\n        tokenId++;\r\n        uint256 thisId = tokenId;\r\n        _mint(msg.sender, thisId);\r\n        _setTokenURI(thisId, _tokenUri);\r\n\r\n        PropertyDetails memory tempDetails;\r\n\r\n        tempDetails = PropertyDetails({\r\n            sellerAddress: msg.sender,\r\n            propertyId: thisId,\r\n            propertyAddress: _propertyAddress,\r\n            city: _city,\r\n            room: _room,\r\n            area: _area,\r\n            propertyType: _propertyType,\r\n            price: _priceInEther,\r\n            image: _image,\r\n            saleStatus: _saleStatus\r\n        });\r\n        OnlyOwner[msg.sender] = tempDetails;\r\n        PropertyList[thisId] = msg.sender;\r\n        emit property_detail( msg.sender, thisId, _propertyAddress, _city,_room, _area, _propertyType, _priceInEther, _image,false);\r\n        return true;\r\n    }\r\n\r\n    function EnablePropertySale(uint256 PropertyId_TokenId)\r\n        public\r\n        propertyOwner\r\n        returns (bool)\r\n    {\r\n        require(\r\n            _exists(PropertyId_TokenId),\r\n            \"Error: INVALID Property id or token id\"\r\n        );\r\n        OnlyOwner[PropertyList[PropertyId_TokenId]].saleStatus = true;\r\n        emit saleStatus(true);\r\n        return true;\r\n    }\r\n\r\n    function PropertyPricing(uint256 PropertyId_TokenId)view\r\n        public\r\n        propertyOwner\r\n        returns (uint256)\r\n    {\r\n        require(\r\n            _exists(PropertyId_TokenId),\r\n            \"Error: INVALID Property id or token id\"\r\n        );\r\n          \r\n        return OnlyOwner[PropertyList[PropertyId_TokenId]].price;\r\n    }\r\n\r\n    function BuyingRequest(uint256 PropertyId_TokenId, uint256 offerInEthers)\r\n        public\r\n        returns (bool)\r\n    {\r\n        require(\r\n            _exists(PropertyId_TokenId),\r\n            \"Error: INVALID Property id or token id\"\r\n        );\r\n        require(\r\n            OnlyOwner[PropertyList[PropertyId_TokenId]].saleStatus,\r\n            \"Error:This Property not on Sale\"\r\n        );\r\n\r\n        buyerId++;\r\n\r\n        BuyerInfo memory tempDetails;\r\n        tempDetails = BuyerInfo({\r\n            bId: buyerId,\r\n            buyerAddress: msg.sender,\r\n            buyerOffer: offerInEthers,\r\n            request: offerApproval.pending\r\n        });\r\n        AllBuyers[PropertyId_TokenId].push(tempDetails);\r\n        BuyerList[msg.sender] = tempDetails;\r\n        BuyerList[msg.sender].request = offerApproval.pending;\r\n        emit buyer_Info(buyerId, msg.sender,offerInEthers,offerApproval.pending);\r\n        return true;\r\n    }\r\n\r\n    function OfferStatus(uint256 PropertyId_TokenId)\r\n        public\r\n        propertyOwner\r\n        returns (BuyerInfo[] memory)\r\n    {\r\n        require(\r\n            _exists(PropertyId_TokenId),\r\n            \"Error: INVALID Property id or token id\"\r\n        );\r\n        BuyerInfo[] memory tempDetails;\r\n        tempDetails = AllBuyers[PropertyId_TokenId];\r\n        return tempDetails;\r\n    }\r\n\r\n    function OfferReject(uint256 PropertyId_TokenId, address _buyerAddress)\r\n        public\r\n        propertyOwner\r\n        returns (bool)\r\n    {\r\n        require(\r\n            _exists(PropertyId_TokenId),\r\n            \"Error: INVALID Property id or token id\"\r\n        );\r\n        require(\r\n            BuyerList[_buyerAddress].buyerAddress == _buyerAddress,\r\n            \"Error: INVALID buyer address \"\r\n        );\r\n        BuyerList[_buyerAddress].request = offerApproval.rejected;\r\n        return true;\r\n    }\r\n\r\n    function OfferAccept(uint256 PropertyId_TokenId, address _buyerAddress)\r\n        public\r\n        propertyOwner\r\n        returns (bool)\r\n    {\r\n        require(\r\n            _exists(PropertyId_TokenId),\r\n            \"Error: INVALID Property id or token id\"\r\n        );\r\n        require(\r\n            BuyerList[_buyerAddress].buyerAddress == _buyerAddress,\r\n            \"Error: INVALID buyer address \"\r\n        );\r\n        BuyerList[_buyerAddress].request = offerApproval.approved;\r\n        return true;\r\n    }\r\n\r\n    function BuyProperty(uint256 PropertyId_TokenId)\r\n        public\r\n        payable\r\n        returns (bool)\r\n    {\r\n        require(\r\n            _exists(PropertyId_TokenId),\r\n            \"Error: INVALID Property id or token id\"\r\n        );\r\n        require(\r\n            BuyerList[msg.sender].buyerAddress == msg.sender,\r\n            \"Error: INVALID buyer address \"\r\n        );\r\n        require(\r\n            BuyerList[msg.sender].request == offerApproval.approved,\r\n            \"Error: This Property not for sale (Offer request not approved)\"\r\n        );\r\n        require(msg.value > 0, \"Error: Ether(s) not provided \");\r\n        uint256 PropertyPrice = BuyerList[msg.sender].buyerOffer.mul(\r\n            1 * 10**18\r\n        );\r\n        require(\r\n            PropertyPrice == msg.value,\r\n            \"Error: Sorry, Pricing of property not matched with offer\"\r\n        );\r\n        address BuyerAddress = OnlyOwner[PropertyList[PropertyId_TokenId]]\r\n            .sellerAddress;\r\n        _transfer(BuyerAddress, msg.sender, PropertyId_TokenId);\r\n        emit Transfer(BuyerAddress, msg.sender, PropertyId_TokenId);\r\n        return true;\r\n        \r\n    }\r\n}\r\n",
  "sourcePath": "H:/Local D/SmartEstate_OwnershipTransfer/src/contracts/SmartEstate.sol",
  "compiler": {
    "name": "solc",
    "version": "0.6.2+commit.bacdbe57.Emscripten.clang"
  },
  "schemaVersion": "3.3.2",
  "updatedAt": "2021-01-05T15:14:59.363Z",
  "networkType": "ethereum",
  "devdoc": {
    "methods": {
      "approve(address,uint256)": {
        "details": "See {IERC721-approve}."
      },
      "balanceOf(address)": {
        "details": "See {IERC721-balanceOf}."
      },
      "baseURI()": {
        "details": "Returns the base URI set via {_setBaseURI}. This will be automatically added as a prefix in {tokenURI} to each token's URI, or to the token ID if no specific URI is set for that token ID."
      },
      "getApproved(uint256)": {
        "details": "See {IERC721-getApproved}."
      },
      "isApprovedForAll(address,address)": {
        "details": "See {IERC721-isApprovedForAll}."
      },
      "name()": {
        "details": "See {IERC721Metadata-name}."
      },
      "ownerOf(uint256)": {
        "details": "See {IERC721-ownerOf}."
      },
      "safeTransferFrom(address,address,uint256)": {
        "details": "See {IERC721-safeTransferFrom}."
      },
      "safeTransferFrom(address,address,uint256,bytes)": {
        "details": "See {IERC721-safeTransferFrom}."
      },
      "setApprovalForAll(address,bool)": {
        "details": "See {IERC721-setApprovalForAll}."
      },
      "supportsInterface(bytes4)": {
        "details": "See {IERC165-supportsInterface}.     * Time complexity O(1), guaranteed to always use less than 30 000 gas."
      },
      "symbol()": {
        "details": "See {IERC721Metadata-symbol}."
      },
      "tokenByIndex(uint256)": {
        "details": "See {IERC721Enumerable-tokenByIndex}."
      },
      "tokenOfOwnerByIndex(address,uint256)": {
        "details": "See {IERC721Enumerable-tokenOfOwnerByIndex}."
      },
      "tokenURI(uint256)": {
        "details": "See {IERC721Metadata-tokenURI}."
      },
      "totalSupply()": {
        "details": "See {IERC721Enumerable-totalSupply}."
      },
      "transferFrom(address,address,uint256)": {
        "details": "See {IERC721-transferFrom}."
      }
    }
  },
  "userdoc": {
    "methods": {}
  }
}