{
  "contractName": "SmartEstate",
  "abi": [
    {
      "inputs": [],
      "stateMutability": "nonpayable",
      "type": "constructor"
    },
    {
      "anonymous": false,
      "inputs": [
        {
          "indexed": true,
          "internalType": "address",
          "name": "owner",
          "type": "address"
        },
        {
          "indexed": true,
          "internalType": "address",
          "name": "approved",
          "type": "address"
        },
        {
          "indexed": true,
          "internalType": "uint256",
          "name": "tokenId",
          "type": "uint256"
        }
      ],
      "name": "Approval",
      "type": "event"
    },
    {
      "anonymous": false,
      "inputs": [
        {
          "indexed": true,
          "internalType": "address",
          "name": "owner",
          "type": "address"
        },
        {
          "indexed": true,
          "internalType": "address",
          "name": "operator",
          "type": "address"
        },
        {
          "indexed": false,
          "internalType": "bool",
          "name": "approved",
          "type": "bool"
        }
      ],
      "name": "ApprovalForAll",
      "type": "event"
    },
    {
      "anonymous": false,
      "inputs": [
        {
          "indexed": true,
          "internalType": "address",
          "name": "from",
          "type": "address"
        },
        {
          "indexed": true,
          "internalType": "address",
          "name": "to",
          "type": "address"
        },
        {
          "indexed": true,
          "internalType": "uint256",
          "name": "tokenId",
          "type": "uint256"
        }
      ],
      "name": "Transfer",
      "type": "event"
    },
    {
      "inputs": [
        {
          "internalType": "uint256",
          "name": "",
          "type": "uint256"
        },
        {
          "internalType": "uint256",
          "name": "",
          "type": "uint256"
        }
      ],
      "name": "AllBuyers",
      "outputs": [
        {
          "internalType": "uint256",
          "name": "bId",
          "type": "uint256"
        },
        {
          "internalType": "address",
          "name": "buyerAddress",
          "type": "address"
        },
        {
          "internalType": "uint256",
          "name": "buyerOffer",
          "type": "uint256"
        },
        {
          "internalType": "enum SmartEstate.offerApproval",
          "name": "request",
          "type": "uint8"
        }
      ],
      "stateMutability": "view",
      "type": "function",
      "constant": true
    },
    {
      "inputs": [
        {
          "internalType": "address",
          "name": "",
          "type": "address"
        }
      ],
      "name": "BuyerList",
      "outputs": [
        {
          "internalType": "uint256",
          "name": "bId",
          "type": "uint256"
        },
        {
          "internalType": "address",
          "name": "buyerAddress",
          "type": "address"
        },
        {
          "internalType": "uint256",
          "name": "buyerOffer",
          "type": "uint256"
        },
        {
          "internalType": "enum SmartEstate.offerApproval",
          "name": "request",
          "type": "uint8"
        }
      ],
      "stateMutability": "view",
      "type": "function",
      "constant": true
    },
    {
      "inputs": [
        {
          "internalType": "uint256",
          "name": "",
          "type": "uint256"
        }
      ],
      "name": "Offers",
      "outputs": [
        {
          "internalType": "bool",
          "name": "",
          "type": "bool"
        }
      ],
      "stateMutability": "view",
      "type": "function",
      "constant": true
    },
    {
      "inputs": [
        {
          "internalType": "address",
          "name": "",
          "type": "address"
        }
      ],
      "name": "OnlyOwner",
      "outputs": [
        {
          "internalType": "address",
          "name": "sellerAddress",
          "type": "address"
        },
        {
          "internalType": "uint256",
          "name": "propertyId",
          "type": "uint256"
        },
        {
          "internalType": "string",
          "name": "propertyAddress",
          "type": "string"
        },
        {
          "internalType": "string",
          "name": "city",
          "type": "string"
        },
        {
          "internalType": "uint256",
          "name": "room",
          "type": "uint256"
        },
        {
          "internalType": "string",
          "name": "area",
          "type": "string"
        },
        {
          "internalType": "string",
          "name": "propertyType",
          "type": "string"
        },
        {
          "internalType": "uint256",
          "name": "price",
          "type": "uint256"
        },
        {
          "internalType": "bool",
          "name": "saleStatus",
          "type": "bool"
        }
      ],
      "stateMutability": "view",
      "type": "function",
      "constant": true
    },
    {
      "inputs": [
        {
          "internalType": "uint256",
          "name": "",
          "type": "uint256"
        }
      ],
      "name": "PropertyList",
      "outputs": [
        {
          "internalType": "address",
          "name": "",
          "type": "address"
        }
      ],
      "stateMutability": "view",
      "type": "function",
      "constant": true
    },
    {
      "inputs": [
        {
          "internalType": "address",
          "name": "to",
          "type": "address"
        },
        {
          "internalType": "uint256",
          "name": "tokenId",
          "type": "uint256"
        }
      ],
      "name": "approve",
      "outputs": [],
      "stateMutability": "nonpayable",
      "type": "function"
    },
    {
      "inputs": [
        {
          "internalType": "address",
          "name": "owner",
          "type": "address"
        }
      ],
      "name": "balanceOf",
      "outputs": [
        {
          "internalType": "uint256",
          "name": "",
          "type": "uint256"
        }
      ],
      "stateMutability": "view",
      "type": "function",
      "constant": true
    },
    {
      "inputs": [],
      "name": "baseURI",
      "outputs": [
        {
          "internalType": "string",
          "name": "",
          "type": "string"
        }
      ],
      "stateMutability": "view",
      "type": "function",
      "constant": true
    },
    {
      "inputs": [
        {
          "internalType": "uint256",
          "name": "tokenId",
          "type": "uint256"
        }
      ],
      "name": "getApproved",
      "outputs": [
        {
          "internalType": "address",
          "name": "",
          "type": "address"
        }
      ],
      "stateMutability": "view",
      "type": "function",
      "constant": true
    },
    {
      "inputs": [
        {
          "internalType": "address",
          "name": "owner",
          "type": "address"
        },
        {
          "internalType": "address",
          "name": "operator",
          "type": "address"
        }
      ],
      "name": "isApprovedForAll",
      "outputs": [
        {
          "internalType": "bool",
          "name": "",
          "type": "bool"
        }
      ],
      "stateMutability": "view",
      "type": "function",
      "constant": true
    },
    {
      "inputs": [
        {
          "internalType": "uint256",
          "name": "",
          "type": "uint256"
        }
      ],
      "name": "lands",
      "outputs": [
        {
          "internalType": "address",
          "name": "sellerAddress",
          "type": "address"
        },
        {
          "internalType": "uint256",
          "name": "propertyId",
          "type": "uint256"
        },
        {
          "internalType": "string",
          "name": "propertyAddress",
          "type": "string"
        },
        {
          "internalType": "string",
          "name": "city",
          "type": "string"
        },
        {
          "internalType": "uint256",
          "name": "room",
          "type": "uint256"
        },
        {
          "internalType": "string",
          "name": "area",
          "type": "string"
        },
        {
          "internalType": "string",
          "name": "propertyType",
          "type": "string"
        },
        {
          "internalType": "uint256",
          "name": "price",
          "type": "uint256"
        },
        {
          "internalType": "bool",
          "name": "saleStatus",
          "type": "bool"
        }
      ],
      "stateMutability": "view",
      "type": "function",
      "constant": true
    },
    {
      "inputs": [],
      "name": "name",
      "outputs": [
        {
          "internalType": "string",
          "name": "",
          "type": "string"
        }
      ],
      "stateMutability": "view",
      "type": "function",
      "constant": true
    },
    {
      "inputs": [
        {
          "internalType": "uint256",
          "name": "tokenId",
          "type": "uint256"
        }
      ],
      "name": "ownerOf",
      "outputs": [
        {
          "internalType": "address",
          "name": "",
          "type": "address"
        }
      ],
      "stateMutability": "view",
      "type": "function",
      "constant": true
    },
    {
      "inputs": [
        {
          "internalType": "uint256",
          "name": "",
          "type": "uint256"
        }
      ],
      "name": "property",
      "outputs": [
        {
          "internalType": "address",
          "name": "sellerAddress",
          "type": "address"
        },
        {
          "internalType": "uint256",
          "name": "propertyId",
          "type": "uint256"
        },
        {
          "internalType": "string",
          "name": "propertyAddress",
          "type": "string"
        },
        {
          "internalType": "string",
          "name": "city",
          "type": "string"
        },
        {
          "internalType": "uint256",
          "name": "room",
          "type": "uint256"
        },
        {
          "internalType": "string",
          "name": "area",
          "type": "string"
        },
        {
          "internalType": "string",
          "name": "propertyType",
          "type": "string"
        },
        {
          "internalType": "uint256",
          "name": "price",
          "type": "uint256"
        },
        {
          "internalType": "bool",
          "name": "saleStatus",
          "type": "bool"
        }
      ],
      "stateMutability": "view",
      "type": "function",
      "constant": true
    },
    {
      "inputs": [
        {
          "internalType": "address",
          "name": "from",
          "type": "address"
        },
        {
          "internalType": "address",
          "name": "to",
          "type": "address"
        },
        {
          "internalType": "uint256",
          "name": "tokenId",
          "type": "uint256"
        }
      ],
      "name": "safeTransferFrom",
      "outputs": [],
      "stateMutability": "nonpayable",
      "type": "function"
    },
    {
      "inputs": [
        {
          "internalType": "address",
          "name": "from",
          "type": "address"
        },
        {
          "internalType": "address",
          "name": "to",
          "type": "address"
        },
        {
          "internalType": "uint256",
          "name": "tokenId",
          "type": "uint256"
        },
        {
          "internalType": "bytes",
          "name": "_data",
          "type": "bytes"
        }
      ],
      "name": "safeTransferFrom",
      "outputs": [],
      "stateMutability": "nonpayable",
      "type": "function"
    },
    {
      "inputs": [
        {
          "internalType": "address",
          "name": "operator",
          "type": "address"
        },
        {
          "internalType": "bool",
          "name": "approved",
          "type": "bool"
        }
      ],
      "name": "setApprovalForAll",
      "outputs": [],
      "stateMutability": "nonpayable",
      "type": "function"
    },
    {
      "inputs": [
        {
          "internalType": "bytes4",
          "name": "interfaceId",
          "type": "bytes4"
        }
      ],
      "name": "supportsInterface",
      "outputs": [
        {
          "internalType": "bool",
          "name": "",
          "type": "bool"
        }
      ],
      "stateMutability": "view",
      "type": "function",
      "constant": true
    },
    {
      "inputs": [],
      "name": "symbol",
      "outputs": [
        {
          "internalType": "string",
          "name": "",
          "type": "string"
        }
      ],
      "stateMutability": "view",
      "type": "function",
      "constant": true
    },
    {
      "inputs": [
        {
          "internalType": "uint256",
          "name": "index",
          "type": "uint256"
        }
      ],
      "name": "tokenByIndex",
      "outputs": [
        {
          "internalType": "uint256",
          "name": "",
          "type": "uint256"
        }
      ],
      "stateMutability": "view",
      "type": "function",
      "constant": true
    },
    {
      "inputs": [],
      "name": "tokenId",
      "outputs": [
        {
          "internalType": "uint256",
          "name": "",
          "type": "uint256"
        }
      ],
      "stateMutability": "view",
      "type": "function",
      "constant": true
    },
    {
      "inputs": [
        {
          "internalType": "address",
          "name": "owner",
          "type": "address"
        },
        {
          "internalType": "uint256",
          "name": "index",
          "type": "uint256"
        }
      ],
      "name": "tokenOfOwnerByIndex",
      "outputs": [
        {
          "internalType": "uint256",
          "name": "",
          "type": "uint256"
        }
      ],
      "stateMutability": "view",
      "type": "function",
      "constant": true
    },
    {
      "inputs": [
        {
          "internalType": "uint256",
          "name": "tokenId",
          "type": "uint256"
        }
      ],
      "name": "tokenURI",
      "outputs": [
        {
          "internalType": "string",
          "name": "",
          "type": "string"
        }
      ],
      "stateMutability": "view",
      "type": "function",
      "constant": true
    },
    {
      "inputs": [],
      "name": "totalSupply",
      "outputs": [
        {
          "internalType": "uint256",
          "name": "",
          "type": "uint256"
        }
      ],
      "stateMutability": "view",
      "type": "function",
      "constant": true
    },
    {
      "inputs": [
        {
          "internalType": "address",
          "name": "from",
          "type": "address"
        },
        {
          "internalType": "address",
          "name": "to",
          "type": "address"
        },
        {
          "internalType": "uint256",
          "name": "tokenId",
          "type": "uint256"
        }
      ],
      "name": "transferFrom",
      "outputs": [],
      "stateMutability": "nonpayable",
      "type": "function"
    },
    {
      "inputs": [
        {
          "internalType": "string",
          "name": "_propertyAddress",
          "type": "string"
        },
        {
          "internalType": "string",
          "name": "_city",
          "type": "string"
        },
        {
          "internalType": "uint256",
          "name": "_room",
          "type": "uint256"
        },
        {
          "internalType": "string",
          "name": "_area",
          "type": "string"
        },
        {
          "internalType": "uint256",
          "name": "_priceInEther",
          "type": "uint256"
        },
        {
          "internalType": "string",
          "name": "_propertyType",
          "type": "string"
        },
        {
          "internalType": "bool",
          "name": "_saleStatus",
          "type": "bool"
        },
        {
          "internalType": "string",
          "name": "_tokenUri",
          "type": "string"
        }
      ],
      "name": "RegisterProperty",
      "outputs": [
        {
          "internalType": "bool",
          "name": "",
          "type": "bool"
        }
      ],
      "stateMutability": "nonpayable",
      "type": "function"
    },
    {
      "inputs": [
        {
          "internalType": "uint256",
          "name": "PropertyId_TokenId",
          "type": "uint256"
        }
      ],
      "name": "EnablePropertySale",
      "outputs": [
        {
          "internalType": "bool",
          "name": "",
          "type": "bool"
        }
      ],
      "stateMutability": "nonpayable",
      "type": "function"
    },
    {
      "inputs": [
        {
          "internalType": "uint256",
          "name": "PropertyId_TokenId",
          "type": "uint256"
        }
      ],
      "name": "PropertyPricing",
      "outputs": [
        {
          "internalType": "uint256",
          "name": "",
          "type": "uint256"
        }
      ],
      "stateMutability": "nonpayable",
      "type": "function"
    },
    {
      "inputs": [
        {
          "internalType": "uint256",
          "name": "PropertyId_TokenId",
          "type": "uint256"
        },
        {
          "internalType": "uint256",
          "name": "offerInEthers",
          "type": "uint256"
        }
      ],
      "name": "BuyingRequest",
      "outputs": [
        {
          "internalType": "bool",
          "name": "",
          "type": "bool"
        }
      ],
      "stateMutability": "nonpayable",
      "type": "function"
    },
    {
      "inputs": [
        {
          "internalType": "uint256",
          "name": "PropertyId_TokenId",
          "type": "uint256"
        }
      ],
      "name": "OfferStatus",
      "outputs": [
        {
          "components": [
            {
              "internalType": "uint256",
              "name": "bId",
              "type": "uint256"
            },
            {
              "internalType": "address",
              "name": "buyerAddress",
              "type": "address"
            },
            {
              "internalType": "uint256",
              "name": "buyerOffer",
              "type": "uint256"
            },
            {
              "internalType": "enum SmartEstate.offerApproval",
              "name": "request",
              "type": "uint8"
            }
          ],
          "internalType": "struct SmartEstate.BuyerInfo[]",
          "name": "",
          "type": "tuple[]"
        }
      ],
      "stateMutability": "nonpayable",
      "type": "function"
    },
    {
      "inputs": [
        {
          "internalType": "uint256",
          "name": "PropertyId_TokenId",
          "type": "uint256"
        },
        {
          "internalType": "address",
          "name": "_buyerAddress",
          "type": "address"
        }
      ],
      "name": "OfferReject",
      "outputs": [
        {
          "internalType": "bool",
          "name": "",
          "type": "bool"
        }
      ],
      "stateMutability": "nonpayable",
      "type": "function"
    },
    {
      "inputs": [
        {
          "internalType": "uint256",
          "name": "PropertyId_TokenId",
          "type": "uint256"
        },
        {
          "internalType": "address",
          "name": "_buyerAddress",
          "type": "address"
        }
      ],
      "name": "OfferAccept",
      "outputs": [
        {
          "internalType": "bool",
          "name": "",
          "type": "bool"
        }
      ],
      "stateMutability": "nonpayable",
      "type": "function"
    },
    {
      "inputs": [
        {
          "internalType": "uint256",
          "name": "PropertyId_TokenId",
          "type": "uint256"
        }
      ],
      "name": "BuyProperty",
      "outputs": [
        {
          "internalType": "bool",
          "name": "",
          "type": "bool"
        }
      ],
      "stateMutability": "payable",
      "type": "function",
      "payable": true
    }
  ],
  "bytecode": "0x60806040523480156200001157600080fd5b506040518060400160405280601781526020017f536d617274204573746174652050726f706572746965730000000000000000008152506040518060400160405280600381526020017f4553500000000000000000000000000000000000000000000000000000000000815250620000966301ffc9a760e01b6200011860201b60201c565b8160069080519060200190620000ae929190620001f0565b508060079080519060200190620000c7929190620001f0565b50620000e06380ac58cd60e01b6200011860201b60201c565b620000f8635b5e139f60e01b6200011860201b60201c565b6200011063780e9d6360e01b6200011860201b60201c565b505062000314565b63ffffffff60e01b817bffffffffffffffffffffffffffffffffffffffffffffffffffffffff1916141562000184576040517f08c379a00000000000000000000000000000000000000000000000000000000081526004016200017b90620002e1565b60405180910390fd5b6001600080837bffffffffffffffffffffffffffffffffffffffffffffffffffffffff19167bffffffffffffffffffffffffffffffffffffffffffffffffffffffff1916815260200190815260200160002060006101000a81548160ff02191690831515021790555050565b828054600181600116156101000203166002900490600052602060002090601f016020900481019282601f106200023357805160ff191683800117855562000264565b8280016001018555821562000264579182015b828111156200026357825182559160200191906001019062000246565b5b50905062000273919062000277565b5090565b6200029c91905b80821115620002985760008160009055506001016200027e565b5090565b90565b6000620002ae601c8362000303565b91507f4552433136353a20696e76616c696420696e74657266616365206964000000006000830152602082019050919050565b60006020820190508181036000830152620002fc816200029f565b9050919050565b600082825260208201905092915050565b615abf80620003246000396000f3fe6080604052600436106101ee5760003560e01c80634a1452ab1161010d57806385d57858116100a0578063c87b56dd1161006f578063c87b56dd146107ea578063d7c871d414610827578063e261f1e514610864578063e985e9c5146108a9578063eeb2fd4b146108e6576101ee565b806385d578581461072d57806395d89b411461076d578063a22cb46514610798578063b88d4fde146107c1576101ee565b80636c0360eb116100dc5780636c0360eb1461064b57806370a0823114610676578063822dcd4b146106b357806383deedbb146106f0576101ee565b80634a1452ab146105575780634f6ccce7146105945780635a05a506146105d15780636352211e1461060e576101ee565b806323b872dd1161018557806330e1ad321161015457806330e1ad321461046f57806332783c4c146104b457806342842e0e146104f157806345482f421461051a576101ee565b806323b872dd1461039c57806325a59600146103c55780632f71513f146103f55780632f745c5914610432576101ee565b80630a86c02a116101c15780630a86c02a146102c157806317d70f7c1461030657806318160ddd14610331578063225cf72e1461035c576101ee565b806301ffc9a7146101f357806306fdde0314610230578063081812fc1461025b578063095ea7b314610298575b600080fd5b3480156101ff57600080fd5b5061021a6004803603610215919081019061448a565b610923565b60405161022791906153de565b60405180910390f35b34801561023c57600080fd5b5061024561098a565b60405161025291906153f9565b60405180910390f35b34801561026757600080fd5b50610282600480360361027d9190810190614606565b610a2c565b60405161028f91906152ac565b60405180910390f35b3480156102a457600080fd5b506102bf60048036036102ba919081019061444e565b610ab1565b005b3480156102cd57600080fd5b506102e860048036036102e391908101906142e3565b610bc9565b6040516102fd99989796959493929190615313565b60405180910390f35b34801561031257600080fd5b5061031b610ea4565b604051610328919061573b565b60405180910390f35b34801561033d57600080fd5b50610346610eaa565b604051610353919061573b565b60405180910390f35b34801561036857600080fd5b50610383600480360361037e919081019061466b565b610ebb565b6040516103939493929190615756565b60405180910390f35b3480156103a857600080fd5b506103c360048036036103be9190810190614348565b610f32565b005b6103df60048036036103da9190810190614606565b610f92565b6040516103ec91906153de565b60405180910390f35b34801561040157600080fd5b5061041c6004803603610417919081019061462f565b611341565b60405161042991906153de565b60405180910390f35b34801561043e57600080fd5b506104596004803603610454919081019061444e565b611599565b604051610466919061573b565b60405180910390f35b34801561047b57600080fd5b5061049660048036036104919190810190614606565b6115f4565b6040516104ab99989796959493929190615313565b60405180910390f35b3480156104c057600080fd5b506104db60048036036104d69190810190614606565b6118dc565b6040516104e8919061573b565b60405180910390f35b3480156104fd57600080fd5b5061051860048036036105139190810190614348565b611a73565b005b34801561052657600080fd5b50610541600480360361053c919081019061466b565b611a93565b60405161054e91906153de565b60405180910390f35b34801561056357600080fd5b5061057e60048036036105799190810190614606565b611df9565b60405161058b91906152ac565b60405180910390f35b3480156105a057600080fd5b506105bb60048036036105b69190810190614606565b611e2c565b6040516105c8919061573b565b60405180910390f35b3480156105dd57600080fd5b506105f860048036036105f39190810190614606565b611e4f565b60405161060591906153bc565b60405180910390f35b34801561061a57600080fd5b5061063560048036036106309190810190614606565b612076565b60405161064291906152ac565b60405180910390f35b34801561065757600080fd5b506106606120ad565b60405161066d91906153f9565b60405180910390f35b34801561068257600080fd5b5061069d600480360361069891908101906142e3565b61214f565b6040516106aa919061573b565b60405180910390f35b3480156106bf57600080fd5b506106da60048036036106d59190810190614606565b61220e565b6040516106e791906153de565b60405180910390f35b3480156106fc57600080fd5b50610717600480360361071291908101906144dc565b6123bf565b60405161072491906153de565b60405180910390f35b34801561073957600080fd5b50610754600480360361074f91908101906142e3565b6125f2565b6040516107649493929190615756565b60405180910390f35b34801561077957600080fd5b5061078261264f565b60405161078f91906153f9565b60405180910390f35b3480156107a457600080fd5b506107bf60048036036107ba9190810190614412565b6126f1565b005b3480156107cd57600080fd5b506107e860048036036107e39190810190614397565b612872565b005b3480156107f657600080fd5b50610811600480360361080c9190810190614606565b6128d4565b60405161081e91906153f9565b60405180910390f35b34801561083357600080fd5b5061084e60048036036108499190810190614606565b612a5f565b60405161085b91906153de565b60405180910390f35b34801561087057600080fd5b5061088b60048036036108869190810190614606565b612a7f565b6040516108a099989796959493929190615313565b60405180910390f35b3480156108b557600080fd5b506108d060048036036108cb919081019061430c565b612d5a565b6040516108dd91906153de565b60405180910390f35b3480156108f257600080fd5b5061090d6004803603610908919081019061462f565b612dee565b60405161091a91906153de565b60405180910390f35b6000806000837bffffffffffffffffffffffffffffffffffffffffffffffffffffffff19167bffffffffffffffffffffffffffffffffffffffffffffffffffffffff1916815260200190815260200160002060009054906101000a900460ff169050919050565b606060068054600181600116156101000203166002900480601f016020809104026020016040519081016040528092919081815260200182805460018160011615610100020316600290048015610a225780601f106109f757610100808354040283529160200191610a22565b820191906000526020600020905b815481529060010190602001808311610a0557829003601f168201915b5050505050905090565b6000610a3782613046565b610a76576040517f08c379a0000000000000000000000000000000000000000000000000000000008152600401610a6d9061561b565b60405180910390fd5b6004600083815260200190815260200160002060009054906101000a900473ffffffffffffffffffffffffffffffffffffffff169050919050565b6000610abc82612076565b90508073ffffffffffffffffffffffffffffffffffffffff168373ffffffffffffffffffffffffffffffffffffffff161415610b2d576040517f08c379a0000000000000000000000000000000000000000000000000000000008152600401610b24906156bb565b60405180910390fd5b8073ffffffffffffffffffffffffffffffffffffffff16610b4c613063565b73ffffffffffffffffffffffffffffffffffffffff161480610b7b5750610b7a81610b75613063565b612d5a565b5b610bba576040517f08c379a0000000000000000000000000000000000000000000000000000000008152600401610bb19061555b565b60405180910390fd5b610bc4838361306b565b505050565b600e6020528060005260406000206000915090508060000160009054906101000a900473ffffffffffffffffffffffffffffffffffffffff1690806001015490806002018054600181600116156101000203166002900480601f016020809104026020016040519081016040528092919081815260200182805460018160011615610100020316600290048015610ca15780601f10610c7657610100808354040283529160200191610ca1565b820191906000526020600020905b815481529060010190602001808311610c8457829003601f168201915b505050505090806003018054600181600116156101000203166002900480601f016020809104026020016040519081016040528092919081815260200182805460018160011615610100020316600290048015610d3f5780601f10610d1457610100808354040283529160200191610d3f565b820191906000526020600020905b815481529060010190602001808311610d2257829003601f168201915b505050505090806004015490806005018054600181600116156101000203166002900480601f016020809104026020016040519081016040528092919081815260200182805460018160011615610100020316600290048015610de35780601f10610db857610100808354040283529160200191610de3565b820191906000526020600020905b815481529060010190602001808311610dc657829003601f168201915b505050505090806006018054600181600116156101000203166002900480601f016020809104026020016040519081016040528092919081815260200182805460018160011615610100020316600290048015610e815780601f10610e5657610100808354040283529160200191610e81565b820191906000526020600020905b815481529060010190602001808311610e6457829003601f168201915b5050505050908060070154908060080160009054906101000a900460ff16905089565b600b5481565b6000610eb66002613124565b905090565b60116020528160005260406000208181548110610ed457fe5b9060005260206000209060040201600091509150508060000154908060010160009054906101000a900473ffffffffffffffffffffffffffffffffffffffff16908060020154908060030160009054906101000a900460ff16905084565b610f43610f3d613063565b82613139565b610f82576040517f08c379a0000000000000000000000000000000000000000000000000000000008152600401610f79906156fb565b60405180910390fd5b610f8d838383613217565b505050565b6000610f9d82613046565b610fdc576040517f08c379a0000000000000000000000000000000000000000000000000000000008152600401610fd39061547b565b60405180910390fd5b3373ffffffffffffffffffffffffffffffffffffffff16601060003373ffffffffffffffffffffffffffffffffffffffff1673ffffffffffffffffffffffffffffffffffffffff16815260200190815260200160002060010160009054906101000a900473ffffffffffffffffffffffffffffffffffffffff1673ffffffffffffffffffffffffffffffffffffffff16146110ac576040517f08c379a00000000000000000000000000000000000000000000000000000000081526004016110a3906155db565b60405180910390fd5b600160028111156110b957fe5b601060003373ffffffffffffffffffffffffffffffffffffffff1673ffffffffffffffffffffffffffffffffffffffff16815260200190815260200160002060030160009054906101000a900460ff16600281111561111457fe5b14611154576040517f08c379a000000000000000000000000000000000000000000000000000000000815260040161114b9061551b565b60405180910390fd5b60003411611197576040517f08c379a000000000000000000000000000000000000000000000000000000000815260040161118e9061567b565b60405180910390fd5b60006111f6670de0b6b3a7640000601060003373ffffffffffffffffffffffffffffffffffffffff1673ffffffffffffffffffffffffffffffffffffffff1681526020019081526020016000206002015461342e90919063ffffffff16565b905034811461123a576040517f08c379a0000000000000000000000000000000000000000000000000000000008152600401611231906154fb565b60405180910390fd5b6000600e6000600f600087815260200190815260200160002060009054906101000a900473ffffffffffffffffffffffffffffffffffffffff1673ffffffffffffffffffffffffffffffffffffffff1673ffffffffffffffffffffffffffffffffffffffff16815260200190815260200160002060000160009054906101000a900473ffffffffffffffffffffffffffffffffffffffff1690506112df813386613217565b833373ffffffffffffffffffffffffffffffffffffffff168273ffffffffffffffffffffffffffffffffffffffff167fddf252ad1be2c89b69c2b068fc378daa952ba7f163c4a11628f55a4df523b3ef60405160405180910390a45050919050565b60003373ffffffffffffffffffffffffffffffffffffffff16600e60003373ffffffffffffffffffffffffffffffffffffffff1673ffffffffffffffffffffffffffffffffffffffff16815260200190815260200160002060000160009054906101000a900473ffffffffffffffffffffffffffffffffffffffff1673ffffffffffffffffffffffffffffffffffffffff1614611413576040517f08c379a000000000000000000000000000000000000000000000000000000000815260040161140a9061549b565b60405180910390fd5b61141c83613046565b61145b576040517f08c379a00000000000000000000000000000000000000000000000000000000081526004016114529061547b565b60405180910390fd5b8173ffffffffffffffffffffffffffffffffffffffff16601060008473ffffffffffffffffffffffffffffffffffffffff1673ffffffffffffffffffffffffffffffffffffffff16815260200190815260200160002060010160009054906101000a900473ffffffffffffffffffffffffffffffffffffffff1673ffffffffffffffffffffffffffffffffffffffff161461152b576040517f08c379a0000000000000000000000000000000000000000000000000000000008152600401611522906155db565b60405180910390fd5b6001601060008473ffffffffffffffffffffffffffffffffffffffff1673ffffffffffffffffffffffffffffffffffffffff16815260200190815260200160002060030160006101000a81548160ff0219169083600281111561158a57fe5b02179055506001905092915050565b60006115ec82600160008673ffffffffffffffffffffffffffffffffffffffff1673ffffffffffffffffffffffffffffffffffffffff16815260200190815260200160002061349e90919063ffffffff16565b905092915050565b600c818154811061160157fe5b90600052602060002090600902016000915090508060000160009054906101000a900473ffffffffffffffffffffffffffffffffffffffff1690806001015490806002018054600181600116156101000203166002900480601f0160208091040260200160405190810160405280929190818152602001828054600181600116156101000203166002900480156116d95780601f106116ae576101008083540402835291602001916116d9565b820191906000526020600020905b8154815290600101906020018083116116bc57829003601f168201915b505050505090806003018054600181600116156101000203166002900480601f0160208091040260200160405190810160405280929190818152602001828054600181600116156101000203166002900480156117775780601f1061174c57610100808354040283529160200191611777565b820191906000526020600020905b81548152906001019060200180831161175a57829003601f168201915b505050505090806004015490806005018054600181600116156101000203166002900480601f01602080910402602001604051908101604052809291908181526020018280546001816001161561010002031660029004801561181b5780601f106117f05761010080835404028352916020019161181b565b820191906000526020600020905b8154815290600101906020018083116117fe57829003601f168201915b505050505090806006018054600181600116156101000203166002900480601f0160208091040260200160405190810160405280929190818152602001828054600181600116156101000203166002900480156118b95780601f1061188e576101008083540402835291602001916118b9565b820191906000526020600020905b81548152906001019060200180831161189c57829003601f168201915b5050505050908060070154908060080160009054906101000a900460ff16905089565b60003373ffffffffffffffffffffffffffffffffffffffff16600e60003373ffffffffffffffffffffffffffffffffffffffff1673ffffffffffffffffffffffffffffffffffffffff16815260200190815260200160002060000160009054906101000a900473ffffffffffffffffffffffffffffffffffffffff1673ffffffffffffffffffffffffffffffffffffffff16146119ae576040517f08c379a00000000000000000000000000000000000000000000000000000000081526004016119a59061549b565b60405180910390fd5b6119b782613046565b6119f6576040517f08c379a00000000000000000000000000000000000000000000000000000000081526004016119ed9061547b565b60405180910390fd5b600e6000600f600085815260200190815260200160002060009054906101000a900473ffffffffffffffffffffffffffffffffffffffff1673ffffffffffffffffffffffffffffffffffffffff1673ffffffffffffffffffffffffffffffffffffffff168152602001908152602001600020600701549050919050565b611a8e83838360405180602001604052806000815250612872565b505050565b6000611a9e83613046565b611add576040517f08c379a0000000000000000000000000000000000000000000000000000000008152600401611ad49061547b565b60405180910390fd5b600e6000600f600086815260200190815260200160002060009054906101000a900473ffffffffffffffffffffffffffffffffffffffff1673ffffffffffffffffffffffffffffffffffffffff1673ffffffffffffffffffffffffffffffffffffffff16815260200190815260200160002060080160009054906101000a900460ff16611b9f576040517f08c379a0000000000000000000000000000000000000000000000000000000008152600401611b96906156db565b60405180910390fd5b600a60008154809291906001019190505550611bb9614000565b6040518060800160405280600a5481526020013373ffffffffffffffffffffffffffffffffffffffff16815260200184815260200160006002811115611bfb57fe5b8152509050601160008581526020019081526020016000208190806001815401808255809150506001900390600052602060002090600402016000909190919091506000820151816000015560208201518160010160006101000a81548173ffffffffffffffffffffffffffffffffffffffff021916908373ffffffffffffffffffffffffffffffffffffffff1602179055506040820151816002015560608201518160030160006101000a81548160ff02191690836002811115611cbc57fe5b0217905550505080601060003373ffffffffffffffffffffffffffffffffffffffff1673ffffffffffffffffffffffffffffffffffffffff1681526020019081526020016000206000820151816000015560208201518160010160006101000a81548173ffffffffffffffffffffffffffffffffffffffff021916908373ffffffffffffffffffffffffffffffffffffffff1602179055506040820151816002015560608201518160030160006101000a81548160ff02191690836002811115611d8257fe5b02179055509050506000601060003373ffffffffffffffffffffffffffffffffffffffff1673ffffffffffffffffffffffffffffffffffffffff16815260200190815260200160002060030160006101000a81548160ff02191690836002811115611de957fe5b0217905550600191505092915050565b600f6020528060005260406000206000915054906101000a900473ffffffffffffffffffffffffffffffffffffffff1681565b600080611e438360026134b890919063ffffffff16565b50905080915050919050565b60603373ffffffffffffffffffffffffffffffffffffffff16600e60003373ffffffffffffffffffffffffffffffffffffffff1673ffffffffffffffffffffffffffffffffffffffff16815260200190815260200160002060000160009054906101000a900473ffffffffffffffffffffffffffffffffffffffff1673ffffffffffffffffffffffffffffffffffffffff1614611f21576040517f08c379a0000000000000000000000000000000000000000000000000000000008152600401611f189061549b565b60405180910390fd5b611f2a82613046565b611f69576040517f08c379a0000000000000000000000000000000000000000000000000000000008152600401611f609061547b565b60405180910390fd5b606060116000848152602001908152602001600020805480602002602001604051908101604052809291908181526020016000905b828210156120675783829060005260206000209060040201604051806080016040529081600082015481526020016001820160009054906101000a900473ffffffffffffffffffffffffffffffffffffffff1673ffffffffffffffffffffffffffffffffffffffff1673ffffffffffffffffffffffffffffffffffffffff168152602001600282015481526020016003820160009054906101000a900460ff16600281111561204957fe5b600281111561205457fe5b8152505081526020019060010190611f9e565b50505050905080915050919050565b60006120a682604051806060016040528060298152602001615a616029913960026134e79092919063ffffffff16565b9050919050565b606060098054600181600116156101000203166002900480601f0160208091040260200160405190810160405280929190818152602001828054600181600116156101000203166002900480156121455780601f1061211a57610100808354040283529160200191612145565b820191906000526020600020905b81548152906001019060200180831161212857829003601f168201915b5050505050905090565b60008073ffffffffffffffffffffffffffffffffffffffff168273ffffffffffffffffffffffffffffffffffffffff1614156121c0576040517f08c379a00000000000000000000000000000000000000000000000000000000081526004016121b79061557b565b60405180910390fd5b612207600160008473ffffffffffffffffffffffffffffffffffffffff1673ffffffffffffffffffffffffffffffffffffffff168152602001908152602001600020613506565b9050919050565b60003373ffffffffffffffffffffffffffffffffffffffff16600e60003373ffffffffffffffffffffffffffffffffffffffff1673ffffffffffffffffffffffffffffffffffffffff16815260200190815260200160002060000160009054906101000a900473ffffffffffffffffffffffffffffffffffffffff1673ffffffffffffffffffffffffffffffffffffffff16146122e0576040517f08c379a00000000000000000000000000000000000000000000000000000000081526004016122d79061549b565b60405180910390fd5b6122e982613046565b612328576040517f08c379a000000000000000000000000000000000000000000000000000000000815260040161231f9061547b565b60405180910390fd5b6001600e6000600f600086815260200190815260200160002060009054906101000a900473ffffffffffffffffffffffffffffffffffffffff1673ffffffffffffffffffffffffffffffffffffffff1673ffffffffffffffffffffffffffffffffffffffff16815260200190815260200160002060080160006101000a81548160ff02191690831515021790555060019050919050565b6000600b600081548092919060010191905055506000600b5490506123e4338261351b565b6123ee81846136a9565b6123f6614049565b6040518061012001604052803373ffffffffffffffffffffffffffffffffffffffff1681526020018381526020018c81526020018b81526020018a815260200189815260200187815260200188815260200160001515815250905080600e60003373ffffffffffffffffffffffffffffffffffffffff1673ffffffffffffffffffffffffffffffffffffffff16815260200190815260200160002060008201518160000160006101000a81548173ffffffffffffffffffffffffffffffffffffffff021916908373ffffffffffffffffffffffffffffffffffffffff1602179055506020820151816001015560408201518160020190805190602001906124fe9291906140ad565b50606082015181600301908051906020019061251b9291906140ad565b506080820151816004015560a08201518160050190805190602001906125429291906140ad565b5060c082015181600601908051906020019061255f9291906140ad565b5060e082015181600701556101008201518160080160006101000a81548160ff02191690831515021790555090505033600f600084815260200190815260200160002060006101000a81548173ffffffffffffffffffffffffffffffffffffffff021916908373ffffffffffffffffffffffffffffffffffffffff16021790555060019250505098975050505050505050565b60106020528060005260406000206000915090508060000154908060010160009054906101000a900473ffffffffffffffffffffffffffffffffffffffff16908060020154908060030160009054906101000a900460ff16905084565b606060078054600181600116156101000203166002900480601f0160208091040260200160405190810160405280929190818152602001828054600181600116156101000203166002900480156126e75780601f106126bc576101008083540402835291602001916126e7565b820191906000526020600020905b8154815290600101906020018083116126ca57829003601f168201915b5050505050905090565b6126f9613063565b73ffffffffffffffffffffffffffffffffffffffff168273ffffffffffffffffffffffffffffffffffffffff161415612767576040517f08c379a000000000000000000000000000000000000000000000000000000000815260040161275e906154db565b60405180910390fd5b8060056000612774613063565b73ffffffffffffffffffffffffffffffffffffffff1673ffffffffffffffffffffffffffffffffffffffff16815260200190815260200160002060008473ffffffffffffffffffffffffffffffffffffffff1673ffffffffffffffffffffffffffffffffffffffff16815260200190815260200160002060006101000a81548160ff0219169083151502179055508173ffffffffffffffffffffffffffffffffffffffff16612821613063565b73ffffffffffffffffffffffffffffffffffffffff167f17307eab39ab6107e8899845ad3d59bd9653f200f220920489ca2b5937696c318360405161286691906153de565b60405180910390a35050565b61288361287d613063565b83613139565b6128c2576040517f08c379a00000000000000000000000000000000000000000000000000000000081526004016128b9906156fb565b60405180910390fd5b6128ce8484848461371d565b50505050565b60606128df82613046565b61291e576040517f08c379a00000000000000000000000000000000000000000000000000000000081526004016129159061569b565b60405180910390fd5b6060600860008481526020019081526020016000208054600181600116156101000203166002900480601f0160208091040260200160405190810160405280929190818152602001828054600181600116156101000203166002900480156129c75780601f1061299c576101008083540402835291602001916129c7565b820191906000526020600020905b8154815290600101906020018083116129aa57829003601f168201915b505050505090506000600980546001816001161561010002031660029004905014156129f65780915050612a5a565b600081511115612a2b57600981604051602001612a14929190615288565b604051602081830303815290604052915050612a5a565b6009612a3684613779565b604051602001612a47929190615288565b6040516020818303038152906040529150505b919050565b60126020528060005260406000206000915054906101000a900460ff1681565b600d6020528060005260406000206000915090508060000160009054906101000a900473ffffffffffffffffffffffffffffffffffffffff1690806001015490806002018054600181600116156101000203166002900480601f016020809104026020016040519081016040528092919081815260200182805460018160011615610100020316600290048015612b575780601f10612b2c57610100808354040283529160200191612b57565b820191906000526020600020905b815481529060010190602001808311612b3a57829003601f168201915b505050505090806003018054600181600116156101000203166002900480601f016020809104026020016040519081016040528092919081815260200182805460018160011615610100020316600290048015612bf55780601f10612bca57610100808354040283529160200191612bf5565b820191906000526020600020905b815481529060010190602001808311612bd857829003601f168201915b505050505090806004015490806005018054600181600116156101000203166002900480601f016020809104026020016040519081016040528092919081815260200182805460018160011615610100020316600290048015612c995780601f10612c6e57610100808354040283529160200191612c99565b820191906000526020600020905b815481529060010190602001808311612c7c57829003601f168201915b505050505090806006018054600181600116156101000203166002900480601f016020809104026020016040519081016040528092919081815260200182805460018160011615610100020316600290048015612d375780601f10612d0c57610100808354040283529160200191612d37565b820191906000526020600020905b815481529060010190602001808311612d1a57829003601f168201915b5050505050908060070154908060080160009054906101000a900460ff16905089565b6000600560008473ffffffffffffffffffffffffffffffffffffffff1673ffffffffffffffffffffffffffffffffffffffff16815260200190815260200160002060008373ffffffffffffffffffffffffffffffffffffffff1673ffffffffffffffffffffffffffffffffffffffff16815260200190815260200160002060009054906101000a900460ff16905092915050565b60003373ffffffffffffffffffffffffffffffffffffffff16600e60003373ffffffffffffffffffffffffffffffffffffffff1673ffffffffffffffffffffffffffffffffffffffff16815260200190815260200160002060000160009054906101000a900473ffffffffffffffffffffffffffffffffffffffff1673ffffffffffffffffffffffffffffffffffffffff1614612ec0576040517f08c379a0000000000000000000000000000000000000000000000000000000008152600401612eb79061549b565b60405180910390fd5b612ec983613046565b612f08576040517f08c379a0000000000000000000000000000000000000000000000000000000008152600401612eff9061547b565b60405180910390fd5b8173ffffffffffffffffffffffffffffffffffffffff16601060008473ffffffffffffffffffffffffffffffffffffffff1673ffffffffffffffffffffffffffffffffffffffff16815260200190815260200160002060010160009054906101000a900473ffffffffffffffffffffffffffffffffffffffff1673ffffffffffffffffffffffffffffffffffffffff1614612fd8576040517f08c379a0000000000000000000000000000000000000000000000000000000008152600401612fcf906155db565b60405180910390fd5b6002601060008473ffffffffffffffffffffffffffffffffffffffff1673ffffffffffffffffffffffffffffffffffffffff16815260200190815260200160002060030160006101000a81548160ff0219169083600281111561303757fe5b02179055506001905092915050565b600061305c8260026138a990919063ffffffff16565b9050919050565b600033905090565b816004600083815260200190815260200160002060006101000a81548173ffffffffffffffffffffffffffffffffffffffff021916908373ffffffffffffffffffffffffffffffffffffffff160217905550808273ffffffffffffffffffffffffffffffffffffffff166130de83612076565b73ffffffffffffffffffffffffffffffffffffffff167f8c5be1e5ebec7d5bd14f71427d1e84f3dd0314c0f7b2291e5b200ac8c7c3b92560405160405180910390a45050565b6000613132826000016138c3565b9050919050565b600061314482613046565b613183576040517f08c379a000000000000000000000000000000000000000000000000000000000815260040161317a9061553b565b60405180910390fd5b600061318e83612076565b90508073ffffffffffffffffffffffffffffffffffffffff168473ffffffffffffffffffffffffffffffffffffffff1614806131fd57508373ffffffffffffffffffffffffffffffffffffffff166131e584610a2c565b73ffffffffffffffffffffffffffffffffffffffff16145b8061320e575061320d8185612d5a565b5b91505092915050565b8273ffffffffffffffffffffffffffffffffffffffff1661323782612076565b73ffffffffffffffffffffffffffffffffffffffff161461328d576040517f08c379a00000000000000000000000000000000000000000000000000000000081526004016132849061565b565b60405180910390fd5b600073ffffffffffffffffffffffffffffffffffffffff168273ffffffffffffffffffffffffffffffffffffffff1614156132fd576040517f08c379a00000000000000000000000000000000000000000000000000000000081526004016132f4906154bb565b60405180910390fd5b6133088383836138d4565b61331360008261306b565b61336481600160008673ffffffffffffffffffffffffffffffffffffffff1673ffffffffffffffffffffffffffffffffffffffff1681526020019081526020016000206138d990919063ffffffff16565b506133b681600160008573ffffffffffffffffffffffffffffffffffffffff1673ffffffffffffffffffffffffffffffffffffffff1681526020019081526020016000206138f390919063ffffffff16565b506133cd8183600261390d9092919063ffffffff16565b50808273ffffffffffffffffffffffffffffffffffffffff168473ffffffffffffffffffffffffffffffffffffffff167fddf252ad1be2c89b69c2b068fc378daa952ba7f163c4a11628f55a4df523b3ef60405160405180910390a4505050565b6000808314156134415760009050613498565b600082840290508284828161345257fe5b0414613493576040517f08c379a000000000000000000000000000000000000000000000000000000000815260040161348a906155fb565b60405180910390fd5b809150505b92915050565b60006134ad8360000183613942565b60001c905092915050565b6000806000806134cb86600001866139af565b915091508160001c8160001c8090509350935050509250929050565b60006134fa846000018460001b84613a32565b60001c90509392505050565b600061351482600001613ac3565b9050919050565b600073ffffffffffffffffffffffffffffffffffffffff168273ffffffffffffffffffffffffffffffffffffffff16141561358b576040517f08c379a0000000000000000000000000000000000000000000000000000000008152600401613582906155bb565b60405180910390fd5b61359481613046565b156135d4576040517f08c379a00000000000000000000000000000000000000000000000000000000081526004016135cb9061545b565b60405180910390fd5b6135e0600083836138d4565b61363181600160008573ffffffffffffffffffffffffffffffffffffffff1673ffffffffffffffffffffffffffffffffffffffff1681526020019081526020016000206138f390919063ffffffff16565b506136488183600261390d9092919063ffffffff16565b50808273ffffffffffffffffffffffffffffffffffffffff16600073ffffffffffffffffffffffffffffffffffffffff167fddf252ad1be2c89b69c2b068fc378daa952ba7f163c4a11628f55a4df523b3ef60405160405180910390a45050565b6136b282613046565b6136f1576040517f08c379a00000000000000000000000000000000000000000000000000000000081526004016136e89061563b565b60405180910390fd5b8060086000848152602001908152602001600020908051906020019061371892919061412d565b505050565b613728848484613217565b61373484848484613ad4565b613773576040517f08c379a000000000000000000000000000000000000000000000000000000000815260040161376a9061543b565b60405180910390fd5b50505050565b606060008214156137c1576040518060400160405280600181526020017f300000000000000000000000000000000000000000000000000000000000000081525090506138a4565b600082905060005b600082146137eb578080600101915050600a82816137e357fe5b0491506137c9565b6060816040519080825280601f01601f1916602001820160405280156138205781602001600182028038833980820191505090505b50905060006001830390508593505b6000841461389c57600a848161384157fe5b0660300160f81b8282806001900393508151811061385b57fe5b60200101907effffffffffffffffffffffffffffffffffffffffffffffffffffffffffffff1916908160001a905350600a848161389457fe5b04935061382f565b819450505050505b919050565b60006138bb836000018360001b613c38565b905092915050565b600081600001805490509050919050565b505050565b60006138eb836000018360001b613c5b565b905092915050565b6000613905836000018360001b613d43565b905092915050565b6000613939846000018460001b8473ffffffffffffffffffffffffffffffffffffffff1660001b613db3565b90509392505050565b60008183600001805490501161398d576040517f08c379a00000000000000000000000000000000000000000000000000000000081526004016139849061541b565b60405180910390fd5b82600001828154811061399c57fe5b9060005260206000200154905092915050565b600080828460000180549050116139fb576040517f08c379a00000000000000000000000000000000000000000000000000000000081526004016139f29061559b565b60405180910390fd5b6000846000018481548110613a0c57fe5b906000526020600020906002020190508060000154816001015492509250509250929050565b60008084600101600085815260200190815260200160002054905060008114158390613a94576040517f08c379a0000000000000000000000000000000000000000000000000000000008152600401613a8b91906153f9565b60405180910390fd5b50846000016001820381548110613aa757fe5b9060005260206000209060020201600101549150509392505050565b600081600001805490509050919050565b6000613af58473ffffffffffffffffffffffffffffffffffffffff16613e8f565b613b025760019050613c30565b6060613bc963150b7a0260e01b613b17613063565b888787604051602401613b2d94939291906152c7565b604051602081830303815290604052907bffffffffffffffffffffffffffffffffffffffffffffffffffffffff19166020820180517bffffffffffffffffffffffffffffffffffffffffffffffffffffffff8381831617835250505050604051806060016040528060328152602001615a2f603291398773ffffffffffffffffffffffffffffffffffffffff16613ea29092919063ffffffff16565b9050600081806020019051613be191908101906144b3565b905063150b7a0260e01b7bffffffffffffffffffffffffffffffffffffffffffffffffffffffff1916817bffffffffffffffffffffffffffffffffffffffffffffffffffffffff191614925050505b949350505050565b600080836001016000848152602001908152602001600020541415905092915050565b60008083600101600084815260200190815260200160002054905060008114613d375760006001820390506000600186600001805490500390506000866000018281548110613ca657fe5b9060005260206000200154905080876000018481548110613cc357fe5b9060005260206000200181905550600183018760010160008381526020019081526020016000208190555086600001805480613cfb57fe5b60019003818190600052602060002001600090559055866001016000878152602001908152602001600020600090556001945050505050613d3d565b60009150505b92915050565b6000613d4f8383613eba565b613da8578260000182908060018154018082558091505060019003906000526020600020016000909190919091505582600001805490508360010160008481526020019081526020016000208190555060019050613dad565b600090505b92915050565b6000808460010160008581526020019081526020016000205490506000811415613e5a57846000016040518060400160405280868152602001858152509080600181540180825580915050600190039060005260206000209060020201600090919091909150600082015181600001556020820151816001015550508460000180549050856001016000868152602001908152602001600020819055506001915050613e88565b82856000016001830381548110613e6d57fe5b90600052602060002090600202016001018190555060009150505b9392505050565b600080823b905060008111915050919050565b6060613eb18484600085613edd565b90509392505050565b600080836001016000848152602001908152602001600020541415905092915050565b6060613ee885613e8f565b613f27576040517f08c379a0000000000000000000000000000000000000000000000000000000008152600401613f1e9061571b565b60405180910390fd5b600060608673ffffffffffffffffffffffffffffffffffffffff168587604051613f519190615271565b60006040518083038185875af1925050503d8060008114613f8e576040519150601f19603f3d011682016040523d82523d6000602084013e613f93565b606091505b50915091508115613fa8578092505050613ff8565b600081511115613fbb5780518082602001fd5b836040517f08c379a0000000000000000000000000000000000000000000000000000000008152600401613fef91906153f9565b60405180910390fd5b949350505050565b604051806080016040528060008152602001600073ffffffffffffffffffffffffffffffffffffffff168152602001600081526020016000600281111561404357fe5b81525090565b604051806101200160405280600073ffffffffffffffffffffffffffffffffffffffff168152602001600081526020016060815260200160608152602001600081526020016060815260200160608152602001600081526020016000151581525090565b828054600181600116156101000203166002900490600052602060002090601f016020900481019282601f106140ee57805160ff191683800117855561411c565b8280016001018555821561411c579182015b8281111561411b578251825591602001919060010190614100565b5b50905061412991906141ad565b5090565b828054600181600116156101000203166002900490600052602060002090601f016020900481019282601f1061416e57805160ff191683800117855561419c565b8280016001018555821561419c579182015b8281111561419b578251825591602001919060010190614180565b5b5090506141a991906141ad565b5090565b6141cf91905b808211156141cb5760008160009055506001016141b3565b5090565b90565b6000813590506141e1816159d2565b92915050565b6000813590506141f6816159e9565b92915050565b60008135905061420b81615a00565b92915050565b60008151905061422081615a00565b92915050565b600082601f83011261423757600080fd5b813561424a614245826157c8565b61579b565b9150808252602083016020830185838301111561426657600080fd5b614271838284615972565b50505092915050565b600082601f83011261428b57600080fd5b813561429e614299826157f4565b61579b565b915080825260208301602083018583830111156142ba57600080fd5b6142c5838284615972565b50505092915050565b6000813590506142dd81615a17565b92915050565b6000602082840312156142f557600080fd5b6000614303848285016141d2565b91505092915050565b6000806040838503121561431f57600080fd5b600061432d858286016141d2565b925050602061433e858286016141d2565b9150509250929050565b60008060006060848603121561435d57600080fd5b600061436b868287016141d2565b935050602061437c868287016141d2565b925050604061438d868287016142ce565b9150509250925092565b600080600080608085870312156143ad57600080fd5b60006143bb878288016141d2565b94505060206143cc878288016141d2565b93505060406143dd878288016142ce565b925050606085013567ffffffffffffffff8111156143fa57600080fd5b61440687828801614226565b91505092959194509250565b6000806040838503121561442557600080fd5b6000614433858286016141d2565b9250506020614444858286016141e7565b9150509250929050565b6000806040838503121561446157600080fd5b600061446f858286016141d2565b9250506020614480858286016142ce565b9150509250929050565b60006020828403121561449c57600080fd5b60006144aa848285016141fc565b91505092915050565b6000602082840312156144c557600080fd5b60006144d384828501614211565b91505092915050565b600080600080600080600080610100898b0312156144f957600080fd5b600089013567ffffffffffffffff81111561451357600080fd5b61451f8b828c0161427a565b985050602089013567ffffffffffffffff81111561453c57600080fd5b6145488b828c0161427a565b97505060406145598b828c016142ce565b965050606089013567ffffffffffffffff81111561457657600080fd5b6145828b828c0161427a565b95505060806145938b828c016142ce565b94505060a089013567ffffffffffffffff8111156145b057600080fd5b6145bc8b828c0161427a565b93505060c06145cd8b828c016141e7565b92505060e089013567ffffffffffffffff8111156145ea57600080fd5b6145f68b828c0161427a565b9150509295985092959890939650565b60006020828403121561461857600080fd5b6000614626848285016142ce565b91505092915050565b6000806040838503121561464257600080fd5b6000614650858286016142ce565b9250506020614661858286016141d2565b9150509250929050565b6000806040838503121561467e57600080fd5b600061468c858286016142ce565b925050602061469d858286016142ce565b9150509250929050565b60006146b383836151fe565b60808301905092915050565b6146c8816158d9565b82525050565b6146d7816158c7565b82525050565b6146e6816158c7565b82525050565b60006146f782615845565b614701818561587e565b935061470c83615820565b8060005b8381101561473d57815161472488826146a7565b975061472f83615871565b925050600181019050614710565b5085935050505092915050565b614753816158eb565b82525050565b600061476482615850565b61476e818561588f565b935061477e818560208601615981565b614787816159b4565b840191505092915050565b600061479d82615850565b6147a781856158a0565b93506147b7818560208601615981565b80840191505092915050565b6147cc81615960565b82525050565b6147db81615960565b82525050565b60006147ec82615866565b6147f681856158ab565b9350614806818560208601615981565b61480f816159b4565b840191505092915050565b600061482582615866565b61482f81856158bc565b935061483f818560208601615981565b80840191505092915050565b60006148568261585b565b61486081856158ab565b9350614870818560208601615981565b614879816159b4565b840191505092915050565b6000815460018116600081146148a157600181146148c65761490a565b607f60028304166148b281876158bc565b955060ff198316865280860193505061490a565b600282046148d481876158bc565b95506148df85615830565b60005b82811015614901578154818901526001820191506020810190506148e2565b82880195505050505b505092915050565b600061491f6022836158ab565b91507f456e756d657261626c655365743a20696e646578206f7574206f6620626f756e60008301527f64730000000000000000000000000000000000000000000000000000000000006020830152604082019050919050565b60006149856032836158ab565b91507f4552433732313a207472616e7366657220746f206e6f6e20455243373231526560008301527f63656976657220696d706c656d656e74657200000000000000000000000000006020830152604082019050919050565b60006149eb601c836158ab565b91507f4552433732313a20746f6b656e20616c7265616479206d696e746564000000006000830152602082019050919050565b6000614a2b6026836158ab565b91507f4572726f723a20494e56414c49442050726f7065727479206964206f7220746f60008301527f6b656e20696400000000000000000000000000000000000000000000000000006020830152604082019050919050565b6000614a916023836158ab565b91507f4572726f723a204f6e6c792050726f7065727479204f776e65722072756e207460008301527f68697300000000000000000000000000000000000000000000000000000000006020830152604082019050919050565b6000614af76024836158ab565b91507f4552433732313a207472616e7366657220746f20746865207a65726f2061646460008301527f72657373000000000000000000000000000000000000000000000000000000006020830152604082019050919050565b6000614b5d6019836158ab565b91507f4552433732313a20617070726f766520746f2063616c6c6572000000000000006000830152602082019050919050565b6000614b9d6038836158ab565b91507f4572726f723a20536f7272792c2050726963696e67206f662070726f7065727460008301527f79206e6f74206d6174636865642077697468206f6666657200000000000000006020830152604082019050919050565b6000614c03603e836158ab565b91507f4572726f723a20546869732050726f7065727479206e6f7420666f722073616c60008301527f6520284f666665722072657175657374206e6f7420617070726f7665642900006020830152604082019050919050565b6000614c69602c836158ab565b91507f4552433732313a206f70657261746f7220717565727920666f72206e6f6e657860008301527f697374656e7420746f6b656e00000000000000000000000000000000000000006020830152604082019050919050565b6000614ccf6038836158ab565b91507f4552433732313a20617070726f76652063616c6c6572206973206e6f74206f7760008301527f6e6572206e6f7220617070726f76656420666f7220616c6c00000000000000006020830152604082019050919050565b6000614d35602a836158ab565b91507f4552433732313a2062616c616e636520717565727920666f7220746865207a6560008301527f726f2061646472657373000000000000000000000000000000000000000000006020830152604082019050919050565b6000614d9b6022836158ab565b91507f456e756d657261626c654d61703a20696e646578206f7574206f6620626f756e60008301527f64730000000000000000000000000000000000000000000000000000000000006020830152604082019050919050565b6000614e016020836158ab565b91507f4552433732313a206d696e7420746f20746865207a65726f20616464726573736000830152602082019050919050565b6000614e41601d836158ab565b91507f4572726f723a20494e56414c49442062757965722061646472657373200000006000830152602082019050919050565b6000614e816021836158ab565b91507f536166654d6174683a206d756c7469706c69636174696f6e206f766572666c6f60008301527f77000000000000000000000000000000000000000000000000000000000000006020830152604082019050919050565b6000614ee7602c836158ab565b91507f4552433732313a20617070726f76656420717565727920666f72206e6f6e657860008301527f697374656e7420746f6b656e00000000000000000000000000000000000000006020830152604082019050919050565b6000614f4d602c836158ab565b91507f4552433732314d657461646174613a2055524920736574206f66206e6f6e657860008301527f697374656e7420746f6b656e00000000000000000000000000000000000000006020830152604082019050919050565b6000614fb36029836158ab565b91507f4552433732313a207472616e73666572206f6620746f6b656e2074686174206960008301527f73206e6f74206f776e00000000000000000000000000000000000000000000006020830152604082019050919050565b6000615019601d836158ab565b91507f4572726f723a204574686572287329206e6f742070726f7669646564200000006000830152602082019050919050565b6000615059602f836158ab565b91507f4552433732314d657461646174613a2055524920717565727920666f72206e6f60008301527f6e6578697374656e7420746f6b656e00000000000000000000000000000000006020830152604082019050919050565b60006150bf6021836158ab565b91507f4552433732313a20617070726f76616c20746f2063757272656e74206f776e6560008301527f72000000000000000000000000000000000000000000000000000000000000006020830152604082019050919050565b6000615125601f836158ab565b91507f4572726f723a546869732050726f7065727479206e6f74206f6e2053616c65006000830152602082019050919050565b60006151656031836158ab565b91507f4552433732313a207472616e736665722063616c6c6572206973206e6f74206f60008301527f776e6572206e6f7220617070726f7665640000000000000000000000000000006020830152604082019050919050565b60006151cb601d836158ab565b91507f416464726573733a2063616c6c20746f206e6f6e2d636f6e74726163740000006000830152602082019050919050565b6080820160008201516152146000850182615253565b50602082015161522760208501826146ce565b50604082015161523a6040850182615253565b50606082015161524d60608501826147c3565b50505050565b61525c81615956565b82525050565b61526b81615956565b82525050565b600061527d8284614792565b915081905092915050565b60006152948285614884565b91506152a0828461481a565b91508190509392505050565b60006020820190506152c160008301846146dd565b92915050565b60006080820190506152dc60008301876146bf565b6152e960208301866146dd565b6152f66040830185615262565b81810360608301526153088184614759565b905095945050505050565b600061012082019050615329600083018c6146dd565b615336602083018b615262565b8181036040830152615348818a61484b565b9050818103606083015261535c818961484b565b905061536b6080830188615262565b81810360a083015261537d818761484b565b905081810360c0830152615391818661484b565b90506153a060e0830185615262565b6153ae61010083018461474a565b9a9950505050505050505050565b600060208201905081810360008301526153d681846146ec565b905092915050565b60006020820190506153f3600083018461474a565b92915050565b6000602082019050818103600083015261541381846147e1565b905092915050565b6000602082019050818103600083015261543481614912565b9050919050565b6000602082019050818103600083015261545481614978565b9050919050565b60006020820190508181036000830152615474816149de565b9050919050565b6000602082019050818103600083015261549481614a1e565b9050919050565b600060208201905081810360008301526154b481614a84565b9050919050565b600060208201905081810360008301526154d481614aea565b9050919050565b600060208201905081810360008301526154f481614b50565b9050919050565b6000602082019050818103600083015261551481614b90565b9050919050565b6000602082019050818103600083015261553481614bf6565b9050919050565b6000602082019050818103600083015261555481614c5c565b9050919050565b6000602082019050818103600083015261557481614cc2565b9050919050565b6000602082019050818103600083015261559481614d28565b9050919050565b600060208201905081810360008301526155b481614d8e565b9050919050565b600060208201905081810360008301526155d481614df4565b9050919050565b600060208201905081810360008301526155f481614e34565b9050919050565b6000602082019050818103600083015261561481614e74565b9050919050565b6000602082019050818103600083015261563481614eda565b9050919050565b6000602082019050818103600083015261565481614f40565b9050919050565b6000602082019050818103600083015261567481614fa6565b9050919050565b600060208201905081810360008301526156948161500c565b9050919050565b600060208201905081810360008301526156b48161504c565b9050919050565b600060208201905081810360008301526156d4816150b2565b9050919050565b600060208201905081810360008301526156f481615118565b9050919050565b6000602082019050818103600083015261571481615158565b9050919050565b60006020820190508181036000830152615734816151be565b9050919050565b60006020820190506157506000830184615262565b92915050565b600060808201905061576b6000830187615262565b61577860208301866146dd565b6157856040830185615262565b61579260608301846147d2565b95945050505050565b6000604051905081810181811067ffffffffffffffff821117156157be57600080fd5b8060405250919050565b600067ffffffffffffffff8211156157df57600080fd5b601f19601f8301169050602081019050919050565b600067ffffffffffffffff82111561580b57600080fd5b601f19601f8301169050602081019050919050565b6000819050602082019050919050565b60008190508160005260206000209050919050565b600081519050919050565b600081519050919050565b600081519050919050565b600081519050919050565b6000602082019050919050565b600082825260208201905092915050565b600082825260208201905092915050565b600081905092915050565b600082825260208201905092915050565b600081905092915050565b60006158d282615936565b9050919050565b60006158e482615936565b9050919050565b60008115159050919050565b60007fffffffff0000000000000000000000000000000000000000000000000000000082169050919050565b6000819050615931826159c5565b919050565b600073ffffffffffffffffffffffffffffffffffffffff82169050919050565b6000819050919050565b600061596b82615923565b9050919050565b82818337600083830152505050565b60005b8381101561599f578082015181840152602081019050615984565b838111156159ae576000848401525b50505050565b6000601f19601f8301169050919050565b600381106159cf57fe5b50565b6159db816158c7565b81146159e657600080fd5b50565b6159f2816158eb565b81146159fd57600080fd5b50565b615a09816158f7565b8114615a1457600080fd5b50565b615a2081615956565b8114615a2b57600080fd5b5056fe4552433732313a207472616e7366657220746f206e6f6e20455243373231526563656976657220696d706c656d656e7465724552433732313a206f776e657220717565727920666f72206e6f6e6578697374656e7420746f6b656ea26469706673582212200ab9c182058d7bed99784df419c7b2e878b29cf3036b6d2960b3a0de5f86bb5b64736f6c63430006020033",
  "source": "pragma solidity ^0.6.0;\r\npragma experimental ABIEncoderV2;\r\n//smart-estate\\node_modules\\@openzeppelin\\contracts\\token\\ERC721\\ERC721.sol\r\n\r\nimport \"@openzeppelin/contracts/token/ERC721/ERC721.sol\";\r\n\r\ncontract SmartEstate is ERC721 {\r\n    uint256 private buyerId;\r\n    uint256 public tokenId;\r\n    \r\n    PropertyDetails[] public property;\r\n    enum offerApproval {pending, approved, rejected}\r\n\r\n    struct PropertyDetails {\r\n        address sellerAddress;\r\n        uint256 propertyId;\r\n        string propertyAddress;\r\n        string city;\r\n        uint256 room;\r\n        string area;\r\n        string propertyType;\r\n        uint256 price;\r\n        bool saleStatus;\r\n    }\r\n\r\n    struct BuyerInfo {\r\n        uint256 bId;\r\n        address buyerAddress;\r\n        uint256 buyerOffer;\r\n        offerApproval request;\r\n    }\r\n\r\n    modifier propertyOwner() {\r\n        require(\r\n            OnlyOwner[msg.sender].sellerAddress == msg.sender,\r\n            \"Error: Only Property Owner run this\"\r\n        );\r\n        _;\r\n    }\r\n    mapping (uint256 => PropertyDetails) public lands;\r\n    mapping(address => PropertyDetails) public OnlyOwner;\r\n    mapping(uint256 => address) public PropertyList;\r\n    mapping(address => BuyerInfo) public BuyerList;\r\n    mapping(uint256 => BuyerInfo[]) public AllBuyers;\r\n    mapping(uint256 => bool) public Offers;\r\n    \r\n\r\n    constructor() public ERC721(\"Smart Estate Properties\", \"ESP\") {}\r\n\r\n    function RegisterProperty(\r\n        string memory _propertyAddress,\r\n        string memory _city,\r\n        uint256 _room,\r\n        string memory _area,\r\n        uint256 _priceInEther,\r\n        string memory _propertyType,\r\n        bool _saleStatus,\r\n        string memory _tokenUri\r\n    ) public returns (bool) {\r\n        tokenId++;\r\n        uint256 thisId = tokenId;\r\n        _mint(msg.sender, thisId);\r\n        _setTokenURI(thisId, _tokenUri);\r\n\r\n        PropertyDetails memory tempDetails;\r\n\r\n        tempDetails = PropertyDetails({\r\n            sellerAddress: msg.sender,\r\n            propertyId: thisId,\r\n            propertyAddress: _propertyAddress,\r\n            city: _city,\r\n            room: _room,\r\n            area: _area,\r\n            propertyType: _propertyType,\r\n            price: _priceInEther,\r\n            saleStatus: false\r\n        });\r\n        OnlyOwner[msg.sender] = tempDetails;\r\n        PropertyList[thisId] = msg.sender;\r\n        return true;\r\n    }\r\n\r\n\r\n    function EnablePropertySale(uint256 PropertyId_TokenId)\r\n        public\r\n        propertyOwner\r\n        returns (bool)\r\n    {\r\n        require(\r\n            _exists(PropertyId_TokenId),\r\n            \"Error: INVALID Property id or token id\"\r\n        );\r\n        OnlyOwner[PropertyList[PropertyId_TokenId]].saleStatus = true;\r\n        return true;\r\n    }\r\n\r\n    function PropertyPricing(uint256 PropertyId_TokenId)\r\n        public\r\n        propertyOwner\r\n        returns (uint256)\r\n    {\r\n        require(\r\n            _exists(PropertyId_TokenId),\r\n            \"Error: INVALID Property id or token id\"\r\n        );\r\n        return OnlyOwner[PropertyList[PropertyId_TokenId]].price;\r\n    }\r\n\r\n    function BuyingRequest(uint256 PropertyId_TokenId, uint256 offerInEthers)\r\n        public\r\n        returns (bool)\r\n    {\r\n        require(\r\n            _exists(PropertyId_TokenId),\r\n            \"Error: INVALID Property id or token id\"\r\n        );\r\n        require(\r\n            OnlyOwner[PropertyList[PropertyId_TokenId]].saleStatus,\r\n            \"Error:This Property not on Sale\"\r\n        );\r\n\r\n        buyerId++;\r\n\r\n        BuyerInfo memory tempDetails;\r\n        tempDetails = BuyerInfo({\r\n            bId: buyerId,\r\n            buyerAddress: msg.sender,\r\n            buyerOffer: offerInEthers,\r\n            request: offerApproval.pending\r\n        });\r\n        AllBuyers[PropertyId_TokenId].push(tempDetails);\r\n        BuyerList[msg.sender] = tempDetails;\r\n        BuyerList[msg.sender].request = offerApproval.pending;\r\n\r\n        return true;\r\n    }\r\n\r\n    function OfferStatus(uint256 PropertyId_TokenId)\r\n        public\r\n        propertyOwner\r\n        returns (BuyerInfo[] memory)\r\n    {\r\n        require(\r\n            _exists(PropertyId_TokenId),\r\n            \"Error: INVALID Property id or token id\"\r\n        );\r\n        BuyerInfo[] memory tempDetails;\r\n        tempDetails = AllBuyers[PropertyId_TokenId];\r\n        return tempDetails;\r\n    }\r\n\r\n    function OfferReject(uint256 PropertyId_TokenId, address _buyerAddress)\r\n        public\r\n        propertyOwner\r\n        returns (bool)\r\n    {\r\n        require(\r\n            _exists(PropertyId_TokenId),\r\n            \"Error: INVALID Property id or token id\"\r\n        );\r\n        require(\r\n            BuyerList[_buyerAddress].buyerAddress == _buyerAddress,\r\n            \"Error: INVALID buyer address \"\r\n        );\r\n        BuyerList[_buyerAddress].request = offerApproval.rejected;\r\n        return true;\r\n    }\r\n\r\n    function OfferAccept(uint256 PropertyId_TokenId, address _buyerAddress)\r\n        public\r\n        propertyOwner\r\n        returns (bool)\r\n    {\r\n        require(\r\n            _exists(PropertyId_TokenId),\r\n            \"Error: INVALID Property id or token id\"\r\n        );\r\n        require(\r\n            BuyerList[_buyerAddress].buyerAddress == _buyerAddress,\r\n            \"Error: INVALID buyer address \"\r\n        );\r\n        BuyerList[_buyerAddress].request = offerApproval.approved;\r\n        return true;\r\n    }\r\n\r\n    function BuyProperty(uint256 PropertyId_TokenId)\r\n        public\r\n        payable\r\n        returns (bool)\r\n    {\r\n        require(\r\n            _exists(PropertyId_TokenId),\r\n            \"Error: INVALID Property id or token id\"\r\n        );\r\n        require(\r\n            BuyerList[msg.sender].buyerAddress == msg.sender,\r\n            \"Error: INVALID buyer address \"\r\n        );\r\n        require(\r\n            BuyerList[msg.sender].request == offerApproval.approved,\r\n            \"Error: This Property not for sale (Offer request not approved)\"\r\n        );\r\n        require(msg.value > 0, \"Error: Ether(s) not provided \");\r\n        uint256 PropertyPrice = BuyerList[msg.sender].buyerOffer.mul(\r\n            1 * 10**18\r\n        );\r\n        require(\r\n            PropertyPrice == msg.value,\r\n            \"Error: Sorry, Pricing of property not matched with offer\"\r\n        );\r\n        address BuyerAddress = OnlyOwner[PropertyList[PropertyId_TokenId]]\r\n            .sellerAddress;\r\n        _transfer(BuyerAddress, msg.sender, PropertyId_TokenId);\r\n        emit Transfer(BuyerAddress, msg.sender, PropertyId_TokenId);\r\n    }\r\n}\r\n",
  "sourcePath": "G:/SmartEstate/src/contracts/SmartEstate.sol",
  "compiler": {
    "name": "solc",
    "version": "0.6.2+commit.bacdbe57.Emscripten.clang"
  },
  "schemaVersion": "3.2.5",
  "updatedAt": "2020-11-05T14:03:17.167Z",
  "networkType": "ethereum",
  "devdoc": {
    "methods": {
      "approve(address,uint256)": {
        "details": "See {IERC721-approve}."
      },
      "balanceOf(address)": {
        "details": "See {IERC721-balanceOf}."
      },
      "baseURI()": {
        "details": "Returns the base URI set via {_setBaseURI}. This will be automatically added as a prefix in {tokenURI} to each token's URI, or to the token ID if no specific URI is set for that token ID."
      },
      "getApproved(uint256)": {
        "details": "See {IERC721-getApproved}."
      },
      "isApprovedForAll(address,address)": {
        "details": "See {IERC721-isApprovedForAll}."
      },
      "name()": {
        "details": "See {IERC721Metadata-name}."
      },
      "ownerOf(uint256)": {
        "details": "See {IERC721-ownerOf}."
      },
      "safeTransferFrom(address,address,uint256)": {
        "details": "See {IERC721-safeTransferFrom}."
      },
      "safeTransferFrom(address,address,uint256,bytes)": {
        "details": "See {IERC721-safeTransferFrom}."
      },
      "setApprovalForAll(address,bool)": {
        "details": "See {IERC721-setApprovalForAll}."
      },
      "supportsInterface(bytes4)": {
        "details": "See {IERC165-supportsInterface}.     * Time complexity O(1), guaranteed to always use less than 30 000 gas."
      },
      "symbol()": {
        "details": "See {IERC721Metadata-symbol}."
      },
      "tokenByIndex(uint256)": {
        "details": "See {IERC721Enumerable-tokenByIndex}."
      },
      "tokenOfOwnerByIndex(address,uint256)": {
        "details": "See {IERC721Enumerable-tokenOfOwnerByIndex}."
      },
      "tokenURI(uint256)": {
        "details": "See {IERC721Metadata-tokenURI}."
      },
      "totalSupply()": {
        "details": "See {IERC721Enumerable-totalSupply}."
      },
      "transferFrom(address,address,uint256)": {
        "details": "See {IERC721-transferFrom}."
      }
    }
  },
  "userdoc": {
    "methods": {}
  }
}