{
  "contractName": "SmartEstate",
  "abi": [
    {
      "inputs": [],
      "stateMutability": "nonpayable",
      "type": "constructor"
    },
    {
      "anonymous": false,
      "inputs": [
        {
          "indexed": true,
          "internalType": "address",
          "name": "owner",
          "type": "address"
        },
        {
          "indexed": true,
          "internalType": "address",
          "name": "approved",
          "type": "address"
        },
        {
          "indexed": true,
          "internalType": "uint256",
          "name": "tokenId",
          "type": "uint256"
        }
      ],
      "name": "Approval",
      "type": "event"
    },
    {
      "anonymous": false,
      "inputs": [
        {
          "indexed": true,
          "internalType": "address",
          "name": "owner",
          "type": "address"
        },
        {
          "indexed": true,
          "internalType": "address",
          "name": "operator",
          "type": "address"
        },
        {
          "indexed": false,
          "internalType": "bool",
          "name": "approved",
          "type": "bool"
        }
      ],
      "name": "ApprovalForAll",
      "type": "event"
    },
    {
      "anonymous": false,
      "inputs": [
        {
          "indexed": false,
          "internalType": "address",
          "name": "",
          "type": "address"
        },
        {
          "indexed": false,
          "internalType": "address",
          "name": "",
          "type": "address"
        },
        {
          "indexed": false,
          "internalType": "address",
          "name": "",
          "type": "address"
        }
      ],
      "name": "Transfer",
      "type": "event"
    },
    {
      "anonymous": false,
      "inputs": [
        {
          "indexed": true,
          "internalType": "address",
          "name": "from",
          "type": "address"
        },
        {
          "indexed": true,
          "internalType": "address",
          "name": "to",
          "type": "address"
        },
        {
          "indexed": true,
          "internalType": "uint256",
          "name": "tokenId",
          "type": "uint256"
        }
      ],
      "name": "Transfer",
      "type": "event"
    },
    {
      "anonymous": false,
      "inputs": [
        {
          "components": [
            {
              "internalType": "uint256",
              "name": "bId",
              "type": "uint256"
            },
            {
              "internalType": "address",
              "name": "buyerAddress",
              "type": "address"
            },
            {
              "internalType": "uint256",
              "name": "buyerOffer",
              "type": "uint256"
            },
            {
              "internalType": "enum SmartEstate.offerApproval",
              "name": "request",
              "type": "uint8"
            }
          ],
          "indexed": false,
          "internalType": "struct SmartEstate.BuyerInfo",
          "name": "",
          "type": "tuple"
        }
      ],
      "name": "buyer_Info",
      "type": "event"
    },
    {
      "anonymous": false,
      "inputs": [
        {
          "indexed": false,
          "internalType": "string",
          "name": "",
          "type": "string"
        }
      ],
      "name": "name1",
      "type": "event"
    },
    {
      "anonymous": false,
      "inputs": [
        {
          "indexed": false,
          "internalType": "uint256",
          "name": "",
          "type": "uint256"
        }
      ],
      "name": "property_Pricing",
      "type": "event"
    },
    {
      "anonymous": false,
      "inputs": [
        {
          "indexed": false,
          "internalType": "address",
          "name": "",
          "type": "address"
        },
        {
          "indexed": false,
          "internalType": "uint256",
          "name": "",
          "type": "uint256"
        },
        {
          "indexed": false,
          "internalType": "string",
          "name": "",
          "type": "string"
        },
        {
          "indexed": false,
          "internalType": "string",
          "name": "",
          "type": "string"
        },
        {
          "indexed": false,
          "internalType": "uint256",
          "name": "",
          "type": "uint256"
        },
        {
          "indexed": false,
          "internalType": "string",
          "name": "",
          "type": "string"
        },
        {
          "indexed": false,
          "internalType": "string",
          "name": "",
          "type": "string"
        },
        {
          "indexed": false,
          "internalType": "uint256",
          "name": "",
          "type": "uint256"
        },
        {
          "indexed": false,
          "internalType": "bool",
          "name": "",
          "type": "bool"
        }
      ],
      "name": "property_detail",
      "type": "event"
    },
    {
      "anonymous": false,
      "inputs": [
        {
          "indexed": false,
          "internalType": "bool",
          "name": "",
          "type": "bool"
        }
      ],
      "name": "saleStatus",
      "type": "event"
    },
    {
      "inputs": [
        {
          "internalType": "uint256",
          "name": "",
          "type": "uint256"
        },
        {
          "internalType": "uint256",
          "name": "",
          "type": "uint256"
        }
      ],
      "name": "AllBuyers",
      "outputs": [
        {
          "internalType": "uint256",
          "name": "bId",
          "type": "uint256"
        },
        {
          "internalType": "address",
          "name": "buyerAddress",
          "type": "address"
        },
        {
          "internalType": "uint256",
          "name": "buyerOffer",
          "type": "uint256"
        },
        {
          "internalType": "enum SmartEstate.offerApproval",
          "name": "request",
          "type": "uint8"
        }
      ],
      "stateMutability": "view",
      "type": "function",
      "constant": true
    },
    {
      "inputs": [
        {
          "internalType": "address",
          "name": "",
          "type": "address"
        }
      ],
      "name": "BuyerList",
      "outputs": [
        {
          "internalType": "uint256",
          "name": "bId",
          "type": "uint256"
        },
        {
          "internalType": "address",
          "name": "buyerAddress",
          "type": "address"
        },
        {
          "internalType": "uint256",
          "name": "buyerOffer",
          "type": "uint256"
        },
        {
          "internalType": "enum SmartEstate.offerApproval",
          "name": "request",
          "type": "uint8"
        }
      ],
      "stateMutability": "view",
      "type": "function",
      "constant": true
    },
    {
      "inputs": [
        {
          "internalType": "uint256",
          "name": "",
          "type": "uint256"
        }
      ],
      "name": "Offers",
      "outputs": [
        {
          "internalType": "bool",
          "name": "",
          "type": "bool"
        }
      ],
      "stateMutability": "view",
      "type": "function",
      "constant": true
    },
    {
      "inputs": [
        {
          "internalType": "address",
          "name": "",
          "type": "address"
        }
      ],
      "name": "OnlyOwner",
      "outputs": [
        {
          "internalType": "address",
          "name": "sellerAddress",
          "type": "address"
        },
        {
          "internalType": "uint256",
          "name": "propertyId",
          "type": "uint256"
        },
        {
          "internalType": "string",
          "name": "propertyAddress",
          "type": "string"
        },
        {
          "internalType": "string",
          "name": "city",
          "type": "string"
        },
        {
          "internalType": "uint256",
          "name": "room",
          "type": "uint256"
        },
        {
          "internalType": "string",
          "name": "area",
          "type": "string"
        },
        {
          "internalType": "string",
          "name": "propertyType",
          "type": "string"
        },
        {
          "internalType": "uint256",
          "name": "price",
          "type": "uint256"
        },
        {
          "internalType": "bool",
          "name": "saleStatus",
          "type": "bool"
        }
      ],
      "stateMutability": "view",
      "type": "function",
      "constant": true
    },
    {
      "inputs": [
        {
          "internalType": "uint256",
          "name": "",
          "type": "uint256"
        }
      ],
      "name": "PropertyList",
      "outputs": [
        {
          "internalType": "address",
          "name": "",
          "type": "address"
        }
      ],
      "stateMutability": "view",
      "type": "function",
      "constant": true
    },
    {
      "inputs": [
        {
          "internalType": "address",
          "name": "to",
          "type": "address"
        },
        {
          "internalType": "uint256",
          "name": "tokenId",
          "type": "uint256"
        }
      ],
      "name": "approve",
      "outputs": [],
      "stateMutability": "nonpayable",
      "type": "function"
    },
    {
      "inputs": [
        {
          "internalType": "address",
          "name": "owner",
          "type": "address"
        }
      ],
      "name": "balanceOf",
      "outputs": [
        {
          "internalType": "uint256",
          "name": "",
          "type": "uint256"
        }
      ],
      "stateMutability": "view",
      "type": "function",
      "constant": true
    },
    {
      "inputs": [],
      "name": "baseURI",
      "outputs": [
        {
          "internalType": "string",
          "name": "",
          "type": "string"
        }
      ],
      "stateMutability": "view",
      "type": "function",
      "constant": true
    },
    {
      "inputs": [
        {
          "internalType": "uint256",
          "name": "tokenId",
          "type": "uint256"
        }
      ],
      "name": "getApproved",
      "outputs": [
        {
          "internalType": "address",
          "name": "",
          "type": "address"
        }
      ],
      "stateMutability": "view",
      "type": "function",
      "constant": true
    },
    {
      "inputs": [
        {
          "internalType": "address",
          "name": "owner",
          "type": "address"
        },
        {
          "internalType": "address",
          "name": "operator",
          "type": "address"
        }
      ],
      "name": "isApprovedForAll",
      "outputs": [
        {
          "internalType": "bool",
          "name": "",
          "type": "bool"
        }
      ],
      "stateMutability": "view",
      "type": "function",
      "constant": true
    },
    {
      "inputs": [],
      "name": "name",
      "outputs": [
        {
          "internalType": "string",
          "name": "",
          "type": "string"
        }
      ],
      "stateMutability": "view",
      "type": "function",
      "constant": true
    },
    {
      "inputs": [
        {
          "internalType": "uint256",
          "name": "tokenId",
          "type": "uint256"
        }
      ],
      "name": "ownerOf",
      "outputs": [
        {
          "internalType": "address",
          "name": "",
          "type": "address"
        }
      ],
      "stateMutability": "view",
      "type": "function",
      "constant": true
    },
    {
      "inputs": [
        {
          "internalType": "address",
          "name": "from",
          "type": "address"
        },
        {
          "internalType": "address",
          "name": "to",
          "type": "address"
        },
        {
          "internalType": "uint256",
          "name": "tokenId",
          "type": "uint256"
        }
      ],
      "name": "safeTransferFrom",
      "outputs": [],
      "stateMutability": "nonpayable",
      "type": "function"
    },
    {
      "inputs": [
        {
          "internalType": "address",
          "name": "from",
          "type": "address"
        },
        {
          "internalType": "address",
          "name": "to",
          "type": "address"
        },
        {
          "internalType": "uint256",
          "name": "tokenId",
          "type": "uint256"
        },
        {
          "internalType": "bytes",
          "name": "_data",
          "type": "bytes"
        }
      ],
      "name": "safeTransferFrom",
      "outputs": [],
      "stateMutability": "nonpayable",
      "type": "function"
    },
    {
      "inputs": [
        {
          "internalType": "address",
          "name": "operator",
          "type": "address"
        },
        {
          "internalType": "bool",
          "name": "approved",
          "type": "bool"
        }
      ],
      "name": "setApprovalForAll",
      "outputs": [],
      "stateMutability": "nonpayable",
      "type": "function"
    },
    {
      "inputs": [
        {
          "internalType": "bytes4",
          "name": "interfaceId",
          "type": "bytes4"
        }
      ],
      "name": "supportsInterface",
      "outputs": [
        {
          "internalType": "bool",
          "name": "",
          "type": "bool"
        }
      ],
      "stateMutability": "view",
      "type": "function",
      "constant": true
    },
    {
      "inputs": [],
      "name": "symbol",
      "outputs": [
        {
          "internalType": "string",
          "name": "",
          "type": "string"
        }
      ],
      "stateMutability": "view",
      "type": "function",
      "constant": true
    },
    {
      "inputs": [
        {
          "internalType": "uint256",
          "name": "index",
          "type": "uint256"
        }
      ],
      "name": "tokenByIndex",
      "outputs": [
        {
          "internalType": "uint256",
          "name": "",
          "type": "uint256"
        }
      ],
      "stateMutability": "view",
      "type": "function",
      "constant": true
    },
    {
      "inputs": [
        {
          "internalType": "address",
          "name": "owner",
          "type": "address"
        },
        {
          "internalType": "uint256",
          "name": "index",
          "type": "uint256"
        }
      ],
      "name": "tokenOfOwnerByIndex",
      "outputs": [
        {
          "internalType": "uint256",
          "name": "",
          "type": "uint256"
        }
      ],
      "stateMutability": "view",
      "type": "function",
      "constant": true
    },
    {
      "inputs": [
        {
          "internalType": "uint256",
          "name": "tokenId",
          "type": "uint256"
        }
      ],
      "name": "tokenURI",
      "outputs": [
        {
          "internalType": "string",
          "name": "",
          "type": "string"
        }
      ],
      "stateMutability": "view",
      "type": "function",
      "constant": true
    },
    {
      "inputs": [],
      "name": "totalSupply",
      "outputs": [
        {
          "internalType": "uint256",
          "name": "",
          "type": "uint256"
        }
      ],
      "stateMutability": "view",
      "type": "function",
      "constant": true
    },
    {
      "inputs": [
        {
          "internalType": "address",
          "name": "from",
          "type": "address"
        },
        {
          "internalType": "address",
          "name": "to",
          "type": "address"
        },
        {
          "internalType": "uint256",
          "name": "tokenId",
          "type": "uint256"
        }
      ],
      "name": "transferFrom",
      "outputs": [],
      "stateMutability": "nonpayable",
      "type": "function"
    },
    {
      "inputs": [
        {
          "internalType": "string",
          "name": "_propertyAddress",
          "type": "string"
        },
        {
          "internalType": "string",
          "name": "_city",
          "type": "string"
        },
        {
          "internalType": "uint256",
          "name": "_room",
          "type": "uint256"
        },
        {
          "internalType": "string",
          "name": "_area",
          "type": "string"
        },
        {
          "internalType": "uint256",
          "name": "_priceInEther",
          "type": "uint256"
        },
        {
          "internalType": "string",
          "name": "_propertyType",
          "type": "string"
        },
        {
          "internalType": "bool",
          "name": "_saleStatus",
          "type": "bool"
        },
        {
          "internalType": "string",
          "name": "_tokenUri",
          "type": "string"
        }
      ],
      "name": "RegisterProperty",
      "outputs": [
        {
          "internalType": "bool",
          "name": "",
          "type": "bool"
        }
      ],
      "stateMutability": "nonpayable",
      "type": "function"
    },
    {
      "inputs": [
        {
          "internalType": "uint256",
          "name": "PropertyId_TokenId",
          "type": "uint256"
        }
      ],
      "name": "EnablePropertySale",
      "outputs": [
        {
          "internalType": "bool",
          "name": "",
          "type": "bool"
        }
      ],
      "stateMutability": "nonpayable",
      "type": "function"
    },
    {
      "inputs": [],
      "name": "test",
      "outputs": [],
      "stateMutability": "nonpayable",
      "type": "function"
    },
    {
      "inputs": [
        {
          "internalType": "uint256",
          "name": "PropertyId_TokenId",
          "type": "uint256"
        }
      ],
      "name": "PropertyPricing",
      "outputs": [
        {
          "internalType": "uint256",
          "name": "",
          "type": "uint256"
        }
      ],
      "stateMutability": "view",
      "type": "function",
      "constant": true
    },
    {
      "inputs": [
        {
          "internalType": "uint256",
          "name": "PropertyId_TokenId",
          "type": "uint256"
        },
        {
          "internalType": "uint256",
          "name": "offerInEthers",
          "type": "uint256"
        }
      ],
      "name": "BuyingRequest",
      "outputs": [
        {
          "internalType": "bool",
          "name": "",
          "type": "bool"
        }
      ],
      "stateMutability": "nonpayable",
      "type": "function"
    },
    {
      "inputs": [
        {
          "internalType": "uint256",
          "name": "PropertyId_TokenId",
          "type": "uint256"
        }
      ],
      "name": "OfferStatus",
      "outputs": [
        {
          "components": [
            {
              "internalType": "uint256",
              "name": "bId",
              "type": "uint256"
            },
            {
              "internalType": "address",
              "name": "buyerAddress",
              "type": "address"
            },
            {
              "internalType": "uint256",
              "name": "buyerOffer",
              "type": "uint256"
            },
            {
              "internalType": "enum SmartEstate.offerApproval",
              "name": "request",
              "type": "uint8"
            }
          ],
          "internalType": "struct SmartEstate.BuyerInfo[]",
          "name": "",
          "type": "tuple[]"
        }
      ],
      "stateMutability": "nonpayable",
      "type": "function"
    },
    {
      "inputs": [
        {
          "internalType": "uint256",
          "name": "PropertyId_TokenId",
          "type": "uint256"
        },
        {
          "internalType": "address",
          "name": "_buyerAddress",
          "type": "address"
        }
      ],
      "name": "OfferReject",
      "outputs": [
        {
          "internalType": "bool",
          "name": "",
          "type": "bool"
        }
      ],
      "stateMutability": "nonpayable",
      "type": "function"
    },
    {
      "inputs": [
        {
          "internalType": "uint256",
          "name": "PropertyId_TokenId",
          "type": "uint256"
        },
        {
          "internalType": "address",
          "name": "_buyerAddress",
          "type": "address"
        }
      ],
      "name": "OfferAccept",
      "outputs": [
        {
          "internalType": "bool",
          "name": "",
          "type": "bool"
        }
      ],
      "stateMutability": "nonpayable",
      "type": "function"
    },
    {
      "inputs": [
        {
          "internalType": "uint256",
          "name": "PropertyId_TokenId",
          "type": "uint256"
        }
      ],
      "name": "BuyProperty",
      "outputs": [
        {
          "internalType": "bool",
          "name": "",
          "type": "bool"
        }
      ],
      "stateMutability": "payable",
      "type": "function",
      "payable": true
    }
  ],
  "bytecode": "0x60806040523480156200001157600080fd5b506040518060400160405280601781526020017f536d617274204573746174652050726f706572746965730000000000000000008152506040518060400160405280600381526020017f4553500000000000000000000000000000000000000000000000000000000000815250620000966301ffc9a760e01b6200011860201b60201c565b8160069080519060200190620000ae929190620001f0565b508060079080519060200190620000c7929190620001f0565b50620000e06380ac58cd60e01b6200011860201b60201c565b620000f8635b5e139f60e01b6200011860201b60201c565b6200011063780e9d6360e01b6200011860201b60201c565b505062000314565b63ffffffff60e01b817bffffffffffffffffffffffffffffffffffffffffffffffffffffffff1916141562000184576040517f08c379a00000000000000000000000000000000000000000000000000000000081526004016200017b90620002e1565b60405180910390fd5b6001600080837bffffffffffffffffffffffffffffffffffffffffffffffffffffffff19167bffffffffffffffffffffffffffffffffffffffffffffffffffffffff1916815260200190815260200160002060006101000a81548160ff02191690831515021790555050565b828054600181600116156101000203166002900490600052602060002090601f016020900481019282601f106200023357805160ff191683800117855562000264565b8280016001018555821562000264579182015b828111156200026357825182559160200191906001019062000246565b5b50905062000273919062000277565b5090565b6200029c91905b80821115620002985760008160009055506001016200027e565b5090565b90565b6000620002ae601c8362000303565b91507f4552433136353a20696e76616c696420696e74657266616365206964000000006000830152602082019050919050565b60006020820190508181036000830152620002fc816200029f565b9050919050565b600082825260208201905092915050565b6156f280620003246000396000f3fe6080604052600436106101d85760003560e01c80634f6ccce71161010257806395d89b4111610095578063d7c871d411610064578063d7c871d4146107a1578063e985e9c5146107de578063eeb2fd4b1461081b578063f8a8fd6d14610858576101d8565b806395d89b41146106e7578063a22cb46514610712578063b88d4fde1461073b578063c87b56dd14610764576101d8565b806370a08231116100d157806370a08231146105f0578063822dcd4b1461062d57806383deedbb1461066a57806385d57858146106a7576101d8565b80634f6ccce71461050e5780635a05a5061461054b5780636352211e146105885780636c0360eb146105c5576101d8565b806323b872dd1161017a57806332783c4c1161014957806332783c4c1461042e57806342842e0e1461046b57806345482f42146104945780634a1452ab146104d1576101d8565b806323b872dd1461035b57806325a59600146103845780632f71513f146103b45780632f745c59146103f1576101d8565b8063095ea7b3116101b6578063095ea7b3146102825780630a86c02a146102ab57806318160ddd146102f0578063225cf72e1461031b576101d8565b806301ffc9a7146101dd57806306fdde031461021a578063081812fc14610245575b600080fd5b3480156101e957600080fd5b5061020460048036036101ff9190810190613eff565b61086f565b6040516102119190614fa0565b60405180910390f35b34801561022657600080fd5b5061022f6108d6565b60405161023c9190614fbb565b60405180910390f35b34801561025157600080fd5b5061026c6004803603610267919081019061407b565b610978565b6040516102799190614dc5565b60405180910390f35b34801561028e57600080fd5b506102a960048036036102a49190810190613ec3565b6109fd565b005b3480156102b757600080fd5b506102d260048036036102cd9190810190613d58565b610b15565b6040516102e799989796959493929190614ed5565b60405180910390f35b3480156102fc57600080fd5b50610305610df0565b6040516103129190615338565b60405180910390f35b34801561032757600080fd5b50610342600480360361033d91908101906140e0565b610e01565b6040516103529493929190615353565b60405180910390f35b34801561036757600080fd5b50610382600480360361037d9190810190613dbd565b610e78565b005b61039e6004803603610399919081019061407b565b610ed8565b6040516103ab9190614fa0565b60405180910390f35b3480156103c057600080fd5b506103db60048036036103d691908101906140a4565b61128b565b6040516103e89190614fa0565b60405180910390f35b3480156103fd57600080fd5b5061041860048036036104139190810190613ec3565b6114e3565b6040516104259190615338565b60405180910390f35b34801561043a57600080fd5b506104556004803603610450919081019061407b565b61153e565b6040516104629190615338565b60405180910390f35b34801561047757600080fd5b50610492600480360361048d9190810190613dbd565b6116d5565b005b3480156104a057600080fd5b506104bb60048036036104b691908101906140e0565b6116f5565b6040516104c89190614fa0565b60405180910390f35b3480156104dd57600080fd5b506104f860048036036104f3919081019061407b565b611a92565b6040516105059190614dc5565b60405180910390f35b34801561051a57600080fd5b506105356004803603610530919081019061407b565b611ac5565b6040516105429190615338565b60405180910390f35b34801561055757600080fd5b50610572600480360361056d919081019061407b565b611ae8565b60405161057f9190614f7e565b60405180910390f35b34801561059457600080fd5b506105af60048036036105aa919081019061407b565b611d0f565b6040516105bc9190614dc5565b60405180910390f35b3480156105d157600080fd5b506105da611d46565b6040516105e79190614fbb565b60405180910390f35b3480156105fc57600080fd5b5061061760048036036106129190810190613d58565b611de8565b6040516106249190615338565b60405180910390f35b34801561063957600080fd5b50610654600480360361064f919081019061407b565b611ea7565b6040516106619190614fa0565b60405180910390f35b34801561067657600080fd5b50610691600480360361068c9190810190613f51565b612090565b60405161069e9190614fa0565b60405180910390f35b3480156106b357600080fd5b506106ce60048036036106c99190810190613d58565b61230b565b6040516106de9493929190615353565b60405180910390f35b3480156106f357600080fd5b506106fc612368565b6040516107099190614fbb565b60405180910390f35b34801561071e57600080fd5b5061073960048036036107349190810190613e87565b61240a565b005b34801561074757600080fd5b50610762600480360361075d9190810190613e0c565b61258b565b005b34801561077057600080fd5b5061078b6004803603610786919081019061407b565b6125ed565b6040516107989190614fbb565b60405180910390f35b3480156107ad57600080fd5b506107c860048036036107c3919081019061407b565b612778565b6040516107d59190614fa0565b60405180910390f35b3480156107ea57600080fd5b5061080560048036036108009190810190613d81565b612798565b6040516108129190614fa0565b60405180910390f35b34801561082757600080fd5b50610842600480360361083d91908101906140a4565b61282c565b60405161084f9190614fa0565b60405180910390f35b34801561086457600080fd5b5061086d612a84565b005b6000806000837bffffffffffffffffffffffffffffffffffffffffffffffffffffffff19167bffffffffffffffffffffffffffffffffffffffffffffffffffffffff1916815260200190815260200160002060009054906101000a900460ff169050919050565b606060068054600181600116156101000203166002900480601f01602080910402602001604051908101604052809291908181526020018280546001816001161561010002031660029004801561096e5780601f106109435761010080835404028352916020019161096e565b820191906000526020600020905b81548152906001019060200180831161095157829003601f168201915b5050505050905090565b600061098382612abb565b6109c2576040517f08c379a00000000000000000000000000000000000000000000000000000000081526004016109b9906151fd565b60405180910390fd5b6004600083815260200190815260200160002060009054906101000a900473ffffffffffffffffffffffffffffffffffffffff169050919050565b6000610a0882611d0f565b90508073ffffffffffffffffffffffffffffffffffffffff168373ffffffffffffffffffffffffffffffffffffffff161415610a79576040517f08c379a0000000000000000000000000000000000000000000000000000000008152600401610a709061529d565b60405180910390fd5b8073ffffffffffffffffffffffffffffffffffffffff16610a98612ad8565b73ffffffffffffffffffffffffffffffffffffffff161480610ac75750610ac681610ac1612ad8565b612798565b5b610b06576040517f08c379a0000000000000000000000000000000000000000000000000000000008152600401610afd9061513d565b60405180910390fd5b610b108383612ae0565b505050565b600c6020528060005260406000206000915090508060000160009054906101000a900473ffffffffffffffffffffffffffffffffffffffff1690806001015490806002018054600181600116156101000203166002900480601f016020809104026020016040519081016040528092919081815260200182805460018160011615610100020316600290048015610bed5780601f10610bc257610100808354040283529160200191610bed565b820191906000526020600020905b815481529060010190602001808311610bd057829003601f168201915b505050505090806003018054600181600116156101000203166002900480601f016020809104026020016040519081016040528092919081815260200182805460018160011615610100020316600290048015610c8b5780601f10610c6057610100808354040283529160200191610c8b565b820191906000526020600020905b815481529060010190602001808311610c6e57829003601f168201915b505050505090806004015490806005018054600181600116156101000203166002900480601f016020809104026020016040519081016040528092919081815260200182805460018160011615610100020316600290048015610d2f5780601f10610d0457610100808354040283529160200191610d2f565b820191906000526020600020905b815481529060010190602001808311610d1257829003601f168201915b505050505090806006018054600181600116156101000203166002900480601f016020809104026020016040519081016040528092919081815260200182805460018160011615610100020316600290048015610dcd5780601f10610da257610100808354040283529160200191610dcd565b820191906000526020600020905b815481529060010190602001808311610db057829003601f168201915b5050505050908060070154908060080160009054906101000a900460ff16905089565b6000610dfc6002612b99565b905090565b600f6020528160005260406000208181548110610e1a57fe5b9060005260206000209060040201600091509150508060000154908060010160009054906101000a900473ffffffffffffffffffffffffffffffffffffffff16908060020154908060030160009054906101000a900460ff16905084565b610e89610e83612ad8565b82612bae565b610ec8576040517f08c379a0000000000000000000000000000000000000000000000000000000008152600401610ebf906152dd565b60405180910390fd5b610ed3838383612c8c565b505050565b6000610ee382612abb565b610f22576040517f08c379a0000000000000000000000000000000000000000000000000000000008152600401610f199061505d565b60405180910390fd5b3373ffffffffffffffffffffffffffffffffffffffff16600e60003373ffffffffffffffffffffffffffffffffffffffff1673ffffffffffffffffffffffffffffffffffffffff16815260200190815260200160002060010160009054906101000a900473ffffffffffffffffffffffffffffffffffffffff1673ffffffffffffffffffffffffffffffffffffffff1614610ff2576040517f08c379a0000000000000000000000000000000000000000000000000000000008152600401610fe9906151bd565b60405180910390fd5b60016002811115610fff57fe5b600e60003373ffffffffffffffffffffffffffffffffffffffff1673ffffffffffffffffffffffffffffffffffffffff16815260200190815260200160002060030160009054906101000a900460ff16600281111561105a57fe5b1461109a576040517f08c379a0000000000000000000000000000000000000000000000000000000008152600401611091906150fd565b60405180910390fd5b600034116110dd576040517f08c379a00000000000000000000000000000000000000000000000000000000081526004016110d49061525d565b60405180910390fd5b600061113c670de0b6b3a7640000600e60003373ffffffffffffffffffffffffffffffffffffffff1673ffffffffffffffffffffffffffffffffffffffff16815260200190815260200160002060020154612ea390919063ffffffff16565b9050348114611180576040517f08c379a0000000000000000000000000000000000000000000000000000000008152600401611177906150dd565b60405180910390fd5b6000600c6000600d600087815260200190815260200160002060009054906101000a900473ffffffffffffffffffffffffffffffffffffffff1673ffffffffffffffffffffffffffffffffffffffff1673ffffffffffffffffffffffffffffffffffffffff16815260200190815260200160002060000160009054906101000a900473ffffffffffffffffffffffffffffffffffffffff169050611225813386612c8c565b833373ffffffffffffffffffffffffffffffffffffffff168273ffffffffffffffffffffffffffffffffffffffff167fddf252ad1be2c89b69c2b068fc378daa952ba7f163c4a11628f55a4df523b3ef60405160405180910390a4600192505050919050565b60003373ffffffffffffffffffffffffffffffffffffffff16600c60003373ffffffffffffffffffffffffffffffffffffffff1673ffffffffffffffffffffffffffffffffffffffff16815260200190815260200160002060000160009054906101000a900473ffffffffffffffffffffffffffffffffffffffff1673ffffffffffffffffffffffffffffffffffffffff161461135d576040517f08c379a00000000000000000000000000000000000000000000000000000000081526004016113549061507d565b60405180910390fd5b61136683612abb565b6113a5576040517f08c379a000000000000000000000000000000000000000000000000000000000815260040161139c9061505d565b60405180910390fd5b8173ffffffffffffffffffffffffffffffffffffffff16600e60008473ffffffffffffffffffffffffffffffffffffffff1673ffffffffffffffffffffffffffffffffffffffff16815260200190815260200160002060010160009054906101000a900473ffffffffffffffffffffffffffffffffffffffff1673ffffffffffffffffffffffffffffffffffffffff1614611475576040517f08c379a000000000000000000000000000000000000000000000000000000000815260040161146c906151bd565b60405180910390fd5b6001600e60008473ffffffffffffffffffffffffffffffffffffffff1673ffffffffffffffffffffffffffffffffffffffff16815260200190815260200160002060030160006101000a81548160ff021916908360028111156114d457fe5b02179055506001905092915050565b600061153682600160008673ffffffffffffffffffffffffffffffffffffffff1673ffffffffffffffffffffffffffffffffffffffff168152602001908152602001600020612f1390919063ffffffff16565b905092915050565b60003373ffffffffffffffffffffffffffffffffffffffff16600c60003373ffffffffffffffffffffffffffffffffffffffff1673ffffffffffffffffffffffffffffffffffffffff16815260200190815260200160002060000160009054906101000a900473ffffffffffffffffffffffffffffffffffffffff1673ffffffffffffffffffffffffffffffffffffffff1614611610576040517f08c379a00000000000000000000000000000000000000000000000000000000081526004016116079061507d565b60405180910390fd5b61161982612abb565b611658576040517f08c379a000000000000000000000000000000000000000000000000000000000815260040161164f9061505d565b60405180910390fd5b600c6000600d600085815260200190815260200160002060009054906101000a900473ffffffffffffffffffffffffffffffffffffffff1673ffffffffffffffffffffffffffffffffffffffff1673ffffffffffffffffffffffffffffffffffffffff168152602001908152602001600020600701549050919050565b6116f08383836040518060200160405280600081525061258b565b505050565b600061170083612abb565b61173f576040517f08c379a00000000000000000000000000000000000000000000000000000000081526004016117369061505d565b60405180910390fd5b600c6000600d600086815260200190815260200160002060009054906101000a900473ffffffffffffffffffffffffffffffffffffffff1673ffffffffffffffffffffffffffffffffffffffff1673ffffffffffffffffffffffffffffffffffffffff16815260200190815260200160002060080160009054906101000a900460ff16611801576040517f08c379a00000000000000000000000000000000000000000000000000000000081526004016117f8906152bd565b60405180910390fd5b600a6000815480929190600101919050555061181b613a75565b6040518060800160405280600a5481526020013373ffffffffffffffffffffffffffffffffffffffff1681526020018481526020016000600281111561185d57fe5b8152509050600f60008581526020019081526020016000208190806001815401808255809150506001900390600052602060002090600402016000909190919091506000820151816000015560208201518160010160006101000a81548173ffffffffffffffffffffffffffffffffffffffff021916908373ffffffffffffffffffffffffffffffffffffffff1602179055506040820151816002015560608201518160030160006101000a81548160ff0219169083600281111561191e57fe5b0217905550505080600e60003373ffffffffffffffffffffffffffffffffffffffff1673ffffffffffffffffffffffffffffffffffffffff1681526020019081526020016000206000820151816000015560208201518160010160006101000a81548173ffffffffffffffffffffffffffffffffffffffff021916908373ffffffffffffffffffffffffffffffffffffffff1602179055506040820151816002015560608201518160030160006101000a81548160ff021916908360028111156119e457fe5b02179055509050506000600e60003373ffffffffffffffffffffffffffffffffffffffff1673ffffffffffffffffffffffffffffffffffffffff16815260200190815260200160002060030160006101000a81548160ff02191690836002811115611a4b57fe5b02179055507f7e877c25a70c130974b67713039fab315752b05fa0c4a96b82c67a2a865633e881604051611a7f919061531d565b60405180910390a1600191505092915050565b600d6020528060005260406000206000915054906101000a900473ffffffffffffffffffffffffffffffffffffffff1681565b600080611adc836002612f2d90919063ffffffff16565b50905080915050919050565b60603373ffffffffffffffffffffffffffffffffffffffff16600c60003373ffffffffffffffffffffffffffffffffffffffff1673ffffffffffffffffffffffffffffffffffffffff16815260200190815260200160002060000160009054906101000a900473ffffffffffffffffffffffffffffffffffffffff1673ffffffffffffffffffffffffffffffffffffffff1614611bba576040517f08c379a0000000000000000000000000000000000000000000000000000000008152600401611bb19061507d565b60405180910390fd5b611bc382612abb565b611c02576040517f08c379a0000000000000000000000000000000000000000000000000000000008152600401611bf99061505d565b60405180910390fd5b6060600f6000848152602001908152602001600020805480602002602001604051908101604052809291908181526020016000905b82821015611d005783829060005260206000209060040201604051806080016040529081600082015481526020016001820160009054906101000a900473ffffffffffffffffffffffffffffffffffffffff1673ffffffffffffffffffffffffffffffffffffffff1673ffffffffffffffffffffffffffffffffffffffff168152602001600282015481526020016003820160009054906101000a900460ff166002811115611ce257fe5b6002811115611ced57fe5b8152505081526020019060010190611c37565b50505050905080915050919050565b6000611d3f82604051806060016040528060298152602001615694602991396002612f5c9092919063ffffffff16565b9050919050565b606060098054600181600116156101000203166002900480601f016020809104026020016040519081016040528092919081815260200182805460018160011615610100020316600290048015611dde5780601f10611db357610100808354040283529160200191611dde565b820191906000526020600020905b815481529060010190602001808311611dc157829003601f168201915b5050505050905090565b60008073ffffffffffffffffffffffffffffffffffffffff168273ffffffffffffffffffffffffffffffffffffffff161415611e59576040517f08c379a0000000000000000000000000000000000000000000000000000000008152600401611e509061515d565b60405180910390fd5b611ea0600160008473ffffffffffffffffffffffffffffffffffffffff1673ffffffffffffffffffffffffffffffffffffffff168152602001908152602001600020612f7b565b9050919050565b60003373ffffffffffffffffffffffffffffffffffffffff16600c60003373ffffffffffffffffffffffffffffffffffffffff1673ffffffffffffffffffffffffffffffffffffffff16815260200190815260200160002060000160009054906101000a900473ffffffffffffffffffffffffffffffffffffffff1673ffffffffffffffffffffffffffffffffffffffff1614611f79576040517f08c379a0000000000000000000000000000000000000000000000000000000008152600401611f709061507d565b60405180910390fd5b611f8282612abb565b611fc1576040517f08c379a0000000000000000000000000000000000000000000000000000000008152600401611fb89061505d565b60405180910390fd5b6001600c6000600d600086815260200190815260200160002060009054906101000a900473ffffffffffffffffffffffffffffffffffffffff1673ffffffffffffffffffffffffffffffffffffffff1673ffffffffffffffffffffffffffffffffffffffff16815260200190815260200160002060080160006101000a81548160ff0219169083151502179055507f8032abbce3e20f1f71d7656e10fa55d5ace8775b4f3137443a3ead7afa41f99d600160405161207f9190614fa0565b60405180910390a160019050919050565b6000600b600081548092919060010191905055506000600b5490506120b53382612f90565b6120bf818461311e565b6120c7613abe565b6040518061012001604052803373ffffffffffffffffffffffffffffffffffffffff1681526020018381526020018c81526020018b81526020018a815260200189815260200187815260200188815260200160001515815250905080600c60003373ffffffffffffffffffffffffffffffffffffffff1673ffffffffffffffffffffffffffffffffffffffff16815260200190815260200160002060008201518160000160006101000a81548173ffffffffffffffffffffffffffffffffffffffff021916908373ffffffffffffffffffffffffffffffffffffffff1602179055506020820151816001015560408201518160020190805190602001906121cf929190613b22565b5060608201518160030190805190602001906121ec929190613b22565b506080820151816004015560a0820151816005019080519060200190612213929190613b22565b5060c0820151816006019080519060200190612230929190613b22565b5060e082015181600701556101008201518160080160006101000a81548160ff02191690831515021790555090505033600d600084815260200190815260200160002060006101000a81548173ffffffffffffffffffffffffffffffffffffffff021916908373ffffffffffffffffffffffffffffffffffffffff1602179055507ffa03ffe6587e0a7e9bd928af78c97f05278a86fd931f4a304f5a5cfc73fb808a33838d8d8d8d8c8e60006040516122f199989796959493929190614e2c565b60405180910390a160019250505098975050505050505050565b600e6020528060005260406000206000915090508060000154908060010160009054906101000a900473ffffffffffffffffffffffffffffffffffffffff16908060020154908060030160009054906101000a900460ff16905084565b606060078054600181600116156101000203166002900480601f0160208091040260200160405190810160405280929190818152602001828054600181600116156101000203166002900480156124005780601f106123d557610100808354040283529160200191612400565b820191906000526020600020905b8154815290600101906020018083116123e357829003601f168201915b5050505050905090565b612412612ad8565b73ffffffffffffffffffffffffffffffffffffffff168273ffffffffffffffffffffffffffffffffffffffff161415612480576040517f08c379a0000000000000000000000000000000000000000000000000000000008152600401612477906150bd565b60405180910390fd5b806005600061248d612ad8565b73ffffffffffffffffffffffffffffffffffffffff1673ffffffffffffffffffffffffffffffffffffffff16815260200190815260200160002060008473ffffffffffffffffffffffffffffffffffffffff1673ffffffffffffffffffffffffffffffffffffffff16815260200190815260200160002060006101000a81548160ff0219169083151502179055508173ffffffffffffffffffffffffffffffffffffffff1661253a612ad8565b73ffffffffffffffffffffffffffffffffffffffff167f17307eab39ab6107e8899845ad3d59bd9653f200f220920489ca2b5937696c318360405161257f9190614fa0565b60405180910390a35050565b61259c612596612ad8565b83612bae565b6125db576040517f08c379a00000000000000000000000000000000000000000000000000000000081526004016125d2906152dd565b60405180910390fd5b6125e784848484613192565b50505050565b60606125f882612abb565b612637576040517f08c379a000000000000000000000000000000000000000000000000000000000815260040161262e9061527d565b60405180910390fd5b6060600860008481526020019081526020016000208054600181600116156101000203166002900480601f0160208091040260200160405190810160405280929190818152602001828054600181600116156101000203166002900480156126e05780601f106126b5576101008083540402835291602001916126e0565b820191906000526020600020905b8154815290600101906020018083116126c357829003601f168201915b5050505050905060006009805460018160011615610100020316600290049050141561270f5780915050612773565b6000815111156127445760098160405160200161272d929190614da1565b604051602081830303815290604052915050612773565b600961274f846131ee565b604051602001612760929190614da1565b6040516020818303038152906040529150505b919050565b60106020528060005260406000206000915054906101000a900460ff1681565b6000600560008473ffffffffffffffffffffffffffffffffffffffff1673ffffffffffffffffffffffffffffffffffffffff16815260200190815260200160002060008373ffffffffffffffffffffffffffffffffffffffff1673ffffffffffffffffffffffffffffffffffffffff16815260200190815260200160002060009054906101000a900460ff16905092915050565b60003373ffffffffffffffffffffffffffffffffffffffff16600c60003373ffffffffffffffffffffffffffffffffffffffff1673ffffffffffffffffffffffffffffffffffffffff16815260200190815260200160002060000160009054906101000a900473ffffffffffffffffffffffffffffffffffffffff1673ffffffffffffffffffffffffffffffffffffffff16146128fe576040517f08c379a00000000000000000000000000000000000000000000000000000000081526004016128f59061507d565b60405180910390fd5b61290783612abb565b612946576040517f08c379a000000000000000000000000000000000000000000000000000000000815260040161293d9061505d565b60405180910390fd5b8173ffffffffffffffffffffffffffffffffffffffff16600e60008473ffffffffffffffffffffffffffffffffffffffff1673ffffffffffffffffffffffffffffffffffffffff16815260200190815260200160002060010160009054906101000a900473ffffffffffffffffffffffffffffffffffffffff1673ffffffffffffffffffffffffffffffffffffffff1614612a16576040517f08c379a0000000000000000000000000000000000000000000000000000000008152600401612a0d906151bd565b60405180910390fd5b6002600e60008473ffffffffffffffffffffffffffffffffffffffff1673ffffffffffffffffffffffffffffffffffffffff16815260200190815260200160002060030160006101000a81548160ff02191690836002811115612a7557fe5b02179055506001905092915050565b7f0301d6e6cdc62074b4e7f3aafc65324715b4f93a4f0f3396d23c1b161dada7e6604051612ab19061503d565b60405180910390a1565b6000612ad182600261331e90919063ffffffff16565b9050919050565b600033905090565b816004600083815260200190815260200160002060006101000a81548173ffffffffffffffffffffffffffffffffffffffff021916908373ffffffffffffffffffffffffffffffffffffffff160217905550808273ffffffffffffffffffffffffffffffffffffffff16612b5383611d0f565b73ffffffffffffffffffffffffffffffffffffffff167f8c5be1e5ebec7d5bd14f71427d1e84f3dd0314c0f7b2291e5b200ac8c7c3b92560405160405180910390a45050565b6000612ba782600001613338565b9050919050565b6000612bb982612abb565b612bf8576040517f08c379a0000000000000000000000000000000000000000000000000000000008152600401612bef9061511d565b60405180910390fd5b6000612c0383611d0f565b90508073ffffffffffffffffffffffffffffffffffffffff168473ffffffffffffffffffffffffffffffffffffffff161480612c7257508373ffffffffffffffffffffffffffffffffffffffff16612c5a84610978565b73ffffffffffffffffffffffffffffffffffffffff16145b80612c835750612c828185612798565b5b91505092915050565b8273ffffffffffffffffffffffffffffffffffffffff16612cac82611d0f565b73ffffffffffffffffffffffffffffffffffffffff1614612d02576040517f08c379a0000000000000000000000000000000000000000000000000000000008152600401612cf99061523d565b60405180910390fd5b600073ffffffffffffffffffffffffffffffffffffffff168273ffffffffffffffffffffffffffffffffffffffff161415612d72576040517f08c379a0000000000000000000000000000000000000000000000000000000008152600401612d699061509d565b60405180910390fd5b612d7d838383613349565b612d88600082612ae0565b612dd981600160008673ffffffffffffffffffffffffffffffffffffffff1673ffffffffffffffffffffffffffffffffffffffff16815260200190815260200160002061334e90919063ffffffff16565b50612e2b81600160008573ffffffffffffffffffffffffffffffffffffffff1673ffffffffffffffffffffffffffffffffffffffff16815260200190815260200160002061336890919063ffffffff16565b50612e42818360026133829092919063ffffffff16565b50808273ffffffffffffffffffffffffffffffffffffffff168473ffffffffffffffffffffffffffffffffffffffff167fddf252ad1be2c89b69c2b068fc378daa952ba7f163c4a11628f55a4df523b3ef60405160405180910390a4505050565b600080831415612eb65760009050612f0d565b6000828402905082848281612ec757fe5b0414612f08576040517f08c379a0000000000000000000000000000000000000000000000000000000008152600401612eff906151dd565b60405180910390fd5b809150505b92915050565b6000612f2283600001836133b7565b60001c905092915050565b600080600080612f408660000186613424565b915091508160001c8160001c8090509350935050509250929050565b6000612f6f846000018460001b846134a7565b60001c90509392505050565b6000612f8982600001613538565b9050919050565b600073ffffffffffffffffffffffffffffffffffffffff168273ffffffffffffffffffffffffffffffffffffffff161415613000576040517f08c379a0000000000000000000000000000000000000000000000000000000008152600401612ff79061519d565b60405180910390fd5b61300981612abb565b15613049576040517f08c379a00000000000000000000000000000000000000000000000000000000081526004016130409061501d565b60405180910390fd5b61305560008383613349565b6130a681600160008573ffffffffffffffffffffffffffffffffffffffff1673ffffffffffffffffffffffffffffffffffffffff16815260200190815260200160002061336890919063ffffffff16565b506130bd818360026133829092919063ffffffff16565b50808273ffffffffffffffffffffffffffffffffffffffff16600073ffffffffffffffffffffffffffffffffffffffff167fddf252ad1be2c89b69c2b068fc378daa952ba7f163c4a11628f55a4df523b3ef60405160405180910390a45050565b61312782612abb565b613166576040517f08c379a000000000000000000000000000000000000000000000000000000000815260040161315d9061521d565b60405180910390fd5b8060086000848152602001908152602001600020908051906020019061318d929190613ba2565b505050565b61319d848484612c8c565b6131a984848484613549565b6131e8576040517f08c379a00000000000000000000000000000000000000000000000000000000081526004016131df90614ffd565b60405180910390fd5b50505050565b60606000821415613236576040518060400160405280600181526020017f30000000000000000000000000000000000000000000000000000000000000008152509050613319565b600082905060005b60008214613260578080600101915050600a828161325857fe5b04915061323e565b6060816040519080825280601f01601f1916602001820160405280156132955781602001600182028038833980820191505090505b50905060006001830390508593505b6000841461331157600a84816132b657fe5b0660300160f81b828280600190039350815181106132d057fe5b60200101907effffffffffffffffffffffffffffffffffffffffffffffffffffffffffffff1916908160001a905350600a848161330957fe5b0493506132a4565b819450505050505b919050565b6000613330836000018360001b6136ad565b905092915050565b600081600001805490509050919050565b505050565b6000613360836000018360001b6136d0565b905092915050565b600061337a836000018360001b6137b8565b905092915050565b60006133ae846000018460001b8473ffffffffffffffffffffffffffffffffffffffff1660001b613828565b90509392505050565b600081836000018054905011613402576040517f08c379a00000000000000000000000000000000000000000000000000000000081526004016133f990614fdd565b60405180910390fd5b82600001828154811061341157fe5b9060005260206000200154905092915050565b60008082846000018054905011613470576040517f08c379a00000000000000000000000000000000000000000000000000000000081526004016134679061517d565b60405180910390fd5b600084600001848154811061348157fe5b906000526020600020906002020190508060000154816001015492509250509250929050565b60008084600101600085815260200190815260200160002054905060008114158390613509576040517f08c379a00000000000000000000000000000000000000000000000000000000081526004016135009190614fbb565b60405180910390fd5b5084600001600182038154811061351c57fe5b9060005260206000209060020201600101549150509392505050565b600081600001805490509050919050565b600061356a8473ffffffffffffffffffffffffffffffffffffffff16613904565b61357757600190506136a5565b606061363e63150b7a0260e01b61358c612ad8565b8887876040516024016135a29493929190614de0565b604051602081830303815290604052907bffffffffffffffffffffffffffffffffffffffffffffffffffffffff19166020820180517bffffffffffffffffffffffffffffffffffffffffffffffffffffffff8381831617835250505050604051806060016040528060328152602001615662603291398773ffffffffffffffffffffffffffffffffffffffff166139179092919063ffffffff16565b90506000818060200190516136569190810190613f28565b905063150b7a0260e01b7bffffffffffffffffffffffffffffffffffffffffffffffffffffffff1916817bffffffffffffffffffffffffffffffffffffffffffffffffffffffff191614925050505b949350505050565b600080836001016000848152602001908152602001600020541415905092915050565b600080836001016000848152602001908152602001600020549050600081146137ac576000600182039050600060018660000180549050039050600086600001828154811061371b57fe5b906000526020600020015490508087600001848154811061373857fe5b906000526020600020018190555060018301876001016000838152602001908152602001600020819055508660000180548061377057fe5b600190038181906000526020600020016000905590558660010160008781526020019081526020016000206000905560019450505050506137b2565b60009150505b92915050565b60006137c4838361392f565b61381d578260000182908060018154018082558091505060019003906000526020600020016000909190919091505582600001805490508360010160008481526020019081526020016000208190555060019050613822565b600090505b92915050565b60008084600101600085815260200190815260200160002054905060008114156138cf578460000160405180604001604052808681526020018581525090806001815401808255809150506001900390600052602060002090600202016000909190919091506000820151816000015560208201518160010155505084600001805490508560010160008681526020019081526020016000208190555060019150506138fd565b828560000160018303815481106138e257fe5b90600052602060002090600202016001018190555060009150505b9392505050565b600080823b905060008111915050919050565b60606139268484600085613952565b90509392505050565b600080836001016000848152602001908152602001600020541415905092915050565b606061395d85613904565b61399c576040517f08c379a0000000000000000000000000000000000000000000000000000000008152600401613993906152fd565b60405180910390fd5b600060608673ffffffffffffffffffffffffffffffffffffffff1685876040516139c69190614d8a565b60006040518083038185875af1925050503d8060008114613a03576040519150601f19603f3d011682016040523d82523d6000602084013e613a08565b606091505b50915091508115613a1d578092505050613a6d565b600081511115613a305780518082602001fd5b836040517f08c379a0000000000000000000000000000000000000000000000000000000008152600401613a649190614fbb565b60405180910390fd5b949350505050565b604051806080016040528060008152602001600073ffffffffffffffffffffffffffffffffffffffff1681526020016000815260200160006002811115613ab857fe5b81525090565b604051806101200160405280600073ffffffffffffffffffffffffffffffffffffffff168152602001600081526020016060815260200160608152602001600081526020016060815260200160608152602001600081526020016000151581525090565b828054600181600116156101000203166002900490600052602060002090601f016020900481019282601f10613b6357805160ff1916838001178555613b91565b82800160010185558215613b91579182015b82811115613b90578251825591602001919060010190613b75565b5b509050613b9e9190613c22565b5090565b828054600181600116156101000203166002900490600052602060002090601f016020900481019282601f10613be357805160ff1916838001178555613c11565b82800160010185558215613c11579182015b82811115613c10578251825591602001919060010190613bf5565b5b509050613c1e9190613c22565b5090565b613c4491905b80821115613c40576000816000905550600101613c28565b5090565b90565b600081359050613c5681615605565b92915050565b600081359050613c6b8161561c565b92915050565b600081359050613c8081615633565b92915050565b600081519050613c9581615633565b92915050565b600082601f830112613cac57600080fd5b8135613cbf613cba826153c5565b615398565b91508082526020830160208301858383011115613cdb57600080fd5b613ce68382846155a5565b50505092915050565b600082601f830112613d0057600080fd5b8135613d13613d0e826153f1565b615398565b91508082526020830160208301858383011115613d2f57600080fd5b613d3a8382846155a5565b50505092915050565b600081359050613d528161564a565b92915050565b600060208284031215613d6a57600080fd5b6000613d7884828501613c47565b91505092915050565b60008060408385031215613d9457600080fd5b6000613da285828601613c47565b9250506020613db385828601613c47565b9150509250929050565b600080600060608486031215613dd257600080fd5b6000613de086828701613c47565b9350506020613df186828701613c47565b9250506040613e0286828701613d43565b9150509250925092565b60008060008060808587031215613e2257600080fd5b6000613e3087828801613c47565b9450506020613e4187828801613c47565b9350506040613e5287828801613d43565b925050606085013567ffffffffffffffff811115613e6f57600080fd5b613e7b87828801613c9b565b91505092959194509250565b60008060408385031215613e9a57600080fd5b6000613ea885828601613c47565b9250506020613eb985828601613c5c565b9150509250929050565b60008060408385031215613ed657600080fd5b6000613ee485828601613c47565b9250506020613ef585828601613d43565b9150509250929050565b600060208284031215613f1157600080fd5b6000613f1f84828501613c71565b91505092915050565b600060208284031215613f3a57600080fd5b6000613f4884828501613c86565b91505092915050565b600080600080600080600080610100898b031215613f6e57600080fd5b600089013567ffffffffffffffff811115613f8857600080fd5b613f948b828c01613cef565b985050602089013567ffffffffffffffff811115613fb157600080fd5b613fbd8b828c01613cef565b9750506040613fce8b828c01613d43565b965050606089013567ffffffffffffffff811115613feb57600080fd5b613ff78b828c01613cef565b95505060806140088b828c01613d43565b94505060a089013567ffffffffffffffff81111561402557600080fd5b6140318b828c01613cef565b93505060c06140428b828c01613c5c565b92505060e089013567ffffffffffffffff81111561405f57600080fd5b61406b8b828c01613cef565b9150509295985092959890939650565b60006020828403121561408d57600080fd5b600061409b84828501613d43565b91505092915050565b600080604083850312156140b757600080fd5b60006140c585828601613d43565b92505060206140d685828601613c47565b9150509250929050565b600080604083850312156140f357600080fd5b600061410185828601613d43565b925050602061411285828601613d43565b9150509250929050565b60006141288383614d17565b60808301905092915050565b61413d8161555d565b82525050565b61414c816154d6565b82525050565b61415b816154c4565b82525050565b61416a816154c4565b82525050565b600061417b82615442565b614185818561547b565b93506141908361541d565b8060005b838110156141c15781516141a8888261411c565b97506141b38361546e565b925050600181019050614194565b5085935050505092915050565b6141d7816154e8565b82525050565b60006141e88261544d565b6141f2818561548c565b93506142028185602086016155b4565b61420b816155e7565b840191505092915050565b60006142218261544d565b61422b818561549d565b935061423b8185602086016155b4565b80840191505092915050565b6142508161556f565b82525050565b61425f8161556f565b82525050565b600061427082615463565b61427a81856154a8565b935061428a8185602086016155b4565b614293816155e7565b840191505092915050565b60006142a982615463565b6142b381856154b9565b93506142c38185602086016155b4565b80840191505092915050565b60006142da82615458565b6142e481856154a8565b93506142f48185602086016155b4565b6142fd816155e7565b840191505092915050565b600081546001811660008114614325576001811461434a5761438e565b607f600283041661433681876154b9565b955060ff198316865280860193505061438e565b6002820461435881876154b9565b95506143638561542d565b60005b8281101561438557815481890152600182019150602081019050614366565b82880195505050505b505092915050565b60006143a36022836154a8565b91507f456e756d657261626c655365743a20696e646578206f7574206f6620626f756e60008301527f64730000000000000000000000000000000000000000000000000000000000006020830152604082019050919050565b60006144096032836154a8565b91507f4552433732313a207472616e7366657220746f206e6f6e20455243373231526560008301527f63656976657220696d706c656d656e74657200000000000000000000000000006020830152604082019050919050565b600061446f601c836154a8565b91507f4552433732313a20746f6b656e20616c7265616479206d696e746564000000006000830152602082019050919050565b60006144af6004836154a8565b91507f4173696d000000000000000000000000000000000000000000000000000000006000830152602082019050919050565b60006144ef6026836154a8565b91507f4572726f723a20494e56414c49442050726f7065727479206964206f7220746f60008301527f6b656e20696400000000000000000000000000000000000000000000000000006020830152604082019050919050565b60006145556023836154a8565b91507f4572726f723a204f6e6c792050726f7065727479204f776e65722072756e207460008301527f68697300000000000000000000000000000000000000000000000000000000006020830152604082019050919050565b60006145bb6024836154a8565b91507f4552433732313a207472616e7366657220746f20746865207a65726f2061646460008301527f72657373000000000000000000000000000000000000000000000000000000006020830152604082019050919050565b60006146216019836154a8565b91507f4552433732313a20617070726f766520746f2063616c6c6572000000000000006000830152602082019050919050565b60006146616038836154a8565b91507f4572726f723a20536f7272792c2050726963696e67206f662070726f7065727460008301527f79206e6f74206d6174636865642077697468206f6666657200000000000000006020830152604082019050919050565b60006146c7603e836154a8565b91507f4572726f723a20546869732050726f7065727479206e6f7420666f722073616c60008301527f6520284f666665722072657175657374206e6f7420617070726f7665642900006020830152604082019050919050565b600061472d602c836154a8565b91507f4552433732313a206f70657261746f7220717565727920666f72206e6f6e657860008301527f697374656e7420746f6b656e00000000000000000000000000000000000000006020830152604082019050919050565b60006147936038836154a8565b91507f4552433732313a20617070726f76652063616c6c6572206973206e6f74206f7760008301527f6e6572206e6f7220617070726f76656420666f7220616c6c00000000000000006020830152604082019050919050565b60006147f9602a836154a8565b91507f4552433732313a2062616c616e636520717565727920666f7220746865207a6560008301527f726f2061646472657373000000000000000000000000000000000000000000006020830152604082019050919050565b600061485f6022836154a8565b91507f456e756d657261626c654d61703a20696e646578206f7574206f6620626f756e60008301527f64730000000000000000000000000000000000000000000000000000000000006020830152604082019050919050565b60006148c56020836154a8565b91507f4552433732313a206d696e7420746f20746865207a65726f20616464726573736000830152602082019050919050565b6000614905601d836154a8565b91507f4572726f723a20494e56414c49442062757965722061646472657373200000006000830152602082019050919050565b60006149456021836154a8565b91507f536166654d6174683a206d756c7469706c69636174696f6e206f766572666c6f60008301527f77000000000000000000000000000000000000000000000000000000000000006020830152604082019050919050565b60006149ab602c836154a8565b91507f4552433732313a20617070726f76656420717565727920666f72206e6f6e657860008301527f697374656e7420746f6b656e00000000000000000000000000000000000000006020830152604082019050919050565b6000614a11602c836154a8565b91507f4552433732314d657461646174613a2055524920736574206f66206e6f6e657860008301527f697374656e7420746f6b656e00000000000000000000000000000000000000006020830152604082019050919050565b6000614a776029836154a8565b91507f4552433732313a207472616e73666572206f6620746f6b656e2074686174206960008301527f73206e6f74206f776e00000000000000000000000000000000000000000000006020830152604082019050919050565b6000614add601d836154a8565b91507f4572726f723a204574686572287329206e6f742070726f7669646564200000006000830152602082019050919050565b6000614b1d602f836154a8565b91507f4552433732314d657461646174613a2055524920717565727920666f72206e6f60008301527f6e6578697374656e7420746f6b656e00000000000000000000000000000000006020830152604082019050919050565b6000614b836021836154a8565b91507f4552433732313a20617070726f76616c20746f2063757272656e74206f776e6560008301527f72000000000000000000000000000000000000000000000000000000000000006020830152604082019050919050565b6000614be9601f836154a8565b91507f4572726f723a546869732050726f7065727479206e6f74206f6e2053616c65006000830152602082019050919050565b6000614c296031836154a8565b91507f4552433732313a207472616e736665722063616c6c6572206973206e6f74206f60008301527f776e6572206e6f7220617070726f7665640000000000000000000000000000006020830152604082019050919050565b6000614c8f601d836154a8565b91507f416464726573733a2063616c6c20746f206e6f6e2d636f6e74726163740000006000830152602082019050919050565b608082016000820151614cd86000850182614d6c565b506020820151614ceb6020850182614152565b506040820151614cfe6040850182614d6c565b506060820151614d116060850182614247565b50505050565b608082016000820151614d2d6000850182614d6c565b506020820151614d406020850182614152565b506040820151614d536040850182614d6c565b506060820151614d666060850182614247565b50505050565b614d7581615553565b82525050565b614d8481615553565b82525050565b6000614d968284614216565b915081905092915050565b6000614dad8285614308565b9150614db9828461429e565b91508190509392505050565b6000602082019050614dda6000830184614161565b92915050565b6000608082019050614df56000830187614143565b614e026020830186614161565b614e0f6040830185614d7b565b8181036060830152614e2181846141dd565b905095945050505050565b600061012082019050614e42600083018c614134565b614e4f602083018b614d7b565b8181036040830152614e61818a614265565b90508181036060830152614e758189614265565b9050614e846080830188614d7b565b81810360a0830152614e968187614265565b905081810360c0830152614eaa8186614265565b9050614eb960e0830185614d7b565b614ec76101008301846141ce565b9a9950505050505050505050565b600061012082019050614eeb600083018c614161565b614ef8602083018b614d7b565b8181036040830152614f0a818a6142cf565b90508181036060830152614f1e81896142cf565b9050614f2d6080830188614d7b565b81810360a0830152614f3f81876142cf565b905081810360c0830152614f5381866142cf565b9050614f6260e0830185614d7b565b614f706101008301846141ce565b9a9950505050505050505050565b60006020820190508181036000830152614f988184614170565b905092915050565b6000602082019050614fb560008301846141ce565b92915050565b60006020820190508181036000830152614fd58184614265565b905092915050565b60006020820190508181036000830152614ff681614396565b9050919050565b60006020820190508181036000830152615016816143fc565b9050919050565b6000602082019050818103600083015261503681614462565b9050919050565b60006020820190508181036000830152615056816144a2565b9050919050565b60006020820190508181036000830152615076816144e2565b9050919050565b6000602082019050818103600083015261509681614548565b9050919050565b600060208201905081810360008301526150b6816145ae565b9050919050565b600060208201905081810360008301526150d681614614565b9050919050565b600060208201905081810360008301526150f681614654565b9050919050565b60006020820190508181036000830152615116816146ba565b9050919050565b6000602082019050818103600083015261513681614720565b9050919050565b6000602082019050818103600083015261515681614786565b9050919050565b60006020820190508181036000830152615176816147ec565b9050919050565b6000602082019050818103600083015261519681614852565b9050919050565b600060208201905081810360008301526151b6816148b8565b9050919050565b600060208201905081810360008301526151d6816148f8565b9050919050565b600060208201905081810360008301526151f681614938565b9050919050565b600060208201905081810360008301526152168161499e565b9050919050565b6000602082019050818103600083015261523681614a04565b9050919050565b6000602082019050818103600083015261525681614a6a565b9050919050565b6000602082019050818103600083015261527681614ad0565b9050919050565b6000602082019050818103600083015261529681614b10565b9050919050565b600060208201905081810360008301526152b681614b76565b9050919050565b600060208201905081810360008301526152d681614bdc565b9050919050565b600060208201905081810360008301526152f681614c1c565b9050919050565b6000602082019050818103600083015261531681614c82565b9050919050565b60006080820190506153326000830184614cc2565b92915050565b600060208201905061534d6000830184614d7b565b92915050565b60006080820190506153686000830187614d7b565b6153756020830186614161565b6153826040830185614d7b565b61538f6060830184614256565b95945050505050565b6000604051905081810181811067ffffffffffffffff821117156153bb57600080fd5b8060405250919050565b600067ffffffffffffffff8211156153dc57600080fd5b601f19601f8301169050602081019050919050565b600067ffffffffffffffff82111561540857600080fd5b601f19601f8301169050602081019050919050565b6000819050602082019050919050565b60008190508160005260206000209050919050565b600081519050919050565b600081519050919050565b600081519050919050565b600081519050919050565b6000602082019050919050565b600082825260208201905092915050565b600082825260208201905092915050565b600081905092915050565b600082825260208201905092915050565b600081905092915050565b60006154cf82615533565b9050919050565b60006154e182615533565b9050919050565b60008115159050919050565b60007fffffffff0000000000000000000000000000000000000000000000000000000082169050919050565b600081905061552e826155f8565b919050565b600073ffffffffffffffffffffffffffffffffffffffff82169050919050565b6000819050919050565b600061556882615581565b9050919050565b600061557a82615520565b9050919050565b600061558c82615593565b9050919050565b600061559e82615533565b9050919050565b82818337600083830152505050565b60005b838110156155d25780820151818401526020810190506155b7565b838111156155e1576000848401525b50505050565b6000601f19601f8301169050919050565b6003811061560257fe5b50565b61560e816154c4565b811461561957600080fd5b50565b615625816154e8565b811461563057600080fd5b50565b61563c816154f4565b811461564757600080fd5b50565b61565381615553565b811461565e57600080fd5b5056fe4552433732313a207472616e7366657220746f206e6f6e20455243373231526563656976657220696d706c656d656e7465724552433732313a206f776e657220717565727920666f72206e6f6e6578697374656e7420746f6b656ea2646970667358221220b0e91e195372317c66367ee353faa9eba58c24c1eb9ba2c2f2b0cb9e7b6435b664736f6c63430006020033",
  "source": "pragma solidity ^0.6.0;\r\npragma experimental ABIEncoderV2;\r\n//smart-estate\\node_modules\\@openzeppelin\\contracts\\token\\ERC721\\ERC721.sol\r\n\r\nimport \"@openzeppelin/contracts/token/ERC721/ERC721.sol\";\r\n\r\ncontract SmartEstate is ERC721 {\r\n   uint256 private buyerId;\r\n    uint256 private tokenId;\r\n    event Transfer(address,address,address);\r\n    event property_Pricing(uint256);\r\n    enum offerApproval {pending, approved, rejected}\r\n    event saleStatus(bool);\r\n    struct PropertyDetails {\r\n        address sellerAddress;\r\n        uint256 propertyId;\r\n        string propertyAddress;\r\n        string city;\r\n        uint256 room;\r\n        string area;\r\n        string propertyType;\r\n        uint256 price;\r\n        bool saleStatus;\r\n    }\r\n    event property_detail(address,\r\n        uint256,\r\n        string,\r\n        string,\r\n        uint256,\r\n        string,\r\n        string,\r\n        uint256,\r\n        bool);\r\n\r\n    struct BuyerInfo {\r\n        uint256 bId;\r\n        address buyerAddress;\r\n        uint256 buyerOffer;\r\n        offerApproval request;\r\n    }\r\n    event buyer_Info(BuyerInfo);\r\n    \r\n    modifier propertyOwner() {\r\n        require(\r\n            OnlyOwner[msg.sender].sellerAddress == msg.sender,\r\n            \"Error: Only Property Owner run this\"\r\n        );\r\n        _;\r\n    }\r\n\r\n    mapping(address => PropertyDetails) public OnlyOwner;\r\n    mapping(uint256 => address) public PropertyList;\r\n    mapping(address => BuyerInfo) public BuyerList;\r\n    mapping(uint256 => BuyerInfo[]) public AllBuyers;\r\n    mapping(uint256 => bool) public Offers;\r\n\r\n    constructor() public ERC721(\"Smart Estate Properties\", \"ESP\") {}\r\n\r\n    function RegisterProperty(\r\n        string memory _propertyAddress,\r\n        string memory _city,\r\n        uint256 _room,\r\n        string memory _area,\r\n        uint256 _priceInEther,\r\n        string memory _propertyType,\r\n        bool _saleStatus,\r\n        string memory _tokenUri\r\n    ) public returns (bool) {\r\n        tokenId++;\r\n        uint256 thisId = tokenId;\r\n        _mint(msg.sender, thisId);\r\n        _setTokenURI(thisId, _tokenUri);\r\n\r\n        PropertyDetails memory tempDetails;\r\n\r\n        tempDetails = PropertyDetails({\r\n            sellerAddress: msg.sender,\r\n            propertyId: thisId,\r\n            propertyAddress: _propertyAddress,\r\n            city: _city,\r\n            room: _room,\r\n            area: _area,\r\n            propertyType: _propertyType,\r\n            price: _priceInEther,\r\n            saleStatus: false\r\n        });\r\n        OnlyOwner[msg.sender] = tempDetails;\r\n        PropertyList[thisId] = msg.sender;\r\n        emit property_detail( msg.sender, thisId, _propertyAddress, _city,_room, _area, _propertyType, _priceInEther, false);\r\n        return true;\r\n    }\r\n\r\n    function EnablePropertySale(uint256 PropertyId_TokenId)\r\n        public\r\n        propertyOwner\r\n        returns (bool)\r\n    {\r\n        require(\r\n            _exists(PropertyId_TokenId),\r\n            \"Error: INVALID Property id or token id\"\r\n        );\r\n        OnlyOwner[PropertyList[PropertyId_TokenId]].saleStatus = true;\r\n        emit saleStatus(true);\r\n        return true;\r\n    }\r\n\r\n    event name1(string);\r\n    function test() public  {\r\n    emit name1(\"Asim\");\r\n    }\r\n\r\n    function PropertyPricing(uint256 PropertyId_TokenId)view\r\n        public\r\n        propertyOwner\r\n        returns (uint256)\r\n    {\r\n        require(\r\n            _exists(PropertyId_TokenId),\r\n            \"Error: INVALID Property id or token id\"\r\n        );\r\n        // uint256 price = property_Pricing(OnlyOwner[PropertyList[PropertyId_TokenId]].price);\r\n        // emit property_Pricing(OnlyOwner[PropertyList[PropertyId_TokenId]].price);   \r\n        return OnlyOwner[PropertyList[PropertyId_TokenId]].price;\r\n    }\r\n\r\n    function BuyingRequest(uint256 PropertyId_TokenId, uint256 offerInEthers)\r\n        public\r\n        returns (bool)\r\n    {\r\n        require(\r\n            _exists(PropertyId_TokenId),\r\n            \"Error: INVALID Property id or token id\"\r\n        );\r\n        require(\r\n            OnlyOwner[PropertyList[PropertyId_TokenId]].saleStatus,\r\n            \"Error:This Property not on Sale\"\r\n        );\r\n\r\n        buyerId++;\r\n\r\n        BuyerInfo memory tempDetails;\r\n        tempDetails = BuyerInfo({\r\n            bId: buyerId,\r\n            buyerAddress: msg.sender,\r\n            buyerOffer: offerInEthers,\r\n            request: offerApproval.pending\r\n        });\r\n        AllBuyers[PropertyId_TokenId].push(tempDetails);\r\n        BuyerList[msg.sender] = tempDetails;\r\n        BuyerList[msg.sender].request = offerApproval.pending;\r\n        emit buyer_Info(tempDetails);\r\n        return true;\r\n    }\r\n\r\n    function OfferStatus(uint256 PropertyId_TokenId)\r\n        public\r\n        propertyOwner\r\n        returns (BuyerInfo[] memory)\r\n    {\r\n        require(\r\n            _exists(PropertyId_TokenId),\r\n            \"Error: INVALID Property id or token id\"\r\n        );\r\n        BuyerInfo[] memory tempDetails;\r\n        tempDetails = AllBuyers[PropertyId_TokenId];\r\n        return tempDetails;\r\n    }\r\n\r\n    function OfferReject(uint256 PropertyId_TokenId, address _buyerAddress)\r\n        public\r\n        propertyOwner\r\n        returns (bool)\r\n    {\r\n        require(\r\n            _exists(PropertyId_TokenId),\r\n            \"Error: INVALID Property id or token id\"\r\n        );\r\n        require(\r\n            BuyerList[_buyerAddress].buyerAddress == _buyerAddress,\r\n            \"Error: INVALID buyer address \"\r\n        );\r\n        BuyerList[_buyerAddress].request = offerApproval.rejected;\r\n        return true;\r\n    }\r\n\r\n    function OfferAccept(uint256 PropertyId_TokenId, address _buyerAddress)\r\n        public\r\n        propertyOwner\r\n        returns (bool)\r\n    {\r\n        require(\r\n            _exists(PropertyId_TokenId),\r\n            \"Error: INVALID Property id or token id\"\r\n        );\r\n        require(\r\n            BuyerList[_buyerAddress].buyerAddress == _buyerAddress,\r\n            \"Error: INVALID buyer address \"\r\n        );\r\n        BuyerList[_buyerAddress].request = offerApproval.approved;\r\n        return true;\r\n    }\r\n\r\n    function BuyProperty(uint256 PropertyId_TokenId)\r\n        public\r\n        payable\r\n        returns (bool)\r\n    {\r\n        require(\r\n            _exists(PropertyId_TokenId),\r\n            \"Error: INVALID Property id or token id\"\r\n        );\r\n        require(\r\n            BuyerList[msg.sender].buyerAddress == msg.sender,\r\n            \"Error: INVALID buyer address \"\r\n        );\r\n        require(\r\n            BuyerList[msg.sender].request == offerApproval.approved,\r\n            \"Error: This Property not for sale (Offer request not approved)\"\r\n        );\r\n        require(msg.value > 0, \"Error: Ether(s) not provided \");\r\n        uint256 PropertyPrice = BuyerList[msg.sender].buyerOffer.mul(\r\n            1 * 10**18\r\n        );\r\n        require(\r\n            PropertyPrice == msg.value,\r\n            \"Error: Sorry, Pricing of property not matched with offer\"\r\n        );\r\n        address BuyerAddress = OnlyOwner[PropertyList[PropertyId_TokenId]]\r\n            .sellerAddress;\r\n        _transfer(BuyerAddress, msg.sender, PropertyId_TokenId);\r\n        emit Transfer(BuyerAddress, msg.sender, PropertyId_TokenId);\r\n        return true;\r\n        \r\n    }\r\n}\r\n",
  "sourcePath": "H:/Local D/SmartEstate_OwnershipTransfer/src/contracts/SmartEstate.sol",
  "compiler": {
    "name": "solc",
    "version": "0.6.2+commit.bacdbe57.Emscripten.clang"
  },
  "schemaVersion": "3.3.2",
  "updatedAt": "2020-12-07T20:21:57.893Z",
  "networkType": "ethereum",
  "devdoc": {
    "methods": {
      "approve(address,uint256)": {
        "details": "See {IERC721-approve}."
      },
      "balanceOf(address)": {
        "details": "See {IERC721-balanceOf}."
      },
      "baseURI()": {
        "details": "Returns the base URI set via {_setBaseURI}. This will be automatically added as a prefix in {tokenURI} to each token's URI, or to the token ID if no specific URI is set for that token ID."
      },
      "getApproved(uint256)": {
        "details": "See {IERC721-getApproved}."
      },
      "isApprovedForAll(address,address)": {
        "details": "See {IERC721-isApprovedForAll}."
      },
      "name()": {
        "details": "See {IERC721Metadata-name}."
      },
      "ownerOf(uint256)": {
        "details": "See {IERC721-ownerOf}."
      },
      "safeTransferFrom(address,address,uint256)": {
        "details": "See {IERC721-safeTransferFrom}."
      },
      "safeTransferFrom(address,address,uint256,bytes)": {
        "details": "See {IERC721-safeTransferFrom}."
      },
      "setApprovalForAll(address,bool)": {
        "details": "See {IERC721-setApprovalForAll}."
      },
      "supportsInterface(bytes4)": {
        "details": "See {IERC165-supportsInterface}.     * Time complexity O(1), guaranteed to always use less than 30 000 gas."
      },
      "symbol()": {
        "details": "See {IERC721Metadata-symbol}."
      },
      "tokenByIndex(uint256)": {
        "details": "See {IERC721Enumerable-tokenByIndex}."
      },
      "tokenOfOwnerByIndex(address,uint256)": {
        "details": "See {IERC721Enumerable-tokenOfOwnerByIndex}."
      },
      "tokenURI(uint256)": {
        "details": "See {IERC721Metadata-tokenURI}."
      },
      "totalSupply()": {
        "details": "See {IERC721Enumerable-totalSupply}."
      },
      "transferFrom(address,address,uint256)": {
        "details": "See {IERC721-transferFrom}."
      }
    }
  },
  "userdoc": {
    "methods": {}
  }
}