{
  "contractName": "SmartEstate",
  "abi": [
    {
      "inputs": [],
      "stateMutability": "nonpayable",
      "type": "constructor"
    },
    {
      "anonymous": false,
      "inputs": [
        {
          "indexed": true,
          "internalType": "address",
          "name": "owner",
          "type": "address"
        },
        {
          "indexed": true,
          "internalType": "address",
          "name": "approved",
          "type": "address"
        },
        {
          "indexed": true,
          "internalType": "uint256",
          "name": "tokenId",
          "type": "uint256"
        }
      ],
      "name": "Approval",
      "type": "event"
    },
    {
      "anonymous": false,
      "inputs": [
        {
          "indexed": true,
          "internalType": "address",
          "name": "owner",
          "type": "address"
        },
        {
          "indexed": true,
          "internalType": "address",
          "name": "operator",
          "type": "address"
        },
        {
          "indexed": false,
          "internalType": "bool",
          "name": "approved",
          "type": "bool"
        }
      ],
      "name": "ApprovalForAll",
      "type": "event"
    },
    {
      "anonymous": false,
      "inputs": [
        {
          "indexed": true,
          "internalType": "address",
          "name": "from",
          "type": "address"
        },
        {
          "indexed": true,
          "internalType": "address",
          "name": "to",
          "type": "address"
        },
        {
          "indexed": true,
          "internalType": "uint256",
          "name": "tokenId",
          "type": "uint256"
        }
      ],
      "name": "Transfer",
      "type": "event"
    },
    {
      "inputs": [
        {
          "internalType": "uint256",
          "name": "",
          "type": "uint256"
        },
        {
          "internalType": "uint256",
          "name": "",
          "type": "uint256"
        }
      ],
      "name": "AllBuyers",
      "outputs": [
        {
          "internalType": "uint256",
          "name": "bId",
          "type": "uint256"
        },
        {
          "internalType": "address",
          "name": "buyerAddress",
          "type": "address"
        },
        {
          "internalType": "uint256",
          "name": "buyerOffer",
          "type": "uint256"
        },
        {
          "internalType": "enum SmartEstate.offerApproval",
          "name": "request",
          "type": "uint8"
        }
      ],
      "stateMutability": "view",
      "type": "function",
      "constant": true
    },
    {
      "inputs": [
        {
          "internalType": "address",
          "name": "",
          "type": "address"
        }
      ],
      "name": "BuyerList",
      "outputs": [
        {
          "internalType": "uint256",
          "name": "bId",
          "type": "uint256"
        },
        {
          "internalType": "address",
          "name": "buyerAddress",
          "type": "address"
        },
        {
          "internalType": "uint256",
          "name": "buyerOffer",
          "type": "uint256"
        },
        {
          "internalType": "enum SmartEstate.offerApproval",
          "name": "request",
          "type": "uint8"
        }
      ],
      "stateMutability": "view",
      "type": "function",
      "constant": true
    },
    {
      "inputs": [
        {
          "internalType": "uint256",
          "name": "",
          "type": "uint256"
        }
      ],
      "name": "Offers",
      "outputs": [
        {
          "internalType": "bool",
          "name": "",
          "type": "bool"
        }
      ],
      "stateMutability": "view",
      "type": "function",
      "constant": true
    },
    {
      "inputs": [
        {
          "internalType": "address",
          "name": "",
          "type": "address"
        }
      ],
      "name": "OnlyOwner",
      "outputs": [
        {
          "internalType": "address",
          "name": "sellerAddress",
          "type": "address"
        },
        {
          "internalType": "uint256",
          "name": "propertyId",
          "type": "uint256"
        },
        {
          "internalType": "string",
          "name": "propertyAddress",
          "type": "string"
        },
        {
          "internalType": "string",
          "name": "city",
          "type": "string"
        },
        {
          "internalType": "uint256",
          "name": "room",
          "type": "uint256"
        },
        {
          "internalType": "string",
          "name": "area",
          "type": "string"
        },
        {
          "internalType": "string",
          "name": "propertyType",
          "type": "string"
        },
        {
          "internalType": "uint256",
          "name": "price",
          "type": "uint256"
        },
        {
          "internalType": "bool",
          "name": "saleStatus",
          "type": "bool"
        }
      ],
      "stateMutability": "view",
      "type": "function",
      "constant": true
    },
    {
      "inputs": [
        {
          "internalType": "uint256",
          "name": "",
          "type": "uint256"
        }
      ],
      "name": "PropertyList",
      "outputs": [
        {
          "internalType": "address",
          "name": "",
          "type": "address"
        }
      ],
      "stateMutability": "view",
      "type": "function",
      "constant": true
    },
    {
      "inputs": [
        {
          "internalType": "address",
          "name": "to",
          "type": "address"
        },
        {
          "internalType": "uint256",
          "name": "tokenId",
          "type": "uint256"
        }
      ],
      "name": "approve",
      "outputs": [],
      "stateMutability": "nonpayable",
      "type": "function"
    },
    {
      "inputs": [
        {
          "internalType": "address",
          "name": "owner",
          "type": "address"
        }
      ],
      "name": "balanceOf",
      "outputs": [
        {
          "internalType": "uint256",
          "name": "",
          "type": "uint256"
        }
      ],
      "stateMutability": "view",
      "type": "function",
      "constant": true
    },
    {
      "inputs": [],
      "name": "baseURI",
      "outputs": [
        {
          "internalType": "string",
          "name": "",
          "type": "string"
        }
      ],
      "stateMutability": "view",
      "type": "function",
      "constant": true
    },
    {
      "inputs": [
        {
          "internalType": "uint256",
          "name": "tokenId",
          "type": "uint256"
        }
      ],
      "name": "getApproved",
      "outputs": [
        {
          "internalType": "address",
          "name": "",
          "type": "address"
        }
      ],
      "stateMutability": "view",
      "type": "function",
      "constant": true
    },
    {
      "inputs": [
        {
          "internalType": "address",
          "name": "owner",
          "type": "address"
        },
        {
          "internalType": "address",
          "name": "operator",
          "type": "address"
        }
      ],
      "name": "isApprovedForAll",
      "outputs": [
        {
          "internalType": "bool",
          "name": "",
          "type": "bool"
        }
      ],
      "stateMutability": "view",
      "type": "function",
      "constant": true
    },
    {
      "inputs": [],
      "name": "name",
      "outputs": [
        {
          "internalType": "string",
          "name": "",
          "type": "string"
        }
      ],
      "stateMutability": "view",
      "type": "function",
      "constant": true
    },
    {
      "inputs": [
        {
          "internalType": "uint256",
          "name": "tokenId",
          "type": "uint256"
        }
      ],
      "name": "ownerOf",
      "outputs": [
        {
          "internalType": "address",
          "name": "",
          "type": "address"
        }
      ],
      "stateMutability": "view",
      "type": "function",
      "constant": true
    },
    {
      "inputs": [
        {
          "internalType": "address",
          "name": "from",
          "type": "address"
        },
        {
          "internalType": "address",
          "name": "to",
          "type": "address"
        },
        {
          "internalType": "uint256",
          "name": "tokenId",
          "type": "uint256"
        }
      ],
      "name": "safeTransferFrom",
      "outputs": [],
      "stateMutability": "nonpayable",
      "type": "function"
    },
    {
      "inputs": [
        {
          "internalType": "address",
          "name": "from",
          "type": "address"
        },
        {
          "internalType": "address",
          "name": "to",
          "type": "address"
        },
        {
          "internalType": "uint256",
          "name": "tokenId",
          "type": "uint256"
        },
        {
          "internalType": "bytes",
          "name": "_data",
          "type": "bytes"
        }
      ],
      "name": "safeTransferFrom",
      "outputs": [],
      "stateMutability": "nonpayable",
      "type": "function"
    },
    {
      "inputs": [
        {
          "internalType": "address",
          "name": "operator",
          "type": "address"
        },
        {
          "internalType": "bool",
          "name": "approved",
          "type": "bool"
        }
      ],
      "name": "setApprovalForAll",
      "outputs": [],
      "stateMutability": "nonpayable",
      "type": "function"
    },
    {
      "inputs": [
        {
          "internalType": "bytes4",
          "name": "interfaceId",
          "type": "bytes4"
        }
      ],
      "name": "supportsInterface",
      "outputs": [
        {
          "internalType": "bool",
          "name": "",
          "type": "bool"
        }
      ],
      "stateMutability": "view",
      "type": "function",
      "constant": true
    },
    {
      "inputs": [],
      "name": "symbol",
      "outputs": [
        {
          "internalType": "string",
          "name": "",
          "type": "string"
        }
      ],
      "stateMutability": "view",
      "type": "function",
      "constant": true
    },
    {
      "inputs": [
        {
          "internalType": "uint256",
          "name": "index",
          "type": "uint256"
        }
      ],
      "name": "tokenByIndex",
      "outputs": [
        {
          "internalType": "uint256",
          "name": "",
          "type": "uint256"
        }
      ],
      "stateMutability": "view",
      "type": "function",
      "constant": true
    },
    {
      "inputs": [
        {
          "internalType": "address",
          "name": "owner",
          "type": "address"
        },
        {
          "internalType": "uint256",
          "name": "index",
          "type": "uint256"
        }
      ],
      "name": "tokenOfOwnerByIndex",
      "outputs": [
        {
          "internalType": "uint256",
          "name": "",
          "type": "uint256"
        }
      ],
      "stateMutability": "view",
      "type": "function",
      "constant": true
    },
    {
      "inputs": [
        {
          "internalType": "uint256",
          "name": "tokenId",
          "type": "uint256"
        }
      ],
      "name": "tokenURI",
      "outputs": [
        {
          "internalType": "string",
          "name": "",
          "type": "string"
        }
      ],
      "stateMutability": "view",
      "type": "function",
      "constant": true
    },
    {
      "inputs": [],
      "name": "totalSupply",
      "outputs": [
        {
          "internalType": "uint256",
          "name": "",
          "type": "uint256"
        }
      ],
      "stateMutability": "view",
      "type": "function",
      "constant": true
    },
    {
      "inputs": [
        {
          "internalType": "address",
          "name": "from",
          "type": "address"
        },
        {
          "internalType": "address",
          "name": "to",
          "type": "address"
        },
        {
          "internalType": "uint256",
          "name": "tokenId",
          "type": "uint256"
        }
      ],
      "name": "transferFrom",
      "outputs": [],
      "stateMutability": "nonpayable",
      "type": "function"
    },
    {
      "inputs": [
        {
          "internalType": "string",
          "name": "_propertyAddress",
          "type": "string"
        },
        {
          "internalType": "string",
          "name": "_city",
          "type": "string"
        },
        {
          "internalType": "uint256",
          "name": "_room",
          "type": "uint256"
        },
        {
          "internalType": "string",
          "name": "_area",
          "type": "string"
        },
        {
          "internalType": "uint256",
          "name": "_priceInEther",
          "type": "uint256"
        },
        {
          "internalType": "string",
          "name": "_propertyType",
          "type": "string"
        },
        {
          "internalType": "bool",
          "name": "_saleStatus",
          "type": "bool"
        },
        {
          "internalType": "string",
          "name": "_tokenUri",
          "type": "string"
        }
      ],
      "name": "RegisterProperty",
      "outputs": [
        {
          "internalType": "bool",
          "name": "",
          "type": "bool"
        }
      ],
      "stateMutability": "nonpayable",
      "type": "function"
    },
    {
      "inputs": [
        {
          "internalType": "uint256",
          "name": "PropertyId_TokenId",
          "type": "uint256"
        }
      ],
      "name": "EnablePropertySale",
      "outputs": [
        {
          "internalType": "bool",
          "name": "",
          "type": "bool"
        }
      ],
      "stateMutability": "nonpayable",
      "type": "function"
    },
    {
      "inputs": [
        {
          "internalType": "uint256",
          "name": "PropertyId_TokenId",
          "type": "uint256"
        }
      ],
      "name": "PropertyPricing",
      "outputs": [
        {
          "internalType": "uint256",
          "name": "",
          "type": "uint256"
        }
      ],
      "stateMutability": "nonpayable",
      "type": "function"
    },
    {
      "inputs": [
        {
          "internalType": "uint256",
          "name": "PropertyId_TokenId",
          "type": "uint256"
        },
        {
          "internalType": "uint256",
          "name": "offerInEthers",
          "type": "uint256"
        }
      ],
      "name": "BuyingRequest",
      "outputs": [
        {
          "internalType": "bool",
          "name": "",
          "type": "bool"
        }
      ],
      "stateMutability": "nonpayable",
      "type": "function"
    },
    {
      "inputs": [
        {
          "internalType": "uint256",
          "name": "PropertyId_TokenId",
          "type": "uint256"
        }
      ],
      "name": "OfferStatus",
      "outputs": [
        {
          "components": [
            {
              "internalType": "uint256",
              "name": "bId",
              "type": "uint256"
            },
            {
              "internalType": "address",
              "name": "buyerAddress",
              "type": "address"
            },
            {
              "internalType": "uint256",
              "name": "buyerOffer",
              "type": "uint256"
            },
            {
              "internalType": "enum SmartEstate.offerApproval",
              "name": "request",
              "type": "uint8"
            }
          ],
          "internalType": "struct SmartEstate.BuyerInfo[]",
          "name": "",
          "type": "tuple[]"
        }
      ],
      "stateMutability": "nonpayable",
      "type": "function"
    },
    {
      "inputs": [
        {
          "internalType": "uint256",
          "name": "PropertyId_TokenId",
          "type": "uint256"
        },
        {
          "internalType": "address",
          "name": "_buyerAddress",
          "type": "address"
        }
      ],
      "name": "OfferReject",
      "outputs": [
        {
          "internalType": "bool",
          "name": "",
          "type": "bool"
        }
      ],
      "stateMutability": "nonpayable",
      "type": "function"
    },
    {
      "inputs": [
        {
          "internalType": "uint256",
          "name": "PropertyId_TokenId",
          "type": "uint256"
        },
        {
          "internalType": "address",
          "name": "_buyerAddress",
          "type": "address"
        }
      ],
      "name": "OfferAccept",
      "outputs": [
        {
          "internalType": "bool",
          "name": "",
          "type": "bool"
        }
      ],
      "stateMutability": "nonpayable",
      "type": "function"
    },
    {
      "inputs": [
        {
          "internalType": "uint256",
          "name": "PropertyId_TokenId",
          "type": "uint256"
        }
      ],
      "name": "BuyProperty",
      "outputs": [
        {
          "internalType": "bool",
          "name": "",
          "type": "bool"
        }
      ],
      "stateMutability": "payable",
      "type": "function",
      "payable": true
    }
  ],
  "bytecode": "0x60806040523480156200001157600080fd5b506040518060400160405280601781526020017f536d617274204573746174652050726f706572746965730000000000000000008152506040518060400160405280600381526020017f4553500000000000000000000000000000000000000000000000000000000000815250620000966301ffc9a760e01b6200011860201b60201c565b8160069080519060200190620000ae929190620001f0565b508060079080519060200190620000c7929190620001f0565b50620000e06380ac58cd60e01b6200011860201b60201c565b620000f8635b5e139f60e01b6200011860201b60201c565b6200011063780e9d6360e01b6200011860201b60201c565b505062000314565b63ffffffff60e01b817bffffffffffffffffffffffffffffffffffffffffffffffffffffffff1916141562000184576040517f08c379a00000000000000000000000000000000000000000000000000000000081526004016200017b90620002e1565b60405180910390fd5b6001600080837bffffffffffffffffffffffffffffffffffffffffffffffffffffffff19167bffffffffffffffffffffffffffffffffffffffffffffffffffffffff1916815260200190815260200160002060006101000a81548160ff02191690831515021790555050565b828054600181600116156101000203166002900490600052602060002090601f016020900481019282601f106200023357805160ff191683800117855562000264565b8280016001018555821562000264579182015b828111156200026357825182559160200191906001019062000246565b5b50905062000273919062000277565b5090565b6200029c91905b80821115620002985760008160009055506001016200027e565b5090565b90565b6000620002ae601c8362000303565b91507f4552433136353a20696e76616c696420696e74657266616365206964000000006000830152602082019050919050565b60006020820190508181036000830152620002fc816200029f565b9050919050565b600082825260208201905092915050565b61542080620003246000396000f3fe6080604052600436106101cd5760003560e01c80634f6ccce7116100f757806385d5785811610095578063c87b56dd11610064578063c87b56dd14610759578063d7c871d414610796578063e985e9c5146107d3578063eeb2fd4b14610810576101cd565b806385d578581461069c57806395d89b41146106dc578063a22cb46514610707578063b88d4fde14610730576101cd565b80636c0360eb116100d15780636c0360eb146105ba57806370a08231146105e5578063822dcd4b1461062257806383deedbb1461065f576101cd565b80634f6ccce7146105035780635a05a506146105405780636352211e1461057d576101cd565b806323b872dd1161016f57806332783c4c1161013e57806332783c4c1461042357806342842e0e1461046057806345482f42146104895780634a1452ab146104c6576101cd565b806323b872dd1461035057806325a59600146103795780632f71513f146103a95780632f745c59146103e6576101cd565b8063095ea7b3116101ab578063095ea7b3146102775780630a86c02a146102a057806318160ddd146102e5578063225cf72e14610310576101cd565b806301ffc9a7146101d257806306fdde031461020f578063081812fc1461023a575b600080fd5b3480156101de57600080fd5b506101f960048036036101f49190810190613deb565b61084d565b6040516102069190614d3f565b60405180910390f35b34801561021b57600080fd5b506102246108b4565b6040516102319190614d5a565b60405180910390f35b34801561024657600080fd5b50610261600480360361025c9190810190613f67565b610956565b60405161026e9190614c0d565b60405180910390f35b34801561028357600080fd5b5061029e60048036036102999190810190613daf565b6109db565b005b3480156102ac57600080fd5b506102c760048036036102c29190810190613c44565b610af3565b6040516102dc99989796959493929190614c74565b60405180910390f35b3480156102f157600080fd5b506102fa610dce565b604051610307919061509c565b60405180910390f35b34801561031c57600080fd5b5061033760048036036103329190810190613fcc565b610ddf565b60405161034794939291906150b7565b60405180910390f35b34801561035c57600080fd5b5061037760048036036103729190810190613ca9565b610e56565b005b610393600480360361038e9190810190613f67565b610eb6565b6040516103a09190614d3f565b60405180910390f35b3480156103b557600080fd5b506103d060048036036103cb9190810190613f90565b611265565b6040516103dd9190614d3f565b60405180910390f35b3480156103f257600080fd5b5061040d60048036036104089190810190613daf565b6114bd565b60405161041a919061509c565b60405180910390f35b34801561042f57600080fd5b5061044a60048036036104459190810190613f67565b611518565b604051610457919061509c565b60405180910390f35b34801561046c57600080fd5b5061048760048036036104829190810190613ca9565b6116af565b005b34801561049557600080fd5b506104b060048036036104ab9190810190613fcc565b6116cf565b6040516104bd9190614d3f565b60405180910390f35b3480156104d257600080fd5b506104ed60048036036104e89190810190613f67565b611a35565b6040516104fa9190614c0d565b60405180910390f35b34801561050f57600080fd5b5061052a60048036036105259190810190613f67565b611a68565b604051610537919061509c565b60405180910390f35b34801561054c57600080fd5b5061056760048036036105629190810190613f67565b611a8b565b6040516105749190614d1d565b60405180910390f35b34801561058957600080fd5b506105a4600480360361059f9190810190613f67565b611cb2565b6040516105b19190614c0d565b60405180910390f35b3480156105c657600080fd5b506105cf611ce9565b6040516105dc9190614d5a565b60405180910390f35b3480156105f157600080fd5b5061060c60048036036106079190810190613c44565b611d8b565b604051610619919061509c565b60405180910390f35b34801561062e57600080fd5b5061064960048036036106449190810190613f67565b611e4a565b6040516106569190614d3f565b60405180910390f35b34801561066b57600080fd5b5061068660048036036106819190810190613e3d565b611ffb565b6040516106939190614d3f565b60405180910390f35b3480156106a857600080fd5b506106c360048036036106be9190810190613c44565b61222e565b6040516106d394939291906150b7565b60405180910390f35b3480156106e857600080fd5b506106f161228b565b6040516106fe9190614d5a565b60405180910390f35b34801561071357600080fd5b5061072e60048036036107299190810190613d73565b61232d565b005b34801561073c57600080fd5b5061075760048036036107529190810190613cf8565b6124ae565b005b34801561076557600080fd5b50610780600480360361077b9190810190613f67565b612510565b60405161078d9190614d5a565b60405180910390f35b3480156107a257600080fd5b506107bd60048036036107b89190810190613f67565b61269b565b6040516107ca9190614d3f565b60405180910390f35b3480156107df57600080fd5b506107fa60048036036107f59190810190613c6d565b6126bb565b6040516108079190614d3f565b60405180910390f35b34801561081c57600080fd5b5061083760048036036108329190810190613f90565b61274f565b6040516108449190614d3f565b60405180910390f35b6000806000837bffffffffffffffffffffffffffffffffffffffffffffffffffffffff19167bffffffffffffffffffffffffffffffffffffffffffffffffffffffff1916815260200190815260200160002060009054906101000a900460ff169050919050565b606060068054600181600116156101000203166002900480601f01602080910402602001604051908101604052809291908181526020018280546001816001161561010002031660029004801561094c5780601f106109215761010080835404028352916020019161094c565b820191906000526020600020905b81548152906001019060200180831161092f57829003601f168201915b5050505050905090565b6000610961826129a7565b6109a0576040517f08c379a000000000000000000000000000000000000000000000000000000000815260040161099790614f7c565b60405180910390fd5b6004600083815260200190815260200160002060009054906101000a900473ffffffffffffffffffffffffffffffffffffffff169050919050565b60006109e682611cb2565b90508073ffffffffffffffffffffffffffffffffffffffff168373ffffffffffffffffffffffffffffffffffffffff161415610a57576040517f08c379a0000000000000000000000000000000000000000000000000000000008152600401610a4e9061501c565b60405180910390fd5b8073ffffffffffffffffffffffffffffffffffffffff16610a766129c4565b73ffffffffffffffffffffffffffffffffffffffff161480610aa55750610aa481610a9f6129c4565b6126bb565b5b610ae4576040517f08c379a0000000000000000000000000000000000000000000000000000000008152600401610adb90614ebc565b60405180910390fd5b610aee83836129cc565b505050565b600c6020528060005260406000206000915090508060000160009054906101000a900473ffffffffffffffffffffffffffffffffffffffff1690806001015490806002018054600181600116156101000203166002900480601f016020809104026020016040519081016040528092919081815260200182805460018160011615610100020316600290048015610bcb5780601f10610ba057610100808354040283529160200191610bcb565b820191906000526020600020905b815481529060010190602001808311610bae57829003601f168201915b505050505090806003018054600181600116156101000203166002900480601f016020809104026020016040519081016040528092919081815260200182805460018160011615610100020316600290048015610c695780601f10610c3e57610100808354040283529160200191610c69565b820191906000526020600020905b815481529060010190602001808311610c4c57829003601f168201915b505050505090806004015490806005018054600181600116156101000203166002900480601f016020809104026020016040519081016040528092919081815260200182805460018160011615610100020316600290048015610d0d5780601f10610ce257610100808354040283529160200191610d0d565b820191906000526020600020905b815481529060010190602001808311610cf057829003601f168201915b505050505090806006018054600181600116156101000203166002900480601f016020809104026020016040519081016040528092919081815260200182805460018160011615610100020316600290048015610dab5780601f10610d8057610100808354040283529160200191610dab565b820191906000526020600020905b815481529060010190602001808311610d8e57829003601f168201915b5050505050908060070154908060080160009054906101000a900460ff16905089565b6000610dda6002612a85565b905090565b600f6020528160005260406000208181548110610df857fe5b9060005260206000209060040201600091509150508060000154908060010160009054906101000a900473ffffffffffffffffffffffffffffffffffffffff16908060020154908060030160009054906101000a900460ff16905084565b610e67610e616129c4565b82612a9a565b610ea6576040517f08c379a0000000000000000000000000000000000000000000000000000000008152600401610e9d9061505c565b60405180910390fd5b610eb1838383612b78565b505050565b6000610ec1826129a7565b610f00576040517f08c379a0000000000000000000000000000000000000000000000000000000008152600401610ef790614ddc565b60405180910390fd5b3373ffffffffffffffffffffffffffffffffffffffff16600e60003373ffffffffffffffffffffffffffffffffffffffff1673ffffffffffffffffffffffffffffffffffffffff16815260200190815260200160002060010160009054906101000a900473ffffffffffffffffffffffffffffffffffffffff1673ffffffffffffffffffffffffffffffffffffffff1614610fd0576040517f08c379a0000000000000000000000000000000000000000000000000000000008152600401610fc790614f3c565b60405180910390fd5b60016002811115610fdd57fe5b600e60003373ffffffffffffffffffffffffffffffffffffffff1673ffffffffffffffffffffffffffffffffffffffff16815260200190815260200160002060030160009054906101000a900460ff16600281111561103857fe5b14611078576040517f08c379a000000000000000000000000000000000000000000000000000000000815260040161106f90614e7c565b60405180910390fd5b600034116110bb576040517f08c379a00000000000000000000000000000000000000000000000000000000081526004016110b290614fdc565b60405180910390fd5b600061111a670de0b6b3a7640000600e60003373ffffffffffffffffffffffffffffffffffffffff1673ffffffffffffffffffffffffffffffffffffffff16815260200190815260200160002060020154612d8f90919063ffffffff16565b905034811461115e576040517f08c379a000000000000000000000000000000000000000000000000000000000815260040161115590614e5c565b60405180910390fd5b6000600c6000600d600087815260200190815260200160002060009054906101000a900473ffffffffffffffffffffffffffffffffffffffff1673ffffffffffffffffffffffffffffffffffffffff1673ffffffffffffffffffffffffffffffffffffffff16815260200190815260200160002060000160009054906101000a900473ffffffffffffffffffffffffffffffffffffffff169050611203813386612b78565b833373ffffffffffffffffffffffffffffffffffffffff168273ffffffffffffffffffffffffffffffffffffffff167fddf252ad1be2c89b69c2b068fc378daa952ba7f163c4a11628f55a4df523b3ef60405160405180910390a45050919050565b60003373ffffffffffffffffffffffffffffffffffffffff16600c60003373ffffffffffffffffffffffffffffffffffffffff1673ffffffffffffffffffffffffffffffffffffffff16815260200190815260200160002060000160009054906101000a900473ffffffffffffffffffffffffffffffffffffffff1673ffffffffffffffffffffffffffffffffffffffff1614611337576040517f08c379a000000000000000000000000000000000000000000000000000000000815260040161132e90614dfc565b60405180910390fd5b611340836129a7565b61137f576040517f08c379a000000000000000000000000000000000000000000000000000000000815260040161137690614ddc565b60405180910390fd5b8173ffffffffffffffffffffffffffffffffffffffff16600e60008473ffffffffffffffffffffffffffffffffffffffff1673ffffffffffffffffffffffffffffffffffffffff16815260200190815260200160002060010160009054906101000a900473ffffffffffffffffffffffffffffffffffffffff1673ffffffffffffffffffffffffffffffffffffffff161461144f576040517f08c379a000000000000000000000000000000000000000000000000000000000815260040161144690614f3c565b60405180910390fd5b6001600e60008473ffffffffffffffffffffffffffffffffffffffff1673ffffffffffffffffffffffffffffffffffffffff16815260200190815260200160002060030160006101000a81548160ff021916908360028111156114ae57fe5b02179055506001905092915050565b600061151082600160008673ffffffffffffffffffffffffffffffffffffffff1673ffffffffffffffffffffffffffffffffffffffff168152602001908152602001600020612dff90919063ffffffff16565b905092915050565b60003373ffffffffffffffffffffffffffffffffffffffff16600c60003373ffffffffffffffffffffffffffffffffffffffff1673ffffffffffffffffffffffffffffffffffffffff16815260200190815260200160002060000160009054906101000a900473ffffffffffffffffffffffffffffffffffffffff1673ffffffffffffffffffffffffffffffffffffffff16146115ea576040517f08c379a00000000000000000000000000000000000000000000000000000000081526004016115e190614dfc565b60405180910390fd5b6115f3826129a7565b611632576040517f08c379a000000000000000000000000000000000000000000000000000000000815260040161162990614ddc565b60405180910390fd5b600c6000600d600085815260200190815260200160002060009054906101000a900473ffffffffffffffffffffffffffffffffffffffff1673ffffffffffffffffffffffffffffffffffffffff1673ffffffffffffffffffffffffffffffffffffffff168152602001908152602001600020600701549050919050565b6116ca838383604051806020016040528060008152506124ae565b505050565b60006116da836129a7565b611719576040517f08c379a000000000000000000000000000000000000000000000000000000000815260040161171090614ddc565b60405180910390fd5b600c6000600d600086815260200190815260200160002060009054906101000a900473ffffffffffffffffffffffffffffffffffffffff1673ffffffffffffffffffffffffffffffffffffffff1673ffffffffffffffffffffffffffffffffffffffff16815260200190815260200160002060080160009054906101000a900460ff166117db576040517f08c379a00000000000000000000000000000000000000000000000000000000081526004016117d29061503c565b60405180910390fd5b600a600081548092919060010191905055506117f5613961565b6040518060800160405280600a5481526020013373ffffffffffffffffffffffffffffffffffffffff1681526020018481526020016000600281111561183757fe5b8152509050600f60008581526020019081526020016000208190806001815401808255809150506001900390600052602060002090600402016000909190919091506000820151816000015560208201518160010160006101000a81548173ffffffffffffffffffffffffffffffffffffffff021916908373ffffffffffffffffffffffffffffffffffffffff1602179055506040820151816002015560608201518160030160006101000a81548160ff021916908360028111156118f857fe5b0217905550505080600e60003373ffffffffffffffffffffffffffffffffffffffff1673ffffffffffffffffffffffffffffffffffffffff1681526020019081526020016000206000820151816000015560208201518160010160006101000a81548173ffffffffffffffffffffffffffffffffffffffff021916908373ffffffffffffffffffffffffffffffffffffffff1602179055506040820151816002015560608201518160030160006101000a81548160ff021916908360028111156119be57fe5b02179055509050506000600e60003373ffffffffffffffffffffffffffffffffffffffff1673ffffffffffffffffffffffffffffffffffffffff16815260200190815260200160002060030160006101000a81548160ff02191690836002811115611a2557fe5b0217905550600191505092915050565b600d6020528060005260406000206000915054906101000a900473ffffffffffffffffffffffffffffffffffffffff1681565b600080611a7f836002612e1990919063ffffffff16565b50905080915050919050565b60603373ffffffffffffffffffffffffffffffffffffffff16600c60003373ffffffffffffffffffffffffffffffffffffffff1673ffffffffffffffffffffffffffffffffffffffff16815260200190815260200160002060000160009054906101000a900473ffffffffffffffffffffffffffffffffffffffff1673ffffffffffffffffffffffffffffffffffffffff1614611b5d576040517f08c379a0000000000000000000000000000000000000000000000000000000008152600401611b5490614dfc565b60405180910390fd5b611b66826129a7565b611ba5576040517f08c379a0000000000000000000000000000000000000000000000000000000008152600401611b9c90614ddc565b60405180910390fd5b6060600f6000848152602001908152602001600020805480602002602001604051908101604052809291908181526020016000905b82821015611ca35783829060005260206000209060040201604051806080016040529081600082015481526020016001820160009054906101000a900473ffffffffffffffffffffffffffffffffffffffff1673ffffffffffffffffffffffffffffffffffffffff1673ffffffffffffffffffffffffffffffffffffffff168152602001600282015481526020016003820160009054906101000a900460ff166002811115611c8557fe5b6002811115611c9057fe5b8152505081526020019060010190611bda565b50505050905080915050919050565b6000611ce2826040518060600160405280602981526020016153c2602991396002612e489092919063ffffffff16565b9050919050565b606060098054600181600116156101000203166002900480601f016020809104026020016040519081016040528092919081815260200182805460018160011615610100020316600290048015611d815780601f10611d5657610100808354040283529160200191611d81565b820191906000526020600020905b815481529060010190602001808311611d6457829003601f168201915b5050505050905090565b60008073ffffffffffffffffffffffffffffffffffffffff168273ffffffffffffffffffffffffffffffffffffffff161415611dfc576040517f08c379a0000000000000000000000000000000000000000000000000000000008152600401611df390614edc565b60405180910390fd5b611e43600160008473ffffffffffffffffffffffffffffffffffffffff1673ffffffffffffffffffffffffffffffffffffffff168152602001908152602001600020612e67565b9050919050565b60003373ffffffffffffffffffffffffffffffffffffffff16600c60003373ffffffffffffffffffffffffffffffffffffffff1673ffffffffffffffffffffffffffffffffffffffff16815260200190815260200160002060000160009054906101000a900473ffffffffffffffffffffffffffffffffffffffff1673ffffffffffffffffffffffffffffffffffffffff1614611f1c576040517f08c379a0000000000000000000000000000000000000000000000000000000008152600401611f1390614dfc565b60405180910390fd5b611f25826129a7565b611f64576040517f08c379a0000000000000000000000000000000000000000000000000000000008152600401611f5b90614ddc565b60405180910390fd5b6001600c6000600d600086815260200190815260200160002060009054906101000a900473ffffffffffffffffffffffffffffffffffffffff1673ffffffffffffffffffffffffffffffffffffffff1673ffffffffffffffffffffffffffffffffffffffff16815260200190815260200160002060080160006101000a81548160ff02191690831515021790555060019050919050565b6000600b600081548092919060010191905055506000600b5490506120203382612e7c565b61202a818461300a565b6120326139aa565b6040518061012001604052803373ffffffffffffffffffffffffffffffffffffffff1681526020018381526020018c81526020018b81526020018a815260200189815260200187815260200188815260200160001515815250905080600c60003373ffffffffffffffffffffffffffffffffffffffff1673ffffffffffffffffffffffffffffffffffffffff16815260200190815260200160002060008201518160000160006101000a81548173ffffffffffffffffffffffffffffffffffffffff021916908373ffffffffffffffffffffffffffffffffffffffff16021790555060208201518160010155604082015181600201908051906020019061213a929190613a0e565b506060820151816003019080519060200190612157929190613a0e565b506080820151816004015560a082015181600501908051906020019061217e929190613a0e565b5060c082015181600601908051906020019061219b929190613a0e565b5060e082015181600701556101008201518160080160006101000a81548160ff02191690831515021790555090505033600d600084815260200190815260200160002060006101000a81548173ffffffffffffffffffffffffffffffffffffffff021916908373ffffffffffffffffffffffffffffffffffffffff16021790555060019250505098975050505050505050565b600e6020528060005260406000206000915090508060000154908060010160009054906101000a900473ffffffffffffffffffffffffffffffffffffffff16908060020154908060030160009054906101000a900460ff16905084565b606060078054600181600116156101000203166002900480601f0160208091040260200160405190810160405280929190818152602001828054600181600116156101000203166002900480156123235780601f106122f857610100808354040283529160200191612323565b820191906000526020600020905b81548152906001019060200180831161230657829003601f168201915b5050505050905090565b6123356129c4565b73ffffffffffffffffffffffffffffffffffffffff168273ffffffffffffffffffffffffffffffffffffffff1614156123a3576040517f08c379a000000000000000000000000000000000000000000000000000000000815260040161239a90614e3c565b60405180910390fd5b80600560006123b06129c4565b73ffffffffffffffffffffffffffffffffffffffff1673ffffffffffffffffffffffffffffffffffffffff16815260200190815260200160002060008473ffffffffffffffffffffffffffffffffffffffff1673ffffffffffffffffffffffffffffffffffffffff16815260200190815260200160002060006101000a81548160ff0219169083151502179055508173ffffffffffffffffffffffffffffffffffffffff1661245d6129c4565b73ffffffffffffffffffffffffffffffffffffffff167f17307eab39ab6107e8899845ad3d59bd9653f200f220920489ca2b5937696c31836040516124a29190614d3f565b60405180910390a35050565b6124bf6124b96129c4565b83612a9a565b6124fe576040517f08c379a00000000000000000000000000000000000000000000000000000000081526004016124f59061505c565b60405180910390fd5b61250a8484848461307e565b50505050565b606061251b826129a7565b61255a576040517f08c379a000000000000000000000000000000000000000000000000000000000815260040161255190614ffc565b60405180910390fd5b6060600860008481526020019081526020016000208054600181600116156101000203166002900480601f0160208091040260200160405190810160405280929190818152602001828054600181600116156101000203166002900480156126035780601f106125d857610100808354040283529160200191612603565b820191906000526020600020905b8154815290600101906020018083116125e657829003601f168201915b505050505090506000600980546001816001161561010002031660029004905014156126325780915050612696565b60008151111561266757600981604051602001612650929190614be9565b604051602081830303815290604052915050612696565b6009612672846130da565b604051602001612683929190614be9565b6040516020818303038152906040529150505b919050565b60106020528060005260406000206000915054906101000a900460ff1681565b6000600560008473ffffffffffffffffffffffffffffffffffffffff1673ffffffffffffffffffffffffffffffffffffffff16815260200190815260200160002060008373ffffffffffffffffffffffffffffffffffffffff1673ffffffffffffffffffffffffffffffffffffffff16815260200190815260200160002060009054906101000a900460ff16905092915050565b60003373ffffffffffffffffffffffffffffffffffffffff16600c60003373ffffffffffffffffffffffffffffffffffffffff1673ffffffffffffffffffffffffffffffffffffffff16815260200190815260200160002060000160009054906101000a900473ffffffffffffffffffffffffffffffffffffffff1673ffffffffffffffffffffffffffffffffffffffff1614612821576040517f08c379a000000000000000000000000000000000000000000000000000000000815260040161281890614dfc565b60405180910390fd5b61282a836129a7565b612869576040517f08c379a000000000000000000000000000000000000000000000000000000000815260040161286090614ddc565b60405180910390fd5b8173ffffffffffffffffffffffffffffffffffffffff16600e60008473ffffffffffffffffffffffffffffffffffffffff1673ffffffffffffffffffffffffffffffffffffffff16815260200190815260200160002060010160009054906101000a900473ffffffffffffffffffffffffffffffffffffffff1673ffffffffffffffffffffffffffffffffffffffff1614612939576040517f08c379a000000000000000000000000000000000000000000000000000000000815260040161293090614f3c565b60405180910390fd5b6002600e60008473ffffffffffffffffffffffffffffffffffffffff1673ffffffffffffffffffffffffffffffffffffffff16815260200190815260200160002060030160006101000a81548160ff0219169083600281111561299857fe5b02179055506001905092915050565b60006129bd82600261320a90919063ffffffff16565b9050919050565b600033905090565b816004600083815260200190815260200160002060006101000a81548173ffffffffffffffffffffffffffffffffffffffff021916908373ffffffffffffffffffffffffffffffffffffffff160217905550808273ffffffffffffffffffffffffffffffffffffffff16612a3f83611cb2565b73ffffffffffffffffffffffffffffffffffffffff167f8c5be1e5ebec7d5bd14f71427d1e84f3dd0314c0f7b2291e5b200ac8c7c3b92560405160405180910390a45050565b6000612a9382600001613224565b9050919050565b6000612aa5826129a7565b612ae4576040517f08c379a0000000000000000000000000000000000000000000000000000000008152600401612adb90614e9c565b60405180910390fd5b6000612aef83611cb2565b90508073ffffffffffffffffffffffffffffffffffffffff168473ffffffffffffffffffffffffffffffffffffffff161480612b5e57508373ffffffffffffffffffffffffffffffffffffffff16612b4684610956565b73ffffffffffffffffffffffffffffffffffffffff16145b80612b6f5750612b6e81856126bb565b5b91505092915050565b8273ffffffffffffffffffffffffffffffffffffffff16612b9882611cb2565b73ffffffffffffffffffffffffffffffffffffffff1614612bee576040517f08c379a0000000000000000000000000000000000000000000000000000000008152600401612be590614fbc565b60405180910390fd5b600073ffffffffffffffffffffffffffffffffffffffff168273ffffffffffffffffffffffffffffffffffffffff161415612c5e576040517f08c379a0000000000000000000000000000000000000000000000000000000008152600401612c5590614e1c565b60405180910390fd5b612c69838383613235565b612c746000826129cc565b612cc581600160008673ffffffffffffffffffffffffffffffffffffffff1673ffffffffffffffffffffffffffffffffffffffff16815260200190815260200160002061323a90919063ffffffff16565b50612d1781600160008573ffffffffffffffffffffffffffffffffffffffff1673ffffffffffffffffffffffffffffffffffffffff16815260200190815260200160002061325490919063ffffffff16565b50612d2e8183600261326e9092919063ffffffff16565b50808273ffffffffffffffffffffffffffffffffffffffff168473ffffffffffffffffffffffffffffffffffffffff167fddf252ad1be2c89b69c2b068fc378daa952ba7f163c4a11628f55a4df523b3ef60405160405180910390a4505050565b600080831415612da25760009050612df9565b6000828402905082848281612db357fe5b0414612df4576040517f08c379a0000000000000000000000000000000000000000000000000000000008152600401612deb90614f5c565b60405180910390fd5b809150505b92915050565b6000612e0e83600001836132a3565b60001c905092915050565b600080600080612e2c8660000186613310565b915091508160001c8160001c8090509350935050509250929050565b6000612e5b846000018460001b84613393565b60001c90509392505050565b6000612e7582600001613424565b9050919050565b600073ffffffffffffffffffffffffffffffffffffffff168273ffffffffffffffffffffffffffffffffffffffff161415612eec576040517f08c379a0000000000000000000000000000000000000000000000000000000008152600401612ee390614f1c565b60405180910390fd5b612ef5816129a7565b15612f35576040517f08c379a0000000000000000000000000000000000000000000000000000000008152600401612f2c90614dbc565b60405180910390fd5b612f4160008383613235565b612f9281600160008573ffffffffffffffffffffffffffffffffffffffff1673ffffffffffffffffffffffffffffffffffffffff16815260200190815260200160002061325490919063ffffffff16565b50612fa98183600261326e9092919063ffffffff16565b50808273ffffffffffffffffffffffffffffffffffffffff16600073ffffffffffffffffffffffffffffffffffffffff167fddf252ad1be2c89b69c2b068fc378daa952ba7f163c4a11628f55a4df523b3ef60405160405180910390a45050565b613013826129a7565b613052576040517f08c379a000000000000000000000000000000000000000000000000000000000815260040161304990614f9c565b60405180910390fd5b80600860008481526020019081526020016000209080519060200190613079929190613a8e565b505050565b613089848484612b78565b61309584848484613435565b6130d4576040517f08c379a00000000000000000000000000000000000000000000000000000000081526004016130cb90614d9c565b60405180910390fd5b50505050565b60606000821415613122576040518060400160405280600181526020017f30000000000000000000000000000000000000000000000000000000000000008152509050613205565b600082905060005b6000821461314c578080600101915050600a828161314457fe5b04915061312a565b6060816040519080825280601f01601f1916602001820160405280156131815781602001600182028038833980820191505090505b50905060006001830390508593505b600084146131fd57600a84816131a257fe5b0660300160f81b828280600190039350815181106131bc57fe5b60200101907effffffffffffffffffffffffffffffffffffffffffffffffffffffffffffff1916908160001a905350600a84816131f557fe5b049350613190565b819450505050505b919050565b600061321c836000018360001b613599565b905092915050565b600081600001805490509050919050565b505050565b600061324c836000018360001b6135bc565b905092915050565b6000613266836000018360001b6136a4565b905092915050565b600061329a846000018460001b8473ffffffffffffffffffffffffffffffffffffffff1660001b613714565b90509392505050565b6000818360000180549050116132ee576040517f08c379a00000000000000000000000000000000000000000000000000000000081526004016132e590614d7c565b60405180910390fd5b8260000182815481106132fd57fe5b9060005260206000200154905092915050565b6000808284600001805490501161335c576040517f08c379a000000000000000000000000000000000000000000000000000000000815260040161335390614efc565b60405180910390fd5b600084600001848154811061336d57fe5b906000526020600020906002020190508060000154816001015492509250509250929050565b600080846001016000858152602001908152602001600020549050600081141583906133f5576040517f08c379a00000000000000000000000000000000000000000000000000000000081526004016133ec9190614d5a565b60405180910390fd5b5084600001600182038154811061340857fe5b9060005260206000209060020201600101549150509392505050565b600081600001805490509050919050565b60006134568473ffffffffffffffffffffffffffffffffffffffff166137f0565b6134635760019050613591565b606061352a63150b7a0260e01b6134786129c4565b88878760405160240161348e9493929190614c28565b604051602081830303815290604052907bffffffffffffffffffffffffffffffffffffffffffffffffffffffff19166020820180517bffffffffffffffffffffffffffffffffffffffffffffffffffffffff8381831617835250505050604051806060016040528060328152602001615390603291398773ffffffffffffffffffffffffffffffffffffffff166138039092919063ffffffff16565b90506000818060200190516135429190810190613e14565b905063150b7a0260e01b7bffffffffffffffffffffffffffffffffffffffffffffffffffffffff1916817bffffffffffffffffffffffffffffffffffffffffffffffffffffffff191614925050505b949350505050565b600080836001016000848152602001908152602001600020541415905092915050565b60008083600101600084815260200190815260200160002054905060008114613698576000600182039050600060018660000180549050039050600086600001828154811061360757fe5b906000526020600020015490508087600001848154811061362457fe5b906000526020600020018190555060018301876001016000838152602001908152602001600020819055508660000180548061365c57fe5b6001900381819060005260206000200160009055905586600101600087815260200190815260200160002060009055600194505050505061369e565b60009150505b92915050565b60006136b0838361381b565b61370957826000018290806001815401808255809150506001900390600052602060002001600090919091909150558260000180549050836001016000848152602001908152602001600020819055506001905061370e565b600090505b92915050565b60008084600101600085815260200190815260200160002054905060008114156137bb578460000160405180604001604052808681526020018581525090806001815401808255809150506001900390600052602060002090600202016000909190919091506000820151816000015560208201518160010155505084600001805490508560010160008681526020019081526020016000208190555060019150506137e9565b828560000160018303815481106137ce57fe5b90600052602060002090600202016001018190555060009150505b9392505050565b600080823b905060008111915050919050565b6060613812848460008561383e565b90509392505050565b600080836001016000848152602001908152602001600020541415905092915050565b6060613849856137f0565b613888576040517f08c379a000000000000000000000000000000000000000000000000000000000815260040161387f9061507c565b60405180910390fd5b600060608673ffffffffffffffffffffffffffffffffffffffff1685876040516138b29190614bd2565b60006040518083038185875af1925050503d80600081146138ef576040519150601f19603f3d011682016040523d82523d6000602084013e6138f4565b606091505b50915091508115613909578092505050613959565b60008151111561391c5780518082602001fd5b836040517f08c379a00000000000000000000000000000000000000000000000000000000081526004016139509190614d5a565b60405180910390fd5b949350505050565b604051806080016040528060008152602001600073ffffffffffffffffffffffffffffffffffffffff16815260200160008152602001600060028111156139a457fe5b81525090565b604051806101200160405280600073ffffffffffffffffffffffffffffffffffffffff168152602001600081526020016060815260200160608152602001600081526020016060815260200160608152602001600081526020016000151581525090565b828054600181600116156101000203166002900490600052602060002090601f016020900481019282601f10613a4f57805160ff1916838001178555613a7d565b82800160010185558215613a7d579182015b82811115613a7c578251825591602001919060010190613a61565b5b509050613a8a9190613b0e565b5090565b828054600181600116156101000203166002900490600052602060002090601f016020900481019282601f10613acf57805160ff1916838001178555613afd565b82800160010185558215613afd579182015b82811115613afc578251825591602001919060010190613ae1565b5b509050613b0a9190613b0e565b5090565b613b3091905b80821115613b2c576000816000905550600101613b14565b5090565b90565b600081359050613b4281615333565b92915050565b600081359050613b578161534a565b92915050565b600081359050613b6c81615361565b92915050565b600081519050613b8181615361565b92915050565b600082601f830112613b9857600080fd5b8135613bab613ba682615129565b6150fc565b91508082526020830160208301858383011115613bc757600080fd5b613bd28382846152d3565b50505092915050565b600082601f830112613bec57600080fd5b8135613bff613bfa82615155565b6150fc565b91508082526020830160208301858383011115613c1b57600080fd5b613c268382846152d3565b50505092915050565b600081359050613c3e81615378565b92915050565b600060208284031215613c5657600080fd5b6000613c6484828501613b33565b91505092915050565b60008060408385031215613c8057600080fd5b6000613c8e85828601613b33565b9250506020613c9f85828601613b33565b9150509250929050565b600080600060608486031215613cbe57600080fd5b6000613ccc86828701613b33565b9350506020613cdd86828701613b33565b9250506040613cee86828701613c2f565b9150509250925092565b60008060008060808587031215613d0e57600080fd5b6000613d1c87828801613b33565b9450506020613d2d87828801613b33565b9350506040613d3e87828801613c2f565b925050606085013567ffffffffffffffff811115613d5b57600080fd5b613d6787828801613b87565b91505092959194509250565b60008060408385031215613d8657600080fd5b6000613d9485828601613b33565b9250506020613da585828601613b48565b9150509250929050565b60008060408385031215613dc257600080fd5b6000613dd085828601613b33565b9250506020613de185828601613c2f565b9150509250929050565b600060208284031215613dfd57600080fd5b6000613e0b84828501613b5d565b91505092915050565b600060208284031215613e2657600080fd5b6000613e3484828501613b72565b91505092915050565b600080600080600080600080610100898b031215613e5a57600080fd5b600089013567ffffffffffffffff811115613e7457600080fd5b613e808b828c01613bdb565b985050602089013567ffffffffffffffff811115613e9d57600080fd5b613ea98b828c01613bdb565b9750506040613eba8b828c01613c2f565b965050606089013567ffffffffffffffff811115613ed757600080fd5b613ee38b828c01613bdb565b9550506080613ef48b828c01613c2f565b94505060a089013567ffffffffffffffff811115613f1157600080fd5b613f1d8b828c01613bdb565b93505060c0613f2e8b828c01613b48565b92505060e089013567ffffffffffffffff811115613f4b57600080fd5b613f578b828c01613bdb565b9150509295985092959890939650565b600060208284031215613f7957600080fd5b6000613f8784828501613c2f565b91505092915050565b60008060408385031215613fa357600080fd5b6000613fb185828601613c2f565b9250506020613fc285828601613b33565b9150509250929050565b60008060408385031215613fdf57600080fd5b6000613fed85828601613c2f565b9250506020613ffe85828601613c2f565b9150509250929050565b60006140148383614b5f565b60808301905092915050565b6140298161523a565b82525050565b61403881615228565b82525050565b61404781615228565b82525050565b6000614058826151a6565b61406281856151df565b935061406d83615181565b8060005b8381101561409e5781516140858882614008565b9750614090836151d2565b925050600181019050614071565b5085935050505092915050565b6140b48161524c565b82525050565b60006140c5826151b1565b6140cf81856151f0565b93506140df8185602086016152e2565b6140e881615315565b840191505092915050565b60006140fe826151b1565b6141088185615201565b93506141188185602086016152e2565b80840191505092915050565b61412d816152c1565b82525050565b61413c816152c1565b82525050565b600061414d826151c7565b614157818561520c565b93506141678185602086016152e2565b61417081615315565b840191505092915050565b6000614186826151c7565b614190818561521d565b93506141a08185602086016152e2565b80840191505092915050565b60006141b7826151bc565b6141c1818561520c565b93506141d18185602086016152e2565b6141da81615315565b840191505092915050565b60008154600181166000811461420257600181146142275761426b565b607f6002830416614213818761521d565b955060ff198316865280860193505061426b565b60028204614235818761521d565b955061424085615191565b60005b8281101561426257815481890152600182019150602081019050614243565b82880195505050505b505092915050565b600061428060228361520c565b91507f456e756d657261626c655365743a20696e646578206f7574206f6620626f756e60008301527f64730000000000000000000000000000000000000000000000000000000000006020830152604082019050919050565b60006142e660328361520c565b91507f4552433732313a207472616e7366657220746f206e6f6e20455243373231526560008301527f63656976657220696d706c656d656e74657200000000000000000000000000006020830152604082019050919050565b600061434c601c8361520c565b91507f4552433732313a20746f6b656e20616c7265616479206d696e746564000000006000830152602082019050919050565b600061438c60268361520c565b91507f4572726f723a20494e56414c49442050726f7065727479206964206f7220746f60008301527f6b656e20696400000000000000000000000000000000000000000000000000006020830152604082019050919050565b60006143f260238361520c565b91507f4572726f723a204f6e6c792050726f7065727479204f776e65722072756e207460008301527f68697300000000000000000000000000000000000000000000000000000000006020830152604082019050919050565b600061445860248361520c565b91507f4552433732313a207472616e7366657220746f20746865207a65726f2061646460008301527f72657373000000000000000000000000000000000000000000000000000000006020830152604082019050919050565b60006144be60198361520c565b91507f4552433732313a20617070726f766520746f2063616c6c6572000000000000006000830152602082019050919050565b60006144fe60388361520c565b91507f4572726f723a20536f7272792c2050726963696e67206f662070726f7065727460008301527f79206e6f74206d6174636865642077697468206f6666657200000000000000006020830152604082019050919050565b6000614564603e8361520c565b91507f4572726f723a20546869732050726f7065727479206e6f7420666f722073616c60008301527f6520284f666665722072657175657374206e6f7420617070726f7665642900006020830152604082019050919050565b60006145ca602c8361520c565b91507f4552433732313a206f70657261746f7220717565727920666f72206e6f6e657860008301527f697374656e7420746f6b656e00000000000000000000000000000000000000006020830152604082019050919050565b600061463060388361520c565b91507f4552433732313a20617070726f76652063616c6c6572206973206e6f74206f7760008301527f6e6572206e6f7220617070726f76656420666f7220616c6c00000000000000006020830152604082019050919050565b6000614696602a8361520c565b91507f4552433732313a2062616c616e636520717565727920666f7220746865207a6560008301527f726f2061646472657373000000000000000000000000000000000000000000006020830152604082019050919050565b60006146fc60228361520c565b91507f456e756d657261626c654d61703a20696e646578206f7574206f6620626f756e60008301527f64730000000000000000000000000000000000000000000000000000000000006020830152604082019050919050565b600061476260208361520c565b91507f4552433732313a206d696e7420746f20746865207a65726f20616464726573736000830152602082019050919050565b60006147a2601d8361520c565b91507f4572726f723a20494e56414c49442062757965722061646472657373200000006000830152602082019050919050565b60006147e260218361520c565b91507f536166654d6174683a206d756c7469706c69636174696f6e206f766572666c6f60008301527f77000000000000000000000000000000000000000000000000000000000000006020830152604082019050919050565b6000614848602c8361520c565b91507f4552433732313a20617070726f76656420717565727920666f72206e6f6e657860008301527f697374656e7420746f6b656e00000000000000000000000000000000000000006020830152604082019050919050565b60006148ae602c8361520c565b91507f4552433732314d657461646174613a2055524920736574206f66206e6f6e657860008301527f697374656e7420746f6b656e00000000000000000000000000000000000000006020830152604082019050919050565b600061491460298361520c565b91507f4552433732313a207472616e73666572206f6620746f6b656e2074686174206960008301527f73206e6f74206f776e00000000000000000000000000000000000000000000006020830152604082019050919050565b600061497a601d8361520c565b91507f4572726f723a204574686572287329206e6f742070726f7669646564200000006000830152602082019050919050565b60006149ba602f8361520c565b91507f4552433732314d657461646174613a2055524920717565727920666f72206e6f60008301527f6e6578697374656e7420746f6b656e00000000000000000000000000000000006020830152604082019050919050565b6000614a2060218361520c565b91507f4552433732313a20617070726f76616c20746f2063757272656e74206f776e6560008301527f72000000000000000000000000000000000000000000000000000000000000006020830152604082019050919050565b6000614a86601f8361520c565b91507f4572726f723a546869732050726f7065727479206e6f74206f6e2053616c65006000830152602082019050919050565b6000614ac660318361520c565b91507f4552433732313a207472616e736665722063616c6c6572206973206e6f74206f60008301527f776e6572206e6f7220617070726f7665640000000000000000000000000000006020830152604082019050919050565b6000614b2c601d8361520c565b91507f416464726573733a2063616c6c20746f206e6f6e2d636f6e74726163740000006000830152602082019050919050565b608082016000820151614b756000850182614bb4565b506020820151614b88602085018261402f565b506040820151614b9b6040850182614bb4565b506060820151614bae6060850182614124565b50505050565b614bbd816152b7565b82525050565b614bcc816152b7565b82525050565b6000614bde82846140f3565b915081905092915050565b6000614bf582856141e5565b9150614c01828461417b565b91508190509392505050565b6000602082019050614c22600083018461403e565b92915050565b6000608082019050614c3d6000830187614020565b614c4a602083018661403e565b614c576040830185614bc3565b8181036060830152614c6981846140ba565b905095945050505050565b600061012082019050614c8a600083018c61403e565b614c97602083018b614bc3565b8181036040830152614ca9818a6141ac565b90508181036060830152614cbd81896141ac565b9050614ccc6080830188614bc3565b81810360a0830152614cde81876141ac565b905081810360c0830152614cf281866141ac565b9050614d0160e0830185614bc3565b614d0f6101008301846140ab565b9a9950505050505050505050565b60006020820190508181036000830152614d37818461404d565b905092915050565b6000602082019050614d5460008301846140ab565b92915050565b60006020820190508181036000830152614d748184614142565b905092915050565b60006020820190508181036000830152614d9581614273565b9050919050565b60006020820190508181036000830152614db5816142d9565b9050919050565b60006020820190508181036000830152614dd58161433f565b9050919050565b60006020820190508181036000830152614df58161437f565b9050919050565b60006020820190508181036000830152614e15816143e5565b9050919050565b60006020820190508181036000830152614e358161444b565b9050919050565b60006020820190508181036000830152614e55816144b1565b9050919050565b60006020820190508181036000830152614e75816144f1565b9050919050565b60006020820190508181036000830152614e9581614557565b9050919050565b60006020820190508181036000830152614eb5816145bd565b9050919050565b60006020820190508181036000830152614ed581614623565b9050919050565b60006020820190508181036000830152614ef581614689565b9050919050565b60006020820190508181036000830152614f15816146ef565b9050919050565b60006020820190508181036000830152614f3581614755565b9050919050565b60006020820190508181036000830152614f5581614795565b9050919050565b60006020820190508181036000830152614f75816147d5565b9050919050565b60006020820190508181036000830152614f958161483b565b9050919050565b60006020820190508181036000830152614fb5816148a1565b9050919050565b60006020820190508181036000830152614fd581614907565b9050919050565b60006020820190508181036000830152614ff58161496d565b9050919050565b60006020820190508181036000830152615015816149ad565b9050919050565b6000602082019050818103600083015261503581614a13565b9050919050565b6000602082019050818103600083015261505581614a79565b9050919050565b6000602082019050818103600083015261507581614ab9565b9050919050565b6000602082019050818103600083015261509581614b1f565b9050919050565b60006020820190506150b16000830184614bc3565b92915050565b60006080820190506150cc6000830187614bc3565b6150d9602083018661403e565b6150e66040830185614bc3565b6150f36060830184614133565b95945050505050565b6000604051905081810181811067ffffffffffffffff8211171561511f57600080fd5b8060405250919050565b600067ffffffffffffffff82111561514057600080fd5b601f19601f8301169050602081019050919050565b600067ffffffffffffffff82111561516c57600080fd5b601f19601f8301169050602081019050919050565b6000819050602082019050919050565b60008190508160005260206000209050919050565b600081519050919050565b600081519050919050565b600081519050919050565b600081519050919050565b6000602082019050919050565b600082825260208201905092915050565b600082825260208201905092915050565b600081905092915050565b600082825260208201905092915050565b600081905092915050565b600061523382615297565b9050919050565b600061524582615297565b9050919050565b60008115159050919050565b60007fffffffff0000000000000000000000000000000000000000000000000000000082169050919050565b600081905061529282615326565b919050565b600073ffffffffffffffffffffffffffffffffffffffff82169050919050565b6000819050919050565b60006152cc82615284565b9050919050565b82818337600083830152505050565b60005b838110156153005780820151818401526020810190506152e5565b8381111561530f576000848401525b50505050565b6000601f19601f8301169050919050565b6003811061533057fe5b50565b61533c81615228565b811461534757600080fd5b50565b6153538161524c565b811461535e57600080fd5b50565b61536a81615258565b811461537557600080fd5b50565b615381816152b7565b811461538c57600080fd5b5056fe4552433732313a207472616e7366657220746f206e6f6e20455243373231526563656976657220696d706c656d656e7465724552433732313a206f776e657220717565727920666f72206e6f6e6578697374656e7420746f6b656ea2646970667358221220931bee9e540cd1ed96f4793bae1b3c30079c4fc8a18bb405a739a8ac69c5415564736f6c63430006020033",
  "source": "pragma solidity ^0.6.0;\r\npragma experimental ABIEncoderV2;\r\n//smart-estate\\node_modules\\@openzeppelin\\contracts\\token\\ERC721\\ERC721.sol\r\n\r\nimport \"@openzeppelin/contracts/token/ERC721/ERC721.sol\";\r\n\r\ncontract SmartEstate is ERC721 {\r\n    uint256 private buyerId;\r\n    uint256 private tokenId;\r\n\r\n    enum offerApproval {pending, approved, rejected}\r\n\r\n    struct PropertyDetails {\r\n        address sellerAddress;\r\n        uint256 propertyId;\r\n        string propertyAddress;\r\n        string city;\r\n        uint256 room;\r\n        string area;\r\n        string propertyType;\r\n        uint256 price;\r\n        bool saleStatus;\r\n    }\r\n\r\n    struct BuyerInfo {\r\n        uint256 bId;\r\n        address buyerAddress;\r\n        uint256 buyerOffer;\r\n        offerApproval request;\r\n    }\r\n\r\n    modifier propertyOwner() {\r\n        require(\r\n            OnlyOwner[msg.sender].sellerAddress == msg.sender,\r\n            \"Error: Only Property Owner run this\"\r\n        );\r\n        _;\r\n    }\r\n\r\n    mapping(address => PropertyDetails) public OnlyOwner;\r\n    mapping(uint256 => address) public PropertyList;\r\n    mapping(address => BuyerInfo) public BuyerList;\r\n    mapping(uint256 => BuyerInfo[]) public AllBuyers;\r\n    mapping(uint256 => bool) public Offers;\r\n\r\n    constructor() public ERC721(\"Smart Estate Properties\", \"ESP\") {}\r\n\r\n    function RegisterProperty(\r\n        string memory _propertyAddress,\r\n        string memory _city,\r\n        uint256 _room,\r\n        string memory _area,\r\n        uint256 _priceInEther,\r\n        string memory _propertyType,\r\n        bool _saleStatus,\r\n        string memory _tokenUri\r\n    ) public returns (bool) {\r\n        tokenId++;\r\n        uint256 thisId = tokenId;\r\n        _mint(msg.sender, thisId);\r\n        _setTokenURI(thisId, _tokenUri);\r\n\r\n        PropertyDetails memory tempDetails;\r\n\r\n        tempDetails = PropertyDetails({\r\n            sellerAddress: msg.sender,\r\n            propertyId: thisId,\r\n            propertyAddress: _propertyAddress,\r\n            city: _city,\r\n            room: _room,\r\n            area: _area,\r\n            propertyType: _propertyType,\r\n            price: _priceInEther,\r\n            saleStatus: false\r\n        });\r\n        OnlyOwner[msg.sender] = tempDetails;\r\n        PropertyList[thisId] = msg.sender;\r\n        return true;\r\n    }\r\n\r\n    function EnablePropertySale(uint256 PropertyId_TokenId)\r\n        public\r\n        propertyOwner\r\n        returns (bool)\r\n    {\r\n        require(\r\n            _exists(PropertyId_TokenId),\r\n            \"Error: INVALID Property id or token id\"\r\n        );\r\n        OnlyOwner[PropertyList[PropertyId_TokenId]].saleStatus = true;\r\n        return true;\r\n    }\r\n\r\n    function PropertyPricing(uint256 PropertyId_TokenId)\r\n        public\r\n        propertyOwner\r\n        returns (uint256)\r\n    {\r\n        require(\r\n            _exists(PropertyId_TokenId),\r\n            \"Error: INVALID Property id or token id\"\r\n        );\r\n        return OnlyOwner[PropertyList[PropertyId_TokenId]].price;\r\n    }\r\n\r\n    function BuyingRequest(uint256 PropertyId_TokenId, uint256 offerInEthers)\r\n        public\r\n        returns (bool)\r\n    {\r\n        require(\r\n            _exists(PropertyId_TokenId),\r\n            \"Error: INVALID Property id or token id\"\r\n        );\r\n        require(\r\n            OnlyOwner[PropertyList[PropertyId_TokenId]].saleStatus,\r\n            \"Error:This Property not on Sale\"\r\n        );\r\n\r\n        buyerId++;\r\n\r\n        BuyerInfo memory tempDetails;\r\n        tempDetails = BuyerInfo({\r\n            bId: buyerId,\r\n            buyerAddress: msg.sender,\r\n            buyerOffer: offerInEthers,\r\n            request: offerApproval.pending\r\n        });\r\n        AllBuyers[PropertyId_TokenId].push(tempDetails);\r\n        BuyerList[msg.sender] = tempDetails;\r\n        BuyerList[msg.sender].request = offerApproval.pending;\r\n\r\n        return true;\r\n    }\r\n\r\n    function OfferStatus(uint256 PropertyId_TokenId)\r\n        public\r\n        propertyOwner\r\n        returns (BuyerInfo[] memory)\r\n    {\r\n        require(\r\n            _exists(PropertyId_TokenId),\r\n            \"Error: INVALID Property id or token id\"\r\n        );\r\n        BuyerInfo[] memory tempDetails;\r\n        tempDetails = AllBuyers[PropertyId_TokenId];\r\n        return tempDetails;\r\n    }\r\n\r\n    function OfferReject(uint256 PropertyId_TokenId, address _buyerAddress)\r\n        public\r\n        propertyOwner\r\n        returns (bool)\r\n    {\r\n        require(\r\n            _exists(PropertyId_TokenId),\r\n            \"Error: INVALID Property id or token id\"\r\n        );\r\n        require(\r\n            BuyerList[_buyerAddress].buyerAddress == _buyerAddress,\r\n            \"Error: INVALID buyer address \"\r\n        );\r\n        BuyerList[_buyerAddress].request = offerApproval.rejected;\r\n        return true;\r\n    }\r\n\r\n    function OfferAccept(uint256 PropertyId_TokenId, address _buyerAddress)\r\n        public\r\n        propertyOwner\r\n        returns (bool)\r\n    {\r\n        require(\r\n            _exists(PropertyId_TokenId),\r\n            \"Error: INVALID Property id or token id\"\r\n        );\r\n        require(\r\n            BuyerList[_buyerAddress].buyerAddress == _buyerAddress,\r\n            \"Error: INVALID buyer address \"\r\n        );\r\n        BuyerList[_buyerAddress].request = offerApproval.approved;\r\n        return true;\r\n    }\r\n\r\n    function BuyProperty(uint256 PropertyId_TokenId)\r\n        public\r\n        payable\r\n        returns (bool)\r\n    {\r\n        require(\r\n            _exists(PropertyId_TokenId),\r\n            \"Error: INVALID Property id or token id\"\r\n        );\r\n        require(\r\n            BuyerList[msg.sender].buyerAddress == msg.sender,\r\n            \"Error: INVALID buyer address \"\r\n        );\r\n        require(\r\n            BuyerList[msg.sender].request == offerApproval.approved,\r\n            \"Error: This Property not for sale (Offer request not approved)\"\r\n        );\r\n        require(msg.value > 0, \"Error: Ether(s) not provided \");\r\n        uint256 PropertyPrice = BuyerList[msg.sender].buyerOffer.mul(\r\n            1 * 10**18\r\n        );\r\n        require(\r\n            PropertyPrice == msg.value,\r\n            \"Error: Sorry, Pricing of property not matched with offer\"\r\n        );\r\n        address BuyerAddress = OnlyOwner[PropertyList[PropertyId_TokenId]]\r\n            .sellerAddress;\r\n        _transfer(BuyerAddress, msg.sender, PropertyId_TokenId);\r\n        emit Transfer(BuyerAddress, msg.sender, PropertyId_TokenId);\r\n    }\r\n}\r\n",
  "sourcePath": "D:/smart-estate/smart-estate/src/contracts/SmartEstate.sol",
  "compiler": {
    "name": "solc",
    "version": "0.6.2+commit.bacdbe57.Emscripten.clang"
  },
  "schemaVersion": "3.2.5",
  "updatedAt": "2020-10-22T21:24:50.191Z",
  "networkType": "ethereum",
  "devdoc": {
    "methods": {
      "approve(address,uint256)": {
        "details": "See {IERC721-approve}."
      },
      "balanceOf(address)": {
        "details": "See {IERC721-balanceOf}."
      },
      "baseURI()": {
        "details": "Returns the base URI set via {_setBaseURI}. This will be automatically added as a prefix in {tokenURI} to each token's URI, or to the token ID if no specific URI is set for that token ID."
      },
      "getApproved(uint256)": {
        "details": "See {IERC721-getApproved}."
      },
      "isApprovedForAll(address,address)": {
        "details": "See {IERC721-isApprovedForAll}."
      },
      "name()": {
        "details": "See {IERC721Metadata-name}."
      },
      "ownerOf(uint256)": {
        "details": "See {IERC721-ownerOf}."
      },
      "safeTransferFrom(address,address,uint256)": {
        "details": "See {IERC721-safeTransferFrom}."
      },
      "safeTransferFrom(address,address,uint256,bytes)": {
        "details": "See {IERC721-safeTransferFrom}."
      },
      "setApprovalForAll(address,bool)": {
        "details": "See {IERC721-setApprovalForAll}."
      },
      "supportsInterface(bytes4)": {
        "details": "See {IERC165-supportsInterface}.     * Time complexity O(1), guaranteed to always use less than 30 000 gas."
      },
      "symbol()": {
        "details": "See {IERC721Metadata-symbol}."
      },
      "tokenByIndex(uint256)": {
        "details": "See {IERC721Enumerable-tokenByIndex}."
      },
      "tokenOfOwnerByIndex(address,uint256)": {
        "details": "See {IERC721Enumerable-tokenOfOwnerByIndex}."
      },
      "tokenURI(uint256)": {
        "details": "See {IERC721Metadata-tokenURI}."
      },
      "totalSupply()": {
        "details": "See {IERC721Enumerable-totalSupply}."
      },
      "transferFrom(address,address,uint256)": {
        "details": "See {IERC721-transferFrom}."
      }
    }
  },
  "userdoc": {
    "methods": {}
  }
}